:100000000C94A3010C94D4010C94D4010C94D4014D
:100010000C94D4010C94D4010C94D4010C94D4010C
:100020000C94D4010C94D4010C94D4010C94D401FC
:100030000C94D4010C94D4010C94D4010C94D401EC
:100040000C94D4010C94D4010C94D4010C94D401DC
:100050000C94D4010C94D4010C94D4010C946E0A29
:100060000C94D4010C94E20A0C94B80A0C94D401B8
:100070000C94D4010C94D4010C94D4010C94D401AC
:100080000C94D4010C94D4010C94D4010C94D4019C
:100090000C94D4010C94D4010C94D4010C94180B3E
:1000A0000C94D4010C94D4010C94D4010C94D4017C
:1000B0000C94D4010C94D4010C94D4010C94D4016C
:1000C0000C94D4010C94D4010C94D4010C94D4015C
:1000D0000C94D4010C94D4010C94D4010C94D4014C
:1000E0000C94D4010C9431020C94320A0C94340A0E
:1000F0000C94EE090C94BE060C94E8020C94270AAA
:100100000C9436020C94CB030C9424030C94340608
:100110000C94E5090C940B020C947B060C942D02B4
:100120000C94D7010C9425060C947E030C942902A0
:100130000C944E060C9424060C9415030C94150292
:100140000C94D6010C943B020C9411020C944603BF
:100150000C94200A0C9404020C9400020C942302C8
:100160000C942E0A0C9438030C94FC010C94080295
:100170000C9442090C943C0C0C94F6010C94470628
:100180000C9491040C9437020C941B020C941F02E3
:100190000C941E0A0C94300A1F1C1F1E1F1E1F1FCA
:1001A0001E1F1E00002100240027002A002D003001
:1001B00000330001010000040107010A01000020D2
:1001C000002300260029002C002F0032000001002F
:1001D0000003010601090131313A30353A3431006A
:1001E00041756720203620323032340031313A30C8
:1001F000353A3431004175672020362032303234B0
:1002000000525443204C6F737420706F7765722CCA
:100210002073657474696E67207468652074696DF5
:10022000652100436F756C646E27742066696E6487
:1002300020525443004C43442049324320526561CC
:10024000647921002F00446174653A20003A003A35
:100250000054696D653A2000000022002500280046
:100260002B002E00310034000201000005010801BE
:100270000B0105050505070508080808020202022A
:100280000A0A080804040404010101010101010132
:100290000303030303030303040707070C0C0C0CFD
:1002A0000C0C0C0C020202020606060606060606E6
:1002B0000B0B0B0B0B0B0B0B010210202008081073
:1002C00020401020408002010201080402010102C6
:1002D000040810204080804020100804020180049F
:1002E00002018040201008040201080402010102FA
:1002F0000408102040800102040810204080000003
:100300000A0B02090C0D0E0807030401000000008F
:1003100000000000000000000000000000000000DD
:10032000000000000000000000001211100000009A
:1003300000000000000000000000000000000000BD
:10034000000000003C0C11241FBECFEFD1E2DEBF45
:10035000CDBF00E00CBF23E0A4E4B2E001C01D92D9
:10036000A63BB207E1F712E0A0E0B2E0ECE5F1E273
:1003700000E00BBF02C007900D92A434B107D9F77B
:1003800011E0C3EAD1E000E006C021970109802F07
:10039000FE010E947F0FC23AD10780E00807A9F74B
:1003A0000E949D0C0C94AC100C94000008950895CC
:1003B0008150823108F05AC0E82FF0E08827EC51D4
:1003C000FE4F8F4F0C947F0F04020802F601FC01D0
:1003D000000236020B02110215021B021F02230249
:1003E00029022D023602310237023B028091800041
:1003F0008F77809380000895809180008F7DF9CF62
:1004000080918000877FF5CF84B58F7784BD089574
:1004100084B58F7DFBCF8091B0008F778093B00043
:1004200008958091B0008F7DF9CF809190008F77F3
:10043000809390000895809190008F7DF9CF8091F6
:100440009000877FF5CF8091A0008F778093A000E8
:1004500008958091A0008F7DF9CF8091A000877FC3
:10046000F5CF809120018F778093200108958091AE
:1004700020018F7DF9CF80912001877FF5CF1F93D9
:10048000CF93DF93282F30E0F901E250FD4F8491A4
:10049000F901E854FD4FD491F901EE58FD4FC49194
:1004A000CC23A9F0162F81110E94D801EC2FF0E087
:1004B000EE0FFF1FE85AFD4FA591B4918FB7F89446
:1004C000EC91111108C0D095DE23DC938FBFDF9132
:1004D000CF911F910895DE2BF8CF3FB7F89480910C
:1004E0008D0290918E02A0918F02B091900226B55C
:1004F000A89B05C02F3F19F00196A11DB11D3FBF5C
:10050000BA2FA92F982F8827BC01CD01620F711D2A
:10051000811D911D42E0660F771F881F991F4A9524
:10052000D1F708958F929F92AF92BF92CF92DF92B0
:10053000EF92FF924B015C010E946D026B017C0106
:100540000E946D026C197D098E099F09683E7340F7
:1005500081059105A8F321E0821A9108A108B1084C
:1005600088EEC80E83E0D81EE11CF11C81149104B2
:10057000A104B10429F7FF90EF90DF90CF90BF90D6
:10058000AF909F908F900895EF92FF920F931F93DB
:10059000CF93DF938C017B01D0E0C0E0F701EC0F3B
:1005A000FD1F6491662361F0D801ED91FC910190EB
:1005B000F081E02DC8011995892B11F02196EECF1D
:1005C000CE01DF91CF911F910F91FF90EF90089591
:1005D000AF92BF92CF92DF92EF92FF920F931F9351
:1005E000CF93DF936C017B018B01040F151FEB018F
:1005F0005E01AE18BF08C017D10759F06991D60146
:10060000ED91FC910190F081E02DC6011995892BA7
:1006100079F7C501DF91CF911F910F91FF90EF9076
:10062000DF90CF90BF90AF900895FC01538D448D23
:10063000252F30E0842F90E0821B930B541710F08D
:10064000CF96089501970895FC01918D828D98179A
:1006500061F0A28DAE0FBF2FB11D5D968C91928D72
:100660009F5F9F73928F90E008958FEF9FEF0895A3
:10067000FC01918D828D981731F0828DE80FF11D6C
:10068000858D90E008958FEF9FEF0895FC01918D87
:10069000228D892F90E0805C9F4F821B91098F7380
:1006A0009927089587E093E00E94460321E0892B73
:1006B00009F420E0822F0895FC01A48DA80FB92F22
:1006C000B11DA35ABF4F2C91848D90E001968F737A
:1006D0009927848FA689B7892C93A089B1898C9199
:1006E000837080648C93938D848D981306C00288E8
:1006F000F389E02D80818F7D80830895EF92FF92B2
:100700000F931F93CF93DF93EC0181E0888F9B8D34
:100710008C8D98131AC0E889F989808185FF15C0EE
:100720009FB7F894EE89FF896083E889F989808111
:100730008370806480839FBF81E090E0DF91CF91E0
:100740001F910F91FF90EF900895F62E0B8D10E002
:100750000F5F1F4F0F731127E02E8C8D8E110CC071
:100760000FB607FCFACFE889F989808185FFF5CFBC
:10077000CE010E945C03F1CFEB8DEC0FFD2FF11D3C
:10078000E35AFF4FF0829FB7F8940B8FEA89FB89F9
:1007900080818062CFCFCF93DF93EC01888D882357
:1007A000B9F0AA89BB89E889F9898C9185FD03C0D4
:1007B000808186FD0DC00FB607FCF7CF8C9185FFB9
:1007C000F2CF808185FFEDCFCE010E945C03E9CF9F
:1007D000DF91CF91089580E090E0892B29F00E946D
:1007E000520381110E94000080E090E0892B49F0C3
:1007F00080E090E0892B29F00E94000081110E9486
:10080000000080E090E0892B49F080E090E0892BA7
:1008100029F00E94000081110E94000080E090E019
:10082000892B49F080E090E0892B29F00E9400009C
:1008300081110C9400000895CF93DF9370E0FB01C9
:10084000E250FD4F8491FB01E854FD4FD4916E5866
:100850007D4FFB01C491CC23A1F081110E94D801EE
:10086000EC2FF0E0EE0FFF1FE354FE4FA591B49183
:10087000EC91ED2381E090E009F480E0DF91CF91ED
:10088000089580E090E0FACF862F642F0C943F0209
:10089000CF93DF9370E0FB01E854FD4F24916E5835
:1008A0007D4FFB0184918823C9F090E0880F991F48
:1008B000FC01ED55FE4FA591B491FC01E85AFD4FA6
:1008C000C591D49141110DC09FB7F8948C9120959A
:1008D00082238C938881282328839FBFDF91CF9127
:1008E0000895423051F49FB7F8943C91822F80953F
:1008F00083238C93E8812E2BEFCF8FB7F894EC9164
:100900002E2B2C938FBFEACFFC01908190539A300D
:1009100008F090E0818180532AE0929F800D11249D
:100920000895089520916502260F3327331F213241
:100930003105ECF42091DD02FC0190E080E02430F0
:1009400069F082E00895A09165022191AC014B5BB2
:100950005D4FA40FB52FB11D2C930196861798F308
:1009600080916502680F6093650280E0089581E0E0
:1009700008951092DD0281E08093DC021092B702AC
:1009800061E084E10E943F0261E085E10E943F0254
:10099000E9EBF0E080818E7F808380818D7F808392
:1009A00088E48093B80085E48093BC000895109299
:1009B0009602109295021092E402109206030E9491
:1009C000B90486ED91E0909394028093930287EDB1
:1009D00091E090939202809391020895CF93DF93D8
:1009E00091E0909344028823B9F0C091B800D0916F
:1009F000BA008091BC008A7B8093BC0060E084E1F7
:100A00000E943F0260E085E10E943F020E94B9041B
:100A1000D093BA00C093B800DF91CF9108958F9220
:100A20009F92AF92BF92CF92DF92EF92FF920F937D
:100A30001F93CF93DF93D0910603D13208F0D7C034
:100A4000182FC09105030E946D026B017C018091FB
:100A5000DD0281116BC082E08093DD021093DC0225
:100A60008FEF8093DB021092DA02D093D902A5EEC9
:100A7000B2E0E9EBF2E080E0D81391C01092B80246
:100A80008091B802CC0FC82BC093B8028091B702F6
:100A9000813009F088C01092B7020E946D026B018C
:100AA0007C018091B8028093BB008091DF0290911D
:100AB000E002A091E102B091E202892B8A2B8B2BFC
:100AC000A1F00E946D020091DF021091E0022091DE
:100AD000E1023091E2026C197D098E099F09061727
:100AE00017072807390708F442C08091BC0083FD2E
:100AF000D8CF85EC8093BC000E946D026B017C0115
:100B00008091DD02823009F450C08091DB028F3F7A
:100B100009F46FC08091DB02803209F46CC08091CF
:100B2000DB02803309F469C084E026C08091DF02D3
:100B30009091E002A091E102B091E202892B8A2B10
:100B40008B2B09F484CF0E946D028090DF0290907D
:100B5000E002A090E102B090E2026C197D098E09DA
:100B60009F0986169706A806B90608F070CF8091EF
:100B7000DE020E94EE0485E01092E4021092060369
:100B80001092E302DF91CF911F910F91FF90EF90B0
:100B9000DF90CF90BF90AF909F908F9008959D91E0
:100BA00091938F5F69CF85EEA5CF8091DF02909101
:100BB000E002A091E102B091E202892B8A2B8B2BFB
:100BC00009F49ECF0E946D020091DF021091E002B5
:100BD0002091E1023091E2026C197D098E099F0992
:100BE000061717072807390708F08ACFC0CF81E01A
:100BF000C3CF80E0C1CF82E0BFCF83E0BDCFCF9332
:100C0000DF93EC018B818823A1F0888191E09093A0
:100C1000E302809305031092E4021092060381E040
:100C20000E940F0591E0811190E0892FDF91CF9113
:100C300008950E94D70481E08B83CE010E94FF05B6
:100C4000982F8111E2CFF1CF0895E0919602809123
:100C50009502E81730F4F0E0E956FD4F808190E00E
:100C600008958FEF9FEF08959091960280919502DD
:100C70002FEF3FEF981748F4E92FF0E0E956FD4FCA
:100C8000208130E09F5F90939602C9010895809182
:100C9000950290919602891B990B0895CF92DF924D
:100CA000EF92FF920F931F93CF93DF937C01CB01C1
:100CB0008A012091E302222389F0EB016B01C40E2B
:100CC000D51ECC15DD0569F06991D701ED91FC9138
:100CD0000190F081E02DC7011995F3CF642F0E9498
:100CE0009204C801DF91CF911F910F91FF90EF9077
:100CF000DF90CF900895CF93DF931F92CDB7DEB7EB
:100D000069832091E3022223F9F020910603203227
:100D100058F021E030E0FC013383228390E080E052
:100D20000F90DF91CF9108958091E402E82FF0E0D9
:100D3000EB51FD4F998190838F5F8093E402809304
:100D4000060381E090E0ECCF61E0CE0101960E94C5
:100D50009204F7CFFC01248131E03093E302209329
:100D600005031092E402109206038485682B84EA3E
:100D700093E00E947B0681E00C940F0590E080E0F8
:100D800008951F93CF93DF93DC011496ED91FC91AE
:100D9000E417F50710F490E01FC0122FEA01FC01E0
:100DA00081819281208131E03093E3022093050319
:100DB0001092E40210920603DC01ED91FC91028096
:100DC000F381E02D1995C817D90729F7812F0E94C3
:100DD0000F0591E08111DFCF892FDF91CF911F9116
:100DE00008952F923F924F925F926F927F928F92CF
:100DF0009F92AF92BF92CF92DF92EF92FF920F93AA
:100E00001F93CF93DF935C011B016A01F12CE12C4E
:100E1000D50114968D919C9186010E191F0980179A
:100E2000910708F48C01F501D0810E946D022B011D
:100E30003C018091DD02811172C0C02F013208F0A7
:100E4000C0E2F1E0F093DD0221E0C601801B910BCE
:100E5000E816F90608F420E02093DC028FEF809377
:100E6000DB021092DA028C0F8093D902A1E0A093EA
:100E7000B8028091B802DD0FD82BD093B8028091D0
:100E8000B702813009F090C01092B7020E946D0243
:100E90002B013C018091B8028093BB008091DF025E
:100EA0009091E002A091E102B091E202892B8A2B9D
:100EB0008B2BA1F00E946D022091DF023091E002A5
:100EC0004091E1025091E20264197509860997097F
:100ED000261737074807590708F442C08091BC001D
:100EE00083FDD8CFB5ECB093BC000E946D022B01FE
:100EF0003C018091DD02813009F45AC08091DA0210
:100F00008C1710F4C091DA02A9EBB2E0E7E9F2E045
:100F100080E08C1751F19D9191938F5FFACF809172
:100F2000DF029091E002A091E102B091E202892BF0
:100F30008A2B8B2B09F47DCF0E946D022091DF025A
:100F40003091E0024091E1025091E202641975098A
:100F500086099709261737074807590708F069CF08
:100F60008091DE020E94EE04C0E010929602C093CF
:100F70009502C017110609F057C041018E0C9F1C45
:100F8000E401CE01881999098017910798F5D501D8
:100F900011968D919C91DC01ED91FC910284F38579
:100FA000E02D19958993EDCFE5EEE093BC009DCF40
:100FB0008091DF029091E002A091E102B091E20203
:100FC000892B8A2B8B2B09F494CF0E946D022091E0
:100FD000DF023091E0024091E1025091E202641997
:100FE000750986099709261737074807590708F032
:100FF00080CFB6CFE00EF11EEC14FD0408F408CF4C
:1010000081E0DF91CF911F910F91FF90EF90DF90E2
:10101000CF90BF90AF909F908F907F906F905F9098
:101020004F903F902F90089580E0EBCF0F931F9348
:10103000CF93DF931F921F92CDB7DEB78C018FE065
:101040008A8321E041E050E0BE016E5F7F4FF801EE
:10105000808191810E94C10641E050E0BE016F5F36
:101060007F4FF801808191810E94F10689810F9064
:101070000F90DF91CF911F910F9108950F931F93C0
:10108000CF93DF9300D000D000D01F92CDB7DEB752
:101090008C01FB011A82198235812AE0832F622F8D
:1010A0000E943D0F982F880F890F880F830F8A8326
:1010B0003481832F0E943D0F982F880F890F880F4E
:1010C000830F8B833381832F0E943D0F982F880FCE
:1010D000890F880F830F8C83428131812081622F99
:1010E00070E0A42FB0E0E8E9F1E081E0831730F48C
:1010F0009491A90FB11D8F5F3196F8CF333020F056
:10110000822F837009F41196EDE6F1E06E9FC00125
:101110006F9F900D7E9F900D112405966D5F7F4F00
:101120007695679576956795860F971F8A0F9B1F13
:1011300067E070E00E94490F811101C087E08D8354
:101140005AE0842F652F0E943D0F982F880F890F3A
:10115000880F840F8E83832F0E943D0F982F880F56
:10116000890F880F830F8F83822F0E943D0F982F46
:10117000880F890F880F820F888721E048E050E0B0
:10118000BE016F5F7F4FF801808191810E94C1068F
:10119000C8010E9416089FE099878F778A8721E00F
:1011A00042E050E0BE01675F7F4FF801808191818E
:1011B0000E94C1062A960FB6F894DEBF0FBECDBFBF
:1011C000DF91CF911F910F9108950F931F93CF93AC
:1011D0008C01C62F0E94AA066C2F6460C8010E9471
:1011E000AA066C2F6B7FC8010E94AA0683EC90E0D0
:1011F0000197F1F7CF911F910F9108950F931F93CE
:10120000CF93DF938C01D62FC42F607F642B0E9475
:10121000E50880E1D89FB00111246C2BC801DF9153
:10122000CF911F910F910C94E508CF93DF9300D0DD
:1012300000D01F921F92CDB7DEB728E0E6E0F2E0C3
:10124000DE01119601900D922A95E1F7FC012085AF
:10125000261708F46FEF70E0660F771F21E030E08B
:101260002C0F3D1F620F731FFB016081606840E01F
:1012700028960FB6F894DEBF0FBECDBFDF91CF9199
:101280000C94FE0841E00E94FE0881E090E0089581
:10129000FB0101900020E9F73197AF01461B570B86
:1012A000DC01ED91FC910280F381E02D19948F9285
:1012B0009F92AF92BF92EF92FF920F931F93CF93A3
:1012C000DF93CDB7DEB7A1970FB6F894DEBF0FBEA0
:1012D000CDBF7C01FA01CB0119A2223008F42AE02B
:1012E0008E010F5D1F4F822E912CB12CA12CBF01BE
:1012F000A50194010E945D0FF901CA016A300CF545
:10130000605DD8016E938D01232B242B252B79F75B
:1013100090E080E0109721F0BD01C7010E944809CC
:10132000A1960FB6F894DEBF0FBECDBFDF91CF916F
:101330001F910F91FF90EF90BF90AF909F908F9073
:101340000895695CDECF462F50E070E060E02AE04F
:101350000C945709EF92FF920F931F93CF93DF9353
:1013600000D000D000D01F921F92CDB7DEB78C0105
:101370007A014BE050E0CE0101960E94340FCE017D
:101380000A960E948404F8018083E981E154E331E4
:1013900028F50E2E000CFF0B8827EE52F64F8F4FCC
:1013A0000C947F0F200AEE09EE09340AEE091E0A9A
:1013B000EE09EE09EE09E509EE09EE09270A320AFF
:1013C000300AEE09EE09EE092E0A8A81813691F182
:1013D0008B818E3689F187E0F8018183CE010596F5
:1013E0000E948404F801828348E050E0B701CE01F6
:1013F00001960E94340FCE0101960E948404F801E8
:101400008383CE0104960E948404F8018483CE0174
:1014100007960E948404F80185832B960FB6F894F2
:10142000DEBF0FBECDBFDF91CF911F910F91FF9017
:10143000EF90089581E0D0CF86E0CECF82E0CCCF90
:101440008B81823711F088E0C7CF84E0C5CF8B81D4
:10145000823711F085E0C0CF83E0BECF89E0BCCFFA
:101460008AE0BACF8BE0B8CF8CE0B6CF85ED809321
:10147000BC008091DF029091E002A091E102B09166
:10148000E2020796A11DB11D23E0B695A795979599
:1014900087952A95D1F72091BC0024FD03C01092B6
:1014A000DD0208954091DF025091E0026091E10277
:1014B0007091E202452B462B472B69F30097A1055B
:1014C000B10541F02AE22A95F1F700C00197A10980
:1014D000B109E1CF8091DE020C94EE041F920F92CD
:1014E0000FB60F9211242F933F938F939F93AF9337
:1014F000BF938091890290918A02A0918B02B09152
:101500008C023091880223E0230F2D3758F5019685
:10151000A11DB11D209388028093890290938A02B5
:10152000A0938B02B0938C0280918D0290918E02D9
:10153000A0918F02B09190020196A11DB11D8093E0
:101540008D0290938E02A0938F02B0939002BF9170
:10155000AF919F918F913F912F910F900FBE0F9060
:101560001F90189526E8230F0296A11DB11DD2CF1A
:101570001F920F920FB60F9211240BB60F922F935A
:101580003F934F935F936F937F938F939F93AF930B
:10159000BF93EF93FF9387E093E00E945C03FF917A
:1015A000EF91BF91AF919F918F917F916F915F91DB
:1015B0004F913F912F910F900BBE0F900FBE0F9048
:1015C0001F9018951F920F920FB60F9211240BB611
:1015D0000F922F938F939F93EF93FF93E0911703B5
:1015E000F09118038081E0911D03F0911E0382FDAC
:1015F0001DC09081809120038F5F8F732091210304
:10160000821741F0E0912003F0E0E95FFC4F958FF5
:1016100080932003FF91EF919F918F912F910F90D5
:101620000BBE0F900FBE0F901F9018958081F2CFC8
:101630001F920F920FB60F9211240BB60F922F9399
:101640003F934F935F936F937F938F939F93AF934A
:10165000BF93EF93FF938091B900887F803609F4A0
:101660004DC008F040C0883209F4A9C028F5803187
:1016700009F49DC0C8F4882309F4FBC0883009F43C
:1016800096C0FF91EF91BF91AF919F918F917F9104
:101690006F915F914F913F912F910F900BBE0F90E3
:1016A0000FBE0F901F901895883109F488C08032C2
:1016B00041F78093DB0214C0803409F49DC040F4EC
:1016C0008033B9F38833E9F68093DB0285ECB0C050
:1016D000803509F485C0883509F496C0883489F6C8
:1016E0000E94360ACECF883909F48CC038F5883785
:1016F00029F050F4883611F0803719F683E0809392
:10170000DD021092870257C0883809F47BC0803907
:1017100019F0803809F0B5CF80918702803208F047
:1017200071C0E091870281E08E0F809387028091E3
:10173000BB00F0E0E959FD4F80833DC0803B39F0AC
:10174000E0F4803A09F479C0883A09F09ACF84E04D
:101750008093DD021092660210926502E09193027E
:10176000F091940219958091650281110FC081E07A
:10177000809365021092450209C0803C09F4A6CF0F
:10178000883C09F4A3CF883B09F07BCFE091660247
:1017900081E08E0F80936602F0E0EB5BFD4F80816D
:1017A0008093BB00909166028091650229C0809170
:1017B000B8028093BB0085EC8093BC0062CF90910F
:1017C000DA028091D902981758F5E091DA0281E0A7
:1017D0008E0F8093DA02F0E0E754FD4F8081E9CF6D
:1017E000E091DA0281E08E0F8093DA028091BB00F3
:1017F000F0E0E754FD4F80839091DA028091D902A6
:101800009817C8F285E8D8CFE091DA0281E08E0F10
:101810008093DA028091BB00F0E0E754FD4F8083B3
:101820008091DC0281115CCF81E08093B70284EA71
:101830008093BC001092DD0224CF85EC8093BC0025
:101840001092DD0280918702803230F4E0918702AD
:10185000F0E0E959FD4F10826091870270E0E0915D
:101860009102F091920287E692E019951092870218
:1018700008CF1092DB0234CFCF93DF93E7E0F3E0A1
:101880001382128288EE93E0A0E0B0E08483958317
:10189000A683B78322E132E03183208325EC30E058
:1018A0003587248724EC30E03787268720EC30E02A
:1018B000318B208B21EC30E0338B228B22EC30E01B
:1018C000358B248B26EC30E0378B268B118E128ED5
:1018D000138E148EE4EAF3E01382128284839583DC
:1018E000A683B78384E292E09183808388E090E0CE
:1018F0000E94870FEC01188219821A821B821F82B4
:101900001E828DE090E00E94870FFC0113821282FC
:1019100086E392E091838083118687E2848380E16D
:10192000828782E083871486FD83EC83D093B103A2
:10193000C093B003DF91CF910895CF93DF9300D090
:1019400000D01F92CDB7DEB7789484B5826084BD95
:1019500084B5816084BD85B5826085BD85B58160B3
:1019600085BD80916E00816080936E001092810031
:1019700080918100826080938100809181008160EC
:1019800080938100809180008160809380008091AD
:10199000B10084608093B1008091B0008160809339
:1019A000B0008091910082608093910080919100BD
:1019B000816080939100809190008160809390007D
:1019C0008091A10082608093A1008091A10081603C
:1019D0008093A1008091A00081608093A0008091FD
:1019E0002101826080932101809121018160809397
:1019F00021018091200181608093200180917A00F3
:101A0000846080937A0080917A00826080937A006B
:101A100080917A00816080937A0080917A0080685A
:101A200080937A001092C100E090B003F090B1036F
:101A3000E0911703F091180382E08083E091130393
:101A4000F09114031082E0911503F091160380E1E8
:101A5000808310921F03E0911B03F0911C0386E02A
:101A60008083E0911903F0911A0380818061808363
:101A7000E0911903F0911A03808188608083E091DE
:101A80001903F0911A03808180688083E091190323
:101A9000F0911A0380818F7D80830E94D704F70123
:101AA000048115810E94D704F80115828385823054
:101AB00010F098E09583F801808762E370E080E0A1
:101AC00090E00E949202F8016485C8010E94AA0673
:101AD00068EE73E080E090E00E94920260E3C8014B
:101AE0000E94E508ABE4CA2EA6E4DA2EC6010197EF
:101AF000F1F760E3C8010E94E508C6010197F1F71C
:101B000060E3C8010E94E50883E592E00197F1F7E0
:101B100060E2C8010E94E508F8016581606240E06A
:101B2000C8010E94FE0884E0F801868340E06CE072
:101B3000C8010E94FE0840E061E0C8010E94FE0862
:101B40008BE39FE10197F1F7F8018185882321F06C
:101B500060E0C8010E94150982E0F801878340E037
:101B600066E0C8010E94FE0840E062E0C8010E94F1
:101B7000FE088BE39FE10197F1F7F70184819581DE
:101B800028E0FC01248760E00E94AA0660E0F701DB
:101B9000848195810E94150965E372E0F7018481D3
:101BA00095810E94C402F70186819781009711F008
:101BB0000E94231086E090E00E94870F8C0188E647
:101BC000F801808384EA93E092838183138280E228
:101BD00090E095838483F701178306830E94D704DE
:101BE00081E0F8018383C8010E94FF0581110DC0C7
:101BF00063E272E087E093E00E94C4026EE372E069
:101C000087E093E00E944809FFCFF6E0EF0EF11C59
:101C1000C7010E94160890E0880F892F881F990B32
:101C2000892BD1F061E072E087E093E00E94C4026A
:101C30006EE372E087E093E00E9448094CEE51E0C9
:101C400065EF71E0CE0101960E94AA09BE016F5FA7
:101C50007F4FC7010E943E0847ED51E060EE71E002
:101C6000CE0101960E94AA09BE016F5F7F4FC70196
:101C70000E943E080091B0031091B1032FB7F89471
:101C80008091890290918A02A0918B02B0918C027E
:101C90002FBFF80140815181628173816C017D0108
:101CA000C41AD50AE60AF70AB701A601483E53400E
:101CB0006105710508F4D5C080839183A283B38345
:101CC0001982E680F78020E041E050E0BE016F5FBE
:101CD0007F4FC7010E94C106882341F047E050E0D2
:101CE000BE016F5F7F4FC7010E94F10629812F77E8
:101CF000822F90E034E0959587953A95E1F7982FFB
:101D0000990F990FE82EE91AEE0CE20E2A81822F24
:101D100090E044E0959587954A95E1F7982F990FC3
:101D2000990FD82ED91ADD0CD20E2B81822F90E07C
:101D300054E0959587955A95E1F7982F990F990F4B
:101D4000C82EC91ACC0CC20E2D81822F90E064E0FF
:101D5000959587956A95E1F7982F990F990FB82E69
:101D6000B91ABB0CB20E2E812F77822F90E074E04F
:101D7000959587957A95E1F7982F990F990FF82EF9
:101D8000F91AFF0CF20EAF8060E0F80184819581B2
:101D90000E94150961E572E0F801848195810E9435
:101DA000C4026C2DF801848195810E94A3096FE41F
:101DB00072E0F801848195810E94C4026D2DF801C2
:101DC000848195810E94A3096DE472E0F801848109
:101DD00095810E94C4026E2DF801848195810E9434
:101DE000A30961E0F801848195810E94150966E4E8
:101DF00072E0F801848195810E94C4026B2DF80184
:101E0000848195810E94A30964E472E0F8018481D1
:101E100095810E94C4026F2DF801848195810E94F2
:101E2000A30961E472E0F801848195810E94480968
:101E30008A2D90E0E4E095958795EA95E1F7982F53
:101E4000990F990F482F491B440F4A0D50E04053FA
:101E5000584F70E060E02AE0F801848195810E948B
:101E600057090E94EB0306CFFB01DC0102C005907D
:101E70000D9241505040D8F70895991B79E004C065
:101E8000991F961708F0961B881F7A95C9F78095B9
:101E90000895AA1BBB1B51E107C0AA1FBB1FA617B1
:101EA000B70710F0A61BB70B881F991F5A95A9F703
:101EB00080959095BC01CD010895A1E21A2EAA1B30
:101EC000BB1BFD010DC0AA1FBB1FEE1FFF1FA217EA
:101ED000B307E407F50720F0A21BB30BE40BF50BE7
:101EE000661F771F881F991F1A9469F76095709570
:101EF000809590959B01AC01BD01CF010895EE0F37
:101F0000FF1F881F8BBF0790F691E02D19940F9348
:101F10001F93CF93DF938230910510F482E090E01D
:101F2000E091B403F091B50330E020E0B0E0A0E030
:101F3000309799F42115310509F44AC0281B390B53
:101F400024303105D8F58A819B816115710589F1AD
:101F5000FB0193838283FE0111C040815181028184
:101F6000138148175907E0F04817590799F410975B
:101F700061F012960C93129713961C933296CF0130
:101F8000DF91CF911F910F9108950093B4031093A7
:101F9000B503F4CF2115310551F04217530738F03E
:101FA000A901DB019A01BD01DF01F801C1CFEF01F9
:101FB000F9CF9093B5038093B403CDCFFE01E20F28
:101FC000F31F819391932250310939832883D7CF0E
:101FD0002091B2033091B303232B41F420910202EC
:101FE000309103023093B3032093B2032091000297
:101FF000309101022115310541F42DB73EB74091D2
:10200000040250910502241B350BE091B203F091BC
:10201000B303E217F307A0F42E1B3F0B2817390771
:1020200078F0AC014E5F5F4F2417350748F04E0F34
:102030005F1F5093B3034093B203819391939FCF5B
:10204000F0E0E0E09CCFCF93DF930097E9F0FC0154
:10205000329713821282A091B403B091B503ED01BF
:1020600030E020E01097A1F420813181820F931F8E
:102070002091B2033091B3032817390709F061C0EA
:10208000F093B303E093B203DF91CF910895EA0197
:10209000CE17DF07E8F54A815B819E0141155105A6
:1020A000B1F7E901FB83EA8349915991C40FD51F28
:1020B000EC17FD0761F4808191810296840F951FD2
:1020C000E90199838883828193819B838A83F0E0ED
:1020D000E0E012968D919C9113970097B9F52D91A0
:1020E0003C911197CD010296820F931F2091B2036C
:1020F0003091B3032817390739F6309751F510920C
:10210000B5031092B403B093B303A093B203BCCF52
:10211000D383C28340815181840F951FC817D9078B
:1021200061F44E5F5F4F88819981480F591F518339
:1021300040838A819B81938382832115310509F035
:10214000B0CFF093B503E093B4039ECFFD01DC0163
:0C215000C0CF13821282D7CFF894FFCFCB
:10215C000000B60380000000400014005400000092
:10216C0000007E03E8021503CB0346032403380367
:10217C00000000007B064E06BE0624064706340609
:10218C002506000000004209E802BE0691040D0A73
:04219C00002F000010
:00000001FF
