:100000000C94D3010C9404020C9404020C9404028A
:100010000C9404020C9404020C9404020C94040248
:100020000C9404020C9404020C9404020C94040238
:100030000C9404020C9404020C9404020C94040228
:100040000C9404020C9404020C9404020C94040218
:100050000C9404020C9404020C9404020C94C71A2D
:100060000C9404020C943B1B0C94111B0C94040282
:100070000C9404020C9404020C9404020C940402E8
:100080000C9404020C9404020C9404020C940402D8
:100090000C9404020C9404020C9404020C94711B42
:1000A0000C9404020C9404020C9404020C940402B8
:1000B0000C9404020C9404020C9404020C940402A8
:1000C0000C9404020C9404020C9404020C94040298
:1000D0000C9404020C9404020C9404020C94040288
:1000E0000C9404020C94A5020C949F020C942B1106
:1000F0000C9461100C9487020C946A240C94CC0428
:100100000C94B8040C949B020C947C240C94360838
:100110000C94AF130C9471240C9498030C94650305
:100120000C94710E0C94D9030C9488030C94A203C4
:100130000C94D1130C94B3020C947E240C9478028A
:100140000C9405140C94B7020C945D030C94B60344
:100150000C9448140C94DA040C94E3030C94840279
:100160000C940E080C947C040C94A9040C94D813E1
:100170000C9497020C94F7030C9406020C948024C0
:100180000C9472020C9491020C9474030C94AD02C2
:100190000C9478240C94ED030C948D020C940702BB
:1001A0000C94C5030C94AE130C9494270C94FB167A
:1001B0000C945F050C94B21E0C947E030C94900377
:1001C0000C94A51C0C94B2020C943A080C94A91E31
:1001D0000C9412050C947A240C94CF030C94BE1347
:1001E0000C947C020C946A030C9480020C94AC0373
:1001F0000C94A9023D3D3D3D3D204D656E75203D71
:100200003D3D3D3D001F1C1F1E1F1E1F1F1E1F1EAC
:10021000000020002300260029002C002F003200BF
:100220000001000003010601090132333A32353A78
:10023000313900417567202033203230323400528A
:100240005443204C6F737420706F7765722C207349
:10025000657474696E67207468652074696D6521C2
:10026000004A616E4665624D61724170724D6179FE
:100270004A756E4A756C4175675365704F63744E6D
:100280006F764465630053756E4D6F6E5475655798
:1002900065645468754672695361740000002100FA
:1002A000240027002A002D00300033000101000047
:1002B000040107010A0100002200250028002B008C
:1002C0002E003100340002010000050108010B017D
:1002D00005050505070508080808020202020A0AC2
:1002E00008080404040401010101010101010303E0
:1002F000030303030303040707070C0C0C0C0C0C8B
:100300000C0C0202020206060606060606060B0B87
:100310000B0B0B0B0B0B01021020200808102040C8
:1003200010204080020102010804020101020408B9
:100330001020408080402010080402018004020147
:100340008040201008040201080402010102040890
:1003500010204080010204081020408000000A0B99
:1003600002090C0D0E080703040100000000000044
:10037000000000000000000000000000000000007D
:10038000000000000000000012111000000000003A
:10039000000000000000000000000000000000005D
:1003A0000000A51C942711241FBECFEFD1E2DEBFB1
:1003B000CDBF00E00CBF14E0A0E0B2E0E0E0F6E565
:1003C00000E00BBF02C007900D92A632B107D9F72B
:1003D0002AE0A6E2B4E001C01D92AE3FB207E1F709
:1003E00011E0C2EDD1E000E006C021970109802FA5
:1003F000FE010E94D028C13DD10780E00807A9F77F
:100400000E949A1D0C94EE2A0C9400000895089501
:10041000FC01128216821582178287E392E0918393
:100420008083DF015C96CD01CC961C9214961C92C1
:100430001E92139715961C9215971696A817B90732
:10044000A1F7DF01AE59BF4F88E092E011969C936F
:100450008E93129684E092E011969C938E9312965E
:1004600084E08C9311968C9317978CE092E0119610
:100470009C938E9318968AE090E011969C938E93AD
:10048000129684EF91E011969C938E931396119699
:100490001C921E9251971D921D921D921C921397B1
:1004A000E459FF4F108208958150823108F05AC0FC
:1004B000E82FF0E08827E05AFD4F8F4F0C94D028AA
:1004C00080028402720278027C02B20287028D02EC
:1004D000910297029B029F02A502A902B202AD02FD
:1004E000B302B702809180008F77809380000895D7
:1004F000809180008F7DF9CF80918000877FF5CF3C
:1005000084B58F7784BD089584B58F7DFBCF8091AE
:10051000B0008F778093B00008958091B0008F7DF8
:10052000F9CF809190008F7780939000089580910B
:1005300090008F7DF9CF80919000877FF5CF8091DB
:10054000A0008F778093A00008958091A0008F7DF8
:10055000F9CF8091A000877FF5CF809120018F7720
:10056000809320010895809120018F7DF9CF8091A3
:100570002001877FF5CF1F93CF93DF93282F30E0A3
:10058000F901E45AFC4F8491F901EA5EFC4FD491E1
:10059000F901E053FD4FC491CC23A9F0162F81112E
:1005A0000E945402EC2FF0E0EE0FFF1FEA54FD4FC3
:1005B000A591B4918FB7F894EC91111108C0D09522
:1005C000DE23DC938FBFDF91CF911F910895DE2B47
:1005D000F8CFCF93DF9390E0FC01EA5EFC4F2491CB
:1005E00080539D4FFC0184918823C9F090E0880FCF
:1005F000991FFC01E456FD4FA591B491FC01EA540A
:10060000FD4FC591D49161110DC09FB7F8948C91A5
:10061000209582238C938881282328839FBFDF9194
:10062000CF910895623051F49FB7F8943C91822F96
:10063000809583238C93E8812E2BEFCF8FB7F8948E
:10064000EC912E2B2C938FBFEACF1F93CF93DF9388
:10065000182FEB0161E00E94E902209739F460E075
:10066000812FDF91CF911F910C94BB02CF3FD10519
:1006700011F461E0F5CFE12FF0E0E45AFC4FE49192
:10068000E150E23108F0B3C0F0E08827E55BFC4FB1
:100690008F4F0C94D0285D0365036A0374037E03B7
:1006A000F703880390039803A203AC03B603C503C2
:1006B000CF03F703D903E303ED0384B5806884BD5A
:1006C000C7BDDF91CF911F91089584B5806284BD2D
:1006D000C8BDF7CF80918000806880938000D09360
:1006E0008900C0938800EDCF809180008062809364
:1006F0008000D0938B00C0938A00E3CF809180006C
:10070000886080938000D0938D00C0938C00D9CFF7
:100710008091B00080688093B000C093B300D1CFC7
:100720008091B00080628093B000C093B400C9CFC4
:1007300080919000806880939000D0939900C0933E
:100740009800BFCF80919000806280939000D093FA
:100750009B00C0939A00B5CF8091900088608093F1
:100760009000D0939D00C0939C00ABCF8091A000DF
:1007700080688093A0008091A0008F7B8093A00070
:10078000D093A900C093A8009CCF8091A000806264
:100790008093A000D093AB00C093AA0092CF809129
:1007A000A00088608093A000D093AD00C093AC00FF
:1007B00088CF80912001806880932001D093290107
:1007C000C09328017ECF8091200180628093200118
:1007D000D0932B01C0932A0174CF809120018860AF
:1007E00080932001D0932D01C0932C016ACFC03893
:1007F000D1050CF03ECF33CFCF93DF93C0915E098C
:10080000D0915F0970E060E08A810E94250370E06A
:1008100060E08B810E94250370E060E08C810E9483
:10082000250370E060E08D81DF91CF910C9425036A
:100830003FB7F8948091760490917704A091780462
:10084000B091790426B5A89B05C02F3F19F00196F9
:10085000A11DB11D3FBFBA2FA92F982F8827BC011A
:10086000CD01620F711D811D911D42E0660F771F42
:10087000881F991F4A95D1F708958F929F92AF9242
:10088000BF92CF92DF92EF92FF926B017C010E94A8
:1008900018044B015C01C114D104E104F104B9F066
:1008A0000E941804681979098A099B09683E7340F7
:1008B0008105910580F321E0C21AD108E108F10811
:1008C00088EE880E83E0981EA11CB11CE4CFFF9037
:1008D000EF90DF90CF90BF90AF909F908F90089552
:1008E0002FB7F8946091720470917304809174042E
:1008F000909175042FBF0895AF92BF92CF92DF926F
:10090000EF92FF920F931F93CF93DF936C017B01C4
:100910008B01040F151FEB015E01AE18BF08C01755
:10092000D10759F06991D601ED91FC910190F081C8
:10093000E02DC6011995892B79F7C501DF91CF917B
:100940001F910F91FF90EF90DF90CF90BF90AF90ED
:100950000895FC01538D448D252F30E0842F90E0C5
:10096000821B930B541710F0CF96089501970895AA
:10097000FC01918D828D981761F0A28DAE0FBF2F73
:10098000B11D5D968C91928D9F5F9F73928F90E0C9
:1009900008958FEF9FEF0895FC01918D828D981738
:1009A00031F0828DE80FF11D858D90E008958FEF75
:1009B0009FEF0895FC01918D228D892F90E0805C3E
:1009C0009F4F821B91098F739927089580EF96E0BE
:1009D0000E94DA0421E0892B09F420E0822F089597
:1009E000FC01A48DA80FB92FB11DA35ABF4F2C91A4
:1009F000848D90E001968F739927848FA689B7899B
:100A00002C93A089B1898C91837080648C93938D91
:100A1000848D981306C00288F389E02D80818F7D34
:100A200080830895EF92FF920F931F93CF93DF93EC
:100A3000EC0181E0888F9B8D8C8D98131AC0E8891A
:100A4000F989808185FF15C09FB7F894EE89FF89E9
:100A50006083E889F98980818370806480839FBF87
:100A600081E090E0DF91CF911F910F91FF90EF9087
:100A70000895F62E0B8D10E00F5F1F4F0F73112797
:100A8000E02E8C8D8E110CC00FB607FCFACFE889D2
:100A9000F989808185FFF5CFCE010E94F004F1CF66
:100AA000EB8DEC0FFD2FF11DE35AFF4FF0829FB746
:100AB000F8940B8FEA89FB8980818062CFCFCF9336
:100AC000DF93EC01888D8823B9F0AA89BB89E88976
:100AD000F9898C9185FD03C0808186FD0DC00FB61C
:100AE00007FCF7CF8C9185FFF2CF808185FFEDCF9A
:100AF000CE010E94F004E9CFDF91CF91089580E00C
:100B000090E0892B29F00E94E60481110E940000E8
:100B100080E090E0892B49F080E090E0892B29F07B
:100B20000E94000081110E94000080E090E0892B6B
:100B300049F080E090E0892B29F00E9400008111AB
:100B40000E94000080E090E0892B49F080E090E076
:100B5000892B29F00E94000081110C940000089557
:100B6000CF93DF93DC0126E0629FA00DB11D11241D
:100B700090965C934E935F9721E091962C9391977A
:100B8000FC01E359FF4F0190F081E02DEC01C459C5
:100B9000DF4F2881222341F0309719F0DC016623D2
:100BA00029F0DF91CF9108953097D9F35C968C911D
:100BB000DF91CF911994CF92DF92EF92FF920F9332
:100BC0001F93CF93DF93EC01162F042FFC0186E0D7
:100BD000689FE00DF11D112411A2878D90A1813035
:100BE000910509F180F08230910509F443C0039723
:100BF00009F445C0DF91CF911F910F91FF90EF90C5
:100C0000DF90CF9008954423A9F341E050E0CE0156
:100C10000E94B0050E947004C85ADF4F6883798330
:100C20008A839B83E7CF0E947004FE01E85AFF4F3E
:100C3000C080D180E280F380AB01BC014C195D091A
:100C40006E097F09729680819181B0E0A0E08417DF
:100C50009507A607B70770F442E050E0612FCE0178
:100C6000DF91CF911F910F91FF90EF90DF90CF9088
:100C70000C94B00543E050E00111BCCFEFCF50E041
:100C800040E0ECCF2F923F924F925F926F927F9213
:100C90008F929F92AF92BF92CF92DF92EF92FF928C
:100CA0000F931F93CF93DF93CDB7DEB72C970FB67B
:100CB000F894DEBF0FBECDBF9C878B8784599F4FB2
:100CC0009A83898381E0A981BA818C930E94700400
:100CD000EB85FC85E45AFF4FFC83EB830081118197
:100CE00022813381AB01BC01401B510B620B730BA2
:100CF000EB85FC85E859FF4F80819181B0E0A0E051
:100D000084179507A607B70708F081C110E0CB84C8
:100D1000DC84F6E6CF0ED11CEB84FC8422E6E20EE6
:100D2000F11CD6018C911817A0F4F701A081B181B4
:100D3000A10FB11DEB85FC8580819181FC01208193
:100D4000318142E06C918B859C85F90119951F5F7B
:100D5000E8CF912C2B843C84F7E62F0E311CAB841A
:100D6000BC8424E6A20EB11C412C512C32014394C8
:100D70004B855C854E595F4F5A874987D1018C91CD
:100D8000981608F08BC0E92CF12CF501A081B181F7
:100D9000AE0DBF1DEB85FC8580819181FC0120811A
:100DA000318141E06C918B859C85F9011995F501A4
:100DB000A081B181AE0DBF1DEB85FC858081918145
:100DC000FC012281338140E06C918B859C85F90187
:100DD0001995D301C201092C04C0880F991FAA1FBD
:100DE000BB1F0A94D2F79E838D839C01209530957A
:100DF00038872F83812CAB85BC85ED91FC91D60182
:100E00008C91881648F5082D10E0A985BA858D913A
:100E10009C91DC01A00FB11F0480F581E02D6C9145
:100E20008B859C851995000F111FEB85FC85E00FC4
:100E3000F11F892B51F4808591852D813E81822B74
:100E4000932B918780878394D6CF808591854F811E
:100E5000588584239523F5CFD5018D919C91DC0194
:100E6000AE0DBF1D0280F381E02D41E06C918B85BA
:100E70009C851995F50180819181E80EF91EAB855D
:100E8000BC85ED91FC910190F081E02D40E0D7010F
:100E90006C918B859C851995939470CFEB84FC8421
:100EA000C701CC9647012FEF3FEFF401478D50A1CA
:100EB000452B21F4148E368F258F11A2F6E08F0E6C
:100EC000911C8816990689F7712CAB84BC8420E6A6
:100ED000A20EB11C96E0592ED6018C91781608F01E
:100EE00058C0612C072D10E00C5F1F4F000F111F21
:100EF000EB85FC850E0F1F1FD1018C91681608F041
:100F000046C0F80140815181062C02C05695479594
:100F10000A94E2F7789EC0011124860D911DEB859D
:100F2000FC8560E0258D368D8217930709F474C027
:100F30006F5F36966A30B1F740FF27C0EB85FC85BE
:100F400070E060E0248D21111AC0D501ED91FC9173
:100F5000E80FF91F2081569EF001579EF00D1124D5
:100F60004B855C85E40FF51F248F968F858F10A22B
:100F7000178E41E08B859C850E94DB0506C06F5F64
:100F80007F4F36966A307105E9F66394B5CF739456
:100F9000A3CF10E0D70191968C918111182FB6E064
:100FA000EB0EF11C8E149F04A9F70E947004EB81D4
:100FB000FC816083718382839383112341F1AB852C
:100FC000BC8591968C919197882309F15F968D91BC
:100FD0009C9190970197D9F45C968C912C960FB6C2
:100FE000F894DEBF0FBECDBFDF91CF911F910F915F
:100FF000FF90EF90DF90CF90BF90AF909F908F9039
:101000007F906F905F904F903F902F900895E9816F
:10101000FA81108280E0E2CF4170ACCFCF93DF93B2
:1010200070E0FB01E45AFC4F8491FB01EA5EFC4F47
:10103000D49160537D4FFB01C491CC23A1F0811169
:101040000E945402EC2FF0E0EE0FFF1FE05FFD4F17
:10105000A591B491EC91ED2381E090E009F480E05A
:10106000DF91CF91089580E090E0FACF862F642F32
:101070000C94BB02862F642F0C94E90220916A0421
:10108000211109C021E020936A0430918D0720913D
:101090008E073CBD2DBD60E0FC0184810C94BB0239
:1010A00061E0FC0184810E94BB0280916A0481118D
:1010B00010926A0408958EBD00000DB407FEFDCFA6
:1010C0008EB508958FEF0C945B080F931F93CF9309
:1010D000DF93EC010E9470048B010E9462088F3F35
:1010E00069F00E947004601B710B6C177D07A8F3F8
:1010F00080E0DF91CF911F910F91089581E0F9CFAA
:10110000CF92DF92EF92FF920F931F93CF93DF93D3
:10111000EC01162F69017A018E81882389F08F8175
:1011200098859C012F5F3F4F38872F8382309240F4
:1011300018F40E946208F3CFCE010E9450081E826C
:10114000CE010E943E088CE291E00E946508812F4A
:1011500080640E945B0808E110E0D701C601002E00
:1011600004C0B695A795979587950A94D2F70E94E3
:101170005B0808501109083F8FEF180771F78FEFD0
:101180000E945B0810E00E9462088A8787FF04C003
:101190001F3F11F01F5FF7CFDF91CF911F910F918C
:1011A000FF90EF90DF90CF900895AF92BF92CF92D3
:1011B000DF92EF92FF920F931F93CF93DF93EC0197
:1011C0006901C801820F931F8130924050F58E81D2
:1011D000882379F088819981AA81BB81841795073A
:1011E000A607B70731F48F819885C816D90608F08D
:1011F00042C0488359836A837B838B85833039F06F
:1012000089E0440F551F661F771F8A95D1F79A0111
:10121000AB0161E1CE010E948008882389F083E060
:101220008D83CE010E94500880E0DF91CF911F9105
:101230000F91FF90EF90DF90CF90BF90AF90089507
:101240000E9470045B010E9462088A878F3F69F4E4
:101250000E9470046A197B096D327140A0F38FE01F
:101260008D83CE010E945008DCCF8E3F89F4188612
:101270001F8281E08E838F8198858C159D0550F4A7
:101280000E9462088F819885019698878F83F3CF9B
:101290008DE0E6CF6701E00EF11E0E946208F601C4
:1012A00081936F01EE15FF05C1F78F819885080FB7
:1012B000191F18870F838985882319F0011512409B
:1012C000A0F08E81882389F08F8198859C012F5F03
:1012D0003F4F38872F838230924018F40E94620873
:1012E000F3CFCE010E9450081E8281E09ECFCF92A4
:1012F000DF92EF92FF920F93CF93DF93EC0169019E
:1013000082E1411551056105710599F08B858330A6
:1013100039F089E0440F551F661F771F8A95D1F772
:101320009A01AB0168E1CE010E948008882319F080
:1013300084E08D832DC08EEF0E945B0876018EEFD6
:10134000D81AF70181917F010E945B08EC14FD041B
:10135000C1F78FEF0E945B088FEF0E945B080E942D
:1013600062088A878F71853071F4011116C0CE0131
:101370000E94500881E0DF91CF910F91FF90EF9094
:10138000DF90CF90089581E18D83CE010E945008B7
:10139000CE010E94500880E0EECF88E592E00E94E6
:1013A0006508811102C085E1C4CF20E030E0A901C9
:1013B0006DE0CE010E948008882311F084E1B9CF4E
:1013C0000E9462088111FACFD2CF0F9340916C0432
:1013D00050916D0460916E0470916F044115510538
:1013E0006105710589F0082F2AE734E090E080E07C
:1013F0000E947709882349F010926C0410926D04C2
:1014000010926E0410926F0481E00F9108950F9373
:10141000CF93C82F80916B04811105C0C1E08C2F40
:10142000CF910F9108954091000250910102609177
:101430000202709103020C2F2AE734E090E080E072
:101440000E947709811102C0C0E0E9CFCC2331F3BB
:1014500081E00E94E5098823B9F310926B04DFCF85
:101460008F929F92AF92BF92EF92FF920F931F9332
:10147000CF934B015C01C42F809100029091010237
:10148000A0910202B091030288159905AA05BB0537
:1014900041F181E00E94070A81110BC080E0CF91E9
:1014A0001F910F91FF90EF90BF90AF909F908F9002
:1014B00008958AE7E82E84E0F82E00E012E030E09C
:1014C00020E0B501A40190E080E00E94D5088823C7
:1014D00029F38092000290920102A0920202B0923F
:1014E000030240916B044C2B40936B0481E0D7CFF7
:1014F0004F925F926F927F928F929F92AF92BF9224
:10150000CF92DF92EF92FF920F931F93CF93DF93CF
:10151000EC01423051056105710590F480E0DF91E6
:10152000CF911F910F91FF90EF90DF90CF90BF90E0
:10153000AF909F908F907F906F905F904F900895A5
:1015400089859A85AB85BC850196A11DB11D84173F
:101550009507A607B70710F3CB88DC88ED88FE88CF
:101560008F89803109F042C0BB27A72F962F852F86
:10157000480159012A013B01C80ED91EEA1EFB1E73
:101580008091000290910102A0910202B0910302A9
:10159000C816D906EA06FB0699F58F898031C1F590
:1015A000B301A201552766277727440F551F4658D8
:1015B0005B4FFA019182808280916B0481608093FD
:1015C0006B048A89823080F08D819E81AF81B885DD
:1015D0008C0D9D1DAE1DBF1D80936C0490936D04FA
:1015E000A0936E04B0936F0481E099CFDB01CA0130
:1015F000E7E0B695A79597958795EA95D1F7B8CF87
:1016000040E0C701B6010E94300A8111C6CF86CFE3
:10161000B301A2014F77552766277727440F551F3F
:10162000440F551F46585B4FFA0180829182A28277
:10163000B382C2CF8F929F92AF92BF92CF92DF922E
:10164000EF92FF920F931F93CF93DF93FC0181855D
:101650009285A385B4850196A11DB11D84179507B8
:10166000A607B70770F480E0DF91CF911F910F912B
:10167000FF90EF90DF90CF90BF90AF909F908F90B2
:10168000089583889488A588B6888789803189F5EC
:10169000BB27A72F962F852FE9016A017B018F01B8
:1016A000BC01CD01680D791D8A1D9B1D8090000233
:1016B00090900102A0900202B09003028616970655
:1016C000A806B90601F5F8018789803111F5DD24F6
:1016D000EE24FF24F601EE0FFF1FE658FB4F80813A
:1016E0009181B0E0A0E088839983AA83BB8381E0E5
:1016F000BBCFDB01CA01C7E0B695A7959795879543
:10170000CA95D1F7C9CF40E00E94300A8111DBCFE2
:10171000AACFE894C7F8DD24EE24FF24F601EE0FEB
:10172000FF1FEE0FFF1FE658FB4F80819181A281C2
:10173000B381BF70D8CF2F923F924F925F926F923A
:101740007F928F929F92AF92BF92CF92DF92EF9251
:10175000FF920F931F93CF93DF93EC014B018D8189
:10176000811115C08FEF9FEFDF91CF911F910F91E6
:10177000FF90EF90DF90CF90BF90AF909F908F90B1
:101780007F906F905F904F903F902F9008958C8145
:1017900080FFE8CF4B895C896D897E898A859B852E
:1017A000AC85BD85412C481759076A077B0711F0A6
:1017B00044244394512C52011E0126E0220E311C78
:1017C000A114B10409F4B1C04A855B856C857D859F
:1017D0006A0181E0D8228B8D9C8D8A019B01E9E012
:1017E0003695279517950795EA95D1F7ED81E23063
:1017F000E1F5FC01628D738D848D958D600F711FF5
:10180000821F931F612C22E0722E6C187D08A61493
:10181000B70408F435012C8126FD04C06114F2E000
:101820007F0671F4009100021091010220910202E2
:1018300030910302061717072807390709F053C02C
:1018400040E00E94300A882309F48CCFC6018658F4
:101850009B4FD4019C01260D371DFC012E173F071D
:1018600009F45EC041914D93F9CFFC0174807A94E4
:101870007022C114D10471F471100CC0452B462B99
:10188000472B39F58F89988DA98DBA8D8E839F83CB
:10189000A887B987EB8DFC8D6E817F8188859985BE
:1018A0006250710981099109258504C0660F771F6F
:1018B000881F991F2A95D2F70685178520893189B7
:1018C000600F711F821F931F670D711D811D911D78
:1018D00099CF4E815F816885798591010E941A0BAD
:1018E0008111D8CF3FCF740183019601AB01BC01B8
:1018F00090E080E00E94D508882309F433CF860C5D
:10190000971C8A859B85AC85BD85860D971DA11D7D
:10191000B11D8A879B87AC87BD87A618B70850CFB3
:10192000281B390B820E931EECCFC2011DCF8F9264
:101930009F92AF92BF92CF92DF92EF92FF920F935E
:101940001F93CF93DF93EC018D8181110EC080E056
:10195000DF91CF911F910F91FF90EF90DF90CF908B
:10196000BF90AF909F908F9008950B891C892D890F
:101970003E89041715072607370748F34A015B011C
:10198000823031F48A869B86AC86BD8681E0E0CFCA
:1019900081149104A104B10449F41E821F821886A7
:1019A00019861A861B861C861D86F0CF0A851B8524
:1019B0002C853D85EB8DFC8D858590E00996B901E0
:1019C000A8014150510961097109082E04C076959A
:1019D0006795579547950A94D2F775016401E1E040
:1019E000CE1AD108E108F10804C0F694E794D79420
:1019F000C7948A95D2F7C416D506E606F70620F0F6
:101A0000012B022B032B11F58F89988DA98DBA8D8F
:101A10008E839F83A887B9878E010A5F1F4FC114E9
:101A2000D104E104F10409F4ADCF4E815F816885F2
:101A3000798598018B8D9C8D0E941A0B91E0C91AB3
:101A4000D108E108F1088111EACF81CFC41AD50A83
:101A5000E60AF70AE1CF3F924F925F926F927F9230
:101A60008F929F92AF92BF92CF92DF92EF92FF92AE
:101A70000F931F93CF93DF93CDB7DEB72C970FB69D
:101A8000F894DEBF0FBECDBF5C01DC015B968D908C
:101A90009C905C9716964D905D906D907C901997F8
:101AA000411451046104710409F468C0BFEF4B1A7A
:101AB0005B0A6B0A7B0A312CF40181859285A38530
:101AC000B4859C01AD012F5F3F4F4F4F5F4F29877A
:101AD0003A874B875C87730162011D821E821F82D9
:101AE0001886F40181859285A385B4852D813E8178
:101AF0004F815885281739074A075B0708F056C0F9
:101B000089859A85AB85BC858C159D05AE05BF057D
:101B100050F482E0C82ED12CE12CF12C92E0492E19
:101B2000512C612C712C9E012F5F3F4FB701A601F4
:101B3000C4010E941A0B8823C9F189819A81AB8163
:101B4000BC81892B8A2B8B2B09F1260137019FEF52
:101B5000491A590A690A790A2D813E814F815885AF
:101B60002F5F3F4F4F4F5F4F2D833E834F835887EB
:101B70003FEFC31AD30AE30AF30AB3CFF40140805C
:101B80005180628073803324339496CFC414D5047B
:101B9000E604F70409F70FEF1FEF2FEF3FE0B7015F
:101BA000A601C4010E94780A811119C080E02C9618
:101BB0000FB6F894DEBF0FBECDBFDF91CF911F915E
:101BC0000F91FF90EF90DF90CF90BF90AF909F90DC
:101BD0008F907F906F905F904F903F900895D501C8
:101BE00016964D915D916D917C9119974115510516
:101BF0006105710539F097018601C4010E94780AD8
:101C00008823A1F2D5011696CD92DD92ED92FC9239
:101C10001997332051F0D701C6010196A11DB11DBE
:101C2000F40180839183A283B383F5018789908D2A
:101C3000A18DB28D892B8A2B8B2B39F48481C78A95
:101C4000D08EE18EF28E80688483F501848180627B
:101C5000848381E0ACCF1F93CF93DF93FC01258178
:101C60002223D1F1162FEC01848187FF2AC06685DB
:101C700077858089918941E00E94300A882361F14B
:101C8000EA8980E2E89FF0011124E658FB4F309783
:101C900019F18D81823040F48B899C89AD89BE8990
:101CA000848F958FA68FB78F8F89988D938F828F12
:101CB0008F89988DA98DBA8DB58BA48B8C818F77E8
:101CC0008C83111103C08C818F7E8C83812FDF91D7
:101CD000CF911F910C94070A80E0DF91CF911F9163
:101CE00008951F93CF93DF93EC018D81813031F004
:101CF00090E080E0DF91CF911F9108958C8181FF6A
:101D0000F7CF82FD18C090E080E00E943E080E945C
:101D10006208182F90E080E00E9450081F3F41F7B2
:101D20008C8185FF1BC060E0CE010E942B0E8C8150
:101D30008F7D8C83DDCF4B895C896D897E898A8517
:101D40009B85AC85BD8584179507A607B707D9F293
:101D5000CE010E94970C8111D6CFCACF40916C045E
:101D600050916D0460916E0470916F04452B462B69
:101D7000472B21F080E00E94E509BACF80618C8377
:101D80002A853B85317080E092E0821B930BB2CFB5
:101D90002F923F924F925F926F927F928F929F927B
:101DA000AF92BF92CF92DF92EF92FF920F931F9369
:101DB000CF93DF9300D01F921F92CDB7DEB77C0187
:101DC0005B01342E5D83DC0115968C911597813073
:101DD00009F0CCC014962C9021FEC8C022FCB2C0E1
:101DE000C32CDD8022947FE027222094B22DB17095
:101DF0002B2ED7011A964D915D916D917C911D9777
:101E0000C114D10409F426C15B968D919C915C9715
:101E1000FC0174807A948A019B0169E036952795CC
:101E2000179507956A95D1F770228A011170711084
:101E300020C001151105E9F416964D915D916D9143
:101E40007C911997411551056105710509F097C0FD
:101E500057968D919D910D90BC91A02D0097A10555
:101E6000B10509F0AEC0C7010E942B0D882309F40B
:101E70007DC080E092E0801B910B46018C159D0592
:101E800008F44C01D7015B964D915C915C971696D6
:101E90008D919D910D90BC91A02D0297A109B10942
:101EA000FA01258504C0880F991FAA1FBB1F2A9518
:101EB000D2F74685578560897189840F951FA61FC3
:101EC000B71F9C01AD01270D311D411D511D290179
:101ED0003A01811432E0930609F079C08091000242
:101EE00090910102A0910202B09103028415950520
:101EF000A605B70559F48FEF9FEFDC018093000230
:101F000090930102A0930202B0930302022D950167
:101F1000B301A20190E080E00E947709882331F1AB
:101F20009EEFB91AC818D908F70182859385A48550
:101F3000B585880D991DA11DB11D82879387A48742
:101F4000B58757CFF701438954896589768982859A
:101F50009385A485B585481759076A077B0709F457
:101F60003FCFC7010E94970C81113ACF81E090E0EA
:101F7000D70113969C938E93129780E007C09E0121
:101F80002F5F3F4F0E941A0B811102C090E079C071
:101F900089819A81AB81BC81F701238D348DF90150
:101FA000278948EF5FEF60E070E0203121F048EFD3
:101FB0005FEF6FEF7FE084179507A607B70708F07C
:101FC00052CFF70186839783A087B18752CF01153F
:101FD000110599F5D7011A964D915D916D917C91FE
:101FE0001D9753968D919D910D90BC91A02D4817F2
:101FF00059076A077B0708F181E00E94070A8823D6
:1020000009F4B4CF409200025092010260920202A1
:102010007092030280916B04816080936B04C8010D
:1020200086589B4FD5019C01280D391DFC012E17A8
:102030003F0759F04D914193FACF41E0C301B201FE
:102040000E94300A8111EBCF91CF281B390BA20ED1
:10205000B31E68CFF70183899489A589B68984174F
:102060009507A607B70738F48481438B548B658B9B
:10207000768B80688483F701848183FD1AC0832D69
:102080009D810F900F900F900F900F90DF91CF9147
:102090001F910F91FF90EF90DF90CF90BF90AF9086
:1020A0009F908F907F906F905F904F903F902F9078
:1020B000089561E0C7010E942B0E882309F456CFD2
:1020C000DECFCF93DF931F92CDB7DEB7698341E0B8
:1020D00050E0BE016F5F7F4F0E94C80E0F90DF91EE
:1020E000CF910895FC01818D928D009719F061E0E8
:1020F0000C942B0E0895DC015996ED91FC913097CC
:10210000B9F083899489A589B68942855385648508
:102110007585841B950BA60BB70B811520E89207DC
:10212000A105B10538F08FEF9FE7A0E0B0E008957A
:1021300090E080E00895CF93DF931F92CDB7DEB794
:10214000FC01818D928D009769F0BE016F5F7F4F1A
:102150000E949B0B019731F4898190E00F90DF91F1
:10216000CF9108958FEF9FEFF9CFEF92FF920F93EA
:102170001F93CF93DF931F92CDB7DEB7FC01818D04
:10218000928D10E000E00097D1F07F01BE016F5FFB
:102190007F4F0E949B0B0FEF1FEF019781F4098186
:1021A00010E0F701818D928DFC0142855385648595
:1021B000758541505109610971090E94970CC80148
:1021C0000F90DF91CF911F910F91FF90EF900895A5
:1021D000DC0159968D919C91009739F0DC01ED91CD
:1021E000FC910480F581E02D199490E080E0089541
:1021F000CF93DF93EC01E98DFA8D309749F481E0BC
:1022000090E09B838A8390E080E0DF91CF910895F6
:1022100013821282898D9A8D0E94C80EE98DFA8DE3
:1022200022813381232B59F7F0CFCF93DF931F9275
:10223000CDB7DEB76983DC01ED91FC910280F381BB
:10224000E02D41E050E0BE016F5F7F4F19950F9088
:10225000DF91CF91089508958F929F92AF92BF9290
:10226000CF92DF92EF92FF92CF93DF93EC016A015E
:102270007B0180E8C81A83E4D80A8DE6E80A88E37F
:10228000F80A8CE3882E912CA12CB12CC701B60141
:10229000A50194010E947F286D83CA01B901A5019F
:1022A00094010E947F286C83C701B60120E13EE0C3
:1022B00040E050E00E947F28CA01B90128E130E0E7
:1022C00040E050E00E947F286B83C701B60120E800
:1022D00031E541E050E00E947F28188263E97EEFFB
:1022E0008881982F937041E050E011F050E040E079
:1022F000FA01E359FE4F2E173F0740F0FB01E41BA4
:10230000F50B2E0F3F1F8F5F8883EACF81E0898313
:1023100089818C30A0F4482F4150550BFA01EB5FB6
:10232000FD4FE491911103C0823009F4EF5FF0E0BA
:102330002E173F0720F02E1B3F0B8F5FE8CF2F5F3C
:102340002A83DF91CF91FF90EF90DF90CF90BF90E5
:10235000AF909F908F900895DC0150E0E5E0F2E0AF
:1023600081E0861730F49491490F511D8F5F3196AB
:10237000F8CF633038F0CD0183709927892B11F4A1
:102380004F5F5F4F9D012D5F3F4F369527953695E7
:1023900027956DE671E0A69FC001A79F900DB69F9F
:1023A000900D11240197820F931F840F951F08959C
:1023B000EF92FF920F931F93CF93DF93EC018881ED
:1023C0004A81698190E00E94AC119C01A8E1B0E0D3
:1023D0000E94A1282B817B018C01E20EF11C011DC2
:1023E000111DA8019701ACE3B0E00E9474282C8174
:1023F0007B018C01E20EF11C011D111DA80197014A
:102400000E947428AB01BC019D81892F90E0B0E04F
:10241000A0E080589C4BA249B74C8A019B01080F51
:10242000191F2A1F3B1FC901B801DF91CF911F91CE
:102430000F91FF90EF90089520914704260F3327C6
:10244000331F21323105ECF42091C606FC0190E0E7
:1024500080E0243069F082E00895A0914704219142
:10246000AC01495D5B4FA40FB52FB11D2C930196B4
:10247000861798F380914704680F6093470480E0C3
:10248000089581E008951092C60681E08093C50604
:102490001092A00661E084E10E94BB0261E085E148
:1024A0000E94BB02E9EBF0E080818E7F8083808117
:1024B0008D7F808388E48093B80085E48093BC009E
:1024C000089510927F0610927E061092CD0610920B
:1024D000EF060E94431286E092E090937D0680937F
:1024E0007C0687E092E090937B0680937A060895BD
:1024F000CF93DF9391E0909326048823B9F0C091A5
:10250000B800D091BA008091BC008A7B8093BC0057
:1025100060E084E10E94BB0260E085E10E94BB02B2
:102520000E944312D093BA00C093B800DF91CF91BC
:1025300008958F929F92AF92BF92CF92DF92EF92C7
:10254000FF920F931F93CF93DF93D091EF06D13279
:1025500008F0D7C0182FC091EE060E9418046B0136
:102560007C018091C60681116BC082E08093C60613
:102570001093C5068FEF8093C4061092C306D093C4
:10258000C206AEECB6E0E2EAF6E080E0D81391C015
:102590001092A1068091A106CC0FC82BC093A10672
:1025A0008091A006813009F088C01092A0060E9498
:1025B00018046B017C018091A1068093BB0080917F
:1025C000C8069091C906A091CA06B091CB06892B86
:1025D0008A2B8B2BA1F00E9418040091C806109141
:1025E000C9062091CA063091CB066C197D098E0967
:1025F0009F09061717072807390708F442C080917A
:10260000BC0083FDD8CF85EC8093BC000E941804E9
:102610006B017C018091C606823009F450C0809124
:10262000C4068F3F09F46FC08091C406803209F45C
:102630006CC08091C406803309F469C084E026C070
:102640008091C8069091C906A091CA06B091CB06A8
:10265000892B8A2B8B2B09F484CF0E94180480903D
:10266000C8069090C906A090CA06B090CB066C1917
:102670007D098E099F0986169706A806B90608F0F7
:1026800070CF8091C7060E94781285E01092CD0627
:102690001092EF061092CC06DF91CF911F910F910F
:1026A000FF90EF90DF90CF90BF90AF909F908F9072
:1026B00008959D9191938F5F69CF85EEA5CF80910D
:1026C000C8069091C906A091CA06B091CB06892B85
:1026D0008A2B8B2B09F49ECF0E9418040091C80608
:1026E0001091C9062091CA063091CB066C197D095C
:1026F0008E099F09061717072807390708F08ACFA0
:10270000C0CF81E0C3CF80E0C1CF82E0BFCF83E004
:10271000BDCFCF93DF93EC018B818823A1F088811B
:1027200091E09093CC068093EE061092CD06109225
:10273000EF0681E00E94991291E0811190E0892FCB
:10274000DF91CF9108950E94611281E08B83CE01C9
:102750000E948913982F8111E2CFF1CF0895E09163
:102760007F0680917E06E81730F4F0E0E058F94FDC
:10277000808190E008958FEF9FEF089590917F06FC
:1027800080917E062FEF3FEF981748F4E92FF0E095
:10279000E058F94F208130E09F5F90937F06C90198
:1027A000089580917E0690917F06891B990B08956C
:1027B000CF92DF92EF92FF920F931F93CF93DF930D
:1027C0007C01CB018A012091CC06222389F0EB0108
:1027D0006B01C40ED51ECC15DD0569F06991D701DA
:1027E000ED91FC910190F081E02DC7011995F3CF97
:1027F000642F0E941C12C801DF91CF911F910F918D
:10280000FF90EF90DF90CF900895CF93DF931F92CA
:10281000CDB7DEB769832091CC062223F9F0209151
:10282000EF06203258F021E030E0FC0133832283B0
:1028300090E080E00F90DF91CF9108958091CD06D8
:10284000E82FF0E0E253F94F998190838F5F8093F6
:10285000CD068093EF0681E090E0ECCF61E0CE0101
:1028600001960E941C12F7CFFC01248131E03093C5
:10287000CC062093EE061092CD061092EF068485CA
:10288000682B88ED97E00E94051481E00C94991262
:1028900090E080E008951F93CF93DF93DC011496BE
:1028A000ED91FC91E417F50710F490E01FC0122F92
:1028B000EA01FC0181819281208131E03093CC06D4
:1028C0002093EE061092CD061092EF06DC01ED91FA
:1028D000FC910280F381E02D1995C817D90729F7DB
:1028E000812F0E94991291E08111DFCF892FDF9112
:1028F000CF911F9108952F923F924F925F926F92C6
:102900007F928F929F92AF92BF92CF92DF92EF927F
:10291000FF920F931F93CF93DF935C011B016A011A
:10292000F12CE12CD50114968D919C9186010E1904
:102930001F098017910708F48C01F501D0810E94CE
:1029400018042B013C018091C606811172C0C02F72
:10295000013208F0C0E2F1E0F093C60621E0C601C2
:10296000801B910BE816F90608F420E02093C506B9
:102970008FEF8093C4061092C3068C0F8093C2061B
:10298000A1E0A093A1068091A106DD0FD82BD093E2
:10299000A1068091A006813009F090C01092A00697
:1029A0000E9418042B013C018091A1068093BB007A
:1029B0008091C8069091C906A091CA06B091CB0635
:1029C000892B8A2B8B2BA1F00E9418042091C8061A
:1029D0003091C9064091CA065091CB066419750919
:1029E00086099709261737074807590708F442C090
:1029F0008091BC0083FDD8CFB5ECB093BC000E94A1
:102A000018042B013C018091C606813009F45AC09C
:102A10008091C3068C1710F4C091C306A2EAB6E0F9
:102A2000E0E8F6E080E08C1751F19D9191938F5F83
:102A3000FACF8091C8069091C906A091CA06B091BC
:102A4000CB06892B8A2B8B2B09F47DCF0E9418048F
:102A50002091C8063091C9064091CA065091CB0614
:102A60006419750986099709261737074807590712
:102A700008F069CF8091C7060E947812C0E01092DA
:102A80007F06C0937E06C017110609F057C04101AA
:102A90008E0C9F1CE401CE018819990980179107BB
:102AA00098F5D50111968D919C91DC01ED91FC91E9
:102AB0000284F385E02D19958993EDCFE5EEE0933F
:102AC000BC009DCF8091C8069091C906A091CA060E
:102AD000B091CB06892B8A2B8B2B09F494CF0E94C3
:102AE00018042091C8063091C9064091CA06509139
:102AF000CB06641975098609970926173707480711
:102B0000590708F080CFB6CFE00EF11EEC14FD049B
:102B100008F408CF81E0DF91CF911F910F91FF90D2
:102B2000EF90DF90CF90BF90AF909F908F907F906D
:102B30006F905F904F903F902F90089580E0EBCF83
:102B40000F931F93CF93DF931F921F92CDB7DEB7E2
:102B50008FE08A8300EF1AE021E041E050E0BE01FF
:102B60006E5F7F4FF801808191810E944B1441E09C
:102B700050E0BE016F5F7F4FF801808191810E941C
:102B80007B1489810F900F90DF91CF911F910F914E
:102B90000895EF92FF920F931F93CF93DF9300D08E
:102BA00000D01F92CDB7DEB78C011982DB01ED900A
:102BB000FC9020E041E050E0BE016F5F7F4FC70115
:102BC0000E944B14882341F047E050E0BE016F5F44
:102BD0007F4FC7010E947B14E981EF77FA81FB8068
:102BE0005D814E814F778F81282F30E094E03595BD
:102BF00027959A95E1F7922F990F990F291B220F8C
:102C0000280FD8012C93842F90E024E09595879588
:102C10002A95E1F7982F990F990F891B880F840F38
:102C200011968C931197652F70E034E07595679538
:102C30003A95E1F7862F880F880F681B660F650F9E
:102C400012966C9312974F2D50E064E0559547957E
:102C50006A95E1F7842F880F880F481B440F4F0DAA
:102C600013964C9313972F2F30E074E035952795EA
:102C70007A95E1F7822F880F880F281B220F2F0FDC
:102C800014962C9314978E2F90E0F4E095958795E9
:102C9000FA95E1F7982F990F990F891B880F8E0FDE
:102CA00015968C93C80127960FB6F894DEBF0FBE19
:102CB000CDBFDF91CF911F910F91FF90EF900895BD
:102CC0000F931F93CF938C01C62F0E9434146C2F47
:102CD0006460C8010E9434146C2F6B7FC8010E948D
:102CE000341483EC90E00197F1F7CF911F910F918D
:102CF00008950F931F93CF93DF938C01D62FC42F8A
:102D0000607F642B0E94601680E1D89FB00111247F
:102D10006C2BC801DF91CF911F910F910C9460161D
:102D2000CF93DF9300D000D01F921F92CDB7DEB7B4
:102D300028E0E2E2F2E0DE01119601900D922A9580
:102D4000E1F7FC012085241708F44FEF50E0440F11
:102D5000551F21E030E02C0F3D1F420F531FFA0199
:102D60002081620F606840E028960FB6F894DEBFBD
:102D70000FBECDBFDF91CF910C9479160F931F93A7
:102D8000CF93DF938C01EB01642F422FDC0114966B
:102D90008D919C910E949016F801848195814C81BF
:102DA0005D8168817981DC01ED91FC910280F38184
:102DB000E02DDF91CF911F910F911994CF93DF9365
:102DC000EC0140E061E00E9479168BE39FE10197FE
:102DD000F1F78985882339F040E060E0CE01DF918A
:102DE000CF910C949016DF91CF910895FC018481CE
:102DF00095810C94DE1641E00E94791681E090E006
:102E0000089542E050E069E772E080EF96E00C94AC
:102E10007C04CF93DF93FC014481558160817181F3
:102E200080EF96E00E947C04EC010E9401178C0F59
:102E30009D1FDF91CF9108950F931F93CF93DF9341
:102E40008C01FC0180819181009711F00E9474290E
:102E500086E090E00E94D828EC0188E6888388ED1F
:102E600097E09A8389831B8280E290E09D838C8324
:102E7000F801D183C0830E94611281E08B83CE016F
:102E8000DF91CF911F910F910C948913CF93DF9312
:102E9000EC0188819981009711F00E9474291982B0
:102EA00018821D821C821B821A82DF91CF910895A5
:102EB000FC0180819181009711F00C947429089590
:102EC0000F931F93CF93DF93EC0188819981009733
:102ED00059F02A813B812617370730F081E0DF91D6
:102EE000CF911F910F9108958B016F5F7F4F0E94CB
:102EF000FD29009759F0998388831B830A832C81CD
:102F00003D81232B59F7FC011082E8CF80E0E7CF09
:102F1000EF92FF920F931F93CF93DF93611571058B
:102F200041F480E0DF91CF911F910F91FF90EF90DE
:102F3000089541155105B1F07B01EC010C811D8113
:102F4000040F151FB8010E946017882351F32881D0
:102F500039818C819D81B701820F931F0E94E72ADE
:102F60001D830C8381E0DECFCF93DF93EC016115ED
:102F7000710539F4CE010E944617CE01DF91CF9141
:102F80000895FB0101900020E9F73197AF01461B3E
:102F9000570B0E948817882369F3EFCFCF93DF93F5
:102FA000EC01FB0144815581608171810E94881789
:102FB000811103C0CE010E944617CE01DF91CF914F
:102FC0000895EF92FF920F931F93CF93DF93EC013D
:102FD0007B018A01BA010E94601781110BC0CE01EA
:102FE0000E944617CE01DF91CF911F910F91FF9064
:102FF000EF9008951D830C83B701888199810E9409
:10300000E72AF0CFFB0101900020E9F73197AF01EB
:10301000461B570B0C94E1170F931F93CF93DF932D
:1030200000D000D000D0CDB7DEB78C01862FF801DC
:103030001182108213821282158214824AE0BE012C
:103040006F5F7F4F90E00E942B28BE016F5F7F4F24
:10305000C8010E94021829960FB6F894DEBF0FBE71
:10306000CDBFDF91CF911F910F9108950F931F93C3
:10307000CF93DF93CDB7DEB762970FB6F894DEBF7C
:103080000FBECDBF8C01CB01F801118210821382DB
:103090001282158214824AE0BE016F5F7F4F0E9448
:1030A000E927BE016F5F7F4FC8010E940218629638
:1030B0000FB6F894DEBF0FBECDBFDF91CF911F9149
:1030C0000F910895CF93DF93EC01FB0186179707CB
:1030D00049F0608171816115710541F0448155812C
:1030E0000E94E117CE01DF91CF9108950E9446170B
:1030F000F9CFFC0111821082138212821582148290
:103100000C946218EF92FF920F931F93CF93DF936B
:10311000CDB7DEB7A3970FB6F894DEBF0FBECDBF15
:103120007C0160EF7AE0CE0101960E94C91586E02D
:10313000FE013196A2EFBAE001900D928A95E1F777
:1031400000EF1AE0F801828190E01B8A1A8A1D8A3A
:103150001C8A1F8A1E8A4AE0BE016F5F7F4F805320
:10316000984F0E942B28BE016F5F7F4FCE01429681
:103170000E940218F8016381CE0101960E940C188A
:10318000F8016481CE014E960E940C18BE01625E69
:103190007F4FCE0148960E9479186CE772E0CE010D
:1031A00048960E94B417BE016F5F7F4F0E94CE17F2
:1031B0006CE772E00E94B417BE016E5E7F4F0E9402
:1031C000CE17BC01C7010E947918CE0148960E9413
:1031D0005817CE014E960E945817CE0101960E94B4
:1031E0005817CE0142960E945817C701A3960FB6F2
:1031F000F894DEBF0FBECDBFDF91CF911F910F912D
:10320000FF90EF900895EF92FF920F931F93CF934B
:10321000DF93CDB7DEB768970FB6F894DEBF0FBE69
:10322000CDBF7C0160EF7AE0CE0101960E94C91506
:1032300086E0FE013196A2EFBAE001900D928A95E8
:10324000E1F700EF1AE0F8016781CE0101960E94D4
:103250000C18F8016681CE0107960E940C18F8013F
:103260006581CE0143960E940C18BE016D5E7F4FB2
:10327000CE010D960E94791865E174E0CE010D969D
:103280000E94B417BE01695F7F4F0E94CE1765E1AF
:1032900074E00E94B417BE016F5F7F4F0E94CE178B
:1032A000BC01C7010E947918CE010D960E945817E3
:1032B000CE0143960E945817CE0107960E945817D8
:1032C000CE0101960E945817C70168960FB6F89470
:1032D000DEBF0FBECDBFDF91CF911F910F91FF9049
:1032E000EF900895FC0111821082138212821582E0
:1032F00014826115710551F0FB0101900020E9F77E
:103300003197AF01461B570B0C94E117089585EDDB
:103310008093BC008091C8069091C906A091CA060E
:10332000B091CB060796A11DB11D23E0B695A795D8
:10333000979587952A95D1F72091BC0024FD03C06D
:103340001092C60608954091C8065091C906609132
:10335000CA067091CB06452B462B472B69F3009785
:10336000A105B10541F02AE22A95F1F700C00197C5
:10337000A109B109E1CF8091C7060C9478128F9210
:103380009F92AF92BF92CF92DF92EF92FF920F93F4
:103390001F93CF93DF93CDB7DEB72F970FB6F89477
:1033A000DEBF0FBECDBF7C010091F80A1091F90A73
:1033B000C8010E94F6161092700483E0F70181871D
:1033C00080912A0290912B02A0912C028D879E87DA
:1033D000AF878EE792E09A8389838DE892E09C83A1
:1033E0008B838BE992E09E838D8318861F821A86D9
:1033F00019861C861B8660E170E0CE0107960E944C
:103400006017811169C0CE0107960E94461720E01F
:1034100040E0BE01695F7F4FC8010E94BE16CE0129
:1034200007960E9458170091F80A1091F90A6EE762
:1034300072E0CE0107960E94721921E040E0BE01C1
:10344000695F7F4FC8010E94BE16CE0107960E9499
:1034500058175701FAE0AF0EB11C88248394912CC1
:10346000C5010E944206082F8823D1F3C090F80AB4
:10347000D090F90AC6010E94F6166BEA72E0CE01FE
:1034800007960E94721920E040E0BE01695F7F4FFD
:10349000C6010E94BE16CE0107960E94581701343D
:1034A00031F58091F80A9091F90A0E94F6168092FF
:1034B00070042F960FB6F894DEBF0FBECDBFDF911C
:1034C000CF911F910F91FF90EF90DF90CF90BF9021
:1034D000AF909F908F90089580E190E09C878B87BC
:1034E00064EF71E08F8198850E94E22790CF10E011
:1034F00080E0F7019185191788F5C12ED12CEDE0F8
:10350000F0E0EC0FFD1FEC0DFD1D9081901324C029
:103510008090F80A9090F90AF601EE0FFF1F81E003
:1035200090E08C0F9D1FE80FF91F60817181CE0123
:1035300007960E94721921E040E0BE01695F7F4F4B
:10354000C4010E94BE16CE0107960E94581746017C
:103550009FEF891A990A81E01F5FCBCF811180CF3D
:103560000091F80A1091F90A6EE772E0CE01079611
:103570000E94721921E040E0BE01695F7F4FC801DF
:103580000E94BE16CE0107960E94581766CF1F9262
:103590000F920FB60F9211242F933F938F939F9307
:1035A000AF93BF938091720490917304A0917404BF
:1035B000B09175043091710423E0230F2D3758F535
:1035C0000196A11DB11D2093710480937204909304
:1035D0007304A0937404B093750480917604909161
:1035E0007704A0917804B09179040196A11DB11DD2
:1035F0008093760490937704A0937804B093790431
:10360000BF91AF919F918F913F912F910F900FBEDE
:103610000F901F90189526E8230F0296A11DB11D4B
:10362000D2CF1F920F920FB60F9211240BB60F92AA
:103630002F933F934F935F936F937F938F939F93BA
:10364000AF93BF93EF93FF9380EF96E00E94F00457
:10365000FF91EF91BF91AF919F918F917F916F916A
:103660005F914F913F912F910F900BBE0F900FBE26
:103670000F901F9018951F920F920FB60F92112462
:103680000BB60F922F938F939F93EF93FF93E0913D
:103690000007F09101078081E0910607F09107078C
:1036A00082FD1DC09081809109078F5F8F732091EB
:1036B0000A07821741F0E0910907F0E0E051F94F65
:1036C000958F80930907FF91EF919F918F912F9193
:1036D0000F900BBE0F900FBE0F901F90189580811A
:1036E000F2CF1F920F920FB60F9211240BB60F92CA
:1036F0002F933F934F935F936F937F938F939F93FA
:10370000AF93BF93EF93FF938091B900887F80368A
:1037100009F44DC008F040C0883209F4A9C028F56A
:10372000803109F49DC0C8F4882309F4FBC08830B7
:1037300009F496C0FF91EF91BF91AF919F918F9146
:103740007F916F915F914F913F912F910F900BBEA1
:103750000F900FBE0F901F901895883109F488C004
:10376000803241F78093C40614C0803409F49DC0B0
:1037700040F48033B9F38833E9F68093C40685ECCE
:10378000B0C0803509F485C0883509F496C0883406
:1037900089F60E948719CECF883909F48CC038F594
:1037A000883729F050F4883611F0803719F683E015
:1037B0008093C6061092690457C0883809F47BC00C
:1037C000803919F0803809F0B5CF809169048032D2
:1037D00008F071C0E091690481E08E0F8093690464
:1037E0008091BB00F0E0E75BFB4F80833DC0803BF6
:1037F00039F0E0F4803A09F479C0883A09F09ACFB8
:1038000084E08093C6061092480410924704E09129
:103810007C06F0917D0619958091470481110FC0B7
:1038200081E0809347041092270409C0803C09F48A
:10383000A6CF883C09F4A3CF883B09F07BCFE09169
:10384000480481E08E0F80934804F0E0E95DFB4F6F
:1038500080818093BB00909148048091470429C0E7
:103860008091A1068093BB0085EC8093BC0062CF61
:103870009091C3068091C206981758F5E091C3064F
:1038800081E08E0F8093C306F0E0EE55F94F808102
:10389000E9CFE091C30681E08E0F8093C30680914B
:1038A000BB00F0E0EE55F94F80839091C306809104
:1038B000C2069817C8F285E8D8CFE091C30681E028
:1038C0008E0F8093C3068091BB00F0E0EE55F94F58
:1038D00080838091C50681115CCF81E08093A00632
:1038E00084EA8093BC001092C60624CF85EC8093B6
:1038F000BC001092C60680916904803230F4E091D9
:103900006904F0E0E75BFB4F10826091690470E0AE
:10391000E0917A06F0917B0689E494E01995109283
:10392000690408CF1092C40634CFFC0190819053F3
:103930009A3008F090E0818180532AE0929F800DB8
:10394000112408950A960C940802CF93DF93E0EFB8
:10395000F6E01382128288EE93E0A0E0B0E0848368
:103960009583A683B78321E432E03183208325EC5D
:1039700030E03587248724EC30E03787268720EC39
:1039800030E0318B208B21EC30E0338B228B22EC2A
:1039900030E0358B248B26EC30E0378B268B118E74
:1039A000128E138E148EEDE8F7E020E5208311824D
:1039B000EFE8F7E0158216821186138642E050E0A8
:1039C00060E070E0448755876687778713A215A665
:1039D00014A623E532E033A722A717A6E8EDF7E007
:1039E0001382128284839583A683B7838FE592E046
:1039F0009183808386E090E00E94D828EC0180E1EA
:103A000090E09983888382E090E09B838A838DE0B5
:103A100090E00E94D828FC011382128281E792E094
:103A200091838083118687E2848380E1828782E0AC
:103A300083871486FD83EC83D093F90AC093F80A38
:103A40001092F10A1092F00A40E853E46DE678E330
:103A500082EF9AE00E942C1188E09AE00E94A21C5A
:103A600081E89AE00E9408028FEE98E00E94080226
:103A700083E08093600986E0EDE2F2E0A1E6B9E040
:103A800001900D928A95E1F76CEB72E087E699E080
:103A90000E94721961EC72E08DE699E00E94721941
:103AA00068EC72E083E799E00E94721980912A0223
:103AB00090912B02A0912C028093790990937A091E
:103AC000A0937B0910927D0910927C0910927F09C6
:103AD00010927E0910928109109280091092830938
:103AE0001092820910928409109286091092850919
:103AF00087E899E00E94A21C8EE698E00E94A21C32
:103B00006DEC72E08CEE97E00E94721968ED72E045
:103B100082EF97E00E9472196FED72E088EF97E0F4
:103B20000E9472191092FE078FEF97E0DF91CF91FC
:103B30000C940802CF93DF93CDB7DEB7CB54D109F5
:103B40000FB6F894DEBF0FBECDBF789484B5826007
:103B500084BD84B5816084BD85B5826085BD85B531
:103B6000816085BD80916E00816080936E001092AF
:103B7000810080918100826080938100809181002A
:103B800081608093810080918000816080938000BB
:103B90008091B10084608093B1008091B000816019
:103BA0008093B00080919100826080939100809119
:103BB000910081608093910080919000816080935A
:103BC00090008091A10082608093A1008091A1006B
:103BD00081608093A1008091A00081608093A0000B
:103BE0008091210182608093210180912101816077
:103BF0008093210180912001816080932001809138
:103C00007A00846080937A0080917A008260809349
:103C10007A0080917A00816080937A0080917A00A6
:103C2000806880937A001092C100E0910007F091C3
:103C3000010782E08083E091FC06F091FD0610828E
:103C4000E091FE06F091FF0680E180831092080764
:103C5000E0910407F091050786E08083E091020778
:103C6000F0910307808180618083E0910207F091E9
:103C70000307808188608083E0910207F091030749
:103C8000808180688083E0910207F0910307808142
:103C90008F7D808380EF9AE00E941C17382E81115F
:103CA0000BC049E150E068EE72E080EF96E00E94C0
:103CB0007C040E940117FFCF0E94A01590E0880F9E
:103CC000892F881F990B892B09F4D0C09FE3E92E17
:103CD00092E0F92EF7016491662349F080EF96E0B7
:103CE0000E941205FFEFEF1AFF0A892B99F70E9435
:103CF00001174BE050E063E372E09E012F5F3F4FFE
:103D00007901C9010E94D927CE010A960E94951C0B
:103D1000082FE981E154E33128F50E2E000CFF0B4A
:103D20008827EA56F14E8F4F0C94D0286A24B21E91
:103D3000B21E7E24B21E8024B21EB21EB21EA91E66
:103D4000B21EB21E71247C247A24B21EB21EB21E90
:103D500078248A8111E0813629F08B8116E08E3635
:103D600009F017E0CE0105960E94951CD82E48E078
:103D700050E06AE272E0C7010E94D927C7010E94A1
:103D8000951CC82ECE0104960E94951CB82ECE011B
:103D900007960E94951C382F88E0D7011D928A95BE
:103DA000E9F72AE0832F622F0E94B028982F880F0E
:103DB000890F880F830F8A838B2D0E94B028982F3C
:103DC000880F890F880F8B0D8B838C2D0E94B02854
:103DD000982F880F890F880F8C0D8C834D2D612FA4
:103DE000802F90E00E94AC11069667E070E00E9480
:103DF000BC28811101C087E08D832AE08D2D622FC0
:103E00000E94B028982F880F890F880F8D0D8E8300
:103E1000812F0E94B028982F990F890F880F180FB3
:103E20001F83802F0E94B028982F880F890F880F3A
:103E3000800F888721E048E050E0B7018091F00AC8
:103E40009091F10A0E944B140E94A0159FE09AA342
:103E50008F778BA321E042E050E0BE016E5D7F4F83
:103E60008091F00A9091F10A0E944B14C090F80AD8
:103E7000D090F90AF601048115810E946112D801DF
:103E800015961C9215971B968C911B97823018F0F3
:103E900098E015969C93F801808762E370E080E0DB
:103EA00090E00E943D04D8011C966C91C8010E94CC
:103EB000341468EE73E080E090E00E943D0460E31B
:103EC000C8010E9460168BE4E82E86E4F82EC70134
:103ED0000197F1F760E3C8010E946016C7010197DE
:103EE000F1F760E3C8010E94601683E592E0019754
:103EF000F1F760E2C8010E946016F8016581606216
:103F000040E0C8010E94791684E0D80116968C938F
:103F100040E06CE0C8010E947916C8010E94DE16DC
:103F200082E0F801878340E066E0C8010E947916CC
:103F300040E062E0C8010E9479168BE39FE101979F
:103F4000F1F7D60114968D919C9128E0FC0124870D
:103F500060E00E943414D60114968D919C910E94C9
:103F6000DE168EE698E00E94BF19809170048130C1
:103F700009F0D1C486E090E00E94D828FC0188E1D5
:103F8000828389E183838AE184838BE185838FEF58
:103F900090E091838083F0935F09E0935E0985E868
:103FA00099E00E941C170091F80A1091F90AC801C3
:103FB0000E94F61662E073E0CE0101960E9472192B
:103FC00020E040E0BE016F5F7F4FC8010E94BE1637
:103FD000CE0101960E94581780917C0990917D092D
:103FE00026E0289FB001299F700D11246959764F52
:103FF00021E040E08091F80A9091F90A0E94BE16F3
:1040000016E0C12EEE24E394F12C8FEE98E00E948E
:104010004206D82E8823C9F30091F80A1091F90AB4
:10402000C8010E94F61662E073E0CE0101960E947C
:10403000721920E040E0BE016F5F7F4FC8010E940F
:10404000BE16CE0101960E945817B1E4DB125AC485
:1040500080917E0990917F09892B09F4E2C4009137
:10406000F80A1091F90AC8010E94F61620917E09FB
:1040700030917F09032E000C440B550B225331095C
:1040800041095109AFE7B0E00E94742822E330E013
:1040900040E050E00E94552820583F4F4F4F5F4F5F
:1040A0003093810920938009E0915E09F0915F09C6
:1040B0002F3F310519F014F02FEF30E037FF02C029
:1040C00030E020E031832083C8010E94F61661E1D0
:1040D00073E0CE0101960E94721920E040E0BE011B
:1040E0006F5F7F4FC8010E94BE16CE0101960E94ED
:1040F00058176BE772E0CE0182960E9472198FEE1C
:1041000098E00E9442068823D1F3813409F0D3C499
:104110008EA19FA1892B99F38AA19BA1009709F4F5
:10412000C6C40E94B2277093830960938209232C2E
:10413000CE0182960E945817222009F4E6C381E03E
:104140008093840965E879E0CE018A5B9F4F0E94E5
:10415000C9150091820910918309CE018A5B9F4F96
:104160000E94D811012E000C220B330BAB01BC01B5
:10417000400F511F621F731FCE01805C9F4F0E9432
:104180002C1106E213E05AE0D52E67E0E62EF12C62
:1041900072E3972EE0E3AE2EFDE6BF2EADE4CA2E0D
:1041A000D8018C91883681F411968C9111978836BC
:1041B00059F424968FAD24976D2D0E94B028805D10
:1041C0008C93905D11969C93F80180818D3669F4F3
:1041D00081818D3651F425968FAD25976D2D0E94E6
:1041E000B028805D8083905D9183D8018C91833766
:1041F00081F411968C911197833759F426968FADDF
:1042000026976D2D0E94B028805D8C93905D11964D
:104210009C93F8018081843461F58181843449F56F
:104220008281843409F0B8C421968FAD21972396FA
:104230004FAD239722966FAD229790E00E94AC116C
:104240000696B7010E94BC28FC01EE0FFF1F8E0FDF
:104250009F1F8A579D4FFC012491D8012C933196C2
:10426000E4911196EC9311970296FC0184911296B9
:104270008C93D8018C918D3421F511968C911197E6
:104280008D34F9F412968C9112978D3409F08FC405
:104290002296EFAD2297E150FF0BCF01880F991FB7
:1042A0008E0F9F1F8F599D4FFC0124912C933196A7
:1042B000E4911196EC931197FC013296E4911296D9
:1042C000EC93D8018C91893529F511968C91119731
:1042D000893501F512968C911297893509F073C4CE
:1042E00013968C911397893509F06DC49C921196A1
:1042F000AC92119721968FAD21976D2D0E94B02819
:10430000292F0E94B028905D12969C931297205DF1
:1043100013962C93D8018C91813409F063C41196C3
:104320008C911197803511F41196CC920F5F1F4F2D
:10433000F3E00D321F0709F033CF66E273E0CE01E0
:10434000CA960E9472196BE772E0CE01C4960E9471
:10435000721900915E0910915F09D8016D917C91ED
:10436000119712968C910E94250370E060E0F8018D
:1043700083810E942503D8016D917C911197149639
:104380008C910E94250370E060E0F80185810E9415
:10439000250310E000E00E9470044B015C0165E819
:1043A00079E0CE018E960E94C915CE01805C9F4FA8
:1043B0000E94D8112B013C01CE018E960E94D8118B
:1043C000461A570A680A790A8091E7089091E80826
:1043D000A091E908B091EA08A5019401281B390BC6
:1043E0004A0B5B0BDA01C901883E9340A105B10578
:1043F00008F4D2C08092E7089092E808A092E908F9
:10440000B092EA08E090F80AF090F90AC7010E9419
:10441000F616043011050CF05FC04114510461041C
:10442000710409F4EEC36FE273E0CE0101960E94BD
:10443000721920E040E0BE016F5F7F4FC7010E940C
:10444000BE16CE0101960E945817C301B2012CE39B
:1044500030E040E050E00E947F2849017B01C0909D
:10446000F80AD090F90ACE0101960E9436184AE067
:10447000E416F1040CF0C0C32DEDE22E22E0F22E82
:10448000B401CE0188960E943618BE01685D7F4F48
:10449000CE0182960E94791865E174E0CE01829681
:1044A0000E94B417B7010E94B417BE016F5F7F4F1F
:1044B0000E94CE1721E040E0BC01C6010E94BE165A
:1044C000CE0182960E945817CE0188960E945817F6
:1044D000CE0101960E945817C8010497049708F06E
:1044E0009FC36091800970918109CE0101960E945D
:1044F000361880917C0990917D0956E0589FB00153
:10450000599F700D11246959764FCE0182960E94F1
:1045100079186AE473E0CE0182960E94B417BE0156
:104520006F5F7F4F0E94CE176DE473E00E94B41757
:10453000BC01CE0188960E947918CE0182960E9415
:104540005817CE0101960E945817E090F80AF09093
:10455000F90A63E573E0CE0101960E94721920E02A
:1045600040E0BE016F5F7F4FC7010E94BE16CE01C3
:1045700001960E94581721E040E0BE01685D7F4F20
:104580008091F80A9091F90A0E94BE16CE01889691
:104590000E9458170F5F1F4F4114510461047104AA
:1045A00009F496C38FEE98E00E944206823409F027
:1045B00088C3E090F80AF090F90AC7010E94F61645
:1045C0006DE673E0CE0101960E94721920E040E092
:1045D000BE016F5F7F4FC7010E94BE16CE010196DC
:1045E0000E945817E090F80AF090F90A6BE773E020
:1045F000CE0101960E94721921E040E0BE016F5F7A
:104600007F4FC7010E94BE16CE0101960E94581727
:104610008FEE98E00E944206813409F030C30E9478
:10462000FC030091F80A1091F90AC8010E94F616DD
:1046300069EB73E0CE0101960E94721920E040E020
:10464000BE016F5F7F4FC8010E94BE16CE0101966A
:104650000E94581760ED77E080E090E00E943D04F2
:104660006091820970918309CE0101960E943618EB
:10467000BE01665C7F4FCE0182960E9479186AE483
:1046800073E0CE0182960E94B417BE016F5F7F4F28
:104690000E94CE1769E873E00E94B417BC01CE01F6
:1046A000C4960E946218CE0182960E945817CE01CD
:1046B00001960E9458171BA21AA21DA21CA21FA29B
:1046C0001EA22AE0AE014F5F5F4FC301B2010E94FC
:1046D0000928BE016F5F7F4FCE0182960E940218AB
:1046E00064E973E0CE0101960E947219BE016E5D0D
:1046F0007F4FCE0101960E94CE1766EA73E00E94BA
:10470000B417DC0114964D915C9115976D917C91D5
:10471000CE01C4960E948817CE0101960E945817B8
:10472000CE0182960E94581741E150E060EB73E0A1
:10473000CE01C4960E9488170E94FC030091F80ADB
:104740001091F90AC8010E94F6166EEC73E0CE01D2
:1047500001960E94721920E040E0BE016F5F7F4F1A
:10476000C8010E94BE16CE0101960E94581760ED46
:1047700077E080E090E00E943D040091F80A1091FB
:10478000F90A6091820970918309CE0101960E9415
:104790003618BE01665C7F4FCE0182960E94791862
:1047A0006BE473E0CE0182960E94B417BE016F5F86
:1047B0007F4F0E94CE1767ED73E00E94B41720E090
:1047C00040E0BC01C8010E94BE16CE0182960E9444
:1047D0005817CE0101960E945817E090F80AF09001
:1047E000F90A80917C0990917D0926E0289F80013B
:1047F000299F100D11240959164F6AED73E0CE015F
:1048000001960E947219B801CE0101960E94CE173E
:1048100021E040E0BC01C7010E94BE16CE01019616
:104820000E945817211033C060918209709183094A
:10483000CE0101960E943618BE01665C7F4FCE0104
:1048400082960E9479186AE473E0CE0182960E94F3
:10485000B417BE016F5F7F4F0E94CE1769E873E007
:104860000E94B417BC01CE01C4960E946218CE010A
:1048700082960E945817CE0101960E9458174EE06A
:1048800050E062EE73E0CE01C4960E948817CE011C
:10489000C4960E94091768E873E180E090E00E94E6
:1048A0003D0410927F0910927E0910927D091092AA
:1048B0007C0910928109109280091092830910924C
:1048C0008209CE01C4960E945817CE01CA960E9452
:1048D00058171DC08B8114E0823709F443CA18E0D1
:1048E00041CA8B8113E0823709F43CCA15E03ACA09
:1048F00019E038CA1AE036CA1BE034CA1CE032CAD2
:1049000012E030CAE2E4DE128CC0109284098EE616
:1049100098E00E94BF1980917004823009F01CC297
:104920008FEF97E00E944206823409F411C20E9480
:1049300070040091E4071091E5072091E60730919B
:10494000E707601B710B820B930B683E7340810578
:10495000910590F00E9470046093E4077093E5075E
:104960008093E6079093E7078091FE078F5F83307F
:1049700008F0B0C18093FE070E9470040091E80720
:104980001091E9072091EA073091EB07601B710B4A
:10499000820B930B643F71408105910508F2809171
:1049A000FE0781119AC10091F80A1091F90AC80115
:1049B0000E94F61661EF73E0CE0101960E94721913
:1049C00020E042E0BE016F5F7F4FC8010E94BE162B
:1049D000CE0101960E9458170091F80A1091F90A29
:1049E0006DEF73E0CE0101960E94721962EF77E0DD
:1049F000CE0101960E94CE1721E040E0BC01C80123
:104A00000E94BE16CE0101960E9458170E947004A3
:104A10006093E8077093E9078093EA079093EB07A8
:104A20007FCF10E020E080916009181738F5812FC2
:104A300090E0FC01E758F64F3081D3121DC09093EF
:104A40007D0980937C09880F991FFC01EF59F64F6F
:104A50008081918190937F0980937E091C9DB00194
:104A600011246959764F21E040E08091F80A909135
:104A7000F90A0E94BE16232D1F5FD5CF2111C5CA8A
:104A8000F0927D09E0927C0980916309909164091C
:104A900090937F0980937E0921E040E06DE679E004
:104AA0008091F80A9091F90A0E94BE16AECA60E0A1
:104AB00070E0CB0138CB843401F56BE772E0CE01B6
:104AC00082960E9402180091F80A1091F90AC80112
:104AD0000E94F61661E173E0CE0101960E94721900
:104AE00020E040E0BE016F5F7F4FC8010E94BE160C
:104AF000CE0101960E94581702CB282F082E000CD9
:104B0000330B205331092A30310508F040C0898326
:104B10001A8241E050E0BE016F5F7F4FCE01829666
:104B20000E9488170091F80A1091F90AC8010E94A2
:104B3000F61661E173E0CE0101960E94721920E041
:104B400040E0BE016F5F7F4FC8010E94BE16CE01DC
:104B500001960E9458170091F80A1091F90ABE01B7
:104B60006E5D7F4FCE0101960E94791863E273E07B
:104B7000CE0101960E94B41721E040E0BC01C801BB
:104B80000E94BE16CE0101960E945817B8CA823400
:104B900009F0B5CA212CCCCA23968FAD23976D2D71
:104BA0000E94B028805D8083905D918362CB2296C5
:104BB0008FAD22976D2D0E94B028805DF801808313
:104BC000905D91837ECB21968FAD21976D2D0E94B4
:104BD000B028292F0E94B028905DF8019083205DB5
:104BE000218398CB813609F0A1CBF80181818037F0
:104BF00009F09CCBB1829ACB9BE7E92E92E0F92E8B
:104C00003FCC60E473E0CE0101960E94721920E06F
:104C100040E0BE016F5F7F4FC7010E94BE1658CCB7
:104C2000083011050CF4B6CCE090F80AF090F90ABF
:104C3000C7010E94F61661E673E0CE0101960E945C
:104C4000721920E040E0BE016F5F7F4FC7010E94F4
:104C5000BE16CE0101960E94581721E040E0BE0129
:104C6000665C7F4F8091F80A9091F90A0E94BE1607
:104C70000C3011050CF48ECC10E000E08BCC8334AA
:104C800009F0C6CCE090F80AF090F90AC7010E943A
:104C9000F61662EC73E0CE0101960E94721920E0D4
:104CA00040E0BE016F5F7F4FC7010E94BE16CE017C
:104CB00001960E94581760ED77E080E090E00E9436
:104CC0003D0464E670E080E090E00E943D0463CB28
:104CD000212C32CD1092FE074FCE813081F400910D
:104CE000F80A1091F90AC8010E94F61668E074E00B
:104CF000CE0101960E94721968EF77E079CE82307A
:104D000009F084CE0091F80A1091F90AC8010E94B6
:104D1000F61661EF73E0CE0101960E94721920E051
:104D200042E0BE016F5F7F4FC8010E94BE16CE01F8
:104D300001960E9458170091F80A1091F90A60E153
:104D400074E0CE0101960E9472196CEE77E050CEAD
:104D50008EE698E00E94BF1980917004833009F0BC
:104D6000CDC088E0C82E10E000E081E89AE00E9403
:104D70004206D82E0E9470048090000A9090010A8A
:104D8000A090020AB090030A681979098A099B0960
:104D9000683E73408105910508F49AC00E94700432
:104DA0006093000A7093010A8093020A9093030AA9
:104DB000CE0182960E94821867E174E0CE010196CE
:104DC0000E947219BE016E5D7F4FCE0101960E9456
:104DD000CE170E940917CE0101960E945817CE01E6
:104DE00082960E945817CE0182960E9403196EE1A6
:104DF00074E0CE0101960E947219BE016E5D7F4F74
:104E0000CE0101960E94CE170E940917CE0101968D
:104E10000E945817CE0182960E945817E090F80A17
:104E2000F090F90AC7010E94F616CE0182960E9400
:104E3000821867E174E0CE0101960E947219BE01EA
:104E40006E5D7F4FCE0101960E94CE1720E040E0BC
:104E5000BC01C7010E94BE16CE0101960E945817E0
:104E6000CE0182960E945817E090F80AF090F90A55
:104E7000CE0182960E9403196EE174E0CE01019684
:104E80000E947219BE016E5D7F4FCE0101960E9495
:104E9000CE1721E040E0BC01C7010E94BE16CE0142
:104EA00001960E945817CE0182960E9458170A3028
:104EB000110564F0E091F80AF091F90A8481958176
:104EC000DC011C961C9260E00E9434140F5F1F4F9F
:104ED000DD2009F44ACFE091F80AF091F90A8481C3
:104EE0009581B2E4DB1219C028E0FC01248760E060
:104EF0000E94341488E09AE00E94BF1988E798E085
:104F00000E944206823431F4109270048EE698E0DA
:104F10000E94BF190E947F0528C8DC011C96CC9214
:104F200060E00E9434141FCF88EF97E00E9458176A
:104F300082EF97E00E9458178CEE97E00E94581776
:104F400083E799E00E9458178DE699E00E94581770
:104F500087E699E00E94581780915E0990915F0959
:104F60000C9474291F93FC0199278827BC01E894AD
:104F700011911032E9F3193010F01E30C8F31B32D2
:104F800051F01D3249F4689406C00E94F427610F65
:104F9000711D811D911D119110531A30B0F33EF413
:104FA00090958095709561957F4F8F4F9F4F1F9182
:104FB0000895FB01DC0102C005900D924150504064
:104FC000D8F70895FB01DC0105900D920020E1F770
:104FD0000895BB274A3031F4992322F4BDE290951D
:104FE00081959F4F0C942C28592F482F372F262F0F
:104FF000660F771F881F991F660F771F881F991FDD
:10500000620F731F841F951F660F771F881F991FDC
:105010000895BB27FA01A62F621771058105910536
:10502000330B30FB66F0AA27660F771F881F991F86
:10503000AA1FA21710F0A21B63953850A9F7A05D14
:10504000AA3308F0A95DA19336F7B111B19310828C
:10505000CA010C944528BB27FB015527AA27880FB6
:10506000991FAA1FA41710F0A41B83955051B9F7DC
:10507000A05DAA3308F0A95DA193009779F7B1115B
:10508000B1931192CB010C944528DC01FC01672FF0
:1050900071917723E1F7329704C07C916D9370830F
:1050A0006291AE17BF07C8F30895052E97FB1EF453
:1050B00000940E946C2857FD07D00E947F2807FCAF
:1050C00003D04EF40C946C28509540953095219562
:1050D0003F4F4F4F5F4F0895909580957095619524
:1050E0007F4F8F4F9F4F08950E94A128A59F900D3D
:1050F000B49F900DA49F800D911D11240895A1E2ED
:105100001A2EAA1BBB1BFD010DC0AA1FBB1FEE1F41
:10511000FF1FA217B307E407F50720F0A21BB30B8C
:10512000E40BF50B661F771F881F991F1A9469F708
:1051300060957095809590959B01AC01BD01CF0164
:105140000895A29FB001B39FC001A39F700D811D60
:105150001124911DB29F700D811D1124911D089580
:10516000991B79E004C0991F961708F0961B881FB9
:105170007A95C9F780950895AA1BBB1B51E107C01A
:10518000AA1FBB1FA617B70710F0A61BB70B881FD7
:10519000991F5A95A9F780959095BC01CD01089566
:1051A000EE0FFF1F881F8BBF0790F691E02D19941B
:1051B0000F931F93CF93DF938230910510F482E019
:1051C00090E0E091FC0AF091FD0A30E020E0B0E0D0
:1051D000A0E0309799F42115310509F44AC0281B45
:1051E000390B24303105D8F58A819B816115710511
:1051F00089F1FB0193838283FE0111C040815181BB
:105200000281138148175907E0F04817590799F4AC
:10521000109761F012960C93129713961C93329686
:10522000CF01DF91CF911F910F9108950093FC0A58
:105230001093FD0AF4CF2115310551F042175307A1
:1052400038F0A901DB019A01BD01DF01F801C1CFEE
:10525000EF01F9CF9093FD0A8093FC0ACDCFFE01B8
:10526000E20FF31F819391932250310939832883F0
:10527000D7CF2091FA0A3091FB0A232B41F42091D9
:105280001E0230911F023093FB0A2093FA0A2091EC
:105290001C0230911D022115310541F42DB73EB796
:1052A0004091200250912102241B350BE091FA0A13
:1052B000F091FB0AE217F307A0F42E1B3F0B28170F
:1052C000390778F0AC014E5F5F4F2417350748F07F
:1052D0004E0F5F1F5093FB0A4093FA0A81939193FC
:1052E0009FCFF0E0E0E09CCFCF93DF930097E9F011
:1052F000FC01329713821282A091FC0AB091FD0A40
:10530000ED0130E020E01097A1F420813181820F7F
:10531000931F2091FA0A3091FB0A2817390709F0E8
:1053200061C0F093FB0AE093FA0ADF91CF910895F0
:10533000EA01CE17DF07E8F54A815B819E0141153E
:105340005105B1F7E901FB83EA8349915991C40FF3
:10535000D51FEC17FD0761F4808191810296840FBF
:10536000951FE90199838883828193819B838A8336
:10537000F0E0E0E012968D919C9113970097B9F5BB
:105380002D913C911197CD010296820F931F209190
:10539000FA0A3091FB0A2817390739F6309751F588
:1053A0001092FD0A1092FC0AB093FB0AA093FA0A2D
:1053B000BCCFD383C28340815181840F951FC8170E
:1053C000D90761F44E5F5F4F88819981480F591F5B
:1053D000518340838A819B81938382832115310588
:1053E00009F0B0CFF093FD0AE093FC0A9ECFFD01D7
:1053F000DC01C0CF13821282D7CF4F925F926F929F
:105400007F928F929F92AF92BF92CF92DF92EF9254
:10541000FF920F931F93CF93DF938C01009799F422
:10542000CB01DF91CF911F910F91FF90EF90DF9013
:10543000CF90BF90AF909F908F907F906F905F9034
:105440004F900C94D828FC01E60FF71F9C012250C6
:105450003109E217F30708F4AEC0D901CD91DC9110
:105460001197C617D70720F1C530D10578F0CE01C6
:1054700004978617970750F0C61BD70B2297C19346
:10548000D1936D937C93CF010E947429C801DF9161
:10549000CF911F910F91FF90EF90DF90CF90BF9031
:1054A000AF909F908F907F906F905F904F900895F6
:1054B0005B01AC1ABD0A4C018C0E9D1EA091FC0A2A
:1054C000B091FD0A512C412CF12CE12C109731F5B3
:1054D0008091FA0A9091FB0A8815990509F05CC041
:1054E0004616570608F058C080911C0290911D0284
:1054F000009741F48DB79EB7409120025091210250
:10550000841B950BE817F90708F055C0F093FB0AC8
:10551000E093FA0AF90171836083B8CF8D919C9171
:10552000119712966C90129713967C901397A8156A
:10553000B90559F56C0142E0C40ED11CCA14DB0454
:1055400020F1AC014A195B09DA011296159780F037
:105550006282738251834083D9016D937C93E114FD
:10556000F10471F0D7011396FC93EE9312978ECF4E
:1055700022968C0F9D1FF90191838083F301EFCF59
:10558000F093FD0AE093FC0A81CF4816590608F40F
:105590002C017D01D3019ACFCB010E94D8287C0138
:1055A000009749F0AE01B8010E94DE2AC8010E94AE
:1055B000742987016BCF10E000E068CFFB01DC01AC
:1055C00002C001900D9241505040D8F70895FB0160
:1055D000DC0101900D920020E1F7089511E0C2ED89
:1055E000D1E000E006C0802FFE010E94D028219665
:1055F000011DC33DD10780E00807A9F7F894FFCF4C
:10560000FFFFFFFF05040302090807063134372AAC
:105610003235383033363923414243440000FE0AE4
:105620008000000040001400540031323332004B3F
:10563000006400000000003A0836080E0800000070
:105640000012057C04A9045F05DA04B804CC040048
:1056500000000061107C04710E2B11000000000599
:1056600014D8134814AE13D113BE13AF13000000A7
:1056700000FB167C0448142B110D0A002F00312E5C
:105680002052756E2050726F6772616D00322E204D
:10569000496E666F20426F61726400332E204D6F39
:1056A0006465205374616E644279003D3D3D3D3D2B
:1056B000204D656E75203D3D3D3D3D00736C6F771F
:1056C000006E6F726D616C00666173740061746D61
:1056D000656761323536300056312E302E30003855
:1056E0002F322F32303234005374617475733A2084
:1056F000436F756C646E27742066696E6420525423
:10570000430053656C6563742073706565643A206B
:1057100000496E73657274206475726174696F6E8E
:105720003A200020730068683A6D6D3A7373005236
:10573000656D61696E696E672074696D653A2000F8
:1057400046696E69736865642100202800205057FF
:105750004D29005370656564204D6F746F723A2057
:105760000046696E6973682061743A200053746F53
:10577000702070726F6772616D3F00413A20596509
:10578000732020433A204E6F00207365636F6E6470
:1057900073290A0052656D61696E696E67207469CC
:1057A0006D65093A2000207365636F6E64730A00AB
:1057B000537461747573093A2053746F7070656423
:1057C0002E00526573756D696E672E2E2E00446F24
:1057D0006E652E2E2E200073290053706565643A85
:1057E0002000537461747573093A20446F6E652EFE
:1057F00000496E666F726D6174696F6E0046697202
:105800006D776172653A20004275696C643A2000D8
:10581000426F6172643A00446174653A20005469D1
:065820006D653A20000056
:00000001FF
