:100000000C9466020C9497020C9497020C9497023D
:100010000C9497020C9497020C9497020C949702FC
:100020000C9497020C9497020C9497020C949702EC
:100030000C9497020C9497020C9497020C949702DC
:100040000C9497020C9497020C9497020C949702CC
:100050000C9497020C9497020C9497020C94B0297C
:100060000C9497020C94242A0C94FA290C9497026D
:100070000C9497020C9497020C9497020C9497029C
:100080000C9497020C9497020C9497020C9497028C
:100090000C9497020C9497020C9497020C945A2A91
:1000A0000C9497020C9497020C9497020C9497026C
:1000B0000C9497020C9497020C9497020C9497025C
:1000C0000C9497020C9497020C9497020C9497024C
:1000D0000C9497020C9497020C9497020C9497023C
:1000E0000C9497020C94CC2F0C9440030C94CA2FC0
:1000F0000C9428140C94CE2F0C94FC130C94200315
:100100000C944A030C94CB2D0C94E50F0C940E1018
:100110000C9423040C947E0D0C9458040C942E0320
:100120000C9435040C9496170C9407040C94130348
:100130000C9424140C9445030C941E100C944E1B28
:100140000C94D42D0C942A030C9449040C94A517F8
:100150000C94B8170C9480040C949A020C94240309
:100160000C94F8030C940B030C9476040C94BF17B6
:100170000C94EC170C940F050C946C040C946E0505
:100180000C9470110C94D22F0C9411040C94D02F59
:100190000C944C050C941B040C94840F0C943C039D
:1001A0000C94BC2F0C948E2B0C9499020C94F0039D
:1001B0000C9460050C9462040C940F030C943B1097
:1001C0000C943D050C9417030C948A040C94FD03C5
:1001D0000C947A110C9446030C9410050C9452352F
:1001E0000C94F3050C94C32F0C941A030C9438034D
:1001F0000C9432030C942B040C9405030C94EE0F16
:100200000C9495170C94A6050C942F180C943F048D
:1002100000407A10F35A00A0724E18090010A5D4BD
:10022000E80000E87648170000E40B54020000CA1A
:100230009A3B000000E1F505000080969800000060
:1002400040420F000000A0860100000010270000BF
:100250000000E803000000006400000000000A0045
:10026000000000000100000000002C76D888DC6748
:100270004F0823DFC1DFAE59E1B1B796E5E3E453A0
:10028000C63AE651997696E8E6C28426EB898C9BBD
:1002900062ED407C6FFCEFBC9C9F40F2BAA56FA55D
:1002A000F490055A2AF75C936B6CF9676DC11BFCDF
:1002B000E0E40D47FEF520E6B500D0ED902E0300FA
:1002C000943577050080841E080000204E0A000047
:1002D00000C80C333333330F986E12831141EF8D06
:1002E0002114893BE65516CFFEE6DB18D1844B3846
:1002F0001BF77C1D901DA4BBE424203284725E2277
:100300008100C9F124ECA1E53D273D3D3D3D3D2067
:100310004D656E75203D3D3D3D3D001F1C1F1E1F60
:100320001E1F1F1E1F1E0000200023002600290084
:100330002C002F003200000100000301060109011A
:100340007C3C3E5E2B3D3F2F5B5D3B2C2A225C00BC
:1003500031313A31333A3137004175672020362048
:100360003230323400525443204C6F737420706F1B
:100370007765722C2073657474696E672074686584
:100380002074696D65210000002100240027002AE7
:10039000002D003000330001010000040107010AB4
:1003A0000100002200250028002B002E003100341F
:1003B0000002010000050108010B01050505050704
:1003C0000508080808020202020A0A0808040404D0
:1003D00004010101010101010103030303030303FC
:1003E00003040707070C0C0C0C0C0C0C0C0202028B
:1003F0000206060606060606060B0B0B0B0B0B0B7E
:100400000B0102102020080810204010204080021C
:10041000010201080402010102040810204080804A
:1004200040201008040201800402018040201008CE
:1004300004020108040201010204081020408001A6
:100440000204081020408000000A0B02090C0D0E67
:100450000807030401000000000000000000000085
:10046000000000000000000000000000000000008C
:100470000000001211100000000000000000000049
:10048000000000000000000000000000004A616E53
:100490004665624D61724170724D61794A756E4A6E
:1004A000756C4175675365704F63744E6F76446524
:1004B000630053756E4D6F6E54756557656454686F
:1004C00075467269536174008E2B523511241FBE1C
:1004D000CFEFD1E2DEBFCDBF00E00CBF15E0A0E062
:1004E000B2E0EAE6F9E700E00BBF02C007900D9228
:1004F000AC3AB107D9F72CE0ACEAB5E001C01D92E7
:10050000AF38B207E1F712E0C5E6D2E000E006C07E
:1005100021970109802FFE010E94EC39C436D107D2
:1005200080E00807A9F70E94BF2C0C94A33C0C9410
:10053000000008950895FC01128216821582178228
:1005400087E392E091838083DF015C96CD01CC96B6
:100550001C9214961C921E92139715961C92159736
:100560001696A817B907A1F7DF01AE59BF4F88E06B
:1005700092E011969C938E93129684E092E01196ED
:100580009C938E93129684E08C9311968C9317977C
:100590008CE092E011969C938E9318968AE090E0FE
:1005A00011969C938E93129684EF91E011969C93F2
:1005B0008E93139611961C921E9251971D921D9226
:1005C0001D921C921397E459FF4F10820895815099
:1005D000823108F05AC0E82FF0E08827ED50FD4F37
:1005E0008F4F0C94EC391303170305030B030F0310
:1005F00045031A03200324032A032E03320338037E
:100600003C034503400346034A03809180008F77F3
:10061000809380000895809180008F7DF9CF809134
:100620008000877FF5CF84B58F7784BD089584B52A
:100630008F7DFBCF8091B0008F778093B0000895BD
:100640008091B0008F7DF9CF809190008F7780935B
:1006500090000895809190008F7DF9CF8091900057
:10066000877FF5CF8091A0008F778093A0000895B9
:100670008091A0008F7DF9CF8091A000877FF5CF7A
:10068000809120018F77809320010895809120012F
:100690008F7DF9CF80912001877FF5CF1F93CF9376
:1006A000DF93282F30E0F901E95BFB4F8491F901DA
:1006B000EF5FFB4FD491F901E554FC4FC491CC237B
:1006C000A9F0162F81110E94E702EC2FF0E0EE0F47
:1006D000FF1FEF55FC4FA591B4918FB7F894EC91A3
:1006E000111108C0D095DE23DC938FBFDF91CF912D
:1006F0001F910895DE2BF8CFCF93DF9390E0FC019C
:10070000EF5FFB4F249185549C4FFC01849188231B
:10071000C9F090E0880F991FFC01E957FC4FA591A3
:10072000B491FC01EF55FC4FC591D49161110DC0FE
:100730009FB7F8948C91209582238C9388812823ED
:1007400028839FBFDF91CF910895623051F49FB706
:10075000F8943C91822F809583238C93E8812E2BF3
:10076000EFCF8FB7F894EC912E2B2C938FBFEACF5D
:100770001F93CF93DF93182FEB0161E00E947C035E
:10078000209739F460E0812FDF91CF911F910C9475
:100790004E03CF3FD10511F461E0F5CFE12FF0E03A
:1007A000E95BFB4FE491E150E23108F0B3C0F0E0C7
:1007B0008827E252FC4F8F4F0C94EC39F003F8037A
:1007C000FD03070411048A041B0423042B043504CD
:1007D0003F044904580462048A046C0476048004CB
:1007E00084B5806884BDC7BDDF91CF911F91089506
:1007F00084B5806284BDC8BDF7CF809180008068D9
:1008000080938000D0938900C0938800EDCF8091C1
:100810008000806280938000D0938B00C0938A0018
:10082000E3CF80918000886080938000D0938D001A
:10083000C0938C00D9CF8091B00080688093B000C5
:10084000C093B300D1CF8091B00080628093B0009C
:10085000C093B400C9CF80919000806880939000CD
:10086000D0939900C0939800BFCF80919000806290
:1008700080939000D0939B00C0939A00B5CF809155
:100880009000886080939000D0939D00C0939C005E
:10089000ABCF8091A00080688093A0008091A000E1
:1008A0008F7B8093A000D093A900C093A8009CCF19
:1008B0008091A00080628093A000D093AB00C09391
:1008C000AA0092CF8091A00088608093A000D0936E
:1008D000AD00C093AC0088CF8091200180688093E8
:1008E0002001D0932901C09328017ECF809120015F
:1008F000806280932001D0932B01C0932A0174CF92
:1009000080912001886080932001D0932D01C093B5
:100910002C016ACFC038D1050CF03ECF33CFCF9336
:10092000DF93C091E80AD091E90A70E060E08A8123
:100930000E94B80370E060E08B810E94B80370E011
:1009400060E08C810E94B80370E060E08D81DF91EF
:10095000CF910C94B8033FB7F8948091FE05909125
:10096000FF05A0910006B091010626B5A89B05C021
:100970002F3F19F00196A11DB11D3FBFBA2FA92F1E
:10098000982F8827BC01CD01620F711D811D911D1B
:1009900042E0660F771F881F991F4A95D1F7089587
:1009A0008F929F92AF92BF92CF92DF92EF92FF927F
:1009B0006B017C010E94AB044B015C01C114D104AA
:1009C000E104F104B9F00E94AB04681979098A09BD
:1009D0009B09683E73408105910580F321E0C21AAE
:1009E000D108E108F10888EE880E83E0981EA11C6A
:1009F000B11CE4CFFF90EF90DF90CF90BF90AF900D
:100A00009F908F9008952FB7F8946091FA05709198
:100A1000FB058091FC059091FD052FBF0895089579
:100A2000AF92BF92CF92DF92EF92FF920F931F93FC
:100A3000CF93DF936C017B018B01040F151FEB013A
:100A40005E01AE18BF08C017D10759F06991D601F1
:100A5000ED91FC910190F081E02DC6011995892B53
:100A600079F7C501DF91CF911F910F91FF90EF9022
:100A7000DF90CF90BF90AF900895FC01538D448DCF
:100A8000252F30E0842F90E0821B930B541710F039
:100A9000CF96089501970895FC01918D828D981746
:100AA00061F0A28DAE0FBF2FB11D5D968C91928D1E
:100AB0009F5F9F73928F90E008958FEF9FEF08954F
:100AC000FC01918D828D981731F0828DE80FF11D18
:100AD000858D90E008958FEF9FEF0895FC01918D33
:100AE000228D892F90E0805C9F4F821B91098F732C
:100AF000992708958AE798E00E946E0521E0892BE6
:100B000009F420E0822F0895FC01A48DA80FB92FCD
:100B1000B11DA35ABF4F2C91848D90E001968F7325
:100B20009927848FA689B7892C93A089B1898C9144
:100B3000837080648C93938D848D981306C0028893
:100B4000F389E02D80818F7D80830895EF92FF925D
:100B50000F931F93CF93DF93EC0181E0888F9B8DE0
:100B60008C8D98131AC0E889F989808185FF15C09A
:100B70009FB7F894EE89FF896083E889F9898081BD
:100B80008370806480839FBF81E090E0DF91CF918C
:100B90001F910F91FF90EF900895F62E0B8D10E0AE
:100BA0000F5F1F4F0F731127E02E8C8D8E110CC01D
:100BB0000FB607FCFACFE889F989808185FFF5CF68
:100BC000CE010E948405F1CFEB8DEC0FFD2FF11DBE
:100BD000E35AFF4FF0829FB7F8940B8FEA89FB89A5
:100BE00080818062CFCFCF93DF93EC01888D882303
:100BF000B9F0AA89BB89E889F9898C9185FD03C080
:100C0000808186FD0DC00FB607FCF7CF8C9185FF64
:100C1000F2CF808185FFEDCFCE010E948405E9CF20
:100C2000DF91CF91089580E090E0892B29F00E9418
:100C30007A0581110E94000080E090E0892B49F044
:100C400080E090E0892B29F00E94000081110E9431
:100C5000000080E090E0892B49F080E090E0892B53
:100C600029F00E94000081110E94000080E090E0C5
:100C7000892B49F080E090E0892B29F00E94000048
:100C800081110C94000008958FB7F8948091F105BC
:100C90008FBF089561E0FC0184810E944E03809122
:100CA000F00581111092F00508958EBD00000DB47D
:100CB00007FEFDCF8EB508958FEF0C9455060F9368
:100CC0001F93CF93DF93EC010E9403058B010E94D9
:100CD0005C068F3F69F00E940305601B710B6C1767
:100CE0007D07A8F380E0DF91CF911F910F910895C8
:100CF00081E0F9CF8CBD9DBD0895CF93DF93EC01CA
:100D00008091F005811109C081E08093F005809108
:100D10001709909118090E947A0660E08C81DF9192
:100D2000CF910C944E038F929F92AF92BF92FF92FD
:100D30000F931F93CF93DF93EC01F62E49015A01D5
:100D40008E81882389F08F8198859C012F5F3F4F8A
:100D500038872F838230924018F40E945C06F3CFCC
:100D6000CE010E944A061E82CE010E947D068CE2C0
:100D700091E00E945F068F2D80640E94550608E175
:100D800010E0D501C401002E04C0B695A795979533
:100D900087950A94D2F70E94550608501109083F1A
:100DA0008FEF180771F785E9FF2021F028E087E829
:100DB000F2128FEF0E94550610E00E945C068A87AF
:100DC00087FF04C01F3F11F01F5FF7CFDF91CF9166
:100DD0001F910F91FF90BF90AF909F908F900895BB
:100DE000AF92BF92CF92DF92EF92FF920F931F9339
:100DF000CF93DF93EC016901C801820F931F81300B
:100E0000924050F58E81882379F088819981AA815A
:100E1000BB8184179507A607B70731F48F819885A2
:100E2000C816D90608F042C0488359836A837B8379
:100E30008B85833039F089E0440F551F661F771F7B
:100E40008A95D1F79A01AB0161E1CE010E94930628
:100E5000882389F083E08D83CE010E944A0680E0DA
:100E6000DF91CF911F910F91FF90EF90DF90CF9086
:100E7000BF90AF9008950E9403055B010E945C063D
:100E80008A878F3F69F40E9403056A197B096D32D6
:100E90007140A0F38FE08D83CE010E944A06DCCF23
:100EA0008E3F89F418861F8281E08E838F8198851A
:100EB0008C159D0550F40E945C068F8198850196E3
:100EC00098878F83F3CF8DE0E6CF6701E00EF11EA8
:100ED0000E945C06F60181936F01EE15FF05C1F7D4
:100EE0008F819885080F191F18870F83898588239C
:100EF00019F001151240A0F08E81882389F08F81AE
:100F000098859C012F5F3F4F38872F838230924016
:100F100018F40E945C06F3CFCE010E944A061E829E
:100F200081E09ECFCF92DF92EF92FF920F93CF930B
:100F3000DF93EC01690182E14115510561057105FD
:100F400099F08B85833039F089E0440F551F661F77
:100F5000771F8A95D1F79A01AB0168E1CE010E9413
:100F60009306882319F084E08D832DC08EEF0E94B4
:100F7000550676018EEFD81AF70181917F010E9404
:100F80005506EC14FD04C1F78FEF0E9455068FEF54
:100F90000E9455060E945C068A878F71853071F425
:100FA000011116C0CE010E944A0681E0DF91CF9167
:100FB0000F91FF90EF90DF90CF90089581E18D83A6
:100FC000CE010E944A06CE010E944A0680E0EECF82
:100FD00088E592E00E945F06811102C085E1C4CFDE
:100FE00020E030E0A9016DE0CE010E949306882345
:100FF00011F084E1B9CF0E945C068111FACFD2CF03
:101000000F934091F3055091F4056091F5057091AF
:10101000F605411551056105710599F0082F22E08B
:1010200036E080910208909103080E94920788237D
:1010300049F01092F3051092F4051092F505109204
:10104000F60581E00F9108950F93CF93C82F8091FB
:10105000F205811105C0C1E08C2FCF910F91089549
:1010600040910002509101026091020270910302CE
:101070000C2F22E036E080910208909103080E9434
:101080009207811102C0C0E0E7CFCC2321F381E0B9
:101090000E9400088823B9F31092F205DDCF8F92E9
:1010A0009F92AF92BF92EF92FF920F931F93CF93B5
:1010B0004B015C01C42F8091000290910102A0912C
:1010C0000202B091030288159905AA05BB0551F1EA
:1010D00081E00E94240881110BC080E0CF911F9114
:1010E0000F91FF90EF90BF90AF909F908F900895D9
:1010F00082E0E82E86E0F82E00E012E030E020E00A
:10110000B501A40180910208909103080E94F006A5
:10111000882319F38092000290920102A0920202A9
:10112000B09203024091F2054C2B4093F20581E00E
:10113000D5CF8F929F92AF92BF92CF92DF92EF92D4
:10114000FF92CF9329E139E03093030820930208FE
:10115000882309F46DC040E060E070E0CB010E949C
:101160004F0881110BC080E0CF91FF90EF90DF908E
:10117000CF90BF90AF909F908F9008958091C007BF
:101180008F7789F78091CC079091CD07A091CE07FA
:10119000B091CF0784369105A105B10520F3C09029
:1011A000C807D090C907E090CA07F090CB07C114D8
:1011B000D104E104F104B9F240E0C701B6010E9494
:1011C0004F08882381F280910D0690910E068115BB
:1011D000924049F6A0911206AA2329F260911006C6
:1011E000709111066115710509F4BDCF20910F06AC
:1011F000222309F4B8CFA09337092093290990E05E
:1012000080E030E0E1E0F0E0C82FAF01082E02C03E
:10121000440F551F0A94E2F72417350769F041E09F
:10122000480F01968930910579F7409332099BCF99
:10123000C12CD12C7601C0CF8093320920911806A1
:101240003091190650E040E02115310541F420911C
:1012500026063091270640912806509129062093B2
:101260002A0930932B0940932C0950932D094601EC
:101270005701860E971EA11CB11C809238099092CE
:101280003909A0923A09B0923B09E0911306F09116
:101290001406F0933E09E0933D09B0E00E949039B6
:1012A000DC01CB01880D991DAA1DBB1D80933F0950
:1012B00090934009A0934109B093420925E0EE0FB5
:1012C000FF1F2A95E1F7E150FE4FEF2FFF27E6952C
:1012D0008E0F9F1FA11DB11D809333099093340978
:1012E000A0933509B09336098090150690901606A4
:1012F000B12CA12C8114910441F48090220690908D
:101300002306A0902406B0902506C81AD90AEA0A36
:10131000FB0AC80CD91CEA1CFB1C04C0F694E79419
:10132000D794C794CA95D2F7C0922E09D0922F09AC
:10133000E0923009F092310985EFC8168FE0D806A7
:10134000E104F10428F48CE080933C0981E00CCFA7
:1013500080E125EFC2162FEFD206E104F104A0F3DD
:1013600080912E0690912F06A0913006B091310603
:1013700080933F0990934009A0934109B09342099B
:1013800080E2E2CF4F925F926F927F928F929F9214
:10139000AF92BF92CF92DF92EF92FF920F931F9383
:1013A000CF93DF93EC01423051056105710590F454
:1013B00080E0DF91CF911F910F91FF90EF90DF9030
:1013C000CF90BF90AF909F908F907F906F905F90E5
:1013D0004F90089589859A85AB85BC850196A11D9E
:1013E000B11D84179507A607B70710F3CB88DC88D3
:1013F000ED88FE888F89803109F042C0BB27A72F76
:10140000962F852F480159012A013B01C80ED91E8C
:10141000EA1EFB1E8091000290910102A09102023F
:10142000B0910302C816D906EA06FB0699F58F8922
:101430008031C1F5B301A201552766277727440FF4
:10144000551F4E5F594FFA01918280828091F205BB
:1014500081608093F2058A89823080F08D819E813F
:10146000AF81B8858C0D9D1DAE1DBF1D8093F3050A
:101470009093F405A093F505B093F60581E099CF1C
:10148000DB01CA01E7E0B695A79597958795EA95A0
:10149000D1F7B8CF40E0C701B6010E944F088111D3
:1014A000C6CF86CFB301A2014F775527662777278E
:1014B000440F551F440F551F4E5F594FFA0180824C
:1014C0009182A282B382C2CF8F929F92AF92BF923B
:1014D000CF92DF92EF92FF920F931F93CF93DF9300
:1014E000FC0181859285A385B4850196A11DB11D5E
:1014F00084179507A607B70770F480E0DF91CF91B6
:101500001F910F91FF90EF90DF90CF90BF90AF9021
:101510009F908F90089583889488A588B68887893E
:10152000803189F5BB27A72F962F852FE9016A0106
:101530007B018F01BC01CD01680D791D8A1D9B1DAA
:101540008090000290900102A0900202B0900302ED
:1015500086169706A806B90601F5F8018789803135
:1015600011F5DD24EE24FF24F601EE0FFF1FEE5FE0
:10157000F94F80819181B0E0A0E088839983AA83AC
:10158000BB8381E0BBCFDB01CA01C7E0B695A7955D
:1015900097958795CA95D1F7C9CF40E00E944F082B
:1015A0008111DBCFAACFE894C7F8DD24EE24FF2415
:1015B000F601EE0FFF1FEE0FFF1FEE5FF94F808168
:1015C0009181A281B381BF70D8CF4F925F926F9209
:1015D0007F92AF92BF92CF92DF92EF92FF920F93E2
:1015E0001F93CF93DF9300D01F92CDB7DEB78C014E
:1015F00049835A836B837C835901C12CD12C76019A
:10160000412C82E0582E612C712C49815A816B81CA
:101610007C819E012F5F3F4FC8010E94640A88238E
:1016200039F1F8018585A301920104C0220F331F0F
:10163000441F551F8A95D2F7DA01C901C80ED91E79
:10164000EA1EFB1E49815A816B817C81878980312A
:1016500011F188EF9FEFAFEFBFE0481759076A0716
:101660007B0798F2F501C082D182E282F38281E0A9
:101670000F900F900F900F90DF91CF911F910F91CE
:10168000FF90EF90DF90CF90BF90AF907F906F90E2
:101690005F904F90089588EF9FEFA0E0B0E0DDCF1E
:1016A000CF93DF93FC012581222321F080E0DF919D
:1016B000CF910895EC0180913C09803159F582E089
:1016C0008583178A108E118E128E80913D0990911C
:1016D0003E09B0E0A0E025E0880F991FAA1FBB1FBC
:1016E0002A95D1F7838B948BA58BB68B85E299E0F5
:1016F0009C8F8B8F81E08C831E821F8218861986B7
:101700001A861B861C861D861E861F86188A198AC5
:101710001A8ACDCF803251F683E0858340913F090C
:10172000509140096091410970914209478B508F57
:10173000618F728F9F012D5E3F4F85E299E00E947D
:10174000E50A8111D3CFB2CF8F929F92AF92BF9211
:10175000CF92DF92EF92FF920F931F93CF93DF937D
:10176000EC018D8181110EC080E0DF91CF911F913E
:101770000F91FF90EF90DF90CF90BF90AF909F9030
:101780008F9008950B891C892D893E8904171507B0
:101790002607370748F34A015B01823031F48A8615
:1017A0009B86AC86BD8681E0E0CF81149104A104C4
:1017B000B10449F41E821F82188619861A861B8678
:1017C0001C861D86F0CF0A851B852C853D85EB8DFB
:1017D000FC8D858590E00996B901A8014150510919
:1017E00061097109082E04C076956795579547954C
:1017F0000A94D2F775016401E1E0CE1AD108E1083C
:10180000F10804C0F694E794D794C7948A95D2F768
:10181000C416D506E606F70620F0012B022B032B93
:1018200011F58F89988DA98DBA8D8E839F83A88796
:10183000B9878E010A5F1F4FC114D104E104F1047E
:1018400009F4ADCF4E815F816885798598018B8DD4
:101850009C8D0E94640A91E0C91AD108E108F10840
:101860008111EACF81CFC41AD50AE60AF70AE1CF7F
:101870003F924F925F926F927F928F929F92AF9220
:10188000BF92CF92DF92EF92FF920F931F93CF936D
:10189000DF93CDB7DEB72C970FB6F894DEBF0FBE3F
:1018A000CDBF5C01DC015B968D909C905C97169699
:1018B0004D905D906D907C90199741145104610496
:1018C000710409F468C0BFEF4B1A5B0A6B0A7B0A0C
:1018D000312CF40181859285A385B4859C01AD01ED
:1018E0002F5F3F4F4F4F5F4F29873A874B875C876A
:1018F000730162011D821E821F821886F401818598
:101900009285A385B4852D813E814F815885281706
:1019100039074A075B0708F056C089859A85AB8569
:10192000BC858C159D05AE05BF0550F482E0C82E20
:10193000D12CE12CF12C92E0492E512C612C712CF0
:101940009E012F5F3F4FB701A601C4010E94640AA8
:101950008823C9F189819A81AB81BC81892B8A2B2B
:101960008B2B09F1260137019FEF491A590A690AA1
:10197000790A2D813E814F8158852F5F3F4F4F4F10
:101980005F4F2D833E834F8358873FEFC31AD30A9F
:10199000E30AF30AB3CFF401408051806280738080
:1019A0003324339496CFC414D504E604F70409F71E
:1019B0000FEF1FEF2FEF3FE0B701A601C4010E9418
:1019C000C209811119C080E02C960FB6F894DEBFD1
:1019D0000FBECDBFDF91CF911F910F91FF90EF9080
:1019E000DF90CF90BF90AF909F908F907F906F903F
:1019F0005F904F903F900895D50116964D915D915F
:101A00006D917C911997411551056105710539F06A
:101A100097018601C4010E94C2098823A1F2D50161
:101A20001696CD92DD92ED92FC921997332051F0EB
:101A3000D701C6010196A11DB11DF40180839183D8
:101A4000A283B383F5018789908DA18DB28D892BF7
:101A50008A2B8B2B39F48481C78AD08EE18EF28E4B
:101A600080688483F50184818062848381E0ACCFC7
:101A70001F93CF93DF93FC0125812223D1F1162FF1
:101A8000EC01848187FF2AC06685778580899189EA
:101A900041E00E944F08882361F1EA8980E2E89FD3
:101AA000F0011124EE5FF94F309719F18D818230EA
:101AB00040F48B899C89AD89BE89848F958FA68FD0
:101AC000B78F8F89988D938F828F8F89988DA98DED
:101AD000BA8DB58BA48B8C818F778C83111103C049
:101AE0008C818F7E8C83812FDF91CF911F910C94FD
:101AF000240880E0DF91CF911F910895FF920F930A
:101B00001F93CF93DF93EC018D81813041F090E002
:101B100080E0DF91CF911F910F91FF9008958C810C
:101B200081FFF5CF82FD1BC00091020810910308D0
:101B3000C8010E947D060E945C06F82EC8010E9422
:101B40004A068FEFF812E3CF8C8185FF1BC060E05F
:101B5000CE010E94380D8C818F7D8C83D8CF4B892C
:101B60005C896D897E898A859B85AC85BD85841756
:101B70009507A607B707C1F2CE010E94A40B8111F9
:101B8000D3CFC5CF4091F3055091F4056091F50591
:101B90007091F605452B462B472B21F080E00E94E3
:101BA0000008B5CF80618C832A853B85317080E049
:101BB00092E0821B930BADCFCF93DF93EC0161E0FA
:101BC0000E94380D882311F01D8281E0DF91CF91B2
:101BD00008952F923F924F925F926F927F928F92D1
:101BE0009F92AF92BF92CF92DF92EF92FF920F93AC
:101BF0001F93CF93DF9300D01F921F92CDB7DEB714
:101C00007C015B01342E5D83DC0115968C91159768
:101C1000813009F0CEC014962C9021FECAC022FC5F
:101C2000B4C0C32CDD8022947FE027222094B22D03
:101C3000B1702B2ED7011A964D915D916D917C91CB
:101C40001D97C114D10409F428C15B968D919C9114
:101C50005C97FC0174807A948A019B0169E0369557
:101C60002795179507956A95D1F770228A0111700B
:101C7000711020C001151105E9F416964D915D9182
:101C80006D917C911997411551056105710509F018
:101C900099C057968D919D910D90BC91A02D009764
:101CA000A105B10509F0B0C0C7010E94380C882316
:101CB00009F47FC080E092E0801B910B46018C15F7
:101CC0009D0508F44C01D7015B964D915C915C97A2
:101CD00016968D919D910D90BC91A02D0297A10912
:101CE000B109FA01258504C0880F991FAA1FBB1FDF
:101CF0002A95D2F74685578560897189840F951F8B
:101D0000A61FB71F9C01AD01270D311D411D511D9F
:101D100029013A01811432E0930609F07BC08091D9
:101D2000000290910102A0910202B0910302841579
:101D30009505A605B70559F48FEF9FEFDC01809359
:101D4000000290930102A0930202B0930302022DBD
:101D50009501B301A20180910208909103080E94AD
:101D60009207882331F19EEFB91AC818D908F701F4
:101D700082859385A485B585880D991DA11DB11D0A
:101D800082879387A487B58755CFF7014389548904
:101D90006589768982859385A485B5854817590715
:101DA0006A077B0709F43DCFC7010E94A40B81118C
:101DB00038CF81E090E0D70113969C938E931297D1
:101DC00080E007C09E012F5F3F4F0E94640A81118F
:101DD00002C090E079C089819A81AB81BC81F70112
:101DE000238D348DF901278948EF5FEF60E070E0C3
:101DF000203121F048EF5FEF6FEF7FE08417950708
:101E0000A607B70708F050CFF70186839783A0870E
:101E1000B18750CF0115110599F5D7011A964D914B
:101E20005D916D917C911D9753968D919D910D9033
:101E3000BC91A02D481759076A077B0708F181E07C
:101E40000E942408882309F4B4CF409200025092E3
:101E5000010260920202709203028091F205816099
:101E60008093F205C8018E5F994FD5019C01280D22
:101E7000391DFC012E173F0759F04D914193FACFC0
:101E800041E0C301B2010E944F088111EBCF91CF15
:101E9000281B390BA20EB31E68CFF70183899489E2
:101EA000A589B68984179507A607B70738F48481F2
:101EB000438B548B658B768B80688483F701848198
:101EC00083FD1AC0832D9D810F900F900F900F906E
:101ED0000F90DF91CF911F910F91FF90EF90DF90C6
:101EE000CF90BF90AF909F908F907F906F905F90BA
:101EF0004F903F902F90089561E0C7010E94380DE8
:101F0000882309F456CFDECFCF93DF931F92CDB74E
:101F1000DEB7698341E050E0BE016F5F7F4F0E94F2
:101F2000E90D0F90DF91CF910895FC01DB0112962E
:101F30008D919C9113979383828383E592E09183A3
:101F4000808314968C911497848315968C911597A1
:101F5000858316964D915D916D917C91199746837D
:101F60005783608771871A964D915D916D917C9131
:101F70001D9742875387648775871E964D915D91A3
:101F80006D917C91519746875787608B718B5296E4
:101F90008C915297828B53964D915D916D917C916E
:101FA0005697438B548B658B768B57964D915D91ED
:101FB0006D917C915A97478B508F618F728F5B9692
:101FC0008D919C91948F838F0895FC01818D928DCA
:101FD000009719F061E00C94380D0895DC015996D2
:101FE000ED91FC913097B9F083899489A589B689E0
:101FF0004285538564857585841B950BA60BB70BAD
:10200000811520E89207A105B10538F08FEF9FE711
:10201000A0E0B0E0089590E080E00895DC015996DA
:102020008D919C91009739F0DC01ED91FC91048039
:10203000F581E02D199490E080E00895CF93DF932F
:10204000EC01E98DFA8D309749F481E090E09B83B3
:102050008A8390E080E0DF91CF910895138212820D
:10206000898D9A8D0E94E90DE98DFA8D2281338147
:10207000232B59F7F0CFCF93DF931F92CDB7DEB765
:102080006983DC01ED91FC910280F381E02D41E058
:1020900050E0BE016F5F7F4F19950F90DF91CF9198
:1020A00008952F923F924F925F926F927F928F92FC
:1020B0009F92AF92BF92CF92DF92EF92FF920F93D7
:1020C0001F93CF93DF9300D0CDB7DEB7FC0185819E
:1020D000811118C08FEF9FEF0F900F900F90DF913D
:1020E000CF911F910F91FF90EF90DF90CF90BF9015
:1020F000AF909F908F907F906F905F904F903F90A8
:102100002F900895848180FFE5CF438954896589A4
:10211000768982859385A485B585312C212C481735
:1021200059076A077B0719F022242394312C6F0189
:102130002101CE0101963C01DF011696BB83AA83E3
:102140004114510409F4C5C0F601428553856485E4
:1021500075854A01F1E09F22D6015B968D919C9195
:102160005C978A019B01E9E03695279517950795BD
:10217000EA95D1F71596EC91E230E9F5FC01628D14
:10218000738D848D958D600F711F821F931FA12CFD
:1021900022E0B22EA818B9084A145B0408F45201D0
:1021A000F601248126FD04C0A114F2E0BF0671F4FB
:1021B000009100021091010220910202309103026D
:1021C000061717072807390709F05EC040E00E948C
:1021D0004F08882309F47ECFC4018E5F994FD30145
:1021E0009C012A0D3B1DFC012E173F0709F46CC012
:1021F00041914D93F9CFDC011496BC90BA94B02272
:102200008114910479F4B1100DC0452B462B472B56
:1022100069F5F6018789908DA18DB28D86839783AC
:10222000A087B187D6015B96ED91FC915C971696DD
:102230006D917D918D919C911997625071098109E1
:102240009109258504C0660F771F881F991F2A955D
:10225000D2F70685178520893189600F711F821F8B
:10226000931F6B0D711D811D911D91CFD601169687
:102270004D915D916D917C9119972A813B810E94CE
:10228000640A8111CFCF26CF730185019401AB0180
:10229000BC0180910208909103080E94F0068823F7
:1022A00009F418CF6A0C7B1CF60182859385A485FE
:1022B000B5858A0D9B1DA11DB11D82879387A487BB
:1022C000B5874A185B083CCF281B390B620E731E7A
:1022D000EBCF2A94232809F0FDCE898190E0FCCE33
:1022E000FC01818D928D009711F00C9451108FEFAD
:1022F0009FEF08950F931F93CF93DF93EC01898D88
:102300009A8D10E000E0009799F00E9451108C0126
:102310000F3F100769F0898D9A8DFC014285538526
:102320006485758541505109610971090E94A40BAA
:10233000C801DF91CF911F910F910895CF93DF9343
:10234000DC0126E0629FA00DB11D112490965C93E4
:102350004E935F9721E091962C939197FC01E3595E
:10236000FF4F0190F081E02DEC01C459DF4F28812F
:10237000222341F0309719F0DC01662329F0DF9128
:10238000CF9108953097D9F35C968C91DF91CF91DE
:102390001994CF92DF92EF92FF920F931F93CF93F6
:1023A000DF93EC01162F042FFC0186E0689FE00DFF
:1023B000F11D112411A2878D90A18130910509F1A1
:1023C00080F08230910509F443C0039709F445C0B9
:1023D000DF91CF911F910F91FF90EF90DF90CF9001
:1023E00008954423A9F341E050E0CE010E949E11DC
:1023F0000E940305C85ADF4F688379838A839B83D1
:10240000E7CF0E940305FE01E85AFF4FC080D1804C
:10241000E280F380AB01BC014C195D096E097F09B4
:10242000729680819181B0E0A0E084179507A6079D
:10243000B70770F442E050E0612FCE01DF91CF91F9
:102440001F910F91FF90EF90DF90CF900C949E1111
:1024500043E050E00111BCCFEFCF50E040E0ECCFC3
:102460002F923F924F925F926F927F928F929F92A4
:10247000AF92BF92CF92DF92EF92FF920F931F9392
:10248000CF93DF93CDB7DEB72C970FB6F894DEBFAE
:102490000FBECDBF9C878B8784599F4F9A838983BA
:1024A00081E0A981BA818C930E940305EB85FC85AC
:1024B000E45AFF4FFC83EB83008111812281338139
:1024C000AB01BC01401B510B620B730BEB85FC8510
:1024D000E859FF4F80819181B0E0A0E08417950713
:1024E000A607B70708F081C110E0CB84DC84F6E6CC
:1024F000CF0ED11CEB84FC8422E6E20EF11CD60147
:102500008C911817A0F4F701A081B181A10FB11D22
:10251000EB85FC8580819181FC012081318142E045
:102520006C918B859C85F90119951F5FE8CF912CE3
:102530002B843C84F7E62F0E311CAB84BC8424E64C
:10254000A20EB11C412C512C320143944B855C8569
:102550004E595F4F5A874987D1018C91981608F0E0
:102560008BC0E92CF12CF501A081B181AE0DBF1D0E
:10257000EB85FC8580819181FC012081318141E0E6
:102580006C918B859C85F9011995F501A081B1812C
:10259000AE0DBF1DEB85FC8580819181FC01228100
:1025A000338140E06C918B859C85F9011995D301AD
:1025B000C201092C04C0880F991FAA1FBB1F0A94CF
:1025C000D2F79E838D839C012095309538872F8389
:1025D000812CAB85BC85ED91FC91D6018C91881640
:1025E00048F5082D10E0A985BA858D919C91DC01F4
:1025F000A00FB11F0480F581E02D6C918B859C8527
:102600001995000F111FEB85FC85E00FF11F892B39
:1026100051F4808591852D813E81822B932B91876A
:1026200080878394D6CF808591854F815885842378
:102630009523F5CFD5018D919C91DC01AE0DBF1D89
:102640000280F381E02D41E06C918B859C8519958A
:10265000F50180819181E80EF91EAB85BC85ED9175
:10266000FC910190F081E02D40E0D7016C918B85C9
:102670009C851995939470CFEB84FC84C701CC960C
:1026800047012FEF3FEFF401478D50A1452B21F477
:10269000148E368F258F11A2F6E08F0E911C8816AE
:1026A000990689F7712CAB84BC8420E6A20EB11C7C
:1026B00096E0592ED6018C91781608F058C0612CFE
:1026C000072D10E00C5F1F4F000F111FEB85FC85DD
:1026D0000E0F1F1FD1018C91681608F046C0F8013B
:1026E00040815181062C02C0569547950A94E2F725
:1026F000789EC0011124860D911DEB85FC8560E05C
:10270000258D368D8217930709F474C06F5F369656
:102710006A30B1F740FF27C0EB85FC8570E060E0D0
:10272000248D21111AC0D501ED91FC91E80FF91FFC
:102730002081569EF001579EF00D11244B855C853B
:10274000E40FF51F248F968F858F10A2178E41E01E
:102750008B859C850E94C91106C06F5F7F4F36969E
:102760006A307105E9F66394B5CF7394A3CF10E096
:10277000D70191968C918111182FB6E0EB0EF11CC8
:102780008E149F04A9F70E940305EB81FC816083EE
:10279000718382839383112341F1AB85BC8591962C
:1027A0008C919197882309F15F968D919C919097D8
:1027B0000197D9F45C968C912C960FB6F894DEBFF5
:1027C0000FBECDBFDF91CF911F910F91FF90EF9082
:1027D000DF90CF90BF90AF909F908F907F906F9041
:1027E0005F904F903F902F900895E981FA81108279
:1027F00080E0E2CF4170ACCFCF93DF9370E0FB017C
:10280000E95BFB4F8491FB01EF5FFB4FD491655473
:102810007C4FFB01C491CC23A1F081110E94E702FF
:10282000EC2FF0E0EE0FFF1FEA5DFC4FA591B49195
:10283000EC91ED2381E090E009F480E0DF91CF910D
:10284000089580E090E0FACF862F642F0C944E0319
:10285000862F642F0C947C038F929F92AF92BF922D
:10286000CF92DF92EF92FF92CF93DF93EC016A0158
:102870007B0180E8C81A83E4D80A8DE6E80A88E379
:10288000F80A8CE3882E912CA12CB12CC701B6013B
:10289000A50194010E949B396D83CA01B901A5016C
:1028A00094010E949B396C83C701B60120E13EE090
:1028B00040E050E00E949B39CA01B90128E130E0B4
:1028C00040E050E00E949B396B83C701B60120E8CD
:1028D00031E541E050E00E949B39188263E97EEFC8
:1028E0008881982F937041E050E011F050E040E073
:1028F000FA01E359FE4F2E173F0740F0FB01E41B9E
:10290000F50B2E0F3F1F8F5F8883EACF81E089830D
:1029100089818C30A0F4482F4150550BFA01E55EB7
:10292000FC4FE491911103C0823009F4EF5FF0E0B5
:102930002E173F0720F02E1B3F0B8F5FE8CF2F5F36
:102940002A83DF91CF91FF90EF90DF90CF90BF90DF
:10295000AF909F908F900895DC0150E0EBE1F3E0A1
:1029600081E0861730F49491490F511D8F5F3196A5
:10297000F8CF633038F0CD0183709927892B11F49B
:102980004F5F5F4F9D012D5F3F4F369527953695E1
:1029900027956DE671E0A69FC001A79F900DB69F99
:1029A000900D11240197820F931F840F951F089596
:1029B0009F92AF92BF92CF92DF92EF92FF920F93CE
:1029C0001F93CF93DF938C01CBE8D2E04AE0D42E63
:1029D00057E0E52EF12C62E3C62E70E3B72EEDE64C
:1029E000AE2EFDE49F2E8881883661F48981883679
:1029F00049F4F80183816D2D0E94CC39805D888374
:102A0000905D998388818D3661F489818D3649F492
:102A1000F80184816D2D0E94CC39805D8883905DA2
:102A200099838881833761F48981833749F4F80178
:102A300085816D2D0E94CC39805D8883905D99835E
:102A40008881843419F58981843401F58A81F801FB
:102A5000843409F071C080814281618190E00E94DC
:102A6000AC140696B7010E94D839FC01EE0FFF1F87
:102A70008E0F9F1F8E549B4FFC012491288331960B
:102A8000E491E9830296FC0184918A8388818D34E4
:102A9000F1F489818D34D9F49A81F80181819D34D2
:102AA00009F053C0282F2150330BF901C901880FB9
:102AB000991F8E0F9F1F83579B4FFC0124912883E2
:102AC0003196E491E983FC013296E491EA838881AE
:102AD0008935B9F489818935A1F49A81F801808119
:102AE0009935D9F59B819935C1F5C882B9826D2D8B
:102AF0000E94CC39292F0E94CC39905D9A83205DA9
:102B00002B8388818134A1F58981803509F49982EC
:102B10002196F2E0C239DF0709F065CF8BE892E039
:102B2000DF91CF911F910F91FF90EF90DF90CF90A9
:102B3000BF90AF909F90089582816D2D0E94CC39F7
:102B4000805D8883905D9983A1CF6D2D0E94CC39E3
:102B5000805D8883905D9983BACF6D2D0E94CC39BA
:102B6000292F0E94CC39905D9883205D2983C9CF9D
:102B7000813671F68981803759F6A982C9CFEF92E3
:102B8000FF920F931F93CF93DF93EC0188814A81CB
:102B9000698190E00E94AC149C01A8E1B0E00E9421
:102BA000BD392B817B018C01E20EF11C011D111D31
:102BB000A8019701ACE3B0E00E9490392C817B0121
:102BC0008C01E20EF11C011D111DA80197010E944C
:102BD0009039AB01BC019D81892F90E0B0E0A0E06D
:102BE00080589C4BA249B74C8A019B01080F191FC2
:102BF0002A1F3B1FC901B801DF91CF911F910F918F
:102C0000FF90EF9008952091CD05260F3327331FB5
:102C100021323105ECF420915008FC0190E080E075
:102C2000243069F082E00895A091CD052191AC0196
:102C300043555A4FA40FB52FB11D2C9301968617FB
:102C400098F38091CD05680F6093CD0580E00895DD
:102C500081E008951092500881E080934F0810920F
:102C60002A0861E084E10E944E0361E085E10E9450
:102C70004E03E9EBF0E080818E7F808380818D7F41
:102C8000808388E48093B80085E48093BC00089535
:102C900010920908109208081092570810927908AB
:102CA0000E942A1689E992E090930708809306080B
:102CB0008AE992E090930508809304080895CF93E1
:102CC000DF9391E09093AC058823B9F0C091B800F0
:102CD000D091BA008091BC008A7B8093BC0060E0F8
:102CE00084E10E944E0360E085E10E944E030E9451
:102CF0002A16D093BA00C093B800DF91CF910895FF
:102D00008F929F92AF92BF92CF92DF92EF92FF92FB
:102D10000F931F93CF93DF93D0917908D13208F0AE
:102D2000D7C0182FC09178080E94AB046B017C01BA
:102D30008091500881116BC082E0809350081093FD
:102D40004F088FEF80934E0810924D08D0934C0897
:102D5000A8E5B8E0ECE2F8E080E0D81391C010926A
:102D60002B0880912B08CC0FC82BC0932B08809187
:102D70002A08813009F088C010922A080E94AB040A
:102D80006B017C0180912B088093BB0080915208DD
:102D900090915308A0915408B0915508892B8A2B23
:102DA0008B2BA1F00E94AB040091520810915308A4
:102DB00020915408309155086C197D098E099F099E
:102DC000061717072807390708F442C08091BC008E
:102DD00083FDD8CF85EC8093BC000E94AB046B01CF
:102DE0007C0180915008823009F450C080914E08D7
:102DF0008F3F09F46FC080914E08803209F46CC097
:102E000080914E08803309F469C084E026C0809127
:102E1000520890915308A0915408B0915508892BFD
:102E20008A2B8B2B09F484CF0E94AB04809052082C
:102E300090905308A0905408B09055086C197D09E3
:102E40008E099F0986169706A806B90608F070CF66
:102E5000809151080E945F1685E0109257081092E9
:102E6000790810925608DF91CF911F910F91FF9032
:102E7000EF90DF90CF90BF90AF909F908F9008958C
:102E80009D9191938F5F69CF85EEA5CF8091520878
:102E900090915308A0915408B0915508892B8A2B22
:102EA0008B2B09F49ECF0E94AB0400915208109125
:102EB000530820915408309155086C197D098E09EA
:102EC0009F09061717072807390708F08ACFC0CFD0
:102ED00081E0C3CF80E0C1CF82E0BFCF83E0BDCF30
:102EE000CF93DF93EC018B818823A1F0888191E05F
:102EF000909356088093780810925708109279089A
:102F000081E00E94801691E0811190E0892FDF918D
:102F1000CF9108950E94481681E08B83CE010E94D4
:102F20007017982F8111E2CFF1CF0895E091090831
:102F300080910808E81730F4F0E0E65FF74F8081F1
:102F400090E008958FEF9FEF089590910908809188
:102F500008082FEF3FEF981748F4E92FF0E0E65FFD
:102F6000F74F208130E09F5F90930908C9010895D1
:102F70008091080890910908891B990B0895CF92B8
:102F8000DF92EF92FF920F931F93CF93DF937C0119
:102F9000CB018A0120915608222389F0EB016B01B5
:102FA000C40ED51ECC15DD0569F06991D701ED91F0
:102FB000FC910190F081E02DC7011995F3CF642FAA
:102FC0000E940316C801DF91CF911F910F91FF90CE
:102FD000EF90DF90CF900895CF93DF931F92CDB7FE
:102FE000DEB76983209156082223F9F020917908F1
:102FF000203258F021E030E0FC013383228390E05E
:1030000080E00F90DF91CF91089580915708E82FCD
:10301000F0E0E85AF74F998190838F5F80935708CB
:103020008093790881E090E0ECCF61E0CE010196D9
:103030000E940316F7CFFC01248131E0309356083B
:103040002093780810925708109279088485682B8D
:1030500082E699E00E94EC1781E00C94801690E0E3
:1030600080E008951F93CF93DF93DC011496ED91D8
:10307000FC91E417F50710F490E01FC0122FEA014D
:10308000FC0181819281208131E0309356082093A8
:1030900078081092570810927908DC01ED91FC91A4
:1030A0000280F381E02D1995C817D90729F7812FE0
:1030B0000E94801691E08111DFCF892FDF91CF919F
:1030C0001F9108952F923F924F925F926F927F923D
:1030D0008F929F92AF92BF92CF92DF92EF92FF9228
:1030E0000F931F93CF93DF935C011B016A01F12CB7
:1030F000E12CD50114968D919C9186010E191F0922
:103100008017910708F48C01F501D0810E94AB046F
:103110002B013C0180915008811172C0C02F0132F7
:1031200008F0C0E2F1E0F093500821E0C601801BF6
:10313000910BE816F90608F420E020934F088FEF72
:1031400080934E0810924D088C0F80934C08A1E09C
:10315000A0932B0880912B08DD0FD82BD0932B0840
:1031600080912A08813009F090C010922A080E94AC
:10317000AB042B013C0180912B088093BB00809114
:10318000520890915308A0915408B0915508892B8A
:103190008A2B8B2BA1F00E94AB0420915208309116
:1031A00053084091540850915508641975098609CF
:1031B0009709261737074807590708F442C0809136
:1031C000BC0083FDD8CFB5ECB093BC000E94AB042B
:1031D0002B013C0180915008813009F45AC0809144
:1031E0004D088C1710F4C0914D08ACE2B8E0EAE04D
:1031F000F8E080E08C1751F19D9191938F5FFACFA9
:103200008091520890915308A0915408B0915508AC
:10321000892B8A2B8B2B09F47DCF0E94AB04209144
:103220005208309153084091540850915508641940
:10323000750986099709261737074807590708F0BF
:1032400069CF809151080E945F16C0E01092090872
:10325000C0930808C017110609F057C041018E0C31
:103260009F1CE401CE01881999098017910798F5F0
:10327000D50111968D919C91DC01ED91FC91028418
:10328000F385E02D19958993EDCFE5EEE093BC0031
:103290009DCF8091520890915308A0915408B0910D
:1032A0005508892B8A2B8B2B09F494CF0E94AB04F1
:1032B000209152083091530840915408509155087C
:1032C00064197509860997092617370748075907AA
:1032D00008F080CFB6CFE00EF11EEC14FD0408F428
:1032E00008CF81E0DF91CF911F910F91FF90EF9078
:1032F000DF90CF90BF90AF909F908F907F906F9016
:103300005F904F903F902F90089580E0EBCF0F9308
:103310001F93CF93DF931F921F92CDB7DEB78FE03D
:103320008A8301E81CE021E041E050E0BE016E5FCD
:103330007F4FF801808191810E94321841E050E076
:10334000BE016F5F7F4FF801808191810E946218FA
:1033500089810F900F90DF91CF911F910F91089568
:10336000EF92FF920F931F93CF93DF9300D000D083
:103370001F92CDB7DEB78C011982DB01ED90FC9076
:1033800020E041E050E0BE016F5F7F4FC7010E9427
:103390003218882341F047E050E0BE016F5F7F4F55
:1033A000C7010E946218E981EF77FA81FB805D8195
:1033B0004E814F778F81282F30E094E03595279507
:1033C0009A95E1F7922F990F990F291B220F280F39
:1033D000D8012C93842F90E024E0959587952A9529
:1033E000E1F7982F990F990F891B880F840F119679
:1033F0008C931197652F70E034E0759567953A9539
:10340000E1F7862F880F880F681B660F650F1296ED
:103410006C9312974F2D50E064E0559547956A954F
:10342000E1F7842F880F880F481B440F4F0D139628
:103430004C9313972F2F30E074E0359527957A95AC
:10344000E1F7822F880F880F281B220F2F0F149669
:103450002C9314978E2F90E0F4E095958795FA952C
:10346000E1F7982F990F990F891B880F8E0F1596EA
:103470008C93C80127960FB6F894DEBF0FBECDBF60
:10348000DF91CF911F910F91FF90EF900895CF9210
:10349000DF92EF92FF921F93CF93DF93EC0180E2D4
:1034A000689FF0011124EE5FF94F9385917161F0EF
:1034B000842F827449F080E0DF91CF911F91FF90BB
:1034C000EF90DF90CF900895142F6A8B80910002C7
:1034D00090910102A0910202B09103028E879F8712
:1034E000A88BB98BC488D588F12CE12C7601DD241A
:1034F000CC24CF8AD88EE98EFA8E828D938DB0E05F
:10350000A0E0AC01BD014C295D296E297F294F8BBC
:10351000588F698F7A8F83858871B1F4848D958DEA
:10352000A68DB78D8B8B9C8BAD8BBE8B81E08D83F5
:103530001F701C831E821F82188619861A861B869E
:103540001C861D8681E0B8CF803109F0B4CF9E0182
:103550002D5E3F4F8B8D9C8D0E94E50A882309F4D8
:10356000AACF84E0E4CF0F931F93CF938C01C62F93
:103570000E941B186C2F6460C8010E941B186C2FDE
:103580006B7FC8010E941B1883EC90E00197F1F754
:10359000CF911F910F9108950F931F93CF93DF93B6
:1035A0008C01D62FC42F607F642B0E94B31A80E158
:1035B000D89FB00111246C2BC801DF91CF911F91CE
:1035C0000F910C94B31ACF93DF9300D000D01F92C9
:1035D0001F92CDB7DEB728E0E2E2F2E0DE011196FD
:1035E00001900D922A95E1F7FC012085241708F43B
:1035F0004FEF50E0440F551F21E030E02C0F3D1FEE
:10360000420F531FFA012081620F606840E0289644
:103610000FB6F894DEBF0FBECDBFDF91CF910C94F3
:10362000CC1A0F931F93CF93DF938C01EB01642F80
:10363000422FDC0114968D919C910E94E31AF801AF
:10364000848195814C815D8168817981DC01ED9176
:10365000FC910280F381E02DDF91CF911F910F91BA
:103660001994CF93DF93EC0140E061E00E94CC1A03
:103670008BE39FE10197F1F78985882339F040E0DA
:1036800060E0CE01DF91CF910C94E31ADF91CF91EE
:103690000895FC01848195810C94311B41E00E94C6
:1036A000CC1A81E090E008950F931F93CF93DF939E
:1036B0008C01FC0180819181009711F00E94023BF6
:1036C00086E090E00E94663AEC0188E6888382E614
:1036D00099E09A8389831B8280E290E09D838C83AA
:1036E000F801D183C0830E94481681E08B83CE010C
:1036F000DF91CF911F910F910C947017CF93DF93AF
:10370000EC0188819981009711F00E94023B198297
:1037100018821D821C821B821A82DF91CF9108952C
:10372000FC0180819181009711F00C94023B089577
:10373000FB0101900020E9F73197AF01461B570BC1
:10374000DC01ED91FC910280F381E02D19940F933F
:103750001F93CF93DF93EC010E94981B8C0164E9C7
:1037600072E0CE010E94981B800F911FDF91CF91D4
:103770001F910F9108950F931F93CF93DF93EC0147
:10378000FB014481558160817181E881F98102806A
:10379000F381E02D19958C0164E972E0CE010E945D
:1037A000981B800F911FDF91CF911F910F9108956A
:1037B0000F931F93CF93DF938C01EB010E945B3932
:1037C0008883C80101960E945B398983CE01DF910D
:1037D000CF911F910F9108950F931F93CF93DF9374
:1037E000EC0188819981009759F02A813B81261745
:1037F000370730F081E0DF91CF911F910F9108954D
:103800008B016F5F7F4F0E948B3B009759F099832C
:1038100088831B830A832C813D81232B59F7FC016C
:103820001082E8CF80E0E7CFEF92FF920F931F93D3
:10383000CF93DF936115710541F480E0DF91CF9163
:103840001F910F91FF90EF90089541155105B1F030
:103850007B01EC010C811D81040F151FB8010E9432
:10386000EC1B882351F3288139818C819D81B7011C
:10387000820F931F0E948D3C1D830C8381E0DECF5D
:10388000CF93DF93EC016115710539F4CE010E94ED
:103890007E1BCE01DF91CF910895FB0101900020A6
:1038A000E9F73197AF01461B570B0E94141C882380
:1038B00069F3EFCFCF93DF93EC01FB014481558196
:1038C000608171810E94141C811103C0CE010E948D
:1038D0007E1BCE01DF91CF910895EF92FF920F935F
:1038E0001F93CF93DF93EC017B018A01BA010E9401
:1038F000EC1B81110BC0CE010E947E1BCE01DF911B
:10390000CF911F910F91FF90EF9008951D830C832D
:10391000B701888199810E948D3CF0CFFB01019015
:103920000020E9F73197AF01461B570B0C946D1C33
:103930000F931F93CF93DF9300D000D000D0CDB76B
:10394000DEB78C01862FF801118210821382128259
:10395000158214824AE0BE016F5F7F4F90E00E94A3
:10396000E535BE016F5F7F4FC8010E948E1C29960E
:103970000FB6F894DEBF0FBECDBFDF91CF911F9180
:103980000F9108950F931F93CF93DF93CDB7DEB7B9
:1039900062970FB6F894DEBF0FBECDBF8C01CB018E
:1039A000F8011182108213821282158214824AE079
:1039B000BE016F5F7F4F0E94C535BE016F5F7F4FB5
:1039C000C8010E948E1C62960FB6F894DEBF0FBE2F
:1039D000CDBFDF91CF911F910F910895CF93DF93CA
:1039E000EC016115710531F00E948E1CCE01DF9152
:1039F000CF9108950E947E1BF9CFCF93DF93EC0106
:103A0000FB018617970749F0608171816115710587
:103A100041F0448155810E946D1CCE01DF91CF9110
:103A200008950E947E1BF9CFFC011182108213823F
:103A30001282158214820C94FD1CEF92FF920F9358
:103A40001F93CF93DF93CDB7DEB7A3970FB6F8944C
:103A5000DEBF0FBECDBF7C0161E87CE0CE010196E8
:103A60000E94B01986E0FE013196A3E8BCE0019007
:103A70000D928A95E1F701E81CE0F801828190E05F
:103A80001B8A1A8A1D8A1C8A1F8A1E8A4AE0BE0166
:103A90006F5F7F4F8053984F0E94E535BE016F5F87
:103AA0007F4FCE0142960E948E1CF8016381CE01A9
:103AB00001960E94981CF8016481CE014E960E94E6
:103AC000981CBE01625E7F4FCE0148960E94141D75
:103AD00067E972E0CE0148960E94401CBE016F5F0C
:103AE0007F4F0E945A1C67E972E00E94401CBE0191
:103AF0006E5E7F4F0E945A1CBC01C7010E94141DBC
:103B0000CE0148960E94901BCE014E960E94901BBB
:103B1000CE0101960E94901BCE0142960E94901BFE
:103B2000C701A3960FB6F894DEBF0FBECDBFDF91DD
:103B3000CF911F910F91FF90EF900895EF92FF9218
:103B40000F931F93CF93DF93CDB7DEB768970FB670
:103B5000F894DEBF0FBECDBF7C0161E87CE0CE01F2
:103B600001960E94B01986E0FE013196A3E8BCE000
:103B700001900D928A95E1F701E81CE0F801678158
:103B8000CE0101960E94981CF8016681CE0107962D
:103B90000E94981CF8016581CE0143960E94981CF2
:103BA000BE016D5E7F4FCE010D960E94141D6BE924
:103BB00075E0CE010D960E94401CBE01695F7F4FEB
:103BC0000E945A1C6BE975E00E94401CBE016F5FA9
:103BD0007F4F0E945A1CBC01C7010E94141DCE01D8
:103BE0000D960E94901BCE0143960E94901BCE0121
:103BF00007960E94901BCE0101960E94901BC70160
:103C000068960FB6F894DEBF0FBECDBFDF91CF919F
:103C10001F910F91FF90EF900895FC011182108287
:103C200013821282158214826115710551F0FB0115
:103C300001900020E9F73197AF01461B570B0C9418
:103C40006D1C08956F927F928F929F92AF92BF9258
:103C5000CF92DF92EF92FF920F931F93CF93DF9358
:103C6000CDB7DEB72C970FB6F894DEBF0FBECDBF31
:103C70008C017B016A0166E972E00E940D1E69E910
:103C800072E0CE0101960E940D1EB601CE01019692
:103C90000E945A1C69E972E00E94401CBC01CE01DE
:103CA00007960E94141DCE0101960E94901B6B8402
:103CB0007C84F70182809380A080B1808A149B0469
:103CC00028F0982D892D4501A92EB82E66E972E0BD
:103CD000CE0101960E940D1ECB84DC848C149D04C1
:103CE000C0F4AC14BD0408F46501EF81F885EC0D57
:103CF000FD1DB08010826F817885680D791DCE0121
:103D000001960E94EE1C8F819885C80ED91EF6017F
:103D1000B082F80180819181009709F44BC06981DC
:103D20007A816115710509F443C0428153812D8167
:103D30003E8142175307E0F10E948D3C8D819E81A8
:103D4000F801958384831E821D82CE0101960E9414
:103D5000901BF7018081918101969183808322815C
:103D600033812F5F3F4F338322836816790634F403
:103D700080E190E09183808313821282CE010796C6
:103D80000E94901BC8012C960FB6F894DEBF0FBEA0
:103D9000CDBFDF91CF911F910F91FF90EF90DF90FA
:103DA000CF90BF90AF909F908F907F906F9008952D
:103DB0000E94023B89819A81F801918380838B81E3
:103DC0009C81938382838D819E81958384831A82D3
:103DD00019821C821B82B7CF3F924F925F926F92E3
:103DE0007F928F929F92AF92BF92CF92DF92EF928B
:103DF000FF920F931F93CF93DF9300D000D000D09A
:103E00001F921F92CDB7DEB77C01FE013196CE0125
:103E10000C966F0130E23193E817F907E1F7DA0108
:103E200030E087E09D91B92E992309F43CC09E3281
:103E3000F1F48A30C9F480E02B960FB6F894DEBF17
:103E40000FBECDBFDF91CF911F910F91FF90EF90EB
:103E5000DF90CF90BF90AF909F908F907F906F90AA
:103E60005F904F903F90089538E08AE0DBCFE0E428
:103E7000F3E04491442321F031969413FACFDBCF41
:103E80008317C8F24FED490F4E35A8F64FE9490F99
:103E90004A3118F440EEB42EB90EF601E30FF11DCD
:103EA000B0823F5FBFCF8981803229F2322E8B01F1
:103EB000DB015B968D919C915C97F701948F838FCA
:103EC00016961D921D921D921C921997FB01128647
:103ED000138614861586F80182859385A485B58599
:103EE000438954896589768984179507A607B7079A
:103EF00008F04DC025E0B695A795979587952A952A
:103F0000D1F7F82FFF70AF2ED80115968C91823023
:103F100008F491CFC8010E94511097FD8CCFF80191
:103F200082859385A485B5854F96A11DB11D828795
:103F30009387A487B587F0E2AF9EB00111246E5F2E
:103F4000794F6115710509F476CFDB018C918823D7
:103F500041F0853E09F062C0BB2029F0BB24B39438
:103F6000BACFB1100EC0F701A28A809100029091E1
:103F70000102A0910202B091030286879787A08B6D
:103F8000B18BDB018C918111E9CFBB24B394832DDC
:103F90008271823109F04FCFBB2009F44DC0F70187
:103FA000668577858089918941E00E944F08882342
:103FB00009F441CFD70152968C91B0E28B9FC0019A
:103FC00011248E5F994F009709F435CFFC013A9682
:103FD00026E1DF011D922A95E9F72BE0F601DC01CD
:103FE00001900D922A95E1F721E238E2FC01318B34
:103FF000208B40E058E057874687338B228B318FE8
:10400000208F578B468B81E00E942408882309F477
:1040100012CF432DD70152966C910AC04BE050E06D
:10402000C6010E946C3C892B09F055CF432D6A2DA7
:10403000C7010E94471A00CFF8018581823009F438
:10404000FACEC8010E94380C882309F4F4CED801B6
:104050005B96ED91FC915C9716968D909D90AD903E
:10406000BC901997B2E08B1A9108A108B108858518
:1040700004C0880C991CAA1CBB1C8A95D2F78685A3
:104080009785A089B189880E991EAA1EBB1E8481BE
:1040900024013501480E511C611C711C84149504C7
:1040A000A604B70409F1E1E04E1A5108610871084D
:1040B00081E00E942408882309F4BDCEE2E0F6E006
:1040C000119282E098E08E179F07D1F7409200028C
:1040D0005092010260920202709203028091F205F6
:1040E00081608093F205DACFD8015B96ED91FC9167
:1040F000258580E092E0A0E0B0E004C0880F991F21
:10410000AA1FBB1F2A95D2F7F801438954896589F4
:104110007689840F951FA61FB71F838B948BA58B61
:10412000B68BD70152961C9282E096E04FCFEF9269
:10413000FF920F931F93CF93DF93EC017B018A01D2
:104140001B821A8288EE93E0A0E0B0E08C839D830E
:10415000AE83BF8381E792E0998388838DE190E00D
:104160000E94663A9A8F898F009779F02DE1F701C6
:10417000DC0101900D922A95E1F74CE050E0B80186
:10418000CE010C960E94943C188EDF91CF911F9126
:104190000F91FF90EF90089585ED8093BC00809182
:1041A000520890915308A0915408B0915508079671
:1041B000A11DB11D23E0B695A795979587952A95E2
:1041C000D1F72091BC0024FD03C01092500808953F
:1041D00040915208509153086091540870915508CD
:1041E000452B462B472B69F30097A105B10541F0FC
:1041F0002AE22A95F1F700C00197A109B109E1CFA0
:10420000809151080C945F168F929F92AF92BF924B
:10421000CF92DF92EF92FF920F931F93CF93DF9392
:10422000CDB7DEB72F970FB6F894DEBF0FBECDBF68
:104230007C010091890C10918A0CC8010E94491BD5
:104240001092F80583E0F701818780912A0290910E
:104250002B02A0912C028D879E87AF878AEA92E07D
:104260009A83898389EB92E09C838B8387EC92E02D
:104270009E838D8318861F821A8619861C861B864C
:1042800060E170E0CE0107960E94EC1B811169C0CD
:10429000CE0107960E947E1B20E040E0BE01695FD0
:1042A0007F4FC8010E94111BCE0107960E94901BF0
:1042B0000091890C10918A0C6AEA72E0CE0107968F
:1042C0000E940D1E21E040E0BE01695F7F4FC801E2
:1042D0000E94111BCE0107960E94901B5701FAE025
:1042E000AF0EB11C88248394912CC5010E9430121A
:1042F000082F8823D1F3C090890CD0908A0CC60176
:104300000E94491B67ED72E0CE0107960E940D1EC8
:1043100020E040E0BE01695F7F4FC6010E94111B93
:10432000CE0107960E94901B013431F58091890CD3
:1043300090918A0C0E94491B8092F8052F960FB627
:10434000F894DEBF0FBECDBFDF91CF911F910F91CB
:10435000FF90EF90DF90CF90BF90AF909F908F90A5
:10436000089580E190E09C878B876AE073E08F81FD
:1043700098850E94BE3590CF10E080E0F7019185CE
:10438000191788F5C12ED12CEDE0F0E0EC0FFD1FE0
:10439000EC0DFD1D9081901324C08090890C9090AD
:1043A0008A0CF601EE0FFF1F81E090E08C0F9D1F3D
:1043B000E80FF91F60817181CE0107960E940D1EE2
:1043C00021E040E0BE01695F7F4FC4010E94111BE4
:1043D000CE0107960E94901B46019FEF891A990A09
:1043E00081E01F5FCBCF811180CF0091890C1091AC
:1043F0008A0C6AEA72E0CE0107960E940D1E21E047
:1044000040E0BE01695F7F4FC8010E94111BCE01D1
:1044100007960E94901B66CFFF920F931F93CF9336
:10442000DF93EC01F62E08811981C8010E945B39E7
:10443000F81621F06F2DC8010E946339CE01DF917B
:10444000CF911F910F91FF900895CF92DF92EF923D
:10445000FF920F931F93CF93DF931F921F92CDB7BD
:10446000DEB76C017C0108E010E01A830983F701D4
:1044700061917F01CE0101960E940C220F5F1F4FB8
:104480000C30110591F7C6010F900F90DF91CF917D
:104490001F910F91FF90EF90DF90CF900895EF92D2
:1044A000FF920F931F93CF93DF931F921F92CDB76D
:1044B000DEB78C017B019A838983FB016081CE0189
:1044C00001960E940C220F5F1F4F1A830983F70188
:1044D0006181CE0101960E940C22C7010F900F90BE
:1044E000DF91CF911F910F91FF90EF900895CF939F
:1044F000DF931F921F92CDB7DEB766E07BE090E0BE
:1045000080E00E944F2268E07BE082E090E00E9421
:104510004F226AE07BE084E090E00E944F226CE052
:104520007BE086E090E00E944F228EE09BE00E94BC
:1045300025228CE090E09A8389836091130BCE0151
:1045400001960E940C220F900F90DF91CF91089559
:104550002F923F924F925F926F927F928F929F9293
:10456000AF92BF92CF92DF92EF92FF920F931F9381
:10457000CF93DF93CDB7DEB7C658D1090FB6F89405
:10458000DEBF0FBECDBF6C01EF967FAF6EAFEF9772
:10459000C158DF4F59834883CF57D040CF57DF4FA3
:1045A00039832883C158D040CD57DF4F1983088302
:1045B000C358D040CB57DF4FF982E882C558D0406E
:1045C00081E190E0E5969FAF8EAFE59781E090E0C6
:1045D000E7969FAF8EAFE7978FEF9FEFE9969FAF7C
:1045E0008EAFE997EB969FAF8EAFEB97F601E05752
:1045F000FF4F6080718019A218A283E592E09F8F1F
:104600008E8F1BA21C821B829A8389831E825E016D
:104610008EE1A80EB11CC5010E94500B43018E0112
:104620000F5F1F4F150128016FE270E0C4010E9467
:10463000823C009709F462C0D4012C912F3271F4AE
:10464000BFEF8B1A9B0A902F812F8101292E382EC4
:10465000922D832D1801092F182FE6CF88198D3040
:1046600008F08CE0E82EF12CA701B401CE01885AA5
:104670009F4F0E94943CE8E5F0E0EC0FFD1FEE0D2B
:10468000FF1D1082C8010E94DC0DF801858188237E
:1046900029F11EAE1DAE83E592E09CAF8BAF219653
:1046A0001FAE2197ED96AEADBFADED976A0E7B1EA6
:1046B000F301808181112FC0BE01655C7F4FCE0167
:1046C00001960E94950F47E952E0BE016F5F7F4F50
:1046D000CE01885A9F4F0E94972044C021E0AE012E
:1046E000485A5F4FB101C8010E94EC1E882389F22D
:1046F0008E0C9F1CC1010E94DC0DAACFC40186193B
:104700009709ED969FAF8EAFED97B101CE01CB9695
:104710000E94950FC7CF19A218A283E592E09F8F40
:104720008E8F1BA221968FAD21978111FDC06C96B3
:104730001FAE1EAE6C9788EE93E0A0E0B0E0A096AE
:104740008CAF9DAFAEAFBFAFA09781E792E06A9606
:104750009FAF8EAF6A97E3961FAE1EAEE397A59606
:104760001FAEA5976C968EAD9FAD6C97D601139634
:104770009C938E931297A0968CAD9DADAEADBFADC0
:10478000A097F60184839583A683B783A4968CAD06
:104790009DADAEADBFADA49780879187A287B3874B
:1047A0003C96A8E5B0E0AC0FBD1F1C96C60149962B
:1047B0002D912193E817F907D9F7E396EEADFFADF8
:1047C000E397D6015A96FC93EE935997309709F4E4
:1047D000CCC08581882309F4C8C068EE72E0C601A8
:1047E0000E94A71B64E073E0C6010E94A71B64E15E
:1047F00073E0C2010E940D1EEF966EAD7FADEF9784
:10480000C2010E945A1CBC01C6010E94BB1BC2010E
:104810000E94901B6CE173E0C2010E940D1EC15802
:10482000DF4F68817981CF57D040C2010E945A1C66
:10483000BC01C6010E94BB1BC2010E94901B64E226
:1048400073E0C2010E940D1ECF57DF4F688179814E
:10485000C158D040C2010E945A1CBC01C6010E942E
:10486000BB1BC2010E94901BCB57DF4F688179812F
:10487000C558D040C5010E94141D6EE273E0C2010C
:104880000E940D1ECD57DF4F68817981C358D040FB
:10489000C2010E945A1C67E373E00E94401CB501EC
:1048A0000E945A1C6EE174E00E94401CBC01C601CB
:1048B0000E94BB1BC2010E94901BC5010E94901B5D
:1048C00068EE72E0C6010E94A71B64E972E0C601AF
:1048D0000E94981BF601818D928D009759F00E94DD
:1048E000DC0DD60159968D919C910E94023BF601F8
:1048F000128E118ECA57DF4F0FB6F894DEBF0FBE6F
:10490000CDBFDF91CF911F910F91FF90EF90DF907E
:10491000CF90BF90AF909F908F907F906F905F905F
:104920004F903F902F90089527E1A301BE01655C51
:104930007F4FCE014E960E94EC1E882309F4F7CEDD
:10494000CE01CB960E94DC0D49A95AA96BA97CA97E
:10495000CE014E960E94A40BBE01625E7F4FCE0137
:1049600001960E94950FA301B0CE6EE373E08AE733
:1049700098E00E94A71B0091890C10918A0CC80135
:104980000E94491B6EE573E0CE0101960E940D1E48
:1049900020E040E0BE016F5F7F4FC8010E94111B05
:1049A000CE0101960E94901B6CE673E0CE01019649
:1049B0000E940D1E10E000E08D819E810F968017F1
:1049C000910744F1E090890CF0908A0CB201C50186
:1049D0000E94141DA501BE016D587F4FCE01CB96DC
:1049E0000E94221E21E040E0BE01655C7F4FC701AE
:1049F0000E94111BCE01CB960E94901BC5010E9404
:104A0000901B68EC70E080E090E00E94D0040F5FA3
:104A10001F4FD2CFCE0101960E94901B6BCF2F92D9
:104A20003F924F925F926F927F928F929F92AF923E
:104A3000BF92CF92DF92EF92FF920F931F93CF938B
:104A4000DF93CDB7DEB7C956D1090FB6F894DEBFF4
:104A50000FBECDBF64E17BE0CE01825A9F4F0E9422
:104A6000B019C0900E0BD0900F0BE090100BF0908F
:104A7000110BCE01825A9F4F0E94BF15AB01BC01A2
:104A80004C0D5D1D6E1D7F1DCE01885A9F4F0E94EB
:104A90002C14CE01885A9F4F0E94D814BC01CE011D
:104AA0008E5A9F4F0E940D1E66E972E0CE01845B14
:104AB0009F4F0E940D1E66E972E0CE018A5B9F4FF8
:104AC0000E940D1EE091E80AF091E90A80910A0B1C
:104AD00090910B0B8F3F910519F014F08FEF90E040
:104AE00097FF02C090E080E09183808360910A0B81
:104AF00070910B0B072E000C880B990B0E946238EB
:104B000020E030E04FE753E40E94F43920E030E049
:104B100048EC52E40E949D386B017C0181E0809357
:104B2000130B0E947722312C212C0091E80A10915E
:104B3000E90AF8016081718182810E94B80370E006
:104B400060E0F80183810E94B803F80160817181FF
:104B500084810E94B80370E060E0F80185810E94C2
:104B6000B8030E9403052B013C0164E17BE0CE0108
:104B7000C4960E94B019CE01885A9F4F0E94BF155B
:104B80004B015C01CE01C4960E94BF15861A970A9C
:104B9000A80AB90A80920E0B90920F0BA092100BEC
:104BA000B092110B8091710A9091720AA091730AD0
:104BB000B091740AA3019201281B390B4A0B5B0BBD
:104BC000DA01C901883E9340A105B10508F439C155
:104BD0004092710A5092720A6092730A7092740A3B
:104BE0000091890C10918A0CC8010E94491B46E073
:104BF000241631040CF0B0C080910E0B90910F0B75
:104C0000A091100BB091110B892B8A2B8B2B09F4DF
:104C1000A3C066E873E0CE0101960E940D1E20E05D
:104C200040E0BE016F5F7F4FC8010E94111BCE01A3
:104C300001960E94901B40900E0B50900F0B6090BD
:104C4000100B7090110BC301B20120E13EE040E077
:104C500050E00E949B39AA962CAF3DAF4EAF5FAF9C
:104C6000AA972CE330E040E050E00E949B394901D4
:104C7000A6963FAF2EAFA697C301B2012CE330E05A
:104C800040E050E00E949B398B01CE018E960E943D
:104C9000C21C0A3011050CF427C206E912E0B40167
:104CA000CE0188960E94C21CA6968EAD9FADA69797
:104CB00046E9A42E42E0B42E0A9724F438E6A32E47
:104CC00034E0B32EA8966EAD7FADA897CE010196C5
:104CD0000E94C21CBE016F5F7F4FCE0182960E9470
:104CE000141D6BE975E0CE0182960E94401CB5014F
:104CF0000E94401CBE01685D7F4F0E945A1C6BE9F8
:104D000075E00E94401CB8010E94401CBE01625D1B
:104D10007F4F0E945A1CBC01CE018A5B9F4F0E94AC
:104D2000FD1CCE0182960E94901BCE0101960E942E
:104D3000901BCE0188960E94901BCE018E960E94F9
:104D4000901B21E040E0BE016A5B7F4F8091890C9F
:104D500090918A0C0E94111BC1010597069708F0DB
:104D600067C01BA21AA21DA21CA21FA21EA28E0116
:104D70000F5F1F4F22E044E0C701B6010E9470356B
:104D8000BC01CE0182960E94EE1C8091060B909190
:104D9000070BE6E0E89FB001E99F700D11246F500A
:104DA000754FC8010E94141D67E973E0C8010E9495
:104DB000401CBE016E5D7F4F0E945A1C6AE973E081
:104DC0000E94401CBC01CE0188960E94141DC8019F
:104DD0000E94901BCE0182960E94901B20E040E032
:104DE000BE01685D7F4F8091890C90918A0C0E9472
:104DF000111B0091890C10918A0C60EA73E0CE01BE
:104E000001960E940D1EBE016E5A7F4FCE01019683
:104E10000E945A1C21E040E0BC01C8010E94111B05
:104E2000CE0101960E94901BCE0188960E94901B95
:104E3000FFEF2F1A3F0A2BE02216310414F0312C19
:104E4000212C80910E0B90910F0BA091100BB09123
:104E5000110B892B8A2B8B2B09F049C10E948F04DF
:104E60001092130B0E948F040091890C10918A0CF0
:104E7000C8010E94491B62E174E0CE0101960E94C4
:104E80000D1E20E040E0BE016F5F7F4FC8010E9411
:104E9000111BCE0101960E94901B60ED77E080E02F
:104EA00090E00E94D0040091890C10918A0C6091CE
:104EB0000C0B70910D0BCE0182960E94C21CBE019C
:104EC0006E5A7F4FCE0101960E94141D68E973E06F
:104ED000CE0101960E94401CBE016E5D7F4F0E9474
:104EE0005A1C6DE174E00E94401C20E040E0BC01CF
:104EF000C8010E94111BCE0101960E94901BCE0199
:104F000082960E94901BA090890CB0908A0C809190
:104F1000060B9091070B26E0922E989E8001999E99
:104F2000100D11240F50154F60E274E0CE01019670
:104F30000E940D1EB801CE0101960E945A1C21E06C
:104F400040E0BC01C5010E94111BCE0101960E94E8
:104F5000901B68EB7BE080E090E00E94D004A09082
:104F60007F0CB090800C1DAA1CAA1FAA1EAA19AE05
:104F700018AE8E010F5F1F4F22E044E0C701B6015B
:104F80000E947035BC01CE01C4960E94EE1CBE0189
:104F90006C5C7F4FCE01CA960E94141D68E274E0DB
:104FA000CE01CA960E94401CBC01CE01805C9F4F7E
:104FB0000E94141D8091060B9091070B989EB001E2
:104FC000999E700D11246F50754FCE018E960E94E0
:104FD000141DBE01645B7F4FCE0188960E94141D94
:104FE000CE0182960E949E1DC8010E941D1D9E0139
:104FF000205C3F4F7901035D1F4F28513109AE01FD
:105000004E5D5F4FBE016F5F7F4FC5010E94A822BA
:10501000CE0101960E94901BCE0182960E94901BA9
:10502000CE0188960E94901BC8010E94901BC70168
:105030000E94901BCE01CA960E94901BCE01C4967E
:105040000E94901BBE01645B7F4F8AE798E00E943C
:10505000BB1B1092070B1092060B1092090B1092BB
:10506000080B10920B0B10920A0B10920D0B109262
:105070000C0B10920E0B10920F0B1092100B109243
:10508000110B1092130B0E94772268EE73E080E000
:1050900090E00E94D004CE018A5B9F4F0E94901B3B
:1050A000CE01845B9F4F0E94901BCE018E5A9F4F72
:1050B0000E94901BC759DF4F0FB6F894DEBF0FBE9A
:1050C000CDBFDF91CF911F910F91FF90EF90DF90B7
:1050D000CF90BF90AF909F908F907F906F905F9098
:1050E0004F903F902F90089508E614E0D8CD89E7BF
:1050F0009AE00E943012823409F004C10E948F04A9
:105100000091890C10918A0CC8010E94491B6CEA1D
:1051100073E0CE0101960E940D1E20E040E0BE012A
:105120006F5F7F4FC8010E94111BCE0101960E9444
:10513000901B0091890C10918A0C6DEB73E0CE01ED
:1051400001960E940D1E21E040E0BE016F5F7F4F7F
:10515000C8010E94111BCE0101960E94901B0E9463
:10516000030589E79AE00E943012813409F074C087
:105170000091890C10918A0CC8010E94491B6DEFA7
:1051800073E0CE0101960E940D1E20E040E0BE01BA
:105190006F5F7F4FC8010E94111BCE0101960E94D4
:1051A000901B60ED77E080E090E00E94D004609179
:1051B0000C0B70910D0BCE0182960E94C21CBE0199
:1051C0006E5A7F4FCE0101960E94141D67E973E06D
:1051D000CE0101960E94401CBE016E5D7F4F0E9471
:1051E0005A1C6DEC73E00E94401CBC01CE01845B34
:1051F0009F4F0E94FD1CCE0101960E94901BCE0184
:1052000082960E94901B68ED73E0CE0101960E9489
:105210000D1EBE016A5B7F4FCE0101960E945A1C93
:105220006AEE73E00E94401CFC014481558160815C
:105230007181CE01845B9F4F0E94141CCE010196A8
:105240000E94901B41E150E064EF73E0CE01845B6B
:105250009F4F0E94141C04CE833409F082CF00912A
:10526000890C10918A0CC8010E94491B66E074E009
:10527000CE0101960E940D1E20E040E0BE016F5F4E
:105280007F4FC8010E94111BCE0101960E94901B06
:1052900060ED77E080E090E00E94D00480900E0BFB
:1052A00090900F0BA090100BB090110B64E17BE07D
:1052B000CE0101960E94B019CE0101960E94BF1541
:1052C000AB01BC01480D591D6A1D7B1DCE018296A4
:1052D0000E942C1486E0FE01B296DE01A85ABF4F50
:1052E00001900D928A95E1F7CE01885A9F4F0E9456
:1052F000D814BC01CE018E5A9F4F0E94EE1C81E053
:105300008093130B0E9403050091750A1091760A91
:105310002091770A3091780A601B710B820B930BF6
:1053200060367A4E81059105A0F00E9403056093D6
:10533000750A7093760A8093770A9093780A6CE0E6
:105340007BE086E090E00E944F228EE09BE00E948E
:10535000252264E670E080E090E00E94D004E5CB76
:105360001F920F920FB60F9211242F933F938F939A
:105370009F93AF93BF938091FA059091FB05A09105
:10538000FC05B091FD053091F90523E0230F2D3781
:1053900058F50196A11DB11D2093F9058093FA05DA
:1053A0009093FB05A093FC05B093FD058091FE054D
:1053B0009091FF05A0910006B09101060196A11DF4
:1053C000B11D8093FE059093FF05A0930006B09356
:1053D0000106BF91AF919F918F913F912F910F90B7
:1053E0000FBE0F901F90189526E8230F0296A11D5F
:1053F000B11DD2CF1F920F920FB60F9211240BB690
:105400000F922F933F934F935F936F937F938F935D
:105410009F93AF93BF93EF93FF938AE798E00E9427
:105420008405FF91EF91BF91AF919F918F917F91F3
:105430006F915F914F913F912F910F900BBE0F9005
:105440000FBE0F901F9018951F920F920FB60F92DC
:1054500011240BB60F922F938F939F93EF93FF938B
:10546000E0918A08F0918B088081E0919008F0919A
:10547000910882FD1DC09081809193088F5F8F738A
:1054800020919408821741F0E0919308F0E0E658EB
:10549000F74F958F80939308FF91EF919F918F9194
:1054A0002F910F900BBE0F900FBE0F901F9018956D
:1054B0008081F2CF1F920F920FB60F9211240BB67C
:1054C0000F922F933F934F935F936F937F938F939D
:1054D0009F93AF93BF93EF93FF938091B900887F21
:1054E000803609F44DC008F040C0883209F4A9C0E4
:1054F00028F5803109F49DC0C8F4882309F4FBC065
:10550000883009F496C0FF91EF91BF91AF919F91C0
:105510008F917F916F915F914F913F912F910F905C
:105520000BBE0F900FBE0F901F901895883109F495
:1055300088C0803241F780934E0814C0803409F44B
:105540009DC040F48033B9F38833E9F680934E0868
:1055500085ECB0C0803509F485C0883509F496C063
:10556000883489F60E94CC20CECF883909F48CC0CB
:1055700038F5883729F050F4883611F0803719F65D
:1055800083E0809350081092EF0557C0883809F4E3
:105590007BC0803919F0803809F0B5CF8091EF05D4
:1055A000803208F071C0E091EF0581E08E0F8093AA
:1055B000EF058091BB00F0E0E153FA4F80833DC0DE
:1055C000803B39F0E0F4803A09F479C0883A09F078
:1055D0009ACF84E0809350081092CE051092CD05AA
:1055E000E0910608F091070819958091CD05811189
:1055F0000FC081E08093CD051092AD0509C0803CBD
:1056000009F4A6CF883C09F4A3CF883B09F07BCFEF
:10561000E091CE0581E08E0F8093CE05F0E0E3555A
:10562000FA4F80818093BB009091CE058091CD058B
:1056300029C080912B088093BB0085EC8093BC002F
:1056400062CF90914D0880914C08981758F5E091E1
:105650004D0881E08E0F80934D08F0E0E45DF74F38
:105660008081E9CFE0914D0881E08E0F80934D0855
:105670008091BB00F0E0E45DF74F808390914D088E
:1056800080914C089817C8F285E8D8CFE0914D0872
:1056900081E08E0F80934D088091BB00F0E0E45DC7
:1056A000F74F808380914F0881115CCF81E0809318
:1056B0002A0884EA8093BC001092500824CF85EC1D
:1056C0008093BC00109250088091EF05803230F436
:1056D000E091EF05F0E0E153FA4F10826091EF05A1
:1056E00070E0E0910408F09105088FEC95E01995C1
:1056F0001092EF0508CF10924E0834CFFC01908134
:1057000090539A3008F090E0818180532AE0929F74
:10571000800D112408950A960C949B02CF92DF927B
:10572000EF92FF92CF93DF93EAE7F8E013821282C1
:1057300088EEC82E83E0D82EE12CF12CC482D582CD
:10574000E682F78281E492E09183808385EC90E0A9
:105750009587848784EC90E09787868780EC90E03B
:10576000918B808B81EC90E0938B828B82EC90E02C
:10577000958B848B86EC90E0978B868B118E128EA6
:10578000138E148EE7E1F9E080E580831182E9E170
:10579000F9E0158216821186138682E090E0A0E07F
:1057A000B0E084879587A687B78713A215A614A6AD
:1057B00083E592E093A782A717A6E2E6F9E01382B9
:1057C0001282C482D582E682F7828FE592E09183CD
:1057D000808386E090E00E94663AEC0180E190E0F0
:1057E0009983888382E090E09B838A838DE090E0B8
:1057F0000E94663AFC011382128283E892E0918350
:105800008083118687E2848380E1828782E08387B8
:105810001486FD83EC83D0938A0CC093890C10927C
:10582000820C1092810C40E853E46DE678E383E843
:105830009CE00E942C1486E990E00E94663AEC01FC
:105840001B821A82CC82DD82EE82FF8281E792E0A7
:10585000998388831A8E198E1C86CE014B960E94DE
:105860009B026AE274E0CE0186579F4F0E940D1E94
:105870006CE374E0CE0180579F4F0E940D1ED093C1
:10588000800CC0937F0C87E99BE00E948B2B80E10A
:105890009CE00E949B0289E79AE00E949B0283E0C1
:1058A0008093EA0A86E0EDE2F2E0ABEEBAE0019026
:1058B0000D928A95E1F767E474E081EF9AE00E9427
:1058C0000D1E6CE474E087EF9AE00E940D1E63E504
:1058D00074E08DEF9AE00E940D1E80912A02909153
:1058E0002B02A0912C028093030B9093040BA093A6
:1058F000050B1092070B1092060B1092090B1092D9
:10590000080B10920B0B10920A0B10920D0B1092B9
:105910000C0B10920E0B10920F0B1092100B10929A
:10592000110B1092120B1092130B1092150B109278
:10593000140B86E19BE00E948B2B88EF99E00E947C
:105940008B2B68E574E086E799E00E940D1E63E604
:1059500074E08CE799E00E940D1E6AE674E082E82C
:1059600099E00E940D1E1092880989E899E0DF9164
:10597000CF91FF90EF90DF90CF900C949B02CF934C
:10598000DF93CDB7DEB76E970FB6F894DEBF0FBECC
:10599000CDBF789484B5826084BD84B5816084BDB8
:1059A00085B5826085BD85B5816085BD80916E00BD
:1059B000816080936E0010928100809181008260EE
:1059C000809381008091810081608093810080912B
:1059D00080008160809380008091B100846080931A
:1059E000B1008091B00081608093B00080919100FF
:1059F00082608093910080919100816080939100FA
:105A0000809190008160809390008091A1008260DD
:105A10008093A1008091A10081608093A10080917A
:105A2000A00081608093A00080912101826080931A
:105A300021018091210181608093210180912001C9
:105A400081608093200180917A00846080937A0045
:105A500080917A00826080937A0080917A008160E0
:105A600080937A0080917A00806880937A00109207
:105A7000C100E0918A08F0918B0882E08083E09178
:105A80008608F09187081082E0918808F0918908D3
:105A900080E1808310929208E0918E08F0918F0847
:105AA00086E08083E0918C08F0918D088081806190
:105AB0008083E0918C08F0918D08808188608083DC
:105AC000E0918C08F0918D08808180688083E0915E
:105AD0008C08F0918D0880818F7D808381E89CE027
