:100000000C9482020C94B3020C94B3020C94B302CD
:100010000C94B3020C94B3020C94B3020C94B3028C
:100020000C94B3020C94B3020C94B3020C94B3027C
:100030000C94B3020C94B3020C94B3020C94B3026C
:100040000C94B3020C94B3020C94B3020C94B3025C
:100050000C94B3020C94B3020C94B3020C94CF39F9
:100060000C94B3020C94433A0C94193A0C94B302D6
:100070000C94B3020C94B3020C94B3020C94B3022C
:100080000C94B3020C94B3020C94B3020C94B3021C
:100090000C94B3020C94B3020C94B3020C94793A0E
:1000A0000C94B3020C94B3020C94B3020C94B302FC
:1000B0000C94B3020C94B3020C94B3020C94B302EC
:1000C0000C94B3020C94B3020C94B3020C94B302DC
:1000D0000C94B3020C94B3020C94B3020C94B302CC
:1000E0000C94B3020C9415120C9431180C948804DF
:1000F0000C9450040C9462030C948F030C94D3045E
:100100000C9453180C949E050C9476040C9466037E
:100110000C946D030C94E83F0C94102E0C947E0408
:100120000C949C040C94CB050C9481060C94E43F35
:100130000C94B5040C9458030C9493030C94DD04B4
:100140000C94BF140C9434060C9485030C945E0339
:100150000C9473030C9481030C94B6020C940B1250
:100160000C9499030C9477030C94DA050C946404B2
:100170000C94AA3B0C94D6100C94AB040C94B910BC
:100180000C9440180C94E73D0C945A180C94B5024A
:100190000C94C9040C946A030C945A040C948010B7
:1001A0000C9419450C9443040C948F050C94E63F71
:1001B0000C94DE3D0C9492040C94E23F0C947D036D
:1001C0000C944B040C9489100C941F100C94CA18B6
:1001D0000C94A9100C94BF200C94D23F0C943018AE
:1001E0000C94BF040C94EE050C9497140C94C31457
:1001F0000C94FC050C94E03F0C9487180C94D93FA8
:100200000C9498030C949D030C948B030C946E0433
:100210000C94190E0C943D2E00407A10F35A00A055
:10022000724E18090010A5D4E80000E876481700BF
:1002300000E40B54020000CA9A3B000000E1F505FF
:10024000000080969800000040420F000000A08649
:1002500001000000102700000000E803000000007B
:100260006400000000000A0000000000010000001F
:1002700000002C76D888DC674F0823DFC1DFAE5939
:10028000E1B1B796E5E3E453C63AE651997696E8CC
:10029000E6C28426EB898C9B62ED407C6FFCEFBC50
:1002A0009C9F40F2BAA56FA5F490055A2AF75C937B
:1002B0006B6CF9676DC11BFCE0E40D47FEF520E6B1
:1002C000B500D0ED902E0300943577050080841E94
:1002D000080000204E0A000000C80C333333330FEF
:1002E000986E12831141EF8D2114893BE65516CF8C
:1002F000FEE6DB18D1844B381BF77C1D901DA4BB98
:10030000E424203284725E228100C9F124ECA1E54C
:100310003D27CDCCCC3D0AD7233C17B7D13877CC7D
:100320002B329595E6241FB14F0A000020410000B2
:10033000C84200401C4620BCBE4CCA1B0E5AAEC56B
:100340009D741F1C1F1E1F1E1F1F1E1F1E0000202E
:10035000002300260029002C002F0032000001009D
:10036000000301060109017C3C3E5E2B3D3F2F5BF3
:100370005D3B2C2A225C0031343A35313A3333006C
:1003800053657020203720323032340052544320DD
:100390004C6F737420706F7765722C207365747462
:1003A000696E67207468652074696D6521000000BE
:1003B0002100240027002A002D0030003300010115
:1003C0000000040107010A010000220025002800A6
:1003D0002B002E003100340002010000050108014D
:1003E0000B010505050507050808080802020202B9
:1003F0000A0A0808040404040101010101010101C1
:100400000303030303030303040707070C0C0C0C8B
:100410000C0C0C0C02020202060606060606060674
:100420000B0B0B0B0B0B0B0B010210202008081001
:100430002040102040800201020108040201010254
:10044000040810204080804020100804020180042D
:100450000201804020100804020108040201010288
:100460000408102040800102040810204080000091
:100470000A0B02090C0D0E0807030401000000001E
:10048000000000000000000000000000000000006C
:100490000000000000000000000012111000000029
:1004A000000000000000000000000000000000004C
:1004B000000000003D3D3D3D3D204D656E75203DF9
:1004C0003D3D3D3D004A616E4665624D6172417041
:1004D000724D61794A756E4A756C417567536570E6
:1004E0004F63744E6F764465630053756E4D6F6E47
:1004F0005475655765645468754672695361740034
:10050000AA3B194511241FBECFEFD1E2DEBFCDBFFC
:1005100000E00CBF16E0A0E0B2E0E0E9FAE900E09C
:100520000BBF02C007900D92AE3BB107D9F72DE08B
:10053000AEEBB6E001C01D92A635B207E1F712E0BE
:10054000C1E8D2E000E006C021970109802FFE013A
:100550000E94CE49C038D10780E00807A9F70E9461
:10056000D23C0C94364D0C94000008950895CF931E
:10057000DF93FC01828193819093B50C8093B40C3E
:1005800084819581A681B7818093B60C9093B70C36
:10059000A093B80CB093B90C80859185A285B385E2
:1005A0008093BA0C9093BB0CA093BC0CB093BD0C81
:1005B000DF011C96CF014996CEEBDCE02D9129930B
:1005C000A817B907D9F7818D928D9093CC0C8093A1
:1005D000CB0C82EB9CE0DF91CF910895FC0112825D
:1005E00016821582178287E392E091838083DF0170
:1005F0005C96CD01CC961C9214961C921E92139779
:1006000015961C9215971696A817B907A1F7DF0142
:10061000AE59BF4F88E092E011969C938E9312964C
:1006200084E092E011969C938E93129684E08C93D2
:1006300011968C9317978CE092E011969C938E9371
:1006400018968AE090E011969C938E93129684EF10
:1006500091E011969C938E93139611961C921E9284
:1006600051971D921D921D921C921397E459FF4FB2
:10067000108208958150823108F05AC0E82FF0E0CE
:100680008827EA5BFC4F8F4F0C94CE4966036A03C0
:1006900058035E03620398036D03730377037D03BE
:1006A000810385038B038F039803930399039D03B1
:1006B000809180008F7780938000089580918000E2
:1006C0008F7DF9CF80918000877FF5CF84B58F77BC
:1006D00084BD089584B58F7DFBCF8091B0008F7766
:1006E0008093B00008958091B0008F7DF9CF809104
:1006F00090008F77809390000895809190008F7D77
:10070000F9CF80919000877FF5CF8091A0008F77FF
:100710008093A00008958091A0008F7DF9CF8091F3
:10072000A000877FF5CF809120018F7780932001F3
:100730000895809120018F7DF9CF80912001877FDE
:10074000F5CF1F93CF93DF93282F30E0F901E259C3
:10075000FB4F8491F901E85DFB4FD491F901EE5113
:10076000FC4FC491CC23A9F0162F81110E943A03AB
:10077000EC2FF0E0EE0FFF1FE853FC4FA591B49172
:100780008FB7F894EC91111108C0D095DE23DC935B
:100790008FBFDF91CF911F910895DE2BF8CFCF93BC
:1007A000DF9390E0FC01E85DFB4F24918E519C4F5C
:1007B000FC0184918823C9F090E0880F991FFC0107
:1007C000E255FC4FA591B491FC01E853FC4FC59153
:1007D000D49161110DC09FB7F8948C91209582231C
:1007E0008C938881282328839FBFDF91CF91089520
:1007F000623051F49FB7F8943C91822F8095832307
:100800008C93E8812E2BEFCF8FB7F894EC912E2BA1
:100810002C938FBFEACF1F93CF93DF93182FEB0159
:1008200061E00E94CF03209739F460E0812FDF91CF
:10083000CF911F910C94A103CF3FD10511F461E03A
:10084000F5CFE12FF0E0E259FB4FE491E150E231C6
:1008500008F0B3C0F0E08827EF5CFB4F8F4F0C949B
:10086000CE4943044B0450045A046404DD046E046E
:1008700076047E04880492049C04AB04B504DD0471
:10088000BF04C904D30484B5806884BDC7BDDF91AB
:10089000CF911F91089584B5806284BDC8BDF7CF04
:1008A00080918000806880938000D0938900C093FD
:1008B0008800EDCF80918000806280938000D0938B
:1008C0008B00C0938A00E3CF809180008860809382
:1008D0008000D0938D00C0938C00D9CF8091B00060
:1008E00080688093B000C093B300D1CF8091B000F6
:1008F00080628093B000C093B400C9CF8091900013
:10090000806880939000D0939900C0939800BFCFE7
:1009100080919000806280939000D0939B00C09360
:100920009A00B5CF80919000886080939000D0931A
:100930009D00C0939C00ABCF8091A0008068809305
:10094000A0008091A0008F7B8093A000D093A9008D
:10095000C093A8009CCF8091A00080628093A000EB
:10096000D093AB00C093AA0092CF8091A000886082
:100970008093A000D093AD00C093AC0088CF80914D
:100980002001806880932001D0932901C093280121
:100990007ECF80912001806280932001D0932B0133
:1009A000C0932A0174CF8091200188608093200138
:1009B000D0932D01C0932C016ACFC038D1050CF023
:1009C0003ECF33CFCF93DF93C091030CD091040C73
:1009D00070E060E08A810E940B0470E060E08B812F
:1009E0000E940B0470E060E08C810E940B0470E0B8
:1009F00060E08D81DF91CF910C940B043FB7F894A8
:100A000080910F0790911007A0911107B0911207E4
:100A100026B5A89B05C02F3F19F00196A11DB11D59
:100A20003FBFBA2FA92F982F8827BC01CD01620F95
:100A3000711D811D911D42E0660F771F881F991F50
:100A40004A95D1F708958F929F92AF92BF92CF921D
:100A5000DF92EF92FF926B017C010E94FE044B013A
:100A60005C01C114D104E104F104B9F00E94FE0458
:100A7000681979098A099B09683E734081059105C7
:100A800080F321E0C21AD108E108F10888EE880E4F
:100A900083E0981EA11CB11CE4CFFF90EF90DF9083
:100AA000CF90BF90AF909F908F9008952FB7F894FC
:100AB00060910B0770910C0780910D0790910E07C4
:100AC0002FBF08950F931F93CF93C82F0E945605F1
:100AD0000091050C1091060C2091070C3091080C28
:100AE000601B710B820B930B683E7340810591056F
:100AF00090F00E9456056093050C7093060C80934D
:100B0000070C9093080C6C2F80910D0CCF911F91C6
:100B10000F910C94A103CF911F910F910895089507
:100B2000DB0114964D915C9115976D917C91DC01E0
:100B3000ED91FC910280F381E02D1994AF92BF9268
:100B4000CF92DF92EF92FF920F931F93CF93DF9399
:100B50006C017B018B01040F151FEB015E01AE18C8
:100B6000BF08C017D10759F06991D601ED91FC91EA
:100B70000190F081E02DC6011995892B79F7C50107
:100B8000DF91CF911F910F91FF90EF90DF90CF9069
:100B9000BF90AF900895FC01538D448D252F30E018
:100BA000842F90E0821B930B541710F0CF9608957A
:100BB00001970895FC01918D828D981761F0A28DA7
:100BC000AE0FBF2FB11D5D968C91928D9F5F9F736D
:100BD000928F90E008958FEF9FEF0895FC01918D23
:100BE000828D981731F0828DE80FF11D858D90E090
:100BF00008958FEF9FEF0895FC01918D228D892F2D
:100C000090E0805C9F4F821B91098F739927089514
:100C10008CE899E00E94FC0521E0892B09F420E092
:100C2000822F0895FC01A48DA80FB92FB11DA35ADE
:100C3000BF4F2C91848D90E001968F739927848FFC
:100C4000A689B7892C93A089B1898C91837080641F
:100C50008C93938D848D981306C00288F389E02DC0
:100C600080818F7D80830895EF92FF920F931F9371
:100C7000CF93DF93EC0181E0888F9B8D8C8D98134F
:100C80001AC0E889F989808185FF15C09FB7F8945B
:100C9000EE89FF896083E889F989808183708064A7
:100CA00080839FBF81E090E0DF91CF911F910F91F2
:100CB000FF90EF900895F62E0B8D10E00F5F1F4F01
:100CC0000F731127E02E8C8D8E110CC00FB607FC10
:100CD000FACFE889F989808185FFF5CFCE010E949E
:100CE0001206F1CFEB8DEC0FFD2FF11DE35AFF4FF4
:100CF000F0829FB7F8940B8FEA89FB89808180622C
:100D0000CFCFCF93DF93EC01888D8823B9F0AA89E8
:100D1000BB89E889F9898C9185FD03C0808186FDB6
:100D20000DC00FB607FCF7CF8C9185FFF2CF808105
:100D300085FFEDCFCE010E941206E9CFDF91CF9162
:100D4000089580E090E0892B29F00E940806811127
:100D50000E94000080E090E0892B49F080E090E064
:100D6000892B29F00E94000081110E94000080E080
:100D700090E0892B49F080E090E0892B29F00E94D7
:100D8000000081110E94000080E090E0892B49F072
:100D900080E090E0892B29F00E94000081110C94E2
:100DA000000008958FB7F894809103078FBF0895CE
:100DB00061E0FC0184810E94A103809102078111FE
:100DC0001092020708958EBD00000DB407FEFDCFFE
:100DD0008EB508958FEF0C94E3060F931F93CF9376
:100DE000DF93EC010E9456058B010E94EA068F3FBB
:100DF00069F00E945605601B710B6C177D07A8F304
:100E000080E0DF91CF911F910F91089581E0F9CF9C
:100E10008CBD9DBD0895CF93DF93EC0180910207B7
:100E2000811109C081E0809302078091290A909185
:100E30002A0A0E94080760E08C81DF91CF910C9410
:100E4000A1038F929F92AF92BF92FF920F931F9335
:100E5000CF93DF93EC01F62E49015A018E8188234E
:100E600089F08F8198859C012F5F3F4F38872F83B2
:100E70008230924018F40E94EA06F3CFCE010E941D
:100E8000D8061E82CE010E940B078CE291E00E94E0
:100E9000ED068F2D80640E94E30608E110E0D50185
:100EA000C401002E04C0B695A795979587950A941E
:100EB000D2F70E94E30608501109083F8FEF180788
:100EC00071F785E9FF2021F028E087E8F2128FEF23
:100ED0000E94E30610E00E94EA068A8787FF04C0AA
:100EE0001F3F11F01F5FF7CFDF91CF911F910F913F
:100EF000FF90BF90AF909F908F900895AF92BF9258
:100F0000CF92DF92EF92FF920F931F93CF93DF93D5
:100F1000EC016901C801820F931F8130924050F5A6
:100F20008E81882379F088819981AA81BB81841779
:100F30009507A607B70731F48F819885C816D9069B
:100F400008F042C0488359836A837B838B85833052
:100F500039F089E0440F551F661F771F8A95D1F736
:100F60009A01AB0161E1CE010E942107882389F03B
:100F700083E08D83CE010E94D80680E0DF91CF917F
:100F80001F910F91FF90EF90DF90CF90BF90AF90A7
:100F900008950E9456055B010E94EA068A878F3FEA
:100FA00069F40E9456056A197B096D327140A0F3FD
:100FB0008FE08D83CE010E94D806DCCF8E3F89F46E
:100FC00018861F8281E08E838F8198858C159D0500
:100FD00050F40E94EA068F819885019698878F8346
:100FE000F3CF8DE0E6CF6701E00EF11E0E94EA0626
:100FF000F60181936F01EE15FF05C1F78F8198858A
:10100000080F191F18870F838985882319F0011588
:101010001240A0F08E81882389F08F8198859C01F1
:101020002F5F3F4F38872F838230924018F40E9401
:10103000EA06F3CFCE010E94D8061E8281E09ECF41
:10104000CF92DF92EF92FF920F93CF93DF93EC0159
:10105000690182E1411551056105710599F08B85A2
:10106000833039F089E0440F551F661F771F8A953A
:10107000D1F79A01AB0168E1CE010E9421078823D4
:1010800019F084E08D832DC08EEF0E94E306760177
:101090008EEFD81AF70181917F010E94E306EC14CC
:1010A000FD04C1F78FEF0E94E3068FEF0E94E30675
:1010B0000E94EA068A878F71853071F4011116C08B
:1010C000CE010E94D80681E0DF91CF910F91FF9071
:1010D000EF90DF90CF90089581E18D83CE010E9443
:1010E000D806CE010E94D80680E0EECF88E592E0D7
:1010F0000E94ED06811102C085E1C4CF20E030E0FE
:10110000A9016DE0CE010E942107882311F084E13E
:10111000B9CF0E94EA068111FACFD2CF0F93409146
:101120000507509106076091070770910807411560
:1011300051056105710599F0082F26E137E080918E
:101140001407909115070E942008882349F01092F7
:10115000050710920607109207071092080781E012
:101160000F9108950F93CF93C82F80910407811199
:1011700005C0C1E08C2FCF910F91089540910002DE
:101180005091010260910202709103020C2F26E13E
:1011900037E080911407909115070E942008811173
:1011A00002C0C0E0E7CFCC2321F381E00E948E088B
:1011B0008823B9F310920407DDCF8F929F92AF92EC
:1011C000BF92EF92FF920F931F93CF934B015C015D
:1011D000C42F8091000290910102A0910202B0916F
:1011E000030288159905AA05BB0551F181E00E940B
:1011F000B20881110BC080E0CF911F910F91FF9039
:10120000EF90BF90AF909F908F90089586E1E82E69
:1012100087E0F82E00E012E030E020E0B501A40104
:1012200080911407909115070E947E07882319F377
:101230008092000290920102A0920202B0920302F8
:10124000409104074C2B4093040781E0D5CFCF9306
:10125000DF93EC016E857F858889998941E00E9442
:10126000DD08882351F08A8920E2829FC001112481
:101270008A5E984FDF91CF91089590E080E0FACF99
:101280008F929F92AF92BF92CF92DF92EF92FF9296
:10129000CF932BE23AE0309315072093140788236D
:1012A00009F46DC040E060E070E0CB010E94DD0811
:1012B00081110BC080E0CF91FF90EF90DF90CF9035
:1012C000BF90AF909F908F9008958091D4088F77B2
:1012D00089F78091E0089091E108A091E208B0912F
:1012E000E30884369105A105B10520F3C090DC0820
:1012F000D090DD08E090DE08F090DF08C114D10442
:10130000E104F104B9F240E0C701B6010E94DD0832
:10131000882381F2809121079091220781159240C4
:1013200049F6A0912607AA2329F26091240770911B
:1013300025076115710509F4BDCF209123072223EC
:1013400009F4B8CFA093490A20933B0A90E080E0CB
:1013500030E0E1E0F0E0C82FAF01082E02C0440FFA
:10136000551F0A94E2F72417350769F041E0480F4A
:1013700001968930910579F74093440A9BCFC12C9F
:10138000D12C7601C0CF8093440A20912C07309154
:101390002D0750E040E02115310541F420913A0736
:1013A00030913B0740913C0750913D0720933C0A08
:1013B00030933D0A40933E0A50933F0A460157013D
:1013C000860E971EA11CB11C80924A0A90924B0A6D
:1013D000A0924C0AB0924D0AE0912707F09128079D
:1013E000F093500AE0934F0AB0E00E947249DC018A
:1013F000CB01880D991DAA1DBB1D8093510A9093A6
:10140000520AA093530AB093540A25E0EE0FFF1F2F
:101410002A95E1F7E150FE4FEF2FFF27E6958E0F5B
:101420009F1FA11DB11D8093450A9093460AA0936A
:10143000470AB093480A8090290790902A07B12C58
:10144000A12C8114910441F48090360790903707C5
:10145000A0903807B0903907C81AD90AEA0AFB0ADF
:10146000C80CD91CEA1CFB1C04C0F694E794D79462
:10147000C794CA95D2F7C092400AD092410AE0922E
:10148000420AF092430A85EFC8168FE0D806E104BD
:10149000F10428F48CE080934E0A81E00CCF80E1C7
:1014A00025EFC2162FEFD206E104F104A0F38091DC
:1014B000420790914307A0914407B091450780935C
:1014C000510A9093520AA093530AB093540A80E2AF
:1014D000E2CF4F925F926F927F928F929F92AF92E4
:1014E000BF92CF92DF92EF92FF920F931F93CF9311
:1014F000DF93EC01423051056105710590F480E005
:10150000DF91CF911F910F91FF90EF90DF90CF90DF
:10151000BF90AF909F908F907F906F905F904F9013
:10152000089589859A85AB85BC850196A11DB11D5D
:1015300084179507A607B70710F3CB88DC88ED88DA
:10154000FE888F89803109F042C0BB27A72F962FD4
:10155000852F480159012A013B01C80ED91EEA1EF8
:10156000FB1E8091000290910102A0910202B091B5
:101570000302C816D906EA06FB0699F58F89803161
:10158000C1F5B301A201552766277727440F551FE0
:101590004A5E584FFA0191828082809104078160EF
:1015A000809304078A89823080F08D819E81AF818B
:1015B000B8858C0D9D1DAE1DBF1D809305079093B2
:1015C0000607A0930707B093080781E099CFDB01D6
:1015D000CA01E7E0B695A79597958795EA95D1F763
:1015E000B8CF40E0C701B6010E94DD088111C6CF27
:1015F00086CFB301A2014F77552766277727440F7F
:10160000551F440F551F4A5E584FFA018082918240
:10161000A282B382C2CF8F929F92AF92BF92CF929B
:10162000DF92EF92FF920F931F93CF93DF93FC0112
:1016300081859285A385B4850196A11DB11D84176E
:101640009507A607B70770F480E0DF91CF911F914F
:101650000F91FF90EF90DF90CF90BF90AF909F9051
:101660008F90089583889488A588B688878980316B
:1016700089F5BB27A72F962F852FE9016A017B01EA
:101680008F01BC01CD01680D791D8A1D9B1D8090C5
:10169000000290900102A0900202B0900302861610
:1016A0009706A806B90601F5F8018789803111F57A
:1016B000DD24EE24FF24F601EE0FFF1FEA5EF84F53
:1016C00080819181B0E0A0E088839983AA83BB8365
:1016D00081E0BBCFDB01CA01C7E0B695A79597951E
:1016E0008795CA95D1F7C9CF40E00E94DD088111E6
:1016F000DBCFAACFE894C7F8DD24EE24FF24F6015F
:10170000EE0FFF1FEE0FFF1FEA5EF84F8081918101
:10171000A281B381BF70D8CF4F925F926F927F92B8
:10172000AF92BF92CF92DF92EF92FF920F931F93EF
:10173000CF93DF9300D01F92CDB7DEB78C014983E2
:101740005A836B837C835901C12CD12C7601412CA7
:1017500082E0582E612C712C49815A816B817C81E9
:101760009E012F5F3F4FC8010E940B0B882339F168
:10177000F8018585A301920104C0220F331F441F85
:10178000551F8A95D2F7DA01C901C80ED91EEA1E83
:10179000FB1E49815A816B817C818789803111F1DF
:1017A00088EF9FEFAFEFBFE0481759076A077B0745
:1017B00098F2F501C082D182E282F38281E00F903B
:1017C0000F900F900F90DF91CF911F910F91FF908D
:1017D000EF90DF90CF90BF90AF907F906F905F9031
:1017E0004F90089588EF9FEFA0E0B0E0DDCFCF935A
:1017F000DF93FC012581222321F080E0DF91CF914E
:101800000895EC0180914E0A803159F582E085837C
:10181000178A108E118E128E80914F0A9091500A65
:10182000B0E0A0E025E0880F991FAA1FBB1F2A95F2
:10183000D1F7838B948BA58BB68B87E39AE09C8F33
:101840008B8F81E08C831E821F82188619861A86F0
:101850001B861C861D861E861F86188A198A1A8A70
:10186000CDCF803251F683E085834091510A50916B
:10187000520A6091530A7091540A478B508F618FBE
:10188000728F9F012D5E3F4F87E39AE00E948C0B81
:101890008111D3CFB2CF8F929F92AF92BF92CF924E
:1018A000DF92EF92FF920F931F93CF93DF93EC01A0
:1018B0008D8181110EC080E0DF91CF911F910F913A
:1018C000FF90EF90DF90CF90BF90AF909F908F9060
:1018D00008950B891C892D893E8904171507260751
:1018E000370748F34A015B01823031F48A869B86D0
:1018F000AC86BD8681E0E0CF81149104A104B104DF
:1019000049F41E821F82188619861A861B861C8639
:101910001D86F0CF0A851B852C853D85EB8DFC8DC2
:10192000858590E00996B901A801415051096109E6
:101930007109082E04C076956795579547950A94C6
:10194000D2F775016401E1E0CE1AD108E108F1088F
:1019500004C0F694E794D794C7948A95D2F7C41636
:10196000D506E606F70620F0012B022B032B11F516
:101970008F89988DA98DBA8D8E839F83A887B9870B
:101980008E010A5F1F4FC114D104E104F10409F470
:10199000ADCF4E815F816885798598018B8D9C8D57
:1019A0000E940B0B91E0C91AD108E108F1088111DE
:1019B000EACF81CFC41AD50AE60AF70AE1CF3F92EF
:1019C0004F925F926F927F928F929F92AF92BF924F
:1019D000CF92DF92EF92FF920F931F93CF93DF93FB
:1019E000CDB7DEB72C970FB6F894DEBF0FBECDBFD4
:1019F0005C01DC015B968D909C905C9716964D90F7
:101A00005D906D907C9019974114510461047104AC
:101A100009F468C0BFEF4B1A5B0A6B0A7B0A312CD2
:101A2000F40181859285A385B4859C01AD012F5F6A
:101A30003F4F4F4F5F4F29873A874B875C87730132
:101A400062011D821E821F821886F40181859285A3
:101A5000A385B4852D813E814F815885281739078C
:101A60004A075B0708F056C089859A85AB85BC8517
:101A70008C159D05AE05BF0550F482E0C82ED12C13
:101A8000E12CF12C92E0492E512C612C712C9E01FD
:101A90002F5F3F4FB701A601C4010E940B0B8823A3
:101AA000C9F189819A81AB81BC81892B8A2B8B2BCF
:101AB00009F1260137019FEF491A590A690A790A83
:101AC0002D813E814F8158852F5F3F4F4F4F5F4F94
:101AD0002D833E834F8358873FEFC31AD30AE30A0F
:101AE000F30AB3CFF40140805180628073803324C5
:101AF000339496CFC414D504E604F70409F70FEF26
:101B00001FEF2FEF3FE0B701A601C4010E94690A51
:101B1000811119C080E02C960FB6F894DEBF0FBE7D
:101B2000CDBFDF91CF911F910F91FF90EF90DF908C
:101B3000CF90BF90AF909F908F907F906F905F906D
:101B40004F903F900895D50116964D915D916D91FE
:101B50007C911997411551056105710539F097017F
:101B60008601C4010E94690A8823A1F2D501169654
:101B7000CD92DD92ED92FC921997332051F0D7016E
:101B8000C6010196A11DB11DF40180839183A2833A
:101B9000B383F5018789908DA18DB28D892B8A2B16
:101BA0008B2B39F48481C78AD08EE18EF28E8068C7
:101BB0008483F50184818062848381E0ACCF1F93AC
:101BC000CF93DF93FC012581222371F1162FEC01C5
:101BD000848187FF1EC0CF010E942709FC01892B49
:101BE00019F18D81823040F48B899C89AD89BE8941
:101BF000848F958FA68FB78F8F89988D938F828FC3
:101C00008F89988DA98DBA8DB58BA48B8C818F7798
:101C10008C83111103C08C818F7E8C83812FDF9187
:101C2000CF911F910C94B20880E0DF91CF911F916A
:101C30000895FF920F931F93CF93DF93EC018D8153
:101C4000813041F090E080E0DF91CF911F910F91C2
:101C5000FF9008958C8181FFF5CF82FD1BC000911C
:101C6000140710911507C8010E940B070E94EA068D
:101C7000F82EC8010E94D8068FEFF812E3CF8C81AE
:101C800085FF1BC060E0CE010E94DF0D8C818F7D3F
:101C90008C83D8CF4B895C896D897E898A859B85A9
:101CA000AC85BD8584179507A607B707C1F2CE019D
:101CB0000E944B0C8111D3CFC5CF409105075091A5
:101CC00006076091070770910807452B462B472BA5
:101CD00021F080E00E948E08B5CF80618C832A8538
:101CE0003B85317080E092E0821B930BADCFCF93A8
:101CF000DF93EC0161E00E94DF0D882311F01D826B
:101D000081E0DF91CF9108952F923F924F925F92A1
:101D10006F927F928F929F92AF92BF92CF92DF92FB
:101D2000EF92FF920F931F93CF93DF9300D01F92F8
:101D30001F92CDB7DEB77C015B01342E5D83DC01E1
:101D400015968C911597813009F0CEC014962C9081
:101D500021FECAC022FCB4C0C32CDD8022947FE0E7
:101D600027222094B22DB1702B2ED7011A964D91B7
:101D70005D916D917C911D97C114D10409F428C126
:101D80005B968D919C915C97FC0174807A948A019A
:101D90009B0169E036952795179507956A95D1F7C8
:101DA00070228A011170711020C001151105E9F42B
:101DB00016964D915D916D917C9119974115510544
:101DC0006105710509F099C057968D919D910D900F
:101DD000BC91A02D0097A105B10509F0B0C0C701C5
:101DE0000E94DF0C882309F47FC080E092E0801B12
:101DF000910B46018C159D0508F44C01D7015B96AB
:101E00004D915C915C9716968D919D910D90BC9132
:101E1000A02D0297A109B109FA01258504C0880FF8
:101E2000991FAA1FBB1F2A95D2F74685578560893F
:101E30007189840F951FA61FB71F9C01AD01270D47
:101E4000311D411D511D29013A01811432E09306D3
:101E500009F07BC08091000290910102A0910202E2
:101E6000B091030284159505A605B70559F48FEFC7
:101E70009FEFDC018093000290930102A093020285
:101E8000B0930302022D9501B301A20180911407C2
:101E9000909115070E942008882331F19EEFB91A0E
:101EA000C818D908F70182859385A485B585880D62
:101EB000991DA11DB11D82879387A487B58755CF32
:101EC000F701438954896589768982859385A4853C
:101ED000B585481759076A077B0709F43DCFC70145
:101EE0000E944B0C811138CF81E090E0D70113960E
:101EF0009C938E93129780E007C09E012F5F3F4F07
:101F00000E940B0B811102C090E079C089819A81F7
:101F1000AB81BC81F701238D348DF901278948EF0E
:101F20005FEF60E070E0203121F048EF5FEF6FEF8E
:101F30007FE084179507A607B70708F050CFF70191
:101F400086839783A087B18750CF0115110599F536
:101F5000D7011A964D915D916D917C911D97539685
:101F60008D919D910D90BC91A02D481759076A073E
:101F70007B0708F181E00E94B208882309F4B4CFFE
:101F8000409200025092010260920202709203029B
:101F900080910407816080930407C8018A5E984F8E
:101FA000D5019C01280D391DFC012E173F0759F062
:101FB0004D914193FACF41E0C301B2010E94DD0887
:101FC0008111EBCF91CF281B390BA20EB31E68CF26
:101FD000F70183899489A589B68984179507A6078F
:101FE000B70738F48481438B548B658B768B80687C
:101FF0008483F701848183FD1AC0832D9D810F9016
:102000000F900F900F900F90DF91CF911F910F9134
:10201000FF90EF90DF90CF90BF90AF909F908F9008
:102020007F906F905F904F903F902F90089561E068
:10203000C7010E94DF0D882309F456CFDECFCF936E
:10204000DF931F92CDB7DEB7698341E050E0BE0158
:102050006F5F7F4F0E94840E0F90DF91CF910895A4
:10206000FC01DB0112968D919C91139793838283DF
:102070008FE592E09183808314968C9114978483EA
:1020800015968C911597858316964D915D916D915E
:102090007C91199746835783608771871A964D9173
:1020A0005D916D917C911D974287538764877587F9
:1020B0001E964D915D916D917C9151974687578702
:1020C000608B718B52968C915297828B53964D9167
:1020D0005D916D917C915697438B548B658B768B7C
:1020E00057964D915D916D917C915A97478B508F8A
:1020F000618F728F5B968D919C91948F838F0895E1
:10210000FC01818D928D009719F061E00C94DF0D38
:102110000895DC015996ED91FC913097B9F08389CF
:102120009489A589B6894285538564857585841B04
:10213000950BA60BB70B811520E89207A105B105F9
:1021400038F08FEF9FE7A0E0B0E0089590E080E0E6
:102150000895DC0159968D919C91009739F0DC012E
:10216000ED91FC910480F581E02D199490E080E0E0
:102170000895CF93DF93EC01E98DFA8D309749F400
:1021800081E090E09B838A8390E080E0DF91CF91B3
:10219000089513821282898D9A8D0E94840EE98D92
:1021A000FA8D22813381232B59F7F0CFCF93DF9320
:1021B0001F92CDB7DEB76983DC01ED91FC910280FF
:1021C000F381E02D41E050E0BE016F5F7F4F199534
:1021D0000F90DF91CF9108952F923F924F925F928F
:1021E0006F927F928F929F92AF92BF92CF92DF9227
:1021F000EF92FF920F931F93CF93DF9300D0CDB751
:10220000DEB7FC018581811118C08FEF9FEF0F9021
:102210000F900F90DF91CF911F910F91FF90EF9052
:10222000DF90CF90BF90AF909F908F907F906F90F6
:102230005F904F903F902F900895848180FFE5CF6D
:10224000438954896589768982859385A485B58576
:10225000312C212C481759076A077B0719F02224D3
:102260002394312C6F012101CE0101963C01DF0145
:102270001696BB83AA834114510409F4C5C0F60124
:1022800042855385648575854A01F1E09F22D60118
:102290005B968D919C915C978A019B01E9E0369554
:1022A000279517950795EA95D1F71596EC91E230A9
:1022B000E9F5FC01628D738D848D958D600F711F22
:1022C000821F931FA12C22E0B22EA818B9084A142D
:1022D0005B0408F45201F601248126FD04C0A11418
:1022E000F2E0BF0671F4009100021091010220910A
:1022F000020230910302061717072807390709F071
:102300005EC040E00E94DD08882309F47ECFC4014E
:102310008A5E984FD3019C012A0D3B1DFC012E17AC
:102320003F0709F46CC041914D93F9CFDC0114963D
:10233000BC90BA94B0228114910479F4B1100DC00C
:10234000452B462B472B69F5F6018789908DA18D8A
:10235000B28D86839783A087B187D6015B96ED9176
:10236000FC915C9716966D917D918D919C9119973A
:102370006250710981099109258504C0660F771F94
:10238000881F991F2A95D2F70685178520893189DC
:10239000600F711F821F931F6B0D711D811D911D99
:1023A00091CFD60116964D915D916D917C911997C3
:1023B0002A813B810E940B0B8111CFCF26CF730165
:1023C00085019401AB01BC01809114079091150720
:1023D0000E947E07882309F418CF6A0C7B1CF60143
:1023E00082859385A485B5858A0D9B1DA11DB11D90
:1023F00082879387A487B5874A185B083CCF281B40
:10240000390B620E731EEBCF2A94232809F0FDCE00
:10241000898190E0FCCEFC01818D928D009711F0B6
:102420000C94EC108FEF9FEF08950F931F93CF93B1
:10243000DF93EC01898D9A8D10E000E0009799F010
:102440000E94EC108C010F3F100769F0898D9A8D66
:10245000FC014285538564857585415051096109A8
:1024600071090E944B0CC801DF91CF911F910F9110
:102470000895CF93DF93DC0126E0629FA00DB11D8C
:10248000112490965C934E935F9721E091962C9344
:102490009197FC01E359FF4F0190F081E02DEC0191
:1024A000C459DF4F2881222341F0309719F0DC0115
:1024B000662329F0DF91CF9108953097D9F35C9688
:1024C0008C91DF91CF911994CF92DF92EF92FF928E
:1024D0000F931F93CF93DF93EC01162F042FFC0172
:1024E00086E0689FE00DF11D112411A2878D90A157
:1024F0008130910509F180F08230910509F443C0E3
:10250000039709F445C0DF91CF911F910F91FF9080
:10251000EF90DF90CF9008954423A9F341E050E07D
:10252000CE010E9439120E945605C85ADF4F6883B7
:1025300079838A839B83E7CF0E945605FE01E85A80
:10254000FF4FC080D180E280F380AB01BC014C1909
:102550005D096E097F09729680819181B0E0A0E0EB
:1025600084179507A607B70770F442E050E0612F83
:10257000CE01DF91CF911F910F91FF90EF90DF90EF
:10258000CF900C94391243E050E00111BCCFEFCF53
:1025900050E040E0ECCF2F923F924F925F926F92CB
:1025A0007F928F929F92AF92BF92CF92DF92EF92E3
:1025B000FF920F931F93CF93DF93CDB7DEB72C9786
:1025C0000FB6F894DEBF0FBECDBF9C878B878459B2
:1025D0009F4F9A83898381E0A981BA818C930E945D
:1025E0005605EB85FC85E45AFF4FFC83EB830081A5
:1025F000118122813381AB01BC01401B510B620B65
:10260000730BEB85FC85E859FF4F80819181B0E029
:10261000A0E084179507A607B70708F081C110E06E
:10262000CB84DC84F6E6CF0ED11CEB84FC8422E65E
:10263000E20EF11CD6018C911817A0F4F701A081CD
:10264000B181A10FB11DEB85FC8580819181FC01D9
:102650002081318142E06C918B859C85F90119952F
:102660001F5FE8CF912C2B843C84F7E62F0E311CA2
:10267000AB84BC8424E6A20EB11C412C512C320147
:1026800043944B855C854E595F4F5A874987D101EA
:102690008C91981608F08BC0E92CF12CF501A081E3
:1026A000B181AE0DBF1DEB85FC8580819181FC0160
:1026B0002081318141E06C918B859C85F9011995D0
:1026C000F501A081B181AE0DBF1DEB85FC85808138
:1026D0009181FC012281338140E06C918B859C8546
:1026E000F9011995D301C201092C04C0880F991F63
:1026F000AA1FBB1F0A94D2F79E838D839C0120954D
:10270000309538872F83812CAB85BC85ED91FC916A
:10271000D6018C91881648F5082D10E0A985BA8558
:102720008D919C91DC01A00FB11F0480F581E02DFB
:102730006C918B859C851995000F111FEB85FC858D
:10274000E00FF11F892B51F4808591852D813E8109
:10275000822B932B918780878394D6CF8085918518
:102760004F81588584239523F5CFD5018D919C9178
:10277000DC01AE0DBF1D0280F381E02D41E06C91C4
:102780008B859C851995F50180819181E80EF91E54
:10279000AB85BC85ED91FC910190F081E02D40E08E
:1027A000D7016C918B859C851995939470CFEB84A0
:1027B000FC84C701CC9647012FEF3FEFF401478D12
:1027C00050A1452B21F4148E368F258F11A2F6E0EF
:1027D0008F0E911C8816990689F7712CAB84BC84E6
:1027E00020E6A20EB11C96E0592ED6018C917816E7
:1027F00008F058C0612C072D10E00C5F1F4F000F30
:10280000111FEB85FC850E0F1F1FD1018C916816DF
:1028100008F046C0F80140815181062C02C056954F
:1028200047950A94E2F7789EC0011124860D911D08
:10283000EB85FC8560E0258D368D8217930709F4C2
:1028400074C06F5F36966A30B1F740FF27C0EB85E2
:10285000FC8570E060E0248D21111AC0D501ED9156
:10286000FC91E80FF91F2081569EF001579EF00D54
:1028700011244B855C85E40FF51F248F968F858F7F
:1028800010A2178E41E08B859C850E94641206C0C1
:102890006F5F7F4F36966A307105E9F66394B5CF66
:1028A0007394A3CF10E0D70191968C918111182FCA
:1028B000B6E0EB0EF11C8E149F04A9F70E9456059A
:1028C000EB81FC816083718382839383112341F1C7
:1028D000AB85BC8591968C919197882309F15F9681
:1028E0008D919C9190970197D9F45C968C912C9640
:1028F0000FB6F894DEBF0FBECDBFDF91CF911F9111
:102900000F91FF90EF90DF90CF90BF90AF909F908E
:102910008F907F906F905F904F903F902F90089591
:10292000E981FA81108280E0E2CF4170ACCFCF9391
:10293000DF9370E0FB01E259FB4F8491FB01E85DFE
:10294000FB4FD4916E517C4FFB01C491CC23A1F07D
:1029500081110E943A03EC2FF0E0EE0FFF1FE35BC2
:10296000FC4FA591B491EC91ED2381E090E009F446
:1029700080E0DF91CF91089580E090E0FACF862F3C
:10298000642F0C94A103862F642F0C94CF038F9295
:102990009F92AF92BF92CF92DF92EF92FF92CF932E
:1029A000DF93EC016A017B0180E8C81A83E4D80A4E
:1029B0008DE6E80A88E3F80A8CE3882E912CA12C96
:1029C000B12CC701B601A50194010E947D496D8318
:1029D000CA01B901A50194010E947D496C83C70118
:1029E000B60120E13EE040E050E00E947D49CA018E
:1029F000B90128E130E040E050E00E947D496B835E
:102A0000C701B60120E831E541E050E00E947D4970
:102A1000188263E97EEF8881982F937041E050E03F
:102A200011F050E040E0FA01E359FE4F2E173F0746
:102A300040F0FB01E41BF50B2E0F3F1F8F5F8883D7
:102A4000EACF81E0898389818C30A0F4482F4150FE
:102A5000550BFA01EE5BFC4FE491911103C08230FB
:102A600009F4EF5FF0E02E173F0720F02E1B3F0B1D
:102A70008F5FE8CF2F5F2A83DF91CF91FF90EF9098
:102A8000DF90CF90BF90AF909F908F900895DC0122
:102A900050E0E2E4F3E081E0861730F49491490FCE
:102AA000511D8F5F3196F8CF633038F0CD018370C0
:102AB0009927892B11F44F5F5F4F9D012D5F3F4F89
:102AC00036952795369527956DE671E0A69FC0014E
:102AD000A79F900DB69F900D11240197820F931F11
:102AE000840F951F08959F92AF92BF92CF92DF926D
:102AF000EF92FF920F931F93CF93DF938C01C7E95F
:102B0000D2E04AE0D42E57E0E52EF12C62E3C62E47
:102B100070E3B72EEDE6AE2EFDE49F2E8881883659
:102B200061F48981883649F4F80183816D2D0E9412
:102B3000AE49805D8883905D998388818D3661F48C
:102B400089818D3649F4F80184816D2D0E94AE494A
:102B5000805D8883905D99838881833761F4898162
:102B6000833749F4F80185816D2D0E94AE49805D5F
:102B70008883905D99838881843419F589818434B0
:102B800001F58A81F801843409F071C080814281A5
:102B9000618190E00E9447150696B7010E94BA49EC
:102BA000FC01EE0FFF1F8E0F9F1F86519B4FFC01F4
:102BB000249128833196E491E9830296FC01849163
:102BC0008A8388818D34F1F489818D34D9F49A8196
:102BD000F80181819D3409F053C0282F2150330B17
:102BE000F901C901880F991F8E0F9F1F8B539B4FAF
:102BF000FC01249128833196E491E983FC0132960B
:102C0000E491EA8388818935B9F489818935A1F411
:102C10009A81F80180819935D9F59B819935C1F563
:102C2000C882B9826D2D0E94AE49292F0E94AE49FB
:102C3000905D9A83205D2B8388818134A1F5898101
:102C4000803509F499822196F2E0CE39DF0709F048
:102C500065CF87E992E0DF91CF911F910F91FF90AF
:102C6000EF90DF90CF90BF90AF909F9008958281BA
:102C70006D2D0E94AE49805D8883905D9983A1CFC0
:102C80006D2D0E94AE49805D8883905D9983BACF97
:102C90006D2D0E94AE49292F0E94AE49905D988308
:102CA000205D2983C9CF813671F68981803759F635
:102CB000A982C9CFEF92FF920F931F93CF93DF9317
:102CC000EC0188814A81698190E00E9447159C014E
:102CD000A8E1B0E00E949F492B817B018C01E20EAC
:102CE000F11C011D111DA8019701ACE3B0E00E9489
:102CF00072492C817B018C01E20EF11C011D111D1A
:102D0000A80197010E947249AB01BC019D81892FE6
:102D100090E0B0E0A0E080589C4BA249B74C8A01FB
:102D20009B01080F191F2A1F3B1FC901B801DF9122
:102D3000CF911F910F91FF90EF9008952091DF06A2
:102D4000260F3327331F21323105ECF4209162091D
:102D5000FC0190E080E0243069F082E00895A091C9
:102D6000DF062191AC014154594FA40FB52FB11D7D
:102D70002C930196861798F38091DF06680F609375
:102D8000DF0680E0089581E008951092620981E0F5
:102D90008093610910923C0961E084E10E94A103E3
:102DA00061E085E10E94A103E9EBF0E080818E7F84
:102DB000808380818D7F808388E48093B80085E460
:102DC0008093BC00089510921B0910921A0910926A
:102DD000690910928B090E94C51685EB92E09093C9
:102DE00019098093180986EB92E090931709809354
:102DF00016090895CF93DF9391E09093BE06882340
:102E0000B9F0C091B800D091BA008091BC008A7B23
:102E10008093BC0060E084E10E94A10360E085E152
:102E20000E94A1030E94C516D093BA00C093B800B7
:102E3000DF91CF9108958F929F92AF92BF92CF92E0
:102E4000DF92EF92FF920F931F93CF93DF93D09176
:102E50008B09D13208F0D7C0182FC0918A090E947F
:102E6000FE046B017C018091620981116BC082E0DC
:102E700080936209109361098FEF8093600910922B
:102E80005F09D0935E09AAE6B9E0EEE3F9E080E0DD
:102E9000D81391C010923D0980913D09CC0FC82BE9
:102EA000C0933D0980913C09813009F088C010929F
:102EB0003C090E94FE046B017C0180913D098093D6
:102EC000BB008091640990916509A0916609B09159
:102ED0006709892B8A2B8B2BA1F00E94FE0400919D
:102EE00064091091650920916609309167096C1990
:102EF0007D098E099F09061717072807390708F467
:102F000042C08091BC0083FDD8CF85EC8093BC008B
:102F10000E94FE046B017C0180916209823009F4F9
:102F200050C0809160098F3F09F46FC080916009A3
:102F3000803209F46CC080916009803309F469C063
:102F400084E026C08091640990916509A09166098A
:102F5000B0916709892B8A2B8B2B09F484CF0E94AF
:102F6000FE048090640990906509A0906609B09075
:102F700067096C197D098E099F0986169706A806B0
:102F8000B90608F070CF809163090E94FA1685E0B7
:102F90001092690910928B0910926809DF91CF9104
:102FA0001F910F91FF90EF90DF90CF90BF90AF9067
:102FB0009F908F9008959D9191938F5F69CF85EE3B
:102FC000A5CF8091640990916509A0916609B0919F
:102FD0006709892B8A2B8B2B09F49ECF0E94FE0454
:102FE0000091640910916509209166093091670983
:102FF0006C197D098E099F090617170728073907DD
:1030000008F08ACFC0CF81E0C3CF80E0C1CF82E09B
:10301000BFCF83E0BDCFCF93DF93EC018B818823BB
:10302000A1F0888191E09093680980938A091092B9
:10303000690910928B0981E00E941B1791E08111B0
:1030400090E0892FDF91CF9108950E94E31681E0EF
:103050008B83CE010E940B18982F8111E2CFF1CF04
:103060000895E0911B0980911A09E81730F4F0E007
:10307000E45EF64F808190E008958FEF9FEF089512
:1030800090911B0980911A092FEF3FEF981748F490
:10309000E92FF0E0E45EF64F208130E09F5F9093EF
:1030A0001B09C901089580911A0990911B09891B78
:1030B000990B0895CF92DF92EF92FF920F931F9397
:1030C000CF93DF937C01CB018A01209168092223F1
:1030D00089F0EB016B01C40ED51ECC15DD0569F03E
:1030E0006991D701ED91FC910190F081E02DC7012C
:1030F0001995F3CF642F0E949E16C801DF91CF91DE
:103100001F910F91FF90EF90DF90CF900895CF9394
:10311000DF931F92CDB7DEB7698320916809222320
:10312000F9F020918B09203258F021E030E0FC01C9
:103130003383228390E080E00F90DF91CF91089558
:1031400080916909E82FF0E0E659F64F9981908364
:103150008F5F8093690980938B0981E090E0ECCFC9
:1031600061E0CE0101960E949E16F7CFFC012481FA
:1031700031E03093680920938A091092690910920E
:103180008B098485682B84E79AE00E94871881E088
:103190000C941B1790E080E008959C01FB01309790
:1031A00061F0948190789A609483C901330FAA0BDF
:1031B000BB0B80839183A283B3830895982F8033C0
:1031C0006CF08A3324F08F3524F08B3724F481E0BF
:1031D000089581341CF081E09B350CF080E0089567
:1031E000FC018685811114C0A185B28583859485F3
:1031F0002FEF3FEFA817B90730F4CD010196928762
:1032000081872C9130E037FD20E0258781E086879B
:10321000858508951F93CF93DF93EC01162F0E94AD
:10322000F018811306C01E8681E0DF91CF911F91B7
:10323000089580E0FACF0F931F93CF93DF938C0113
:10324000EB018991882369F0C8010E94F018882356
:1032500079F0FE013197908198130DC0F801168620
:10326000F0CF90E080E0DF91CF911F910F91089512
:1032700082E090E0F8CF83E090E0F5CFCF93DF934A
:10328000EC01CE010E94F0188B304CF489305CF4D4
:10329000882359F081E0888790E080E00BC08D3072
:1032A00011F08032B9F71E86ECCF8885811105C0F8
:1032B00081E090E0DF91CF91089582E090E0FACF35
:1032C000FC0124813581A9014F5F5F4F8681978181
:1032D0004817590748F48281938155834483FC0140
:1032E000E20FF31F608308950190F081E02D81E0EB
:1032F000808708959F92AF92BF92CF92DF92EF9214
:10330000FF920F931F93CF93DF9300D01F921F92D2
:10331000CDB7DEB78C010E94F018D82ED8011E96CA
:103320001C92F12CE12C60EFC62EC8010E94F0180F
:10333000F8011686D81609F4B4C0811113C082E0D2
:1033400090E00F900F900F900F900F90DF91CF9122
:103350001F910F91FF90EF90DF90CF90BF90AF90B3
:103360009F9008958C3509F09AC0C8010E94F0180A
:10337000882329F3E0EAF2E0853709F084C0D80118
:103380001E961C9254E0952EB12CA12CC8010E94CF
:10339000F0188823A1F2813434F48053803130F066
:1033A00083E090E0CECF8F7D8753F8CF44E0AA0C26
:1033B000BB1C4A95E1F7A82AF80116869A94911049
:1033C000E5CFC501985D8115944020F47501F3E0C7
:1033D000FF22ABCFC5019C5D81159440A8F483E02A
:1033E000B822B701762F6627770F770F6A297B29D6
:1033F00090E080E00196603871058105910540F408
:10340000C8010E94601991CFB50190E080E0F3CF30
:103410001982262F2F7320682A8326E09695879598
:10342000779567952A95D1F76032710580F4606CC5
:103430006B835E01A4E0AA0EB11CD5016E915D0103
:10344000662309F472CFC8010E946019F6CF262FB7
:103450002F7320682B8386E0769567958A95E1F730
:103460006031710538F4606E6C835E01B5E0AB0EBF
:10347000B11CE3CF60686C83CD825E01E6E0AE0EE6
:10348000B11CDBCF32969081992309F489CF89133F
:10349000F9CF8181882309F483CFF8011686682F3C
:1034A000AFCF0190F081E02D8085882319F084E072
:1034B00090E047CF90E080E044CF4F925F926F92D0
:1034C0007F928F929F92AF92BF92CF92DF92EF92B4
:1034D000FF920F931F93CF93DF93EB01DC012C91AD
:1034E0002B32D9F12D32D1F50196FF24F394FC0152
:1034F000208130ED320F3A3018F02E3209F042C1FF
:103500008C0160E070E0CB01F801219130ED832E59
:10351000820E39E0381520F16A3949E974078407C9
:1035200049E1940738F5AAE0B0E09B01AC010E94A4
:103530007249912CB12CA12C240135014094509456
:1035400060947094461657066806790698F0680DE0
:10355000791D8A1D9B1D8F01D7CF0196F12CC7CFF6
:10356000211108C0FF20E9F161307105810550E8A3
:103570009507A0F0E12CBAE08B2E912CA12CB12C58
:103580006115710530E883079105B0F1A50194013B
:103590000E947D49CA01B901E394F2CF2C812078C1
:1035A0002A602C839B01AC0188279927DC01821BB0
:1035B000930BA40BB50B88839983AA83BB838F2DB0
:1035C000DF91CF911F910F91FF90EF90DF90CF90FF
:1035D000BF90AF909F908F907F906F905F904F9033
:1035E00008952C81207828602C83688379838A83CE
:1035F0009B83FF24F394E3CFF801D8012D918D0133
:1036000030ED320F3A3010F4E394F6CF2E3201F55C
:103610008F010F5F1F4FF8010F5F1F4F2081A0ED3B
:10362000DA2ED20EB9E0BD1598F06C3CECEC7E07BA
:10363000ECE08E07910578F7AAE0B0E09B01AC01C1
:103640000E9472496D0D711D811D911DEA94E3CF99
:1036500020812F7D10E000E0253409F05BC021813E
:103660002D32D1F53296CC24C394DF0110E000E076
:103670002E2D0E2C000C330B5AE0B52EFD01DD90E3
:1036800040ED4D0D4A3008F040C0B09EA001B19E03
:10369000500D11240D2DDD0C110B00531109040FD9
:1036A000151FA801420F531F473251053CF38C816F
:1036B000CC20C9F040E050E060E070E8F11003C0B9
:1036C00040E050E0BA0180788C608C834883598355
:1036D0006A837B83FC2C73CF2B3219F03196C12C7B
:1036E000C4CF3296FCCF40E050E060E87FEFF110AD
:1036F00004C040E050E060E87FE780788C608C8315
:10370000488359836A837B8374CFCC2019F0119549
:10371000019511092081211135C00E0D111DE7FC05
:103720001A950E9434483AE2C32E33E0D32E101685
:1037300011063CF011950195110942E1C42E43E0B8
:10374000D42EE12C0115110591F000FF0CC024E0EE
:10375000E29EF0011124EC0DFD1D2591359145915E
:1037600054910E94954815950795E394EBCFF1107D
:1037700090582C8120782C602C83688379838A83ED
:103780009B8337CFF12C1BCFCF92DF92EF92FF922A
:10379000CF93DF9300D01F921F92CDB7DEB7FC010D
:1037A00084818F77863091F030F4843040F560E08A
:1037B00070E0CB010FC08A30C9F08C3069F18830DD
:1037C000B1F7608171818281938104C0608170E072
:1037D00090E080E00F900F900F900F900F90DF918E
:1037E000CF91FF90EF90DF90CF90089580819181ED
:1037F000A281B381B7FDDBCFBC01CD01EBCF8081CE
:1038000091811D82BE016F5F7F4F0E945D1ACE01C4
:1038100001960E94C41BDECFC080D180E280F3807D
:1038200020E030E0A901C701B6010E94EB4A87FD04
:10383000BECF2FEF3FEF4FE75FE4C701B6010E9415
:103840002F4818160CF4B3CFC701B6010E94BC4A2A
:10385000C1CFCF92DF92EF92FF92CF93DF9300D050
:103860001F921F92CDB7DEB7FC01892B39F08481FE
:103870008F778630B9F028F4843088F590E080E0C6
:1038800013C08A30E9F08C30B9F18830B9F7808103
:103890009181A281B381811520E89207A105B1052C
:1038A00068F702C0808190E00F900F900F900F900A
:1038B0000F90DF91CF91FF90EF90DF90CF90089520
:1038C00080819181A281B381AC01BD0150586F4FBD
:1038D0007F4F411551056140710580F6E5CF80812C
:1038E00091811D82BE016F5F7F4F0E945D1ACE01E4
:1038F00001960E94291CD8CFC080D180E280F3803D
:1039000020E030E040E057ECC701B6010E94EB4AEE
:1039100087FDB4CF20E03EEF4FEF56E4C701B6017C
:103920000E942F4818160CF4A9CFC701B6010E94B7
:10393000B54ACB01B9CFCF93DF93DC01EB01EC812A
:10394000FD818A819B810896E817F90740F481E0A0
:103950008887F0E0E0E0CF01DF91CF9108953897BC
:10396000FD83EC833097B9F31296CD91DC911397D8
:10397000209791F0CF018C1B9D0B23E095958795A7
:103980002A95E1F78D831396FC93EE931297158297
:10399000148217821682DFCF1196FC93EE93F3CF39
:1039A000EF92FF920F931F93CF93DF937C01DC0183
:1039B00012962D913C911397ED91FC91AB01420F22
:1039C000531FEF01C60FD71FC217D307A0F488817A
:1039D00081110BC0E901CF014C175D0751F009912E
:1039E000DC011D91CD010117B9F381918111FDCF4A
:1039F000E8CF309751F4620F731FCB010196F701A6
:103A000093838283DB011C92F901CF01DF91CF9177
:103A10001F910F91FF90EF900895FC0125812223C3
:103A200039F0F8E02F0290011124820F931F0895BE
:103A300090E080E008951F93CF93DF93DC0114960C
:103A4000ED91FC91E417F50710F490E01FC0122FE0
:103A5000EA01FC0181819281208131E03093680983
:103A600020938A091092690910928B09DC01ED916B
:103A7000FC910280F381E02D1995C817D90729F729
:103A8000812F0E941B1791E08111DFCF892FDF91D9
:103A9000CF911F9108952F923F924F925F926F9214
:103AA0007F928F929F92AF92BF92CF92DF92EF92CE
:103AB000FF920F931F93CF93DF935C011B016A0169
:103AC000F12CE12CD50114968D919C9186010E1953
:103AD0001F098017910708F48C01F501D0810E941D
:103AE000FE042B013C0180916209811172C0C02F3C
:103AF000013208F0C0E2F1E0F093620921E0C60172
:103B0000801B910BE816F90608F420E02093610968
:103B10008FEF8093600910925F098C0F80935E098C
:103B2000A1E0A0933D0980913D09DD0FD82BD093F2
:103B30003D0980913C09813009F090C010923C0908
:103B40000E94FE042B013C0180913D098093BB0043
:103B50008091640990916509A0916609B091670907
:103B6000892B8A2B8B2BA1F00E94FE0420916409E3
:103B7000309165094091660950916709641975098A
:103B800086099709261737074807590708F442C0DE
:103B90008091BC0083FDD8CFB5ECB093BC000E94EF
:103BA000FE042B013C0180916209813009F45AC066
:103BB00080915F098C1710F4C0915F09AEE3B9E002
:103BC000ECE1F9E080E08C1751F19D9191938F5FCA
:103BD000FACF8091640990916509A0916609B0912E
:103BE0006709892B8A2B8B2B09F47DCF0E94FE0459
:103BF00020916409309165094091660950916709E7
:103C00006419750986099709261737074807590760
:103C100008F069CF809163090E94FA16C0E0109203
:103C20001B09C0931A09C017110609F057C04101BA
:103C30008E0C9F1CE401CE01881999098017910709
:103C400098F5D50111968D919C91DC01ED91FC9137
:103C50000284F385E02D19958993EDCFE5EEE0938D
:103C6000BC009DCF8091640990916509A09166097F
:103C7000B0916709892B8A2B8B2B09F494CF0E9472
:103C8000FE042091640930916509409166095091C4
:103C900067096419750986099709261737074807C0
:103CA000590708F080CFB6CFE00EF11EEC14FD04EA
:103CB00008F408CF81E0DF91CF911F910F91FF9021
:103CC000EF90DF90CF90BF90AF909F908F907F90BC
:103CD0006F905F904F903F902F90089580E0EBCFD2
:103CE0000F931F93CF93DF931F921F92CDB7DEB731
:103CF0008FE08A8308E41DE021E041E050E0BE014E
:103D00006E5F7F4FF801808191810E941B1D41E011
:103D100050E0BE016F5F7F4FF801808191810E946A
:103D20004B1D89810F900F90DF91CF911F910F91C3
:103D30000895EF92FF920F931F93CF93DF9300D0DC
:103D400000D01F92CDB7DEB78C011982DB01ED9058
:103D5000FC9020E041E050E0BE016F5F7F4FC70163
:103D60000E941B1D882341F047E050E0BE016F5FB9
:103D70007F4FC7010E944B1DE981EF77FA81FB80DD
:103D80005D814E814F778F81282F30E094E035950B
:103D900027959A95E1F7922F990F990F291B220FDA
:103DA000280FD8012C93842F90E024E095958795D7
:103DB0002A95E1F7982F990F990F891B880F840F87
:103DC00011968C931197652F70E034E07595679587
:103DD0003A95E1F7862F880F880F681B660F650FED
:103DE00012966C9312974F2D50E064E055954795CD
:103DF0006A95E1F7842F880F880F481B440F4F0DF9
:103E000013964C9313972F2F30E074E03595279538
:103E10007A95E1F7822F880F880F281B220F2F0F2A
:103E200014962C9314978E2F90E0F4E09595879537
:103E3000FA95E1F7982F990F990F891B880F8E0F2C
:103E400015968C93C80127960FB6F894DEBF0FBE67
:103E5000CDBFDF91CF911F910F91FF90EF9008950B
:103E60008F929F92AF92BF92CF92DF92EF92FF928A
:103E70000F931F93CF93DF9300D01F92CDB7DEB780
:103E8000FC018581813091F080E00F900F900F90C0
:103E90000F90DF91CF911F910F91FF90EF90DF90E6
:103EA000CF90BF90AF909F908F900895848181FFB5
:103EB000EBCF83899489A589B689892B8A2B8B2B93
:103EC00009F45FC07F0140E050E0BA01CF010E94D9
:103ED0004B0C8823C9F2F701C38CD48C8788908C53
:103EE000A18CB28C82E090E0A0E0B0E0F60180838B
:103EF0009183A283B3839E012F5F3F4FB501A4013D
:103F0000C6010E940B0B882309F4BECF00E010E02D
:103F10009801B501A401C6010E94690A882309F429
:103F2000B3CF89809A80AB80BC80F60187898031CD
:103F300019F188EF9FEFAFEFBFE088169906AA0648
:103F4000BB06C8F2F701178A108E118E128E138AE3
:103F5000148A158A168A84818068848361E0C70187
:103F60000E94DF0D882309F48FCF40E050E0BA01B2
:103F7000C7010E944B0C89CF88EF9FEFA0E0B0E013
:103F8000DCCF81E082CFCF92DF92EF92FF921F933E
:103F9000CF93DF93EC0180E2689FF0011124EA5E89
:103FA000F84F9385917161F0842F827449F080E01D
:103FB000DF91CF911F91FF90EF90DF90CF90089508
:103FC000142F6A8B8091000290910102A09102024D
:103FD000B09103028E879F87A88BB98BC488D58840
:103FE000F12CE12C7601DD24CC24CF8AD88EE98E09
:103FF000FA8E828D938DB0E0A0E0AC01BD014C291A
:104000005D296E297F294F8B588F698F7A8F838521
:104010008871B1F4848D958DA68DB78D8B8B9C8B1B
:10402000AD8BBE8B81E08D831F701C831E821F822F
:10403000188619861A861B861C861D8681E0B8CFD5
:10404000803109F0B4CF9E012D5E3F4F8B8D9C8D4A
:104050000E948C0B882309F4AACF84E0E4CF0F934D
:104060001F93CF938C01C62F0E94B6186C2F6460EB
:10407000C8010E94B6186C2F6B7FC8010E94B61849
:1040800083EC90E00197F1F7CF911F910F91089584
:104090000F931F93CF93DF938C01D62FC42F607F94
:1040A000642B0E942F2080E1D89FB00111246C2B3B
:1040B000C801DF91CF911F910F910C942F20CF93C6
:1040C000DF9300D000D01F921F92CDB7DEB728E05B
:1040D000E2E2F2E0DE01119601900D922A95E1F7FD
:1040E000FC012085241708F44FEF50E0440F551FC2
:1040F00021E030E02C0F3D1F420F531FFA012081B9
:10410000620F606840E028960FB6F894DEBF0FBEDD
:10411000CDBFDF91CF910C9448200F931F93CF9385
:10412000DF93EC018B01642F422F8C819D810E94D3
:104130005F20B8018C819D81DF91CF911F910F91FC
:104140000C949005CF93DF93EC0140E061E00E9476
:1041500048208BE39FE10197F1F78985882339F0A7
:1041600040E060E0CE01DF91CF910C945F20DF91C1
:10417000CF910895FC01848195810C94A22041E0A7
:104180000E94482081E090E008950F931F93CF9301
:10419000DF938C01FC0180819181009711F00E94D6
:1041A0008C4B86E090E00E94F04AEC0188E6888320
:1041B00084E79AE09A8389831B8280E290E09D8362
:1041C0008C83F801D183C0830E94E31681E08B8346
:1041D000CE01DF91CF911F910F910C940B1880911C
:1041E000CB0C9091CC0C009761F00E94770E8091DF
:1041F000CB0C9091CC0C0E948C4B1092CC0C10925A
:10420000CB0C0895CF93DF93EC01888199810097BF
:1042100011F00E948C4B198218821D821C821B8215
:104220001A82DF91CF910895FC01808191810097DE
:1042300011F00C948C4B0895FB0101900020E9F7DC
:104240003197AF01461B570BDC01ED91FC910280C9
:10425000F381E02D19940F931F93CF93DF938C017B
:10426000D0E0C0E06115710519F00E941C21EC013D
:1042700061EB72E0C8010E941C218C0F9D1FDF9131
:10428000CF911F910F9108950F931F93CF93DF93B9
:10429000EC010E9490058C0161EB72E0CE010E945E
:1042A0001C21800F911FDF91CF911F910F910895D5
:1042B000CF93DF936115710579F1EB01DC018D91ED
:1042C0009C91009759F1DC011696ED91FC91DE016D
:1042D0000D900020E9F71197AD014C1B5D0B30E00C
:1042E00020E0309749F0DF010D900020E9F79D01B3
:1042F000215031092E1B3F0B2417350751F4DE01E5
:104300002C0F3D1F2A173B0749F05D91419154172F
:10431000C9F30E940D1DD5CF90E080E0DF91CF91D1
:1043200008959F92AF92BF92CF92DF92EF92FF9249
:104330000F931F93CF93DF93EC017B01D42E0E9448
:104340003E198C01892B09F052C0CE010E94F01851
:10435000863609F455C194F5873229F08B35D1F1B1
:10436000823209F056C1E881F981828193819B8371
:104370008A838481958122813381821B930B9F8361
:104380008E831D821C82892B11F481E08087CE01EF
:104390000E947A198C01892B51F5AC80BD80B50142
:1043A000888199810E94D01CF701248120782560A2
:1043B000248391838083B382A28219C0843709F455
:1043C00008C18B3709F453C08E3609F022C16FEB58
:1043D00072E008C1F701848180788064848311824F
:1043E000108213821282D1100FC005E010E0C801C4
:1043F000DF91CF911F910F91FF90EF90DF90CF90C1
:10440000BF90AF909F9008951E86CE010E943E19E6
:10441000009709F02DC16DE5CE010E940A198111A6
:10442000E6CFDA946F857889C7010E949B1C0097BC
:1044300009F46EC04D2DBC01CE010E949121009760
:1044400009F016C1CE010E943E19009709F010C173
:104450006DE5CE010E940A198111C9CF6CE2CE012F
:104460000E940A198111DECF03E010E0C0CFF701EE
:104470008481807880628483118210821382128208
:10448000DD2009F4B2CF1E86CE010E943E190097AE
:1044900009F0EEC06DE7CE010E940A198111A7CF85
:1044A000BB24B394DA94E881F981828193819B8360
:1044B0008A838481958122813381821B930B9F8320
:1044C0008E831D821C82892B09F4B086CE010E9446
:1044D000F018873201F18232F1F0CE010E94F0181B
:1044E000182F0E94DE18882309F4BECF1E86612F84
:1044F000CE010E946019CE010E94F018182F0E9470
:10450000DE188111F3CFE881F9818085882351F08D
:1045100004E010E06CCFCE010E947A198C01892B47
:1045200009F065CFCE010E943E198C01892B09F05C
:104530005ECF6AE3CE010E940A19882309F494CF62
:10454000EA81FB818C819D81E80FF91F10820C812B
:104550001D816A817B81C7010E945821BC01892B82
:10456000A1F4B801888199810E94D01C8C016F85CB
:104570007889C7010E949B1CFC01892B49F2848128
:104580008068848317830683BF014D2DCE010E946E
:1045900091218C01892B09F02ACFCE010E943E196E
:1045A0008C01892B09F023CF6DE7CE010E940A19F7
:1045B00081111DCF6CE2CE010E940A19882309F4F3
:1045C00053CFCE010E943E198C01892B09F46BCF89
:1045D0000ECFF701848180788660848381E08083B8
:1045E00064EB72E0CE01DF91CF911F910F91FF90AC
:1045F000EF90DF90CF90BF90AF909F900C941B19DD
:10460000F7018481807886608483108269EB72E090
:10461000E9CFCE010E94F0185E01F1E1AF0EB11CAE
:10462000D12C9A2CCB2C803374F08A3374F49FE312
:10463000D91699F01E86D394F50181935F01CE01BE
:104640000E94F018F0CF8B3291F393ED980F9230D7
:1046500070F3982F9F7D953451F3CD0DD11D198A9C
:10466000B701892D9C2D0E945D1A8111C0CEFCCE10
:104670008C01BDCEFC01248125FD0C94582190E0D5
:1046800080E00895EF92FF920F931F93CF93DF93F3
:10469000EC018C81982F9F7739F4807880628C832D
:1046A000198218821B821A828C8185FF1DC06115B8
:1046B0007105D1F07A018B01CE010E94582100973B
:1046C00061F4B701CE010E949B1C009731F0FC0100
:1046D00024812F77248317830683DF91CF911F9145
:1046E0000F91FF90EF90089590E080E0F6CF0F9348
:1046F0001F93CF93DF93EC0188819981009759F044
:104700002A813B812617370730F081E0DF91CF9176
:104710001F910F9108958B016F5F7F4F0E94154C81
:10472000009759F0998388831B830A832C813D81EC
:10473000232B59F7FC011082E8CF80E0E7CFEF92FE
:10474000FF920F931F93CF93DF936115710541F48F
:1047500080E0DF91CF911F910F91FF90EF9008952E
:1047600041155105B1F07B01EC010C811D81040F55
:10477000151FB8010E947723882351F328813981BE
:104780008C819D81B701820F931F0E94204D1D8354
:104790000C8381E0DECFCF93DF93EC01EAA1FBA194
:1047A000E80FF91F1282BC016E5F7F4F81F0FB01A1
:1047B00001900020E9F73197AF01461B570B888124
:1047C00099810E949F23882311F01BA21AA28AA11B
:1047D0009BA1DF91CF9108951F93CF93DF93EC01BD
:1047E000162F8AA19BA101968097B8F48AA19BA15C
:1047F0009C012F5F3F4F3BA32AA38C0F9D1FFC0101
:10480000128321E030E08CA19DA1820F931F9DA314
:104810008CA3DF91CF911F910895CE010E94CB23ED
:10482000892B21F330E020E0EECFBF92CF92DF92D0
:10483000EF92FF920F931F93CF93DF93EC016A01E6
:104840008B017B01E40EF51EE016F106D1F0F801B4
:10485000B1908F018AA19BA10196809760F48AA1F3
:104860009BA19C012F5F3F4F3BA32AA38C0F9D1F51
:10487000FC01B282E9CFCE010E94CB23892B79F3D0
:10488000E3CF4CA15DA14C0D5D1D5DA34CA3DF9159
:10489000CF911F910F91FF90EF90DF90CF90BF903D
:1048A00008958F929F92AF92BF92CF92DF92EF9234
:1048B000FF920F931F93CF93DF93CDB7DEB7669729
:1048C0000FB6F894DEBF0FBECDBF6C018E01095E3E
:1048D0001F4F78018AE0882E912CA12CB12CCB019E
:1048E000BA01A50194010E947D49942F852F605D36
:1048F000F80162938F01A901692F782F41155105A5
:104900006105710561F7A7014E1B5F0BBF01C60171
:104910000E94152466960FB6F894DEBF0FBECDBF79
:10492000DF91CF911F910F91FF90EF90DF90CF908B
:10493000BF90AF909F908F900895FB010190002051
:10494000E9F73197AF01461B570B0C9415241F93C1
:10495000CF93DF93E0EAF2E01281112379F03296EF
:1049600021816213F9CFEC016CE50E94EC23612FE9
:10497000CE01DF91CF911F910C94EC236111F9CFFF
:1049800064EC72E0DF91CF911F910C949D242F92E3
:104990003F924F925F926F927F928F929F92AF92CF
:1049A000BF92CF92DF92EF92FF920F931F93CF931C
:1049B000DF93CDB7DEB76C970FB6F894DEBF0FBEAE
:1049C000CDBF8C011B01DC0114968C9114978F775D
:1049D000863009F499C268F58230A0F11296ED9004
:1049E000FC901397CC901196DC90843008F05DC257
:1049F000A701B601C1010E941524F10184A195A16E
:104A00006C960FB6F894DEBF0FBECDBFDF91CF918D
:104A10001F910F91FF90EF90DF90CF90BF90AF90DC
:104A20009F908F907F906F905F904F903F902F90CE
:104A300008958C3069F160F4883009F460C28A30DE
:104A400009F446C26FEB72E0C1010E949D24ECC1E3
:104A5000803209F4F3C18034A9F76BE5C1010E94EB
:104A6000EC23F801008111810115110509F4E1C160
:104A7000B101C8010E94C724C8010E940D1D8C010C
:104A8000892B09F4D6C16CE2C1010E94EC23ECCF62
:104A9000F801C080D180E280F380A7019601C701B0
:104AA000B6010E942F488111CDCF20E030E0A9014E
:104AB000C701B6010E942F48882379F0A70196010B
:104AC000C701B6010E94D7499B01AC01C701B601DD
:104AD0000E942F48882309F4B5CF20E030E0A901D7
:104AE000C701B6010E942F4887FF08C06DE2C101CF
:104AF0000E94EC23F7FAF094F7F8F09420E836E9F6
:104B000048E15BE4C701B6010E94EB4A87FD88C01B
:104B100074E1A72EB12C00E210E0188E1F8AF50177
:104B2000E65DFC4F6591759185919491A701960181
:104B30000E942F4818169CF0F501EE5EFC4F25915F
:104B4000359145915491C701B6010E9495486B017A
:104B50007C012F89388D200F311F388F2F8B1595B1
:104B6000079534E0A31AB1088CEFA8168FEFB806AA
:104B7000B1F655245A9420E030E0A901C701B601EE
:104B80000E94EB4A18160CF052C02CEA35EC47E2B2
:104B900057E3C701B6010E942F4818160CF447C00E
:104BA000A52DB4E0AB02C0011124B12CA12CFC0155
:104BB000EE5EFC4F3F019C01265D3C4F49013FEFFB
:104BC000531609F434C0F301EA0DFB1D659175918C
:104BD0008591949120E030E040E251E40E949548B4
:104BE000A70196010E94EB4A18169CF4F401EA0D05
:104BF000FB1D2591359145915491C701B6010E9445
:104C000095486B017C018F89988D801B910B988F43
:104C10008F8B159507955A9494E0A91AB108CFCFB8
:104C200000E210E055E0552E188E1F8AA4CFC70170
:104C3000B6010E94BC4A4B015C012B013C0106E01D
:104C400080E492E4AFE0B0E0898F9A8FAB8FBC8FA5
:104C5000102F01509AE04916510461047104C8F004
:104C6000698D7A8D8B8D9C8D2AE030E040E050E09C
:104C70000E947D49298F3A8F4B8F5C8FC301B2010F
:104C80002AE030E040E050E00E947D4929013A01ED
:104C9000DFCFC501B4010E9434489B01AC01C701BC
:104CA000B6010E94D6496B017C01698D7A8D8B8D8E
:104CB0009C8D0E9434489B01AC01C701B6010E9443
:104CC00095482B013C010E94BC4A6B017C010E946B
:104CD00034489B01AC01C301B2010E94D6499B013B
:104CE000AC010E94D7490E94BC4AC60ED71EE81EDE
:104CF000F91E898D9A8DAB8DBC8DC816D906EA0632
:104D0000FB06D8F09FEF891A990AA90AB90AAF8958
:104D1000B88DAB2B39F1BAE08B169104A104B10424
:104D200008F1EF89F88D3196F88FEF8BC12CD12CDB
:104D30007601812C912C540183942AE0422E512C2F
:104D4000612C712CC701B601A30192010E947D491B
:104D5000672B682B692B51F4111644F469017A0111
:104D60001150F0CFC12CD12C7601E7CFB501A401B1
:104D7000C1010E945124112371F14E01F1E18F0E06
:104D8000911C012F54019AE0492E512C612C712C59
:104D9000015068F0C701B601A30192010E947D494C
:104DA000605DD4016E934D0169017A01F1CF812FCD
:104DB00090E0BC0160957095F501E81BF90B319707
:104DC0008EE2808344275527461B570B6A0D7B1DB7
:104DD000C1010E941524EF89F88DEF2B29F165E6BA
:104DE000C1010E94EC230F89188D17FF07C06DE2E7
:104DF000C1010E94EC23119501951109FE017796DE
:104E00009F018AE0E82EF12CC801B7010E94BA493F
:104E1000805D82938B01672BB9F7A9014E1B5F0B55
:104E2000BF01C1010E941524D10194968D919C91DE
:104E3000E7CD6DE5C1010E94EC23F6CF6BE7C10120
:104E40000E94EC23F801008111810115110559F12F
:104E5000D8011696CC9016971796DC9062E2C101A5
:104E60000E94EC237601F70161917F01662321F016
:104E7000C1010E94A724F7CF62E2C1010E94EC2386
:104E80006AE3C1010E94EC23B101C8010E94C7245A
:104E9000C8010E940D1D8C01892B29F06CE2C10113
:104EA0000E94EC23D2CF6DE7C5CF62E2C1010E9420
:104EB000EC238601E00EF11EE016F10639F0F80150
:104EC00061918F01C1010E94A724F6CF62E2B2CFA7
:104ED000CD90DD90ED90FC90B701A601F7FE0BC0E0
:104EE0006DE2C1010E94EC2344275527BA014C19F9
:104EF0005D096E097F09C1010E9451247ECD4D914B
:104F00005D916D917C91F7CF8C9164EB72E0811192
:104F100002C069EB72E0C1010E949D246ECD0F9327
:104F20001F93CF93DF93CDB7DEB7C65BD1090FB622
:104F3000F894DEBF0FBECDBF8C01CD56DF4F798315
:104F40006883C359D040CB54DF4F19821882C55BA8
:104F5000D04084E2FE01ED56FF4FDE01A159BF4F64
:104F600001900D928A95E1F784E2FE01E159FF4F2D
:104F7000DE01A55BBF4F01900D928A95E1F784E2B7
:104F8000FE01E55BFF4FDE01979601900D928A9539
:104F9000E1F784E2FE01B796DE01119601900D92D1
:104FA0008A95E1F71EA21DA2CE0187960E94CB230F
:104FB000CE01855B9F4F0E94CB230115110511F196
:104FC000BE016F5F7F4FC8010E94C7248C01CE01D4
:104FD00001960E94CB23CE0181599F4F0E94CB2383
:104FE000CE018D569F4F0E94CB23C801CA54DF4F7C
:104FF0000FB6F894DEBF0FBECDBFDF91CF911F91EA
:105000000F9108956FEB72E0CE0101960E949D24EE
:105010000DA11EA1DCCFCF93DF93EC0161157105CB
:1050200039F4CE010E940221CE01DF91CF91089583
:10503000FB0101900020E9F73197AF01461B570BA8
:105040000E949F23882369F3EFCFCF93DF93EC0176
:10505000FB0144815581608171810E949F238111F0
:1050600003C0CE010E940221CE01DF91CF910895AD
:10507000EF92FF920F931F93CF93DF93EC017B018D
:105080008A01BA010E94772381110BC0CE010E94D0
:105090000221CE01DF91CF911F910F91FF90EF90F0
:1050A00008951D830C83B701888199810E94204D4A
:1050B000F0CFFB0101900020E9F73197AF01461BCB
:1050C000570B0C9438280F931F93CF93DF9300D086
:1050D00000D000D0CDB7DEB78C01862FF801118249
:1050E000108213821282158214824AE0BE016F5F21
:1050F0007F4F90E00E94B445BE016F5F7F4FC801B3
:105100000E94592829960FB6F894DEBF0FBECDBF76
:10511000DF91CF911F910F910895CF93DF93EC0111
:105120006115710531F00E945928CE01DF91CF91B0
:1051300008950E940221F9CF0F931F93CF93DF931D
:10514000CDB7DEB762970FB6F894DEBF0FBECDBF06
:105150008C01CB01F8011182108213821282158218
:1051600014824AE0BE016F5F7F4F0E949445BE01EA
:105170006F5F7F4FC8010E94592862960FB6F8945E
:10518000DEBF0FBECDBFDF91CF911F910F9108956C
:10519000CF93DF93EC01FB018617970749F06081FD
:1051A00071816115710541F0448155810E94382853
:1051B000CE01DF91CF9108950E940221F9CFFC0129
:1051C0001182108213821282158214820C94C828D4
:1051D000EF92FF920F931F93CF93DF93CDB7DEB77C
:1051E000A3970FB6F894DEBF0FBECDBF7C0168E475
:1051F0007DE0CE0101960E94991E86E0FE01319667
:10520000AAE4BDE001900D928A95E1F708E41DE063
:10521000F801828190E01B8A1A8A1D8A1C8A1F8AE3
:105220001E8A4AE0BE016F5F7F4F8053984F0E94F5
:10523000B445BE016F5F7F4FCE0142960E94592850
:10524000F8016381CE0101960E946328F801648110
:10525000CE014E960E946328BE01625E7F4FCE0152
:1052600048960E94DF286BEC72E0CE0148960E94BF
:105270000B28BE016F5F7F4F0E9425286BEC72E008
:105280000E940B28BE016E5E7F4F0E942528BC0144
:10529000C7010E94DF28CE0148960E941421CE014A
:1052A0004E960E941421CE0101960E941421CE0137
:1052B00042960E941421C701A3960FB6F894DEBF50
:1052C0000FBECDBFDF91CF911F910F91FF90EF9057
:1052D0000895EF92FF920F931F93CF93DF93CDB773
:1052E000DEB768970FB6F894DEBF0FBECDBF7C0166
:1052F00068E47DE0CE0101960E94991E86E0FE01E1
:105300003196AAE4BDE001900D928A95E1F708E498
:105310001DE0F8016781CE0101960E946328F80123
:105320006681CE0107960E946328F8016581CE014F
:1053300043960E946328BE016D5E7F4FCE010D969D
:105340000E94DF2861E776E0CE010D960E940B28CF
:10535000BE01695F7F4F0E94252861E776E00E94C9
:105360000B28BE016F5F7F4F0E942528BC01C7013B
:105370000E94DF28CE010D960E941421CE01439693
:105380000E941421CE0107960E941421CE0101969D
:105390000E941421C70168960FB6F894DEBF0FBEB5
:1053A000CDBFDF91CF911F910F91FF90EF900895A6
:1053B000FC011182108213821282158214826115FF
:1053C000710551F0FB0101900020E9F73197AF0121
:1053D000461B570B0C9438280895CF92DF92EF921A
:1053E000FF920F931F93CF93DF93CDB7DEB72F9725
:1053F0000FB6F894DEBF0FBECDBF0091500D1091D7
:10540000510DC8010E94BA201092130783E08093C7
:10541000130B80912A0290912B02A0912C028D8770
:105420009E87AF878DEC92E09A8389838CED92E022
:105430009C838B838AEE92E09E838D8318861F82E5
:105440001A8619861C861B8660E170E0CE010796DD
:105450000E947723811163C0CE0107960E9402212A
:1054600020E040E0BE01695F7F4FC8010E948D20AF
:10547000CE0107960E9414210091500D1091510DFC
:105480006DEC72E0CE0107960E94D82921E040E041
:10549000BE01695F7F4FC8010E948D20CE01079633
:1054A0000E941421EE24E394F12C84E19BE00E94FD
:1054B000CB12082F882309F48FC0C090500DD090D4
:1054C000510DC6010E94BA206AEF72E0CE01079624
:1054D0000E94D82920E040E0BE01695F7F4FC601ED
:1054E0000E948D20CE0107960E941421013411F5EF
:1054F0008091500D9091510D0E94BA20E0921307B7
:105500002F960FB6F894DEBF0FBECDBFDF91CF91BF
:105510001F910F91FF90EF90DF90CF90089580E161
:1055200090E09C878B8764EB74E08F8198850E9464
:105530008D4596CF10E080E09091130B191788F5F8
:10554000C12ED12CEDE0F0E0EC0FFD1FEC0DFD1DA8
:105550009081091324C0E090500DF090510DF60198
:10556000EE0FFF1F81E090E08C0F9D1FE80FF91FE9
:1055700060817181CE0107960E94D82921E040E028
:10558000BE01695F7F4FC7010E948D20CE01079643
:105590000E94142176019FEFE91AF90A81E01F5F4A
:1055A000CBCF811119C00091500D1091510D6DECB0
:1055B00072E0CE0107960E94D82921E040E0BE01AA
:1055C000695F7F4FC8010E948D20CE0107960E941F
:1055D0001421EE24E394F12C62E370E080E090E08B
:1055E0000E94230562CF6F927F928F929F92AF921B
:1055F000BF92CF92DF92EF92FF920F931F93CF93C0
:10560000DF93CDB7DEB72C970FB6F894DEBF0FBE91
:10561000CDBF8C017B016A0160EB72E00E94D8294A
:105620006BE073E0CE0101960E94D829B601CE014D
:1056300001960E9425286BE073E00E940B28BC01B4
:10564000CE0107960E94DF28CE0101960E94142108
:105650006B847C84F70182809380A080B1808A145F
:105660009B0428F0982D892D4501A92EB82E60EBBA
:1056700072E0CE0101960E94D829CB84DC848C1480
:105680009D04C0F4AC14BD0408F46501EF81F885F5
:10569000EC0DFD1DB08010826F817885680D791D3D
:1056A000CE0101960E948D288F819885C80ED91E43
:1056B000F601B082F80180819181009709F44BC016
:1056C00069817A816115710509F443C04281538172
:1056D0002D813E8142175307E0F10E94204D8D81BC
:1056E0009E81F801958384831E821D82CE010196DE
:1056F0000E941421F701808191810196918380831A
:10570000228133812F5F3F4F3383228368167906CE
:1057100034F480E190E09183808313821282CE0181
:1057200007960E941421C8012C960FB6F894DEBF8C
:105730000FBECDBFDF91CF911F910F91FF90EF90E2
:10574000DF90CF90BF90AF909F908F907F906F90A1
:1057500008950E948C4B89819A81F80191838083FE
:105760008B819C81938382838D819E8195838483A9
:105770001A8219821C821B82B7CF3F924F925F928E
:105780006F927F928F929F92AF92BF92CF92DF9251
:10579000EF92FF920F931F93CF93DF9300D000D02F
:1057A00000D01F921F92CDB7DEB77C01DC011596A9
:1057B0008C91811115C0FE013196CE010C966F01BE
:1057C00030E23193E817F907E1F7DA0130E087E0DA
:1057D0009D91B92E992329F19E3239F48A3011F422
:1057E00080E0DAC038E08AE0F3CFE7E6F3E0449106
:1057F000442321F031969413FACFF2CF831780F32C
:105800004FED490F4E3560F74FE9490F4A3118F413
:1058100040EEB42EB90EF601E30FF11DB0823F5FEA
:10582000D7CF89818032E1F2322E8B01FB01838D4B
:10583000948DD7015C969C938E935B97168217820A
:10584000108611861286138614861586F8018285C5
:105850009385A485B585438954896589768984179C
:105860009507A607B70708F04DC025E0B695A795A0
:10587000979587952A95D1F7F82FFF70AF2ED8010D
:1058800015968C91823008F4ABCFC8010E94EC10C1
:1058900097FDA6CFF80182859385A485B5854F969F
:1058A000A11DB11D82879387A487B587F0E2AF9EC3
:1058B000B00111246A5E784F6115710509F490CF2B
:1058C000DB018C91882341F0853E09F058C0BB2054
:1058D00029F0BB24B394BACFB1100EC0F701A28A4D
:1058E0008091000290910102A0910202B091030206
:1058F00086879787A08BB18BDB018C918111E9CFD3
:10590000BB24B394832D8271823109F069CFBB200F
:1059100009F45AC0C7010E942709009709F460CF13
:1059200020E2FC0111922A95E9F72BE0F601DC0157
:1059300001900D922A95E1F721E238E2DC015196BF
:105940003C932E93509740E058E01F965C934E9303
:105950001E9753963C932E93529759963C932E93B1
:10596000589757965C934E93569781E00E94B208E1
:10597000882309F435CF432DF70162890AC04BE033
:1059800050E0C6010E94F64C892B09F05FCF432DF1
:105990006A2DC7010E94C31F2B960FB6F894DEBF75
:1059A0000FBECDBFDF91CF911F910F91FF90EF9070
:1059B000DF90CF90BF90AF909F908F907F906F902F
:1059C0005F904F903F900895F8018581823009F4EF
:1059D00007CFC8010E94DF0C882309F401CFD8014A
:1059E0005B96ED91FC915C9716968D909D90AD9095
:1059F000BC901997B2E08B1A9108A108B10885856F
:105A000004C0880C991CAA1CBB1C8A95D2F78685F9
:105A10009785A089B189880E991EAA1EBB1E848114
:105A200024013501480E511C611C711C841495041D
:105A3000A604B70409F1E1E04E1A510861087108A3
:105A400081E00E94B208882309F4CACEE6E1F7E0BB
:105A5000119286E199E08E179F07D1F740920002DC
:105A60005092010260920202709203028091040738
:105A7000816080930407DACFD8015B96ED91FC91A9
:105A8000258580E092E0A0E0B0E004C0880F991F77
:105A9000AA1FBB1F2A95D2F7F8014389548965894B
:105AA0007689840F951FA61FB71F838B948BA58BB8
:105AB000B68BD70152961C9286E197E031CF5F9268
:105AC0006F927F928F929F92AF92BF92CF92DF920E
:105AD000EF92FF920F931F93CF93DF93CDB7DEB773
