:100000000C94E9010C941A020C941A020C941A0232
:100010000C941A020C941A020C941A020C941A02F0
:100020000C941A020C941A020C941A020C941A02E0
:100030000C941A020C941A020C941A020C941A02D0
:100040000C941A020C941A020C941A020C941A02C0
:100050000C941A020C941A020C941A020C94892320
:100060000C941A020C94FD230C94D3230C941A02C2
:100070000C941A020C941A020C941A020C941A0290
:100080000C941A020C941A020C941A020C941A0280
:100090000C941A020C941A020C941A020C94332435
:1000A0000C941A020C941A020C941A020C941A0260
:1000B0000C941A020C941A020C941A020C941A0250
:1000C0000C941A020C941A020C941A020C941A0240
:1000D0000C941A020C941A020C941A020C941A0230
:1000E0000C941A020C94BB020C94B5020C9488294F
:1000F0000C949D020C9478290C9493040C94AB13EB
:100100000C9419170C94B1020C9486290C94AE032C
:100110000C947B030C94EF030C949E030C94B80393
:100120000C94C9020C94B2170C948E020C9467259F
:100130000C94E3040C94010D0C94910F0C94680F33
:100140000C94C0040C94CD020C9473030C94CC0357
:100150000C9476050C94710F0C94F9030C946F17A2
:100160000C948C290C94FD100C949A020C94BE0FE4
:100170000C94070F0C9492040C94AD020C948E29ED
:100180000C940D040C9428170C941C020C948802F7
:100190000C947F290C94A7020C948A030C94C3023C
:1001A0000C9403040C94F3100C94A3020C941D0201
:1001B0000C94DB030C949B270C94A10F0C94D11A84
:1001C0000C943B170C94CA310C9442170C94940372
:1001D0000C947F130C94A6030C94C8020C9429056C
:1001E0000C94F1040C94A7130C94CF040C948A295A
:1001F0000C94E5030C9492020C9418170C94800351
:100200000C94A4270C9496020C94C2030C94BF0285
:100210003D3D3D3D3D204D656E75203D3D3D3D3DA7
:10022000001F1C1F1E1F1E1F1F1E1F1E0000200060
:100230002300260029002C002F00320000010000BE
:100240000301060109017C3C3E5E2B3D3F2F5B5DB7
:100250003B2C2A225C0032333A32383A31330041A7
:100260007567202034203230323400525443204C01
:100270006F737420706F7765722C20736574746966
:100280006E67207468652074696D65210000002127
:1002900000240027002A002D003000330001010057
:1002A00000040107010A0100002200250028002B9C
:1002B000002E003100340002010000050108010B8E
:1002C0000105050505070508080808020202020ADB
:1002D0000A080804040404010101010101010103E9
:1002E00003030303030303040707070C0C0C0C0CA4
:1002F0000C0C0C0202020206060606060606060B97
:100300000B0B0B0B0B0B0B0102102020080810200D
:100310004010204080020102010804020101020491
:100320000810204080804020100804020180040250
:1003300001804020100804020108040201010204A7
:100340000810204080010204081020408000000AAC
:100350000B02090C0D0E0807030401000000000049
:10036000000000000000000000000000000000008D
:10037000000000000000000000121110000000004A
:10038000000000000000000000000000000000006D
:100390000000004A616E4665624D61724170724DA7
:1003A00061794A756E4A756C4175675365704F6324
:1003B000744E6F764465630053756E4D6F6E547561
:1003C00065576564546875467269536174006725A2
:1003D000CA3111241FBECFEFD1E2DEBFCDBF00E096
:1003E0000CBF15E0A0E0B2E0E6E7FAE600E00BBFE4
:1003F00002C007900D92A837B107D9F72CE0A8E703
:10040000B5E001C01D92A635B207E1F711E0C8EED4
:10041000D1E000E006C021970109802FFE010E9473
:10042000E432C73ED10780E00807A9F70E948C2676
:100430000C9429350C94000008950895FC01128253
:1004400016821582178287E392E091838083DF0111
:100450005C96CD01CC961C9214961C921E9213971A
:1004600015961C9215971696A817B907A1F7DF01E4
:10047000AE59BF4F88E092E011969C938E931296EE
:1004800084E092E011969C938E93129684E08C9374
:1004900011968C9317978CE092E011969C938E9313
:1004A00018968AE090E011969C938E93129684EFB2
:1004B00091E011969C938E93139611961C921E9226
:1004C00051971D921D921D921C921397E459FF4F54
:1004D000108208958150823108F05AC0E82FF0E070
:1004E0008827EA58FD4F8F4F0C94E43296029A0207
:1004F00088028E029202C8029D02A302A702AD02E8
:10050000B102B502BB02BF02C802C302C902CD02DA
:10051000809180008F778093800008958091800083
:100520008F7DF9CF80918000877FF5CF84B58F775D
:1005300084BD089584B58F7DFBCF8091B0008F7707
:100540008093B00008958091B0008F7DF9CF8091A5
:1005500090008F77809390000895809190008F7D18
:10056000F9CF80919000877FF5CF8091A0008F77A1
:100570008093A00008958091A0008F7DF9CF809195
:10058000A000877FF5CF809120018F778093200195
:100590000895809120018F7DF9CF80912001877F80
:1005A000F5CF1F93CF93DF93282F30E0F901E35B62
:1005B000FC4F8491F901E95FFC4FD491F901EF53AD
:1005C000FD4FC491CC23A9F0162F81110E946A021D
:1005D000EC2FF0E0EE0FFF1FE955FD4FA591B49110
:1005E0008FB7F894EC91111108C0D095DE23DC93FD
:1005F0008FBFDF91CF911F910895DE2BF8CFCF935E
:10060000DF9390E0FC01E95FFC4F24918F539D4FF5
:10061000FC0184918823C9F090E0880F991FFC01A8
:10062000E357FD4FA591B491FC01E955FD4FC591EC
:10063000D49161110DC09FB7F8948C9120958223BD
:100640008C938881282328839FBFDF91CF910895C1
:10065000623051F49FB7F8943C91822F80958323A8
:100660008C93E8812E2BEFCF8FB7F894EC912E2B43
:100670002C938FBFEACF1F93CF93DF93182FEB01FB
:1006800061E00E94FF02209739F460E0812FDF9142
:10069000CF911F910C94D102CF3FD10511F461E0AD
:1006A000F5CFE12FF0E0E35BFC4FE491E150E23164
:1006B00008F0B3C0F0E08827EF59FC4F8F4F0C943F
:1006C000E43273037B0380038A0394030D049E03C7
:1006D000A603AE03B803C203CC03DB03E5030D049A
:1006E000EF03F903030484B5806884BDC7BDDF91BF
:1006F000CF911F91089584B5806284BDC8BDF7CFA6
:1007000080918000806880938000D0938900C0939E
:100710008800EDCF80918000806280938000D0932C
:100720008B00C0938A00E3CF809180008860809323
:100730008000D0938D00C0938C00D9CF8091B00001
:1007400080688093B000C093B300D1CF8091B00097
:1007500080628093B000C093B400C9CF80919000B4
:10076000806880939000D0939900C0939800BFCF89
:1007700080919000806280939000D0939B00C09302
:100780009A00B5CF80919000886080939000D093BC
:100790009D00C0939C00ABCF8091A00080688093A7
:1007A000A0008091A0008F7B8093A000D093A9002F
:1007B000C093A8009CCF8091A00080628093A0008D
:1007C000D093AB00C093AA0092CF8091A000886024
:1007D0008093A000D093AD00C093AC0088CF8091EF
:1007E0002001806880932001D0932901C0932801C3
:1007F0007ECF80912001806280932001D0932B01D5
:10080000C0932A0174CF80912001886080932001D9
:10081000D0932D01C0932C016ACFC038D1050CF0C4
:100820003ECF33CFCF93DF93C091B40AD091B50AB6
:1008300070E060E08A810E943B0370E060E08B81A1
:100840000E943B0370E060E08C810E943B0370E0FB
:1008500060E08D81DF91CF910C943B033FB7F8941A
:100860008091CA059091CB05A091CC05B091CD05A2
:1008700026B5A89B05C02F3F19F00196A11DB11DFB
:100880003FBFBA2FA92F982F8827BC01CD01620F37
:10089000711D811D911D42E0660F771F881F991FF2
:1008A0004A95D1F708958F929F92AF92BF92CF92BF
:1008B000DF92EF92FF926B017C010E942E044B01AC
:1008C0005C01C114D104E104F104B9F00E942E04CA
:1008D000681979098A099B09683E73408105910569
:1008E00080F321E0C21AD108E108F10888EE880EF1
:1008F00083E0981EA11CB11CE4CFFF90EF90DF9025
:10090000CF90BF90AF909F908F9008952FB7F8949D
:100910006091C6057091C7058091C8059091C90581
:100920002FBF08950895AF92BF92CF92DF92EF92BA
:10093000FF920F931F93CF93DF936C017B018B0189
:10094000040F151FEB015E01AE18BF08C017D107D9
:1009500059F06991D601ED91FC910190F081E02D63
:10096000C6011995892B79F7C501DF91CF911F91A8
:100970000F91FF90EF90DF90CF90BF90AF900895D0
:10098000FC01538D448D252F30E0842F90E0821B95
:10099000930B541710F0CF96089501970895FC011A
:1009A000918D828D981761F0A28DAE0FBF2FB11D72
:1009B0005D968C91928D9F5F9F73928F90E00895CA
:1009C0008FEF9FEF0895FC01918D828D981731F084
:1009D000828DE80FF11D858D90E008958FEF9FEFD8
:1009E0000895FC01918D228D892F90E0805C9F4FAE
:1009F000821B91098F739927089586E498E00E94DD
:100A0000F10421E0892B09F420E0822F0895FC01F4
:100A1000A48DA80FB92FB11DA35ABF4F2C91848D5F
:100A200090E001968F739927848FA689B7892C93BC
:100A3000A089B1898C91837080648C93938D848D0F
:100A4000981306C00288F389E02D80818F7D808312
:100A50000895EF92FF920F931F93CF93DF93EC01D2
:100A600081E0888F9B8D8C8D98131AC0E889F98955
:100A7000808185FF15C09FB7F894EE89FF89608358
:100A8000E889F98980818370806480839FBF81E0D9
:100A900090E0DF91CF911F910F91FF90EF9008951B
:100AA000F62E0B8D10E00F5F1F4F0F731127E02EF6
:100AB0008C8D8E110CC00FB607FCFACFE889F9892E
:100AC000808185FFF5CFCE010E940705F1CFEB8D28
:100AD000EC0FFD2FF11DE35AFF4FF0829FB7F89402
:100AE0000B8FEA89FB8980818062CFCFCF93DF9320
:100AF000EC01888D8823B9F0AA89BB89E889F98936
:100B00008C9185FD03C0808186FD0DC00FB607FC6A
:100B1000F7CF8C9185FFF2CF808185FFEDCFCE019D
:100B20000E940705E9CFDF91CF91089580E090E022
:100B3000892B29F00E94FD0481110E94000080E0B1
:100B400090E0892B49F080E090E0892B29F00E9409
:100B5000000081110E94000080E090E0892B49F0A4
:100B600080E090E0892B29F00E94000081110E9412
:100B7000000080E090E0892B49F080E090E0892B34
:100B800029F00E94000081110C94000008958FB795
:100B9000F8948091BD058FBF089561E0FC018481C8
:100BA0000E94D1028091BC0581111092BC0508956C
:100BB0008EBD00000DB407FEFDCF8EB508958FEFFA
:100BC0000C94D8050F931F93CF93DF93EC010E94F1
:100BD00086048B010E94DF058F3F69F00E94860426
:100BE000601B710B6C177D07A8F380E0DF91CF913C
:100BF0001F910F91089581E0F9CF8CBD9DBD08959F
:100C0000CF93DF93EC018091BC05811109C081E095
:100C10008093BC058091E3089091E4080E94FD0553
:100C200060E08C81DF91CF910C94D1028F929F92E2
:100C3000AF92BF92FF920F931F93CF93DF93EC017C
:100C4000F62E49015A018E81882389F08F8198857B
:100C50009C012F5F3F4F38872F838230924018F4DA
:100C60000E94DF05F3CFCE010E94CD051E82CE018A
:100C70000E9400068CE291E00E94E2058F2D8064C4
:100C80000E94D80508E110E0D501C401002E04C07F
:100C9000B695A795979587950A94D2F70E94D8059F
:100CA00008501109083F8FEF180771F785E9FF20F9
:100CB00021F028E087E8F2128FEF0E94D80510E0BB
:100CC0000E94DF058A8787FF04C01F3F11F01F5F66
:100CD000F7CFDF91CF911F910F91FF90BF90AF9011
:100CE0009F908F900895AF92BF92CF92DF92EF9234
:100CF000FF920F931F93CF93DF93EC016901C8011B
:100D0000820F931F8130924050F58E81882379F0B5
:100D100088819981AA81BB8184179507A607B707A7
:100D200031F48F819885C816D90608F042C04883EF
:100D300059836A837B838B85833039F089E0440F44
:100D4000551F661F771F8A95D1F79A01AB0161E1A4
:100D5000CE010E941606882389F083E08D83CE01A0
:100D60000E94CD0580E0DF91CF911F910F91FF9000
:100D7000EF90DF90CF90BF90AF9008950E948604CF
:100D80005B010E94DF058A878F3F69F40E94860419
:100D90006A197B096D327140A0F38FE08D83CE011B
:100DA0000E94CD05DCCF8E3F89F418861F8281E03A
:100DB0008E838F8198858C159D0550F40E94DF05E8
:100DC0008F819885019698878F83F3CF8DE0E6CF4A
:100DD0006701E00EF11E0E94DF05F60181936F01AD
:100DE000EE15FF05C1F78F819885080F191F188729
:100DF0000F838985882319F001151240A0F08E8198
:100E0000882389F08F8198859C012F5F3F4F388719
:100E10002F838230924018F40E94DF05F3CFCE0179
:100E20000E94CD051E8281E09ECFCF92DF92EF928D
:100E3000FF920F93CF93DF93EC01690182E141159B
:100E400051056105710599F08B85833039F089E092
:100E5000440F551F661F771F8A95D1F79A01AB0182
:100E600068E1CE010E941606882319F084E08D8384
:100E70002DC08EEF0E94D80576018EEFD81AF701AB
:100E800081917F010E94D805EC14FD04C1F78FEF1A
:100E90000E94D8058FEF0E94D8050E94DF058A873F
:100EA0008F71853071F4011116C0CE010E94CD05FD
:100EB00081E0DF91CF910F91FF90EF90DF90CF9085
:100EC000089581E18D83CE010E94CD05CE010E945F
:100ED000CD0580E0EECF88E592E00E94E205811129
:100EE00002C085E1C4CF20E030E0A9016DE0CE0171
:100EF0000E941606882311F084E1B9CF0E94DF0515
:100F00008111FACFD2CF0F934091BF055091C00508
:100F10006091C1057091C2054115510561057105CA
:100F200099F0082F2EEC35E08091CE079091CF07F5
:100F30000E941507882349F01092BF051092C00542
:100F40001092C1051092C20581E00F9108950F9390
:100F5000CF93C82F8091BE05811105C0C1E08C2FB1
:100F6000CF910F910895409100025091010260913C
:100F70000202709103020C2F2EEC35E08091CE0717
:100F80009091CF070E941507811102C0C0E0E7CF02
:100F9000CC2321F381E00E9483078823B9F31092C8
:100FA000BE05DDCF8F929F92AF92BF92EF92FF92DC
:100FB0000F931F93CF934B015C01C42F80910002CC
:100FC00090910102A0910202B09103028815990547
:100FD000AA05BB0551F181E00E94A70781110BC052
:100FE00080E0CF911F910F91FF90EF90BF90AF9055
:100FF0009F908F9008958EECE82E85E0F82E00E00B
:1010000012E030E020E0B501A4018091CE0790917C
:10101000CF070E947306882319F3809200029092F2
:101020000102A0920202B09203024091BE054C2B35
:101030004093BE0581E0D5CF8F929F92AF92BF9231
:10104000CF92DF92EF92FF92CF9325EE38E030936C
:10105000CF072093CE07882309F46DC040E060E0FD
:1010600070E0CB010E94D20781110BC080E0CF91CC
:10107000FF90EF90DF90CF90BF90AF909F908F90B8
:10108000089580918C078F7789F7809198079091C8
:101090009907A0919A07B0919B0784369105A10505
:1010A000B10520F3C0909407D0909507E090960783
:1010B000F0909707C114D104E104F104B9F240E0C3
:1010C000C701B6010E94D207882381F28091D90519
:1010D0009091DA058115924049F6A091DE05AA2388
:1010E00029F26091DC057091DD056115710509F447
:1010F000BDCF2091DB05222309F4B8CFA0930309CB
:101100002093F50890E080E030E0E1E0F0E0C82FC7
:10111000AF01082E02C0440F551F0A94E2F72417AE
:10112000350769F041E0480F01968930910579F75C
:101130004093FE089BCFC12CD12C7601C0CF809369
:10114000FE082091E4053091E50550E040E02115CE
:10115000310541F42091F2053091F3054091F405F9
:101160005091F5052093F6083093F7084093F8085E
:101170005093F90846015701860E971EA11CB11C19
:101180008092040990920509A0920609B09207097D
:10119000E091DF05F091E005F0930A09E093090979
:1011A000B0E00E948832DC01CB01880D991DAA1D98
:1011B000BB1D80930B0990930C09A0930D09B0936C
:1011C0000E0925E0EE0FFF1F2A95E1F7E150FE4FD3
:1011D000EF2FFF27E6958E0F9F1FA11DB11D809356
:1011E000FF0890930009A0930109B0930209809031
:1011F000E1059090E205B12CA12C8114910441F4F9
:101200008090EE059090EF05A090F005B090F1056C
:10121000C81AD90AEA0AFB0AC80CD91CEA1CFB1C2A
:1012200004C0F694E794D794C794CA95D2F7C092B5
:10123000FA08D092FB08E092FC08F092FD0885EFD6
:10124000C8168FE0D806E104F10428F48CE08093FE
:10125000080981E00CCF80E125EFC2162FEFD206FE
:10126000E104F104A0F38091FA059091FB05A091AF
:10127000FC05B091FD0580930B0990930C09A09398
:101280000D09B0930E0980E2E2CF4F925F926F9208
:101290007F928F929F92AF92BF92CF92DF92EF9206
:1012A000FF920F931F93CF93DF93EC0142305105D0
:1012B0006105710590F480E0DF91CF911F910F914E
:1012C000FF90EF90DF90CF90BF90AF909F908F9066
:1012D0007F906F905F904F90089589859A85AB8538
:1012E000BC850196A11DB11D84179507A607B707F8
:1012F00010F3CB88DC88ED88FE888F89803109F077
:1013000042C0BB27A72F962F852F480159012A01DC
:101310003B01C80ED91EEA1EFB1E8091000290916F
:101320000102A0910202B0910302C816D906EA0692
:10133000FB0699F58F898031C1F5B301A2015527CC
:1013400066277727440F551F42535A4FFA0191825F
:1013500080828091BE0581608093BE058A8982303B
:1013600080F08D819E81AF81B8858C0D9D1DAE1D55
:10137000BF1D8093BF059093C005A093C105B09396
:10138000C20581E099CFDB01CA01E7E0B695A795D8
:1013900097958795EA95D1F7B8CF40E0C701B60198
:1013A0000E94D2078111C6CF86CFB301A2014F7729
:1013B000552766277727440F551F440F551F425363
:1013C0005A4FFA0180829182A282B382C2CF8F9259
:1013D0009F92AF92BF92CF92DF92EF92FF920F93C4
:1013E0001F93CF93DF93FC0181859285A385B485FC
:1013F0000196A11DB11D84179507A607B70770F4C4
:1014000080E0DF91CF911F910F91FF90EF90DF90DF
:10141000CF90BF90AF909F908F90089583889488CD
:10142000A588B6888789803189F5BB27A72F962F95
:10143000852FE9016A017B018F01BC01CD01680D97
:10144000791D8A1D9B1D8090000290900102A09042
:101450000202B090030286169706A806B90601F5A7
:10146000F8018789803111F5DD24EE24FF24F6018F
:10147000EE0FFF1FE253FA4F80819181B0E0A0E0B0
:1014800088839983AA83BB8381E0BBCFDB01CA0138
:10149000C7E0B695A79597958795CA95D1F7C9CF17
:1014A00040E00E94D2078111DBCFAACFE894C7F8B1
:1014B000DD24EE24FF24F601EE0FFF1FEE0FFF1FC9
:1014C000E253FA4F80819181A281B381BF70D8CF5E
:1014D0004F925F926F927F92AF92BF92CF92DF92C4
:1014E000EF92FF920F931F93CF93DF9300D01F9241
:1014F000CDB7DEB78C0149835A836B837C83590156
:10150000C12CD12C7601412C82E0582E612C712CFB
:1015100049815A816B817C819E012F5F3F4FC801B9
:101520000E94E709882339F1F8018585A30192011A
:1015300004C0220F331F441F551F8A95D2F7DA01CA
:10154000C901C80ED91EEA1EFB1E49815A816B8152
:101550007C818789803111F188EF9FEFAFEFBFE089
:10156000481759076A077B0798F2F501C082D182B4
:10157000E282F38281E00F900F900F900F90DF9145
:10158000CF911F910F91FF90EF90DF90CF90BF9080
:10159000AF907F906F905F904F90089588EF9FEF8E
:1015A000A0E0B0E0DDCFCF93DF93FC0125812223C3
:1015B00021F080E0DF91CF910895EC01809108093E
:1015C000803159F582E08583178A108E118E128E34
:1015D0008091090990910A09B0E0A0E025E0880F08
:1015E000991FAA1FBB1F2A95D1F7838B948BA58BBC
:1015F000B68B81EF98E09C8F8B8F81E08C831E826D
:101600001F82188619861A861B861C861D861E86D2
:101610001F86188A198A1A8ACDCF803251F683E044
:10162000858340910B0950910C0960910D097091CF
:101630000E09478B508F618F728F9F012D5E3F4F38
:1016400081EF98E00E94680A8111D3CFB2CF8F92C8
:101650009F92AF92BF92CF92DF92EF92FF920F9341
:101660001F93CF93DF93EC018D8181110EC080E039
:10167000DF91CF911F910F91FF90EF90DF90CF906E
:10168000BF90AF909F908F9008950B891C892D89F2
:101690003E89041715072607370748F34A015B01FF
:1016A000823031F48A869B86AC86BD8681E0E0CFAD
:1016B00081149104A104B10449F41E821F8218868A
:1016C00019861A861B861C861D86F0CF0A851B8507
:1016D0002C853D85EB8DFC8D858590E00996B901C3
:1016E000A8014150510961097109082E04C076957D
:1016F0006795579547950A94D2F775016401E1E023
:10170000CE1AD108E108F10804C0F694E794D79402
:10171000C7948A95D2F7C416D506E606F70620F0D8
:10172000012B022B032B11F58F89988DA98DBA8D72
:101730008E839F83A887B9878E010A5F1F4FC114CC
:10174000D104E104F10409F4ADCF4E815F816885D5
:10175000798598018B8D9C8D0E94E70991E0C91ACB
:10176000D108E108F1088111EACF81CFC41AD50A66
:10177000E60AF70AE1CF3F924F925F926F927F9213
:101780008F929F92AF92BF92CF92DF92EF92FF9291
:101790000F931F93CF93DF93CDB7DEB72C970FB680
:1017A000F894DEBF0FBECDBF5C01DC015B968D906F
:1017B0009C905C9716964D905D906D907C901997DB
:1017C000411451046104710409F468C0BFEF4B1A5D
:1017D0005B0A6B0A7B0A312CF40181859285A38513
:1017E000B4859C01AD012F5F3F4F4F4F5F4F29875D
:1017F0003A874B875C87730162011D821E821F82BC
:101800001886F40181859285A385B4852D813E815A
:101810004F815885281739074A075B0708F056C0DB
:1018200089859A85AB85BC858C159D05AE05BF0560
:1018300050F482E0C82ED12CE12CF12C92E0492EFC
:10184000512C612C712C9E012F5F3F4FB701A601D7
:10185000C4010E94E7098823C9F189819A81AB817B
:10186000BC81892B8A2B8B2B09F1260137019FEF35
:10187000491A590A690A790A2D813E814F81588592
:101880002F5F3F4F4F4F5F4F2D833E834F835887CE
:101890003FEFC31AD30AE30AF30AB3CFF40140803F
:1018A0005180628073803324339496CFC414D5045E
:1018B000E604F70409F70FEF1FEF2FEF3FE0B70142
:1018C000A601C4010E944509811119C080E02C962F
:1018D0000FB6F894DEBF0FBECDBFDF91CF911F9141
:1018E0000F91FF90EF90DF90CF90BF90AF909F90BF
:1018F0008F907F906F905F904F903F900895D501AB
:1019000016964D915D916D917C91199741155105F8
:101910006105710539F097018601C4010E944509EE
:101920008823A1F2D5011696CD92DD92ED92FC921C
:101930001997332051F0D701C6010196A11DB11DA1
:10194000F40180839183A283B383F5018789908D0D
:10195000A18DB28D892B8A2B8B2B39F48481C78A78
:10196000D08EE18EF28E80688483F501848180625E
:10197000848381E0ACCF1F93CF93DF93FC0125815B
:101980002223D1F1162FEC01848187FF2AC06685BE
:1019900077858089918941E00E94D207882361F18F
:1019A000EA8980E2E89FF0011124E253FA4F309770
:1019B00019F18D81823040F48B899C89AD89BE8973
:1019C000848F958FA68FB78F8F89988D938F828FF5
:1019D0008F89988DA98DBA8DB58BA48B8C818F77CB
:1019E0008C83111103C08C818F7E8C83812FDF91BA
:1019F000CF911F910C94A70780E0DF91CF911F91A9
:101A00000895FF920F931F93CF93DF93EC018D8185
:101A1000813041F090E080E0DF91CF911F910F91F4
:101A2000FF9008958C8181FFF5CF82FD1BC000914E
:101A3000CE071091CF07C8010E9400060E94DF0563
:101A4000F82EC8010E94CD058FEFF812E3CF8C81EC
:101A500085FF1BC060E0CE010E94BB0C8C818F7D96
:101A60008C83D8CF4B895C896D897E898A859B85DB
:101A7000AC85BD8584179507A607B707C1F2CE01CF
:101A80000E94270B8111D3CFC5CF4091BF05509144
:101A9000C0056091C1057091C205452B462B472BAF
:101AA00021F080E00E948307B5CF80618C832A8576
:101AB0003B85317080E092E0821B930BADCFCF93DA
:101AC000DF93EC0161E00E94BB0C882311F01D82C2
:101AD00081E0DF91CF9108952F923F924F925F92D4
:101AE0006F927F928F929F92AF92BF92CF92DF922E
:101AF000EF92FF920F931F93CF93DF9300D01F922B
:101B00001F92CDB7DEB77C015B01342E5D83DC0113
:101B100015968C911597813009F0CEC014962C90B3
:101B200021FECAC022FCB4C0C32CDD8022947FE019
:101B300027222094B22DB1702B2ED7011A964D91E9
:101B40005D916D917C911D97C114D10409F428C158
:101B50005B968D919C915C97FC0174807A948A01CC
:101B60009B0169E036952795179507956A95D1F7FA
:101B700070228A011170711020C001151105E9F45D
:101B800016964D915D916D917C9119974115510576
:101B90006105710509F099C057968D919D910D9041
:101BA000BC91A02D0097A105B10509F0B0C0C701F7
:101BB0000E94BB0B882309F47FC080E092E0801B69
:101BC000910B46018C159D0508F44C01D7015B96DD
:101BD0004D915C915C9716968D919D910D90BC9165
:101BE000A02D0297A109B109FA01258504C0880F2B
:101BF000991FAA1FBB1F2A95D2F746855785608972
:101C00007189840F951FA61FB71F9C01AD01270D79
:101C1000311D411D511D29013A01811432E0930605
:101C200009F07BC08091000290910102A091020214
:101C3000B091030284159505A605B70559F48FEFF9
:101C40009FEFDC018093000290930102A0930202B7
:101C5000B0930302022D9501B301A2018091CE073A
:101C60009091CF070E941507882331F19EEFB91A92
:101C7000C818D908F70182859385A485B585880D94
:101C8000991DA11DB11D82879387A487B58755CF64
:101C9000F701438954896589768982859385A4856E
:101CA000B585481759076A077B0709F43DCFC70177
:101CB0000E94270B811138CF81E090E0D701139665
:101CC0009C938E93129780E007C09E012F5F3F4F39
:101CD0000E94E709811102C090E079C089819A8150
:101CE000AB81BC81F701238D348DF901278948EF41
:101CF0005FEF60E070E0203121F048EF5FEF6FEFC1
:101D00007FE084179507A607B70708F050CFF701C3
:101D100086839783A087B18750CF0115110599F568
:101D2000D7011A964D915D916D917C911D975396B7
:101D30008D919D910D90BC91A02D481759076A0770
:101D40007B0708F181E00E94A707882309F4B4CF3C
:101D500040920002509201026092020270920302CD
:101D60008091BE0581608093BE05C80182539A4F61
:101D7000D5019C01280D391DFC012E173F0759F094
:101D80004D914193FACF41E0C301B2010E94D207C5
:101D90008111EBCF91CF281B390BA20EB31E68CF58
:101DA000F70183899489A589B68984179507A607C1
:101DB000B70738F48481438B548B658B768B8068AE
:101DC0008483F701848183FD1AC0832D9D810F9048
:101DD0000F900F900F900F90DF91CF911F910F9167
:101DE000FF90EF90DF90CF90BF90AF909F908F903B
:101DF0007F906F905F904F903F902F90089561E09B
:101E0000C7010E94BB0C882309F456CFDECFCF93C5
:101E1000DF931F92CDB7DEB7698341E050E0BE018A
:101E20006F5F7F4F0E946C0D0F90DF91CF910895EF
:101E3000FC01DB0112968D919C9113979383828311
:101E400083E592E09183808314968C911497848328
:101E500015968C911597858316964D915D916D9190
:101E60007C91199746835783608771871A964D91A5
:101E70005D916D917C911D9742875387648775872B
:101E80001E964D915D916D917C9151974687578734
:101E9000608B718B52968C915297828B53964D9199
:101EA0005D916D917C915697438B548B658B768BAE
:101EB00057964D915D916D917C915A97478B508FBC
:101EC000618F728F5B968D919C91948F838F089513
:101ED000FC01818D928D009719F061E00C94BB0C90
:101EE0000895DC015996ED91FC913097B9F0838902
:101EF0009489A589B6894285538564857585841B37
:101F0000950BA60BB70B811520E89207A105B1052B
:101F100038F08FEF9FE7A0E0B0E0089590E080E018
:101F20000895DC0159968D919C91009739F0DC0160
:101F3000ED91FC910480F581E02D199490E080E012
:101F40000895CF93DF93EC01E98DFA8D309749F432
:101F500081E090E09B838A8390E080E0DF91CF91E5
:101F6000089513821282898D9A8D0E946C0DE98DDD
:101F7000FA8D22813381232B59F7F0CFCF93DF9352
:101F80001F92CDB7DEB76983DC01ED91FC91028031
:101F9000F381E02D41E050E0BE016F5F7F4F199566
:101FA0000F90DF91CF9108952F923F924F925F92C1
:101FB0006F927F928F929F92AF92BF92CF92DF9259
:101FC000EF92FF920F931F93CF93DF9300D0CDB783
:101FD000DEB7FC018581811118C08FEF9FEF0F9054
:101FE0000F900F90DF91CF911F910F91FF90EF9085
:101FF000DF90CF90BF90AF909F908F907F906F9029
:102000005F904F903F902F900895848180FFE5CF9F
:10201000438954896589768982859385A485B585A8
:10202000312C212C481759076A077B0719F0222405
:102030002394312C6F012101CE0101963C01DF0177
:102040001696BB83AA834114510409F4C5C0F60156
:1020500042855385648575854A01F1E09F22D6014A
:102060005B968D919C915C978A019B01E9E0369586
:10207000279517950795EA95D1F71596EC91E230DB
:10208000E9F5FC01628D738D848D958D600F711F54
:10209000821F931FA12C22E0B22EA818B9084A145F
:1020A0005B0408F45201F601248126FD04C0A1144A
:1020B000F2E0BF0671F4009100021091010220913C
:1020C000020230910302061717072807390709F0A3
:1020D0005EC040E00E94D207882309F47ECFC4018D
:1020E00082539A4FD3019C012A0D3B1DFC012E17F0
:1020F0003F0709F46CC041914D93F9CFDC01149670
:10210000BC90BA94B0228114910479F4B1100DC03E
:10211000452B462B472B69F5F6018789908DA18DBC
:10212000B28D86839783A087B187D6015B96ED91A8
:10213000FC915C9716966D917D918D919C9119976C
:102140006250710981099109258504C0660F771FC6
:10215000881F991F2A95D2F706851785208931890E
:10216000600F711F821F931F6B0D711D811D911DCB
:1021700091CFD60116964D915D916D917C911997F5
:102180002A813B810E94E7098111CFCF26CF7301BD
:1021900085019401AB01BC018091CE079091CF07DE
:1021A0000E947306882309F418CF6A0C7B1CF60181
:1021B00082859385A485B5858A0D9B1DA11DB11DC2
:1021C00082879387A487B5874A185B083CCF281B72
:1021D000390B620E731EEBCF2A94232809F0FDCE33
:1021E000898190E0FCCEFC01818D928D009711F0E9
:1021F0000C94D40F8FEF9FEF08950F931F93CF93FD
:10220000DF93EC01898D9A8D10E000E0009799F042
:102210000E94D40F8C010F3F100769F0898D9A8DB1
:10222000FC014285538564857585415051096109DA
:1022300071090E94270BC801DF91CF911F910F9167
:102240000895CF93DF93DC0126E0629FA00DB11DBE
:10225000112490965C934E935F9721E091962C9376
:102260009197FC01E359FF4F0190F081E02DEC01C3
:10227000C459DF4F2881222341F0309719F0DC0147
:10228000662329F0DF91CF9108953097D9F35C96BA
:102290008C91DF91CF911994CF92DF92EF92FF92C0
:1022A0000F931F93CF93DF93EC01162F042FFC01A4
:1022B00086E0689FE00DF11D112411A2878D90A189
:1022C0008130910509F180F08230910509F443C015
:1022D000039709F445C0DF91CF911F910F91FF90B3
:1022E000EF90DF90CF9008954423A9F341E050E0B0
:1022F000CE010E9421110E948604C85ADF4F6883D4
:1023000079838A839B83E7CF0E948604FE01E85A83
:10231000FF4FC080D180E280F380AB01BC014C193B
:102320005D096E097F09729680819181B0E0A0E01D
:1023300084179507A607B70770F442E050E0612FB5
:10234000CE01DF91CF911F910F91FF90EF90DF9021
:10235000CF900C94211143E050E00111BCCFEFCF9E
:1023600050E040E0ECCF2F923F924F925F926F92FD
:102370007F928F929F92AF92BF92CF92DF92EF9215
:10238000FF920F931F93CF93DF93CDB7DEB72C97B8
:102390000FB6F894DEBF0FBECDBF9C878B878459E4
:1023A0009F4F9A83898381E0A981BA818C930E948F
:1023B0008604EB85FC85E45AFF4FFC83EB830081A8
:1023C000118122813381AB01BC01401B510B620B97
:1023D000730BEB85FC85E859FF4F80819181B0E05C
:1023E000A0E084179507A607B70708F081C110E0A1
:1023F000CB84DC84F6E6CF0ED11CEB84FC8422E691
:10240000E20EF11CD6018C911817A0F4F701A081FF
:10241000B181A10FB11DEB85FC8580819181FC010B
:102420002081318142E06C918B859C85F901199561
:102430001F5FE8CF912C2B843C84F7E62F0E311CD4
:10244000AB84BC8424E6A20EB11C412C512C320179
:1024500043944B855C854E595F4F5A874987D1011C
:102460008C91981608F08BC0E92CF12CF501A08115
:10247000B181AE0DBF1DEB85FC8580819181FC0192
:102480002081318141E06C918B859C85F901199502
:10249000F501A081B181AE0DBF1DEB85FC8580816A
:1024A0009181FC012281338140E06C918B859C8578
:1024B000F9011995D301C201092C04C0880F991F95
:1024C000AA1FBB1F0A94D2F79E838D839C0120957F
:1024D000309538872F83812CAB85BC85ED91FC919D
:1024E000D6018C91881648F5082D10E0A985BA858B
:1024F0008D919C91DC01A00FB11F0480F581E02D2E
:102500006C918B859C851995000F111FEB85FC85BF
:10251000E00FF11F892B51F4808591852D813E813B
:10252000822B932B918780878394D6CF808591854A
:102530004F81588584239523F5CFD5018D919C91AA
:10254000DC01AE0DBF1D0280F381E02D41E06C91F6
:102550008B859C851995F50180819181E80EF91E86
:10256000AB85BC85ED91FC910190F081E02D40E0C0
:10257000D7016C918B859C851995939470CFEB84D2
:10258000FC84C701CC9647012FEF3FEFF401478D44
:1025900050A1452B21F4148E368F258F11A2F6E021
:1025A0008F0E911C8816990689F7712CAB84BC8418
:1025B00020E6A20EB11C96E0592ED6018C91781619
:1025C00008F058C0612C072D10E00C5F1F4F000F62
:1025D000111FEB85FC850E0F1F1FD1018C91681612
:1025E00008F046C0F80140815181062C02C0569582
:1025F00047950A94E2F7789EC0011124860D911D3B
:10260000EB85FC8560E0258D368D8217930709F4F4
:1026100074C06F5F36966A30B1F740FF27C0EB8514
:10262000FC8570E060E0248D21111AC0D501ED9188
:10263000FC91E80FF91F2081569EF001579EF00D86
:1026400011244B855C85E40FF51F248F968F858FB1
:1026500010A2178E41E08B859C850E944C1106C00C
:102660006F5F7F4F36966A307105E9F66394B5CF98
:102670007394A3CF10E0D70191968C918111182FFC
:10268000B6E0EB0EF11C8E149F04A9F70E9486049D
:10269000EB81FC816083718382839383112341F1F9
:1026A000AB85BC8591968C919197882309F15F96B3
:1026B0008D919C9190970197D9F45C968C912C9672
:1026C0000FB6F894DEBF0FBECDBFDF91CF911F9143
:1026D0000F91FF90EF90DF90CF90BF90AF909F90C1
:1026E0008F907F906F905F904F903F902F900895C4
:1026F000E981FA81108280E0E2CF4170ACCFCF93C4
:10270000DF9370E0FB01E35BFC4F8491FB01E95F29
:10271000FC4FD4916F537D4FFB01C491CC23A1F0AA
:1027200081110E946A02EC2FF0E0EE0FFF1FE45DC2
:10273000FD4FA591B491EC91ED2381E090E009F477
:1027400080E0DF91CF91089580E090E0FACF862F6E
:10275000642F0C94D102862F642F0C94FF028F9269
:102760009F92AF92BF92CF92DF92EF92FF92CF9360
:10277000DF93EC016A017B0180E8C81A83E4D80A80
:102780008DE6E80A88E3F80A8CE3882E912CA12CC8
:10279000B12CC701B601A50194010E9493326D834B
:1027A000CA01B901A50194010E9493326C83C7014B
:1027B000B60120E13EE040E050E00E949332CA01C1
:1027C000B90128E130E040E050E00E9493326B8391
:1027D000C701B60120E831E541E050E00E949332A4
:1027E000188263E97EEF8881982F937041E050E072
:1027F00011F050E040E0FA01E359FE4F2E173F0779
:1028000040F0FB01E41BF50B2E0F3F1F8F5F888309
:10281000EACF81E0898389818C30A0F4482F415030
:10282000550BFA01EF5DFD4FE491911103C0823029
:1028300009F4EF5FF0E02E173F0720F02E1B3F0B4F
:102840008F5FE8CF2F5F2A83DF91CF91FF90EF90CA
:10285000DF90CF90BF90AF909F908F900895DC0154
:1028600050E0E1E2F2E081E0861730F49491490F04
:10287000511D8F5F3196F8CF633038F0CD018370F2
:102880009927892B11F44F5F5F4F9D012D5F3F4FBB
:1028900036952795369527956DE671E0A69FC00180
:1028A000A79F900DB69F900D11240197820F931F43
:1028B000840F951F08959F92AF92BF92CF92DF929F
:1028C000EF92FF920F931F93CF93DF938C01CBE88E
:1028D000D2E04AE0D42E57E0E52EF12C62E3C62E7A
:1028E00070E3B72EEDE6AE2EFDE49F2E888188368C
:1028F00061F48981883649F4F80183816D2D0E9445
:10290000C432805D8883905D998388818D3661F4BF
:1029100089818D3649F4F80184816D2D0E94C4327D
:10292000805D8883905D99838881833761F4898194
:10293000833749F4F80185816D2D0E94C432805D92
:102940008883905D99838881843419F589818434E2
:1029500001F58A81F801843409F071C080814281D7
:10296000618190E00E942F140696B7010E94D03238
:10297000FC01EE0FFF1F8E0F9F1F88549C4FFC0120
:10298000249128833196E491E9830296FC01849195
:102990008A8388818D34F1F489818D34D9F49A81C8
:1029A000F80181819D3409F053C0282F2150330B49
:1029B000F901C901880F991F8E0F9F1F8D569C4FDB
:1029C000FC01249128833196E491E983FC0132963D
:1029D000E491EA8388818935B9F489818935A1F444
:1029E0009A81F80180819935D9F59B819935C1F596
:1029F000C882B9826D2D0E94C432292F0E94C43230
:102A0000905D9A83205D2B8388818134A1F5898133
:102A1000803509F499822196F2E0C239DF0709F086
:102A200065CF8BE892E0DF91CF911F910F91FF90DE
:102A3000EF90DF90CF90BF90AF909F9008958281EC
:102A40006D2D0E94C432805D8883905D9983A1CFF3
:102A50006D2D0E94C432805D8883905D9983BACFCA
:102A60006D2D0E94C432292F0E94C432905D98833C
:102A7000205D2983C9CF813671F68981803759F667
:102A8000A982C9CFEF92FF920F931F93CF93DF9349
:102A9000EC0188814A81698190E00E942F149C0199
:102AA000A8E1B0E00E94B5322B817B018C01E20EDF
:102AB000F11C011D111DA8019701ACE3B0E00E94BB
:102AC00088322C817B018C01E20EF11C011D111D4D
:102AD000A80197010E948832AB01BC019D81892F1A
:102AE00090E0B0E0A0E080589C4BA249B74C8A012E
:102AF0009B01080F191F2A1F3B1FC901B801DF9155
:102B0000CF911F910F91FF90EF900895209199051B
:102B1000260F3327331F21323105ECF420911C0896
:102B2000FC0190E080E0243069F082E00895A091FB
:102B300099052191AC0147585A4FA40FB52FB11DEB
:102B40002C930196861798F380919905680F6093EE
:102B5000990580E0089581E0089510921C0881E0B5
:102B600080931B081092F60761E084E10E94D10275
:102B700061E085E10E94D102E9EBF0E080818E7F87
:102B8000808380818D7F808388E48093B80085E492
:102B90008093BC0008951092D5071092D40710922C
:102BA0002308109245080E94AD158CE192E09093A5
:102BB000D3078093D2078DE192E09093D107809361
:102BC000D0070895CF93DF9391E090937805882301
:102BD000B9F0C091B800D091BA008091BC008A7B56
:102BE0008093BC0060E084E10E94D10260E085E156
:102BF0000E94D1020E94AD15D093BA00C093B800D4
:102C0000DF91CF9108958F929F92AF92BF92CF9212
:102C1000DF92EF92FF920F931F93CF93DF93D091A8
:102C20004508D13208F0D7C0182FC09144080E943F
:102C30002E046B017C0180911C0881116BC082E025
:102C400080931C0810931B088FEF80931A08109232
:102C50001908D0931808A4E2B8E0E8EFF7E080E0A4
:102C6000D81391C01092F7078091F707CC0FC82BAB
:102C7000C093F7078091F607813009F088C0109261
:102C8000F6070E942E046B017C018091F707809368
:102C9000BB0080911E0890911F08A0912008B09160
:102CA0002108892B8A2B8B2BA1F00E942E040091E6
:102CB0001E0810911F0820912008309121086C19DE
:102CC0007D098E099F09061717072807390708F499
:102CD00042C08091BC0083FDD8CF85EC8093BC00BE
:102CE0000E942E046B017C0180911C08823009F443
:102CF00050C080911A088F3F09F46FC080911A0864
:102D0000803209F46CC080911A08803309F469C0DC
:102D100084E026C080911E0890911F08A091200891
:102D2000B0912108892B8A2B8B2B09F484CF0E9428
:102D30002E0480901E0890901F08A0902008B0904C
:102D400021086C197D098E099F0986169706A80629
:102D5000B90608F070CF80911D080E94E21585E049
:102D6000109223081092450810922208DF91CF910B
:102D70001F910F91FF90EF90DF90CF90BF90AF9099
:102D80009F908F9008959D9191938F5F69CF85EE6D
:102D9000A5CF80911E0890911F08A0912008B091A6
:102DA0002108892B8A2B8B2B09F49ECF0E942E049D
:102DB00000911E0810911F082091200830912108D1
:102DC0006C197D098E099F0906171707280739070F
:102DD00008F08ACFC0CF81E0C3CF80E0C1CF82E0CE
:102DE000BFCF83E0BDCFCF93DF93EC018B818823EE
:102DF000A1F0888191E0909322088093440810927A
:102E000023081092450881E00E94031691E0811189
:102E100090E0892FDF91CF9108950E94CB1581E03A
:102E20008B83CE010E94F316982F8111E2CFF1CF50
:102E30000895E091D5078091D407E81730F4F0E0C9
:102E4000EA52F84F808190E008958FEF9FEF089548
:102E50009091D5078091D4072FEF3FEF981748F452
:102E6000E92FF0E0EA52F84F208130E09F5F909325
:102E7000D507C90108958091D4079091D507891B82
:102E8000990B0895CF92DF92EF92FF920F931F93C9
:102E9000CF93DF937C01CB018A012091220822236A
:102EA00089F0EB016B01C40ED51ECC15DD0569F070
:102EB0006991D701ED91FC910190F081E02DC7015E
:102EC0001995F3CF642F0E948615C801DF91CF9129
:102ED0001F910F91FF90EF90DF90CF900895CF93C7
:102EE000DF931F92CDB7DEB769832091220822239A
:102EF000F9F020914508203258F021E030E0FC0143
:102F00003383228390E080E00F90DF91CF9108958A
:102F100080912308E82FF0E0EC5DF74F99819083D2
:102F20008F5F809323088093450881E090E0ECCF89
:102F300061E0CE0101960E948615F7CFFC01248145
:102F400031E0309322082093440810922308109215
:102F500045088485682B8EE299E00E946F1781E016
:102F60000C94031690E080E008951F93CF93DF93B5
:102F7000DC011496ED91FC91E417F50710F490E054
:102F80001FC0122FEA01FC0181819281208131E072
:102F90003093220820934408109223081092450889
:102FA000DC01ED91FC910280F381E02D1995C817A9
:102FB000D90729F7812F0E94031691E08111DFCFF5
:102FC000892FDF91CF911F9108952F923F924F92B9
:102FD0005F926F927F928F929F92AF92BF92CF92A9
:102FE000DF92EF92FF920F931F93CF93DF935C01D9
:102FF0001B016A01F12CE12CD50114968D919C9155
:1030000086010E191F098017910708F48C01F5013C
:10301000D0810E942E042B013C0180911C0881115B
:1030200072C0C02F013208F0C0E2F1E0F0931C083A
:1030300021E0C601801B910BE816F90608F420E098
:1030400020931B088FEF80931A08109219088C0F99
:1030500080931808A1E0A093F7078091F707DD0F90
:10306000D82BD093F7078091F607813009F090C0F4
:103070001092F6070E942E042B013C018091F70765
:103080008093BB0080911E0890911F08A09120089A
:10309000B0912108892B8A2B8B2BA1F00E942E0442
:1030A00020911E0830911F0840912008509121085E
:1030B00064197509860997092617370748075907BC
:1030C00008F442C08091BC0083FDD8CFB5ECB0932A
:1030D000BC000E942E042B013C0180911C08813011
:1030E00009F45AC0809119088C1710F4C09119087E
:1030F000A8EFB7E0E6EDF7E080E08C1751F19D9185
:1031000091938F5FFACF80911E0890911F08A09134
:103110002008B0912108892B8A2B8B2B09F47DCFB5
:103120000E942E0420911E0830911F084091200813
:1031300050912108641975098609970926173707E0
:103140004807590708F069CF80911D080E94E215D1
:10315000C0E01092D507C093D407C017110609F03C
:1031600057C041018E0C9F1CE401CE0188199909BA
:103170008017910798F5D50111968D919C91DC01EE
:10318000ED91FC910284F385E02D19958993EDCFA3
:10319000E5EEE093BC009DCF80911E0890911F0842
:1031A000A0912008B0912108892B8A2B8B2B09F440
:1031B00094CF0E942E0420911E0830911F08409148
:1031C0002008509121086419750986099709261766
:1031D00037074807590708F080CFB6CFE00EF11E39
:1031E000EC14FD0408F408CF81E0DF91CF911F912A
:1031F0000F91FF90EF90DF90CF90BF90AF909F9096
:103200008F907F906F905F904F903F902F90089598
:1032100080E0EBCF0F931F93CF93DF931F921F920A
:10322000CDB7DEB78FE08A8308E41CE021E041E0FF
:1032300050E0BE016E5F7F4FF801808191810E9456
:10324000B51741E050E0BE016F5F7F4FF80180810C
:1032500091810E94E51789810F900F90DF91CF91A6
:103260001F910F910895EF92FF920F931F93CF93A9
:10327000DF9300D000D01F92CDB7DEB78C0119824A
:10328000DB01ED90FC9020E041E050E0BE016F5F7B
:103290007F4FC7010E94B517882341F047E050E0F7
:1032A000BE016F5F7F4FC7010E94E517E981EF778D
:1032B000FA81FB805D814E814F778F81282F30E02E
:1032C00094E0359527959A95E1F7922F990F990FEC
:1032D000291B220F280FD8012C93842F90E024E083
:1032E000959587952A95E1F7982F990F990F891B46
:1032F000880F840F11968C931197652F70E034E03E
:10330000759567953A95E1F7862F880F880F681BAA
:10331000660F650F12966C9312974F2D50E064E084
:10332000559547956A95E1F7842F880F880F481BBC
:10333000440F4F0D13964C9313972F2F30E074E0EA
:10334000359527957A95E1F7822F880F880F281BEE
:10335000220F2F0F14962C9314978E2F90E0F4E0E9
:1033600095958795FA95E1F7982F990F990F891BF5
:10337000880F8E0F15968C93C80127960FB6F89478
:10338000DEBF0FBECDBFDF91CF911F910F91FF9098
:10339000EF900895CF92DF92EF92FF921F93CF9319
:1033A000DF93EC0180E2689FF0011124E253FA4FB1
:1033B0009385917161F0842F827449F080E0DF91F0
:1033C000CF911F91FF90EF90DF90CF900895142F31
:1033D0006A8B8091000290910102A0910202B0914B
:1033E00003028E879F87A88BB98BC488D588F12C60
:1033F000E12C7601DD24CC24CF8AD88EE98EFA8E9A
:10340000828D938DB0E0A0E0AC01BD014C295D2917
:103410006E297F294F8B588F698F7A8F83858871AA
:10342000B1F4848D958DA68DB78D8B8B9C8BAD8BD8
:10343000BE8B81E08D831F701C831E821F821886C5
:1034400019861A861B861C861D8681E0B8CF8031BE
:1034500009F0B4CF9E012D5E3F4F8B8D9C8D0E9455
:10346000680A882309F4AACF84E0E4CF0F931F935E
:10347000CF938C01C62F0E949E176C2F6460C801E9
:103480000E949E176C2F6B7FC8010E949E1783ECD1
:1034900090E00197F1F7CF911F910F9108950F934D
:1034A0001F93CF93DF938C01D62FC42F607F642BA3
:1034B0000E94361A80E1D89FB00111246C2BC801FC
:1034C000DF91CF911F910F910C94361ACF93DF9318
:1034D00000D000D01F921F92CDB7DEB728E0E2E205
:1034E000F2E0DE01119601900D922A95E1F7FC01C0
:1034F0002085241708F44FEF50E0440F551F21E0BA
:1035000030E02C0F3D1F420F531FFA012081620F44
:10351000606840E028960FB6F894DEBF0FBECDBFBE
:10352000DF91CF910C944F1A0F931F93CF93DF939A
:103530008C01EB01642F422FDC0114968D919C913C
:103540000E94661AF801848195814C815D816881B1
:103550007981DC01ED91FC910280F381E02DDF9116
:10356000CF911F910F911994CF93DF93EC0140E01D
:1035700061E00E944F1A8BE39FE10197F1F7898583
:10358000882339F040E060E0CE01DF91CF910C94C8
:10359000661ADF91CF910895FC01848195810C9486
:1035A000B41A41E00E944F1A81E090E008950F9311
:1035B0001F93CF93DF938C01FC0180819181009751
:1035C00011F00E94883386E090E00E94EC32EC011A
:1035D00088E688838EE299E09A8389831B8280E261
:1035E00090E09D838C83F801D183C0830E94CB152A
:1035F00081E08B83CE01DF91CF911F910F910C94CD
:10360000F316CF93DF93EC0188819981009711F035
:103610000E948833198218821D821C821B821A82A2
:10362000DF91CF910895FC0180819181009711F085
:103630000C9488330895FB0101900020E9F731973D
:10364000AF01461B570BDC01ED91FC910280F38129
:10365000E02D19940F931F93CF93DF93EC010E94F9
:103660001B1B8C0164E972E0CE010E941B1B800FC2
:10367000911FDF91CF911F910F9108950F931F9389
:10368000CF93DF93EC01FB0144815581608171810F
:10369000E881F9810280F381E02D19958C0164E9BC
:1036A00072E0CE010E941B1B800F911FDF91CF9112
:1036B0001F910F9108950F931F93CF93DF93EC0108
:1036C00088819981009759F02A813B812617370715
:1036D00030F081E0DF91CF911F910F9108958B0120
:1036E0006F5F7F4F0E941134009759F09983888350
:1036F0001B830A832C813D81232B59F7FC01108207
:10370000E8CF80E0E7CFEF92FF920F931F93CF9324
:10371000DF936115710541F480E0DF91CF911F9136
:103720000F91FF90EF90089541155105B1F07B0185
:10373000EC010C811D81040F151FB8010E945B1B59
:10374000882351F3288139818C819D81B701820FB3
:10375000931F0E9413351D830C8381E0DECFCF932E
:10376000DF93EC016115710539F4CE010E94011B54
:10377000CE01DF91CF910895FB0101900020E9F780
:103780003197AF01461B570B0E94831B882369F3B7
:10379000EFCFCF93DF93EC01FB0144815581608132
:1037A00071810E94831B811103C0CE010E94011B05
:1037B000CE01DF91CF910895EF92FF920F931F9367
:1037C000CF93DF93EC017B018A01BA010E945B1B5E
:1037D00081110BC0CE010E94011BCE01DF91CF9160
:1037E0001F910F91FF90EF9008951D830C83B701F7
:1037F000888199810E941335F0CFFB010190002050
:10380000E9F73197AF01461B570B0C94DC1B0F9364
:103810001F93CF93DF9300D000D000D0CDB7DEB799
:103820008C01862FF8011182108213821282158278
:1038300014824AE0BE016F5F7F4F90E00E943F32EA
:10384000BE016F5F7F4FC8010E94FD1B29960FB616
:10385000F894DEBF0FBECDBFDF91CF911F910F91C6
:1038600008950F931F93CF93DF93CDB7DEB7629781
:103870000FB6F894DEBF0FBECDBF8C01CB01F801AF
:103880001182108213821282158214824AE0BE01D4
:103890006F5F7F4F0E941F32BE016F5F7F4FC80175
:1038A0000E94FD1B62960FB6F894DEBF0FBECDBF1F
:1038B000DF91CF911F910F910895CF93DF93EC018A
:1038C000FB018617970749F06081718161157105C9
:1038D00041F0448155810E94DC1BCE01DF91CF91E4
:1038E00008950E94011BF9CFFC01118210821382FE
:1038F0001282158214820C945D1CEF92FF920F933A
:103900001F93CF93DF93CDB7DEB7A3970FB6F8948D
:10391000DEBF0FBECDBF7C0168E47CE0CE01019626
:103920000E94331986E0FE013196AAE4BCE00190C2
:103930000D928A95E1F708E41CE0F801828190E09D
:103940001B8A1A8A1D8A1C8A1F8A1E8A4AE0BE01A7
:103950006F5F7F4F8053984F0E943F32BE016F5F71
:103960007F4FCE0142960E94FD1BF8016381CE017C
:1039700001960E94071CF8016481CE014E960E94B8
:10398000071CBE01625E7F4FCE0148960E94741CE8
:1039900067E972E0CE0148960E94AF1BBE016F5FDF
:1039A0007F4F0E94C91B67E972E00E94AF1BBE01F6
:1039B0006E5E7F4F0E94C91BBC01C7010E94741C30
:1039C000CE0148960E94131BCE014E960E94131BF7
:1039D000CE0101960E94131BCE0142960E94131B3A
:1039E000C701A3960FB6F894DEBF0FBECDBFDF911F
:1039F000CF911F910F91FF90EF900895EF92FF925A
:103A00000F931F93CF93DF93CDB7DEB768970FB6B1
:103A1000F894DEBF0FBECDBF7C0168E47CE0CE0130
:103A200001960E94331986E0FE013196AAE4BCE0BB
:103A300001900D928A95E1F708E41CE0F801678196
:103A4000CE0101960E94071CF8016681CE010796FF
:103A50000E94071CF8016581CE0143960E94071C55
:103A6000BE016D5E7F4FCE010D960E94741C67E60D
:103A700075E0CE010D960E94AF1BBE01695F7F4FBE
:103A80000E94C91B67E675E00E94AF1BBE016F5F15
:103A90007F4F0E94C91BBC01C7010E94741CCE014C
:103AA0000D960E94131BCE0143960E94131BCE015C
:103AB00007960E94131BCE0101960E94131BC7019B
:103AC00068960FB6F894DEBF0FBECDBFDF91CF91E1
:103AD0001F910F91FF90EF900895FC0111821082C9
:103AE00013821282158214826115710551F0FB0157
:103AF00001900020E9F73197AF01461B570B0C945A
:103B0000DC1B08956F927F928F929F92AF92BF922B
:103B1000CF92DF92EF92FF920F931F93CF93DF9399
:103B2000CDB7DEB72C970FB6F894DEBF0FBECDBF72
:103B30008C017B016A0166E972E00E946D1D69E9F2
:103B400072E0CE0101960E946D1DB601CE01019674
:103B50000E94C91B69E972E00E94AF1BBC01CE0143
:103B600007960E94741CCE0101960E94131B6B8461
:103B70007C84F70182809380A080B1808A149B04AA
:103B800028F0982D892D4501A92EB82E66E972E0FE
:103B9000CE0101960E946D1DCB84DC848C149D04A3
:103BA000E0F4AC14BD0408F46501EF81F885EC0D78
:103BB000FD1DB08010826F817885680D791DCE0162
:103BC00001966115710509F458C00E94FD1B8F8193
:103BD0009885C80ED91EF601B082F80180819181C6
:103BE000009709F44FC069817A816115710509F464
:103BF00047C0428153812D813E814217530708F40B
:103C00003FC00E9413358D819E81F8019583848386
:103C10001E821D82CE0101960E94131BF701808136
:103C20009181019691838083228133812F5F3F4F61
:103C3000338322836816790634F480E190E091831F
:103C4000808313821282CE0107960E94131BC80143
:103C50002C960FB6F894DEBF0FBECDBFDF91CF918B
:103C60001F910F91FF90EF90DF90CF90BF90AF909A
:103C70009F908F907F906F9008950E94011BA7CF17
:103C80000E94883389819A81F801918380838B8196
:103C90009C81938382838D819E81958384831A8204
:103CA00019821C821B82B4CF3F924F925F926F9217
:103CB0007F928F929F92AF92BF92CF92DF92EF92BC
:103CC000FF920F931F93CF93DF9300D000D000D0CB
:103CD0001F921F92CDB7DEB77C01FE013196CE0157
:103CE0000C966F0130E23193E817F907E1F7DA013A
:103CF00030E087E09D91B92E992309F43CC09E32B3
:103D0000F1F48A30C9F480E02B960FB6F894DEBF48
:103D10000FBECDBFDF91CF911F910F91FF90EF901C
:103D2000DF90CF90BF90AF909F908F907F906F90DB
:103D30005F904F903F90089538E08AE0DBCFE6E453
:103D4000F2E04491442321F031969413FACFDBCF73
:103D50008317C8F24FED490F4E35A8F64FE9490FCA
:103D60004A3118F440EEB42EB90EF601E30FF11DFE
:103D7000B0823F5FBFCF8981803229F2322E8B0122
:103D8000DB015B968D919C915C97F701948F838FFB
:103D900016961D921D921D921C921997FB01128678
:103DA000138614861586F80182859385A485B585CA
:103DB000438954896589768984179507A607B707CB
:103DC00008F04DC025E0B695A795979587952A955B
:103DD000D1F7F82FFF70AF2ED80115968C91823055
:103DE00008F491CFC8010E94D40F97FD8CCFF80141
:103DF00082859385A485B5854F96A11DB11D8287C7
:103E00009387A487B587F0E2AF9EB0011124625377
:103E10007A4F6115710509F476CFDB018C91882307
:103E200041F0853E09F062C0BB2029F0BB24B39469
:103E3000BACFB1100EC0F701A28A80910002909112
:103E40000102A0910202B091030286879787A08B9E
:103E5000B18BDB018C918111E9CFBB24B394832D0D
:103E60008271823109F04FCFBB2009F44DC0F701B8
:103E7000668577858089918941E00E94D2078823F1
:103E800009F441CFD70152968C91B0E28B9FC001CB
:103E9000112482539A4F009709F435CFFC013A96CA
:103EA00026E1DF011D922A95E9F72BE0F601DC01FE
:103EB00001900D922A95E1F721E238E2FC01318B65
:103EC000208B40E058E057874687338B228B318F19
:103ED000208F578B468B81E00E94A707882309F427
:103EE00012CF432DD70152966C910AC04BE050E09F
:103EF000C6010E94F234892B09F055CF432D6A2D5B
:103F0000C7010E94CA1900CFF8018581823009F4E7
:103F1000FACEC8010E94BB0B882309F4F4CED80165
:103F20005B96ED91FC915C9716968D909D90AD906F
:103F3000BC901997B2E08B1A9108A108B108858549
:103F400004C0880C991CAA1CBB1C8A95D2F78685D4
:103F50009785A089B189880E991EAA1EBB1E8481EF
:103F600024013501480E511C611C711C84149504F8
:103F7000A604B70409F1E1E04E1A5108610871087E
:103F800081E00E94A707882309F4BDCEEEECF5E09E
:103F900011928EEC97E08E179F07D1F740920002A6
:103FA0005092010260920202709203028091BE055B
:103FB00081608093BE05DACFD8015B96ED91FC91CC
:103FC000258580E092E0A0E0B0E004C0880F991F52
:103FD000AA1FBB1F2A95D2F7F80143895489658926
:103FE0007689840F951FA61FB71F838B948BA58B93
:103FF000B68BD70152961C928EEC95E04FCFEF9284
:10400000FF920F931F93CF93DF93EC017B018A0103
:104010001B821A8288EE93E0A0E0B0E08C839D833F
:10402000AE83BF8381E792E0998388838DE190E03E
:104030000E94EC329A8F898F009779F02DE1F70179
:10404000DC0101900D922A95E1F74CE050E0B801B7
:10405000CE010C960E941A35188EDF91CF911F91D8
:104060000F91FF90EF90089585ED8093BC008091B3
:104070001E0890911F08A0912008B0912108079672
:10408000A11DB11D23E0B695A795979587952A9513
:10409000D1F72091BC0024FD03C010921C080895A4
:1040A00040911E0850911F086091200870912108CE
:1040B000452B462B472B69F30097A105B10541F02D
:1040C0002AE22A95F1F700C00197A109B109E1CFD1
:1040D00080911D080C94E2158F929F92AF92BF922F
:1040E000CF92DF92EF92FF920F931F93CF93DF93C4
:1040F000CDB7DEB72F970FB6F894DEBF0FBECDBF9A
:104100007C010091500C1091510CC8010E94CC1AF6
:104110001092C40583E0F701818780912A02909173
:104120002B02A0912C028D879E87AF878AEA92E0AE
:104130009A83898389EB92E09C838B8387EC92E05E
:104140009E838D8318861F821A8619861C861B867D
:1041500060E170E0CE0107960E945B1B811169C08F
:10416000CE0107960E94011B20E040E0BE01695F7E
:104170007F4FC8010E94941ACE0107960E94131B1C
:104180000091500C1091510C6AEA72E0CE01079632
:104190000E946D1D21E040E0BE01695F7F4FC801B4
:1041A0000E94941ACE0107960E94131B5701FAE051
:1041B000AF0EB11C88248394912CC5010E94B311C9
:1041C000082F8823D1F3C090500CD090510CC60119
:1041D0000E94CC1A67ED72E0CE0107960E946D1D19
:1041E00020E040E0BE01695F7F4FC6010E94941A43
:1041F000CE0107960E94131B013431F58091500CBB
:104200009091510C0E94CC1A8092C4052F960FB643
:10421000F894DEBF0FBECDBFDF91CF911F910F91FC
:10422000FF90EF90DF90CF90BF90AF909F908F90D6
:10423000089580E190E09C878B8760E172E08F8138
:1042400098850E94183290CF10E080E0F7019185A8
:10425000191788F5C12ED12CEDE0F0E0EC0FFD1F11
:10426000EC0DFD1D9081901324C08090500C909017
:10427000510CF601EE0FFF1F81E090E08C0F9D1FA7
:10428000E80FF91F60817181CE0107960E946D1DB4
:1042900021E040E0BE01695F7F4FC4010E94941A93
:1042A000CE0107960E94131B46019FEF891A990AB7
:1042B00081E01F5FCBCF811180CF0091500C109116
:1042C000510C6AEA72E0CE0107960E946D1D21E052
:1042D00040E0BE01695F7F4FC8010E94941ACE0181
:1042E00007960E94131B66CF2F923F924F925F92C8
:1042F0006F927F928F929F92AF92BF92CF92DF92F6
:10430000EF92FF920F931F93CF93DF93CDB7DEB75A
:10431000CE57D1090FB6F894DEBF0FBECDBF6C01EA
:10432000E7967FAF6EAFE797E9965FAF4EAFE9973D
:10433000EB963FAF2EAFEB97ED961FAF0EAFED971D
:10434000EF96FFAEEEAEEF97FC01E457FF4F6080B3
:10435000718019A218A283E592E09F8F8E8F1BA215
:104360001C821B829A8389831E824E018EE1880EF5
:10437000911CC4010E94D30A53018E010F5F1F4F8D
:10438000140128016FE270E0C5010E940835009712
:1043900009F462C0D5012C912F3271F4BFEFAB1A32
:1043A000BB0A902F812F8101292E382E922D832D2B
:1043B0001801092F182FE6CF8A198D3008F08CE0EC
:1043C000E82EF12CA701B501CE01885A9F4F0E941B
:1043D0001A35E8E5F0E0EC0FFD1FEE0DFF1D108231
:1043E000C8010E945F0DF8018581882329F11EAE66
:1043F0001DAE83E592E09CAF8BAF21961FAE219757
:10440000E596AEADBFADE5976A0E7B1EF3018081E8
:1044100081112FC0BE01655C7F4FCE0101960E94C5
:10442000180F47E952E0BE016F5F7F4FCE01885AF7
:104430009F4F0E94FF1F44C021E0AE01485A5F4FCA
:10444000B101C8010E94541E882389F2AE0CBF1C22
:10445000C1010E945F0DAACFC50186199709E59693
:104460009FAF8EAFE597B101CE01CB960E94180F9A
:10447000C7CF19A218A283E592E09F8F8E8F1BA24F
:1044800021968FAD21978111F5C06C961FAE1EAE9F
:104490006C9788EE93E0A0E0B0E0A0968CAF9DAF63
:1044A000AEAFBFAFA09781E792E06A969FAF8EAFA5
:1044B0006A97E3961FAE1EAEE397A5961FAEA5972B
:1044C0006C968EAD9FAD6C97D60113969C938E9390
:1044D0001297A0968CAD9DADAEADBFADA097F60185
:1044E00084839583A683B783A4968CAD9DADAEAD32
:1044F000BFADA49780879187A287B3873C96A8E534
:10450000B0E0AC0FBD1F1C96C60149962D912193BA
:10451000E817F907D9F7E396EEADFFADE397D601BB
:104520005A96FC93EE935997309709F4C4C085814D
:10453000882309F4C0C068EE72E0C6010E942A1BFD
:1045400064E073E0C6010E942A1B64E173E0C201CB
:104550000E946D1DE7966EAD7FADE797C2010E9488
:10456000C91BBC01C6010E943E1BC2010E94131B55
:104570006CE173E0C2010E946D1DE9966EAD7FADE6
:10458000E997C2010E94C91BBC01C6010E943E1BE3
:10459000C2010E94131B64E273E0C2010E946D1D00
:1045A000EB966EAD7FADEB97C2010E94C91BBC01BB
:1045B000C6010E943E1BC2010E94131BEF966EAD06
:1045C0007FADEF97C4010E94311C6EE273E0C2011F
:1045D0000E946D1DED966EAD7FADED97C2010E94FC
:1045E000C91B67E373E00E94AF1BB4010E94C91BA3
:1045F0006DE974E00E94AF1BBC01C6010E943E1B26
:10460000C2010E94131BC4010E94131B68EE72E0DA
:10461000C6010E942A1B64E972E0C6010E941B1BAE
:10462000F601818D928D009759F00E945F0DD601A1
:1046300059968D919C910E948833F601128E118EAD
:10464000C258DF4F0FB6F894DEBF0FBECDBFDF916B
:10465000CF911F910F91FF90EF90DF90CF90BF907F
:10466000AF909F908F907F906F905F904F903F9012
:104670002F90089527E1A301BE01655C7F4FCE0115
:104680004E960E94541E882309F4FFCECE01CB968D
:104690000E945F0D49A95AA96BA97CA9CE014E962B
:1046A0000E94270BBE01625E7F4FCE0101960E94E1
:1046B000180FA301B8CE6EE373E086E498E00E9481
:1046C0002A1B0091500C1091510CC8010E94CC1A69
:1046D0006EE573E0C2010E946D1D20E040E0B20172
:1046E000C8010E94941AC2010E94131B0091500C31
:1046F0001091510C6CE673E0C2010E946D1D21E027
:1047000040E0B201C8010E94941AC2010E94131B2A
:1047100097CF1F920F920FB60F9211242F933F93B2
:104720008F939F93AF93BF938091C6059091C705D8
:10473000A091C805B091C9053091C50523E0230FAC
:104740002D3758F50196A11DB11D2093C505809305
:10475000C6059093C705A093C805B093C90580917D
:10476000CA059091CB05A091CC05B091CD050196DD
:10477000A11DB11D8093CA059093CB05A093CC05D4
:10478000B093CD05BF91AF919F918F913F912F91A4
:104790000F900FBE0F901F90189526E8230F0296DA
:1047A000A11DB11DD2CF1F920F920FB60F921124EF
:1047B0000BB60F922F933F934F935F936F937F931B
:1047C0008F939F93AF93BF93EF93FF9386E498E00B
:1047D0000E940705FF91EF91BF91AF919F918F913B
:1047E0007F916F915F914F913F912F910F900BBEF1
:1047F0000F900FBE0F901F9018951F920F920FB63B
:104800000F9211240BB60F922F938F939F93EF93D8
:10481000FF93E0915608F09157088081E0915C0881
:10482000F0915D0882FD1DC0908180915F088F5FCF
:104830008F7320916008821741F0E0915F08F0E0EB
:10484000EA5BF74F958F80935F08FF91EF919F91FF
:104850008F912F910F900BBE0F900FBE0F901F9056
:1048600018958081F2CF1F920F920FB60F921124EC
:104870000BB60F922F933F934F935F936F937F935A
:104880008F939F93AF93BF93EF93FF938091B90062
:10489000887F803609F44DC008F040C0883209F4A2
:1048A000A9C028F5803109F49DC0C8F4882309F413
:1048B000FBC0883009F496C0FF91EF91BF91AF9192
:1048C0009F918F917F916F915F914F913F912F9128
:1048D0000F900BBE0F900FBE0F901F901895883150
:1048E00009F488C0803241F780931A0814C08034DC
:1048F00009F49DC040F48033B9F38833E9F680931E
:104900001A0885ECB0C0803509F485C0883509F4F3
:1049100096C0883489F60E943420CECF883909F4B5
:104920008CC038F5883729F050F4883611F080377C
:1049300019F683E080931C081092BB0557C0883895
:1049400009F47BC0803919F0803809F0B5CF809127
:10495000BB05803208F071C0E091BB0581E08E0F8D
:104960008093BB058091BB00F0E0E556FA4F808351
:104970003DC0803B39F0E0F4803A09F479C0883AD0
:1049800009F09ACF84E080931C0810929A05109247
:104990009905E091D207F091D30719958091990577
:1049A00081110FC081E0809399051092790509C0AB
:1049B000803C09F4A6CF883C09F4A3CF883B09F0DA
:1049C0007BCFE0919A0581E08E0F80939A05F0E00D
:1049D000E758FA4F80818093BB0090919A058091AF
:1049E000990529C08091F7078093BB0085EC8093DF
:1049F000BC0062CF9091190880911808981758F55B
:104A0000E091190881E08E0F80931908F0E0E850DA
:104A1000F84F8081E9CFE091190881E08E0F8093F3
:104A200019088091BB00F0E0E850F84F8083909126
:104A30001908809118089817C8F285E8D8CFE09136
:104A4000190881E08E0F809319088091BB00F0E077
:104A5000E850F84F808380911B0881115CCF81E082
:104A60008093F60784EA8093BC0010921C0824CF40
:104A700085EC8093BC0010921C088091BB058032AD
:104A800030F4E091BB05F0E0E556FA4F10826091FA
:104A9000BB0570E0E091D007F091D1078BE995E07C
:104AA00019951092BB0508CF10921A0834CFFC015B
:104AB000908190539A3008F090E0818180532AE0F1
:104AC000929F800D112408950A960C941E02CF9295
:104AD000DF92EF92FF92CF93DF93E6E4F8E0138248
:104AE000128288EEC82E83E0D82EE12CF12CC482ED
:104AF000D582E682F78281E492E09183808385EC1F
:104B000090E09587848784EC90E09787868780EC97
:104B100090E0918B808B81EC90E0938B828B82EC88
:104B200090E0958B848B86EC90E0978B868B118E32
:104B3000128E138E148EE3EEF8E080E580831182EE
:104B4000E5EEF8E0158216821186138682E090E089
:104B5000A0E0B0E084879587A687B78713A215A643
:104B600014A683E592E093A782A717A6EEE2F9E0E8
:104B700013821282C482D582E682F7828FE592E0A8
:104B80009183808386E090E00E94EC32EC0180E12A
:104B900090E09983888382E090E09B838A838DE014
:104BA00090E00E94EC32FC011382128283E892E0D2
:104BB00091838083118687E2848380E1828782E00B
:104BC00083871486FD83EC83D093510CC093500CE3
:104BD0001092490C1092480C40E853E46DE678E3DB
:104BE0008AE49CE00E94AF138EE890E00E94EC32D1
:104BF000EC011B821A82CC82DD82EE82FF8281E789
:104C000092E0998388831A8E198E1C86CE014B966A
:104C10000E941E02FE01E657FF4F86E793E0918354
:104C20008083329682E893E091838083D093470C0F
:104C3000C093460C8EE59BE00E94642587ED9BE0C7
:104C40000E941E0285E49AE00E941E0283E0809387
:104C5000B60A86E0EDE2F2E0A7EBBAE001900D9231
:104C60008A95E1F76DE873E08DEB9AE00E946D1D87
:104C700062E973E083EC9AE00E946D1D69E973E0DC
:104C800089EC9AE00E946D1D80912A0290912B027E
:104C9000A0912C028093CF0A9093D00AA093D10ABE
:104CA0001092D30A1092D20A1092D50A1092D40A06
:104CB0001092D70A1092D60A1092D90A1092D80AE6
:104CC0001092DA0A1092DC0A1092DB0A8DED9AE05B
:104CD0000E94642584EC99E00E9464256EE973E0EB
:104CE00082E499E00E946D1D69EA73E088E499E02E
:104CF0000E946D1D60EB73E08EE499E00E946D1DD3
:104D00001092540985E599E0DF91CF91FF90EF90E3
:104D1000DF90CF900C941E02CF93DF93CDB7DEB718
:104D2000C054D1090FB6F894DEBF0FBECDBF789442
:104D300084B5826084BD84B5816084BD85B58260A0
:104D400085BD85B5816085BD80916E008160809351
:104D50006E001092810080918100826080938100BA
:104D600080918100816080938100809180008160CA
:104D7000809380008091B10084608093B100809125
:104D8000B00081608093B000809191008260809338
:104D900091008091910081608093910080919000BA
:104DA0008160809390008091A10082608093A10037
:104DB0008091A10081608093A1008091A00081601A
:104DC0008093A000809121018260809321018091D5
:104DD0002101816080932101809120018160809375
:104DE000200180917A00846080937A0080917A001B
:104DF000826080937A0080917A00816080937A004B
:104E000080917A00806880937A001092C100E091CE
:104E10005608F091570882E08083E0915208F091A3
:104E200053081082E0915408F091550880E1808386
:104E300010925E08E0915A08F0915B0886E080834A
:104E4000E0915808F0915908808180618083E09159
:104E50005808F0915908808188608083E091580853
:104E6000F0915908808180688083E0915808F09122
:104E7000590880818F7D808388E49CE00E94D71A46
:104E80008CAF811107C069EB73E086E498E00E9463
:104E90002A1BFFCF0E940A1990E0880F892F881FD4
:104EA000990B892B09F4D4C03BE6E32E32E0F32EB4
:104EB000F7016491662349F086E498E00E94290591
:104EC000FFEFEF1AFF0A892B99F764E972E086E495
:104ED00098E00E941B1B4BE050E06FE572E09E01E2
:104EE0002F5F3F4F7901C9010E940F32CE010A9610
:104EF0000E945725082FE981E154E33128F50E2E51
:104F0000000CFF0B8827E857F84D8F4F0C94E432C4
:104F10007829A427A4278C29A4278E29A427A4278D
:104F2000A4279B27A427A4277F298A298829A42787
:104F3000A427A42786298A8111E0813629F08B8154
:104F400016E08E3609F017E0CE0105960E9457252F
:104F5000D82E48E050E066E572E0C7010E940F32AB
:104F6000C7010E945725C82ECE0104960E945725DE
:104F7000B82ECE0107960E945725382F88E0F701FA
:104F800011928A95E9F72AE0832F622F0E94C4329A
:104F9000982F880F890F880F830F8A838B2D0E948B
:104FA000C432982F880F890F880F8B0D8B838C2D1F
:104FB0000E94C432982F880F890F880F8C0D8C8324
:104FC0004D2D612F802F90E00E942F14069667E0F0
:104FD00070E00E94D032811101C087E08D832AE009
:104FE0008D2D622F0E94C432982F880F890F880F51
:104FF0008D0D8E83812F0E94C432982F990F890FB7
:10500000880F180F1F83802F0E94C432982F880F9B
:10501000890F880F800F888721E048E050E0B701B2
:105020008091480C9091490C0E94B5170E940A1972
:105030009FE09C878F778D8721E042E050E0BE01A2
:10504000645F7F4F8091480C9091490C0E94B51786
:10505000C090500CD090510CF601048115810E9433
:10506000CB15F80115828385823010F098E0958386
:10507000F801808762E370E080E090E00E945304D2
:10508000F8016485C8010E949E1768EE73E080E015
:1050900090E00E94530460E3C8010E94361A2BE49A
:1050A000E22E26E4F22EC7010197F1F760E3C80172
:1050B0000E94361AC7010197F1F760E3C8010E9408
:1050C000361A83E592E00197F1F760E2C8010E9489
:1050D000361AF8016581606240E0C8010E944F1AEB
:1050E00084E0F801868340E06CE0C8010E944F1A1A
:1050F000C8010E94B41A82E0F801878340E066E0AC
:10510000C8010E944F1A40E062E0C8010E944F1A95
:105110008BE39FE10197F1F7F6018481958128E007
:10512000FC01248760E00E949E17F601848195812E
:105130000E94B41AE090460CF090470C81E190E098
:105140009A83898381E090E09C838B838FEF9FEF2C
:105150009E838D8398878F8363ED73E086E498E068
:105160000E942A1B18E2C090500CD090510C63EDA5
:1051700073E0CE0142960E946D1DAE014E5E5F4F00
:10518000BE016F5F7F4FCE010C960E94821D20E012
:1051900040E0BE01645F7F4FC6010E94941ACE01B9
:1051A0000C960E94131BCE0142960E94131B64E6CC
:1051B00070E080E090E00E9453041150A1F680E17D
:1051C00090E09A8389831C821B82D12CB6EFAB2E90
:1051D000B2E0BB2E1CE3812E13E0912E03E0602E83
:1051E00086E0782E92E0C92EFBE1EF0EF11C809153
:1051F0001409882321F08FE099E00E945F0D10923E
:10520000F0081092EE081092EB081092EA0825E3DD
:105210002093E9080E9486048B0161E08091E908EF
:105220000E94FF0261E08091E9080E94D1025FB60E
:10523000F8948091C305811125C0F5018491F40192
:105240009491E82FF0E0EE0FFF1FE357FD4FA5917B
:10525000B4918C91982321F461E085E30E94D102FE
:1052600061E085E30E94FF028CB580618CBD8CB546
:1052700080648CBD61E084E30E94FF0261E083E30F
:105280000E94FF028091C3058F5F8093C3055FBEBC
:10529000F2E5F093E3081092E4088091E30890911E
:1052A000E4080E94FD057AE0572E8FEF0E94D80592
:1052B0005A945110FACF85EE98E00E94000620E043
:1052C00030E0A90160E085EE98E00E941606582EB5
:1052D0008093EF0821E0821719F10E948604601B79
:1052E000710B613D774058F381E08093EA085CC020
:1052F0008B8114E0823709F427CE18E025CE8B810C
:1053000013E0823709F420CE15E01ECE19E01CCE42
:105310001AE01ACE1BE018CE1CE016CE12E014CE16
:105320002AEA31E040E050E068E085EE98E00E9433
:10533000160682FF2BC05092F0088091F008212CB5
:10534000312C412C50E4552E823019F0212C312C77
:10535000210120E030E0A90167E385EE98E00E949A
:105360001606A201910169E285EE98E00E941606F8
:105370008093EF08882309F462C00E948604601BB2
:10538000710B613D774028F388E0AFCF64E0562E83
:105390000E94DF058093EF085A945110F9CF8A3AA2
:1053A00009F44AC0C092EA0885EE98E00E94CD0553
:1053B0006BEF73E086E498E00E942A1B6EE274E0D3
:1053C00086E498E00E942A1BD1109BC044E4542E2E
:1053D0000091500C1091510C6BEF73E0CE0142968E
:1053E0000E946D1DAE014E5E5F4FBE016F5F7F4F2D
:1053F000CE010C960E94821D20E040E0BE01645F59
:105400007F4FC8010E94941ACE010C960E94131B74
:10541000CE0142960E94131B68EC70E080E090E0A1
:105420000E945304C7010E94B311833409F4DCAC19
:105430005A945110CDCFDBCEC092F0087ECF809130
:10544000F0088230D1F420E030E0A9016AE385EE73
:1054500098E00E941606882319F07092EA08A4CFFB
:105460000E94DF05807C803C11F46092F0080E946D
:10547000DF050E94DF050E94DF0585EE98E00E94AF
:10548000CD0550E55093E3081092E40881E00E94B6
:105490001C08882309F4C1C28FE099E00E94D30A56
:1054A000882309F485CF6BEE73E086E498E00E94D0
:1054B0002A1B0091500C1091510C6BEE73E0CE0141
:1054C0000C960E946D1D21E040E0BE01645F7F4F9D
:1054D000C8010E94941ACE010C960E94131B64EF1F
:1054E00071E080E090E00E94530480E190E09A83B4
:1054F00089831C821B828091500C9091510C0E94D8
:10550000CC1A84EC99E00E946C2036E0D32E809176
:10551000C405813009F091C286E090E00E94EC322F
:10552000FC0188E1828389E183838AE184838BE1C2
:1055300085838FEF90E091838083F093B50AE093A9
:10554000B40A8BED9AE00E94D71A0091500C10918A
:10555000510CC8010E94CC1A67E574E0CE01019697
:105560000E946D1D20E040E0BE016F5F7F4FC801CB
:105570000E94941ACE0101960E94131B8091D20AB8
:105580009091D30AD89EB001D99E700D1124635416
:10559000754F21E040E08091500C9091510C0E9499
:1055A000941A85E49AE00E94B311082F8823C9F366
:1055B000E090500CF090510CC7010E94CC1A67E5A6
:1055C00074E0CE0101960E946D1D20E040E0BE0116
:1055D0006F5F7F4FC7010E94941ACE0101960E940F
:1055E000131B013409F020C28091D40A9091D50A8E
:1055F000892B09F4A8C20091500C1091510CC801DC
:105600000E94CC1A2091D40A3091D50A032E000CA6
:10561000440B550B2253310941095109AFE7B0E062
:105620000E94883222E330E040E050E00E9469327C
:1056300020583F4F4F4F5F4F3093D70A2093D60AE1
:10564000E091B40AF091B50A2F3F310519F014F03A
:105650002FEF30E037FF02C030E020E031832083BD
:10566000C8010E94CC1A66E674E0CE0101960E9441
:105670006D1D20E040E0BE016F5F7F4FC8010E94BA
:10568000941ACE0101960E94131B66E972E0CE01C6
:105690000C960E946D1D85E49AE00E94B311882348
:1056A000D1F3813409F095C288899989892B99F3BE
:1056B0008C859D85009709F488C20E94E83170931B
:1056C000D90A6093D80A9CAD9DAFCE010C960E947A
:1056D000131BEDADEE2309F4AAC181E08093DA0A31
:1056E0006BED7AE0CE01C6960E9433190091D80A7C
:1056F0001091D90ACE01C6960E944215012E000CC7
:10570000220B330BAB01BC01400F511F621F731FF3
:105710007E01F0E3EF0EF11CC7010E94AF13C70139
:105720000E945B14BC01CE018A960E946D1D66E941
:1057300072E0CE0184960E946D1D8E01025E1F4FA5
:1057400066E972E0C8010E946D1DA090B40AB09095
:10575000B50AF5016081718182810E943B0370E08E
:1057600060E0F50183810E943B03F5016081718156
:1057700084810E943B0370E060E0F50185810E9416
:105780003B03312C212CC02E1EAFEFAE2196FFAE75
:1057900021970E9486044B015C016BED7AE0CE01FB
:1057A00048960E943319C7010E9442152B013C0103
:1057B000CE0148960E944215461A570A680A790A8D
:1057C00080913D0A90913E0AA0913F0AB091400A13
:1057D000A5019401281B390B4A0B5B0BDA01C901A7
:1057E000883E9340A105B10508F403C180923D0AAB
:1057F00090923E0AA0923F0AB092400A0091500C4B
:105800001091510CC8010E94CC1A46E024163104B4
:105810000CF061C0411451046104710409F44DC2DB
:105820006BE774E0CE0101960E946D1D20E040E020
:10583000BE016F5F7F4FC8010E94941ACE0101968E
:105840000E94131BC301B2012CE330E040E050E0A2
:105850000E94933249018B01CE0101960E94311CB6
:105860000A3011050CF026C20EEA13E0B401CE0195
:1058700042960E94311CBE016E5E7F4FCE010C9697
:105880000E94741C67E675E0CE010C960E94AF1B67
:10589000B8010E94AF1BBE016F5F7F4F0E94C91B02
:1058A000BC018C2D9EAD0E945D1CCE010C960E9409
:1058B000131BCE0142960E94131BCE0101960E943B
:1058C000131B21E040E06C2D7EAD8091500C909137
:1058D000510C0E94941AC1010597069708F058C010
:1058E0006091D60A7091D70ACE0101960E94311CB0
:1058F0008091D20A9091D30AD89EB001D99E700DA2
:1059000011246354754FCE010C960E94741C66E9F5
:1059100074E0CE010C960E94AF1BBE016F5F7F4FFB
:105920000E94C91B69E974E00E94AF1BBC01CE0153
:1059300042960E94741CCE010C960E94131BCE014D
:1059400001960E94131B0091500C1091510C6FE9AD
:1059500074E0CE0101960E946D1D20E040E0BE0182
:105960006F5F7F4FC8010E94941ACE0101960E947A
:10597000131B21E040E0BE016E5E7F4F8091500C12
:105980009091510C0E94941ACE0142960E94131BD2
:105990005AE02516310454F10091500C1091510C2D
:1059A000C8010E94CC1A6DEA74E0CE0101960E94F3
:1059B0006D1D20E040E0BE016F5F7F4FC8010E9477
:1059C000941ACE0101960E94131B21E040E0BE0113
:1059D000665D7F4F8091500C9091510C0E94941AFB
:1059E0008FE02816310414F0312C212C9FEF291A56
:1059F000390A411451046104710409F471C185E448
:105A00009AE00E94B311823409F484C264E670E023
:105A100080E090E00E945304BCCE80E00E941C080D
:105A2000882309F4C5CC38CD023409F08CC010921B
:105A3000DA0A84EC99E00E946C208091C4058230DF
:105A400009F0BCC385E599E00E94B311823409F4E2
:105A5000B1C30E94860400913A0910913B0920913C
:105A60003C0930913D09601B710B820B930B683E22
:105A700073408105910590F00E94860460933A0975
:105A800070933B0980933C0990933D0980915409A0
:105A90008F5F833008F03AC3809354090E948604D4
:105AA00000913E0910913F09209140093091410930
:105AB000601B710B820B930B643F71408105910554
:105AC00008F280915409811124C30091500C109167
:105AD000510CC8010E94CC1A63E475E0CE01019616
