:100000000C9466020C9497020C9497020C9497023D
:100010000C9497020C9497020C9497020C949702FC
:100020000C9497020C9497020C9497020C949702EC
:100030000C9497020C9497020C9497020C949702DC
:100040000C9497020C9497020C9497020C949702CC
:100050000C9497020C9497020C9497020C94C92864
:100060000C9497020C943D290C9413290C9497023C
:100070000C9497020C9497020C9497020C9497029C
:100080000C9497020C9497020C9497020C9497028C
:100090000C9497020C9497020C9497020C94732979
:1000A0000C9497020C9497020C9497020C9497026C
:1000B0000C9497020C9497020C9497020C9497025C
:1000C0000C9497020C9497020C9497020C9497024C
:1000D0000C9497020C9497020C9497020C9497023C
:1000E0000C9497020C9417030C9499020C943C0303
:1000F0000C942E030C9405030C94CB2E0C94B31784
:100100000C94C6170C9435040C94CD2E0C946204F8
:100110000C94FA170C944A030C94A4170C94110431
:100120000C9438030C940F050C944B050C941C1084
:100130000C945A050C9445030C946C040C941A030B
:100140000C94D12E0C94D32E0C9420030C94800488
:100150000C94B4050C942C100C9440030C94D92CE2
:100160000C947E110C940A140C949A020C94CD17E2
:100170000C94BD2E0C9417340C942A030C94361452
:100180000C9423040C94F30F0C947C050C946E05D2
:100190000C948C0D0C94F0030C94FD030C942B0424
:1001A0000C941E050C9407040C94CF2E0C9446035B
:1001B0000C94C42E0C943D180C94A42A0C941B048B
:1001C0000C948A040C9449100C9432140C943F043F
:1001D0000C94920F0C9432030C94A3170C940B0301
:1001E0000C9488110C94F8030C940F030C9458048D
:1001F0000C9413030C9401060C94D02C0C94511BFA
:100200000C9424030C94FC0F0C9449040C94760475
:1002100000407A10F35A00A0724E18090010A5D4BD
:10022000E80000E87648170000E40B54020000CA1A
:100230009A3B000000E1F505000080969800000060
:1002400040420F000000A0860100000010270000BF
:100250000000E803000000006400000000000A0045
:10026000000000000100000000002C76D888DC6748
:100270004F0823DFC1DFAE59E1B1B796E5E3E453A0
:10028000C63AE651997696E8E6C28426EB898C9BBD
:1002900062ED407C6FFCEFBC9C9F40F2BAA56FA55D
:1002A000F490055A2AF75C936B6CF9676DC11BFCDF
:1002B000E0E40D47FEF520E6B500D0ED902E0300FA
:1002C000943577050080841E080000204E0A000047
:1002D00000C80C333333330F986E12831141EF8D06
:1002E0002114893BE65516CFFEE6DB18D1844B3846
:1002F0001BF77C1D901DA4BBE424203284725E2277
:100300008100C9F124ECA1E53D271F1C1F1E1F1E03
:100310001F1F1E1F1E000020002300260029002C86
:10032000002F003200000100000301060109017CDA
:100330003C3E5E2B3D3F2F5B5D3B2C2A225C003117
:10034000393A30353A30370041756720203720324E
:1003500030323400525443204C6F737420706F77E6
:1003600065722C2073657474696E672074686520EB
:1003700074696D65210000002100240027002A0017
:100380002D003000330001010000040107010A01C3
:1003900000002200250028002B002E003100340030
:1003A00002010000050108010B010505050507050F
:1003B00008080808020202020A0A080804040404E1
:1003C000010101010101010103030303030303030D
:1003D000040707070C0C0C0C0C0C0C0C020202029C
:1003E00006060606060606060B0B0B0B0B0B0B0B85
:1003F0000102102020080810204010204080020137
:10040000020108040201010204081020408080401B
:10041000201008040201800402018040201008041A
:1004200002010804020101020408102040800102B8
:1004300004081020408000000A0B02090C0D0E0871
:10044000070304010000000000000000000000009D
:10045000000000000000000000000000000000009C
:100460000000121110000000000000000000000059
:100470000000000000000000000000003D3D3D3D88
:100480003D204D656E75203D3D3D3D3D004A616E10
:100490004665624D61724170724D61794A756E4A6E
:1004A000756C4175675365704F63744E6F76446524
:1004B000630053756E4D6F6E54756557656454686F
:1004C0007546726953617400A42A173411241FBE43
:1004D000CFEFD1E2DEBFCDBF00E00CBF15E0A0E062
:1004E000B2E0E4E0F7E700E00BBF02C007900D9236
:1004F000AC39B107D9F72CE0ACE9B5E001C01D92E9
:10050000AB32B207E1F712E0C5E6D2E000E006C088
:1005100021970109802FFE010E94B938C436D10706
:1005200080E00807A9F70E94C42B0C94703B0C9440
:10053000000008950895FC01128216821582178228
:1005400087E392E091838083DF015C96CD01CC96B6
:100550001C9214961C921E92139715961C92159736
:100560001696A817B907A1F7DF01AE59BF4F88E06B
:1005700092E011969C938E93129684E092E01196ED
:100580009C938E93129684E08C9311968C9317977C
:100590008CE092E011969C938E9318968AE090E0FE
:1005A00011969C938E93129684EF91E011969C93F2
:1005B0008E93139611961C921E9251971D921D9226
:1005C0001D921C921397E459FF4F10820895815099
:1005D000823108F05AC0E82FF0E08827ED50FD4F37
:1005E0008F4F0C94B9381303170305030B030F0344
:1005F00045031A03200324032A032E03320338037E
:100600003C034503400346034A03809180008F77F3
:10061000809380000895809180008F7DF9CF809134
:100620008000877FF5CF84B58F7784BD089584B52A
:100630008F7DFBCF8091B0008F778093B0000895BD
:100640008091B0008F7DF9CF809190008F7780935B
:1006500090000895809190008F7DF9CF8091900057
:10066000877FF5CF8091A0008F778093A0000895B9
:100670008091A0008F7DF9CF8091A000877FF5CF7A
:10068000809120018F77809320010895809120012F
:100690008F7DF9CF80912001877FF5CF1F93CF9376
:1006A000DF93282F30E0F901EA5CFB4F8491F901D8
:1006B000E051FC4FD491F901E655FC4FC491CC2395
:1006C000A9F0162F81110E94E702EC2FF0E0EE0F47
:1006D000FF1FE057FC4FA591B4918FB7F894EC91B0
:1006E000111108C0D095DE23DC938FBFDF91CF912D
:1006F0001F910895DE2BF8CFCF93DF9390E0FC019C
:10070000E051FC4F249186559C4FFC018491882335
:10071000C9F090E0880F991FFC01EA58FC4FA591A1
:10072000B491FC01E057FC4FC591D49161110DC00B
:100730009FB7F8948C91209582238C9388812823ED
:1007400028839FBFDF91CF910895623051F49FB706
:10075000F8943C91822F809583238C93E8812E2BF3
:10076000EFCF8FB7F894EC912E2B2C938FBFEACF5D
:100770001F93CF93DF93182FEB0161E00E947C035E
:10078000209739F460E0812FDF91CF911F910C9475
:100790004E03CF3FD10511F461E0F5CFE12FF0E03A
:1007A000EA5CFB4FE491E150E23108F0B3C0F0E0C5
:1007B0008827E252FC4F8F4F0C94B938F003F803AE
:1007C000FD03070411048A041B0423042B043504CD
:1007D0003F044904580462048A046C0476048004CB
:1007E00084B5806884BDC7BDDF91CF911F91089506
:1007F00084B5806284BDC8BDF7CF809180008068D9
:1008000080938000D0938900C0938800EDCF8091C1
:100810008000806280938000D0938B00C0938A0018
:10082000E3CF80918000886080938000D0938D001A
:10083000C0938C00D9CF8091B00080688093B000C5
:10084000C093B300D1CF8091B00080628093B0009C
:10085000C093B400C9CF80919000806880939000CD
:10086000D0939900C0939800BFCF80919000806290
:1008700080939000D0939B00C0939A00B5CF809155
:100880009000886080939000D0939D00C0939C005E
:10089000ABCF8091A00080688093A0008091A000E1
:1008A0008F7B8093A000D093A900C093A8009CCF19
:1008B0008091A00080628093A000D093AB00C09391
:1008C000AA0092CF8091A00088608093A000D0936E
:1008D000AD00C093AC0088CF8091200180688093E8
:1008E0002001D0932901C09328017ECF809120015F
:1008F000806280932001D0932B01C0932A0174CF92
:1009000080912001886080932001D0932D01C093B5
:100910002C016ACFC038D1050CF03ECF33CFCF9336
:10092000DF93C091E20AD091E30A70E060E08A812F
:100930000E94B80370E060E08B810E94B80370E011
:1009400060E08C810E94B80370E060E08D81DF91EF
:10095000CF910C94B8033FB7F8948091F70590912C
:10096000F805A091F905B091FA0526B5A89B05C038
:100970002F3F19F00196A11DB11D3FBFBA2FA92F1E
:10098000982F8827BC01CD01620F711D811D911D1B
:1009900042E0660F771F881F991F4A95D1F7089587
:1009A0008F929F92AF92BF92CF92DF92EF92FF927F
:1009B0006B017C010E94AB044B015C01C114D104AA
:1009C000E104F104B9F00E94AB04681979098A09BD
:1009D0009B09683E73408105910580F321E0C21AAE
:1009E000D108E108F10888EE880E83E0981EA11C6A
:1009F000B11CE4CFFF90EF90DF90CF90BF90AF900D
:100A00009F908F9008952FB7F8946091F30570919F
:100A1000F4058091F5059091F6052FBF089508958E
:100A2000DB0114964D915C9115976D917C91DC01E1
:100A3000ED91FC910280F381E02D1994AF92BF9269
:100A4000CF92DF92EF92FF920F931F93CF93DF939A
:100A50006C017B018B01040F151FEB015E01AE18C9
:100A6000BF08C017D10759F06991D601ED91FC91EB
:100A70000190F081E02DC6011995892B79F7C50108
:100A8000DF91CF911F910F91FF90EF90DF90CF906A
:100A9000BF90AF900895FC01538D448D252F30E019
:100AA000842F90E0821B930B541710F0CF9608957B
:100AB00001970895FC01918D828D981761F0A28DA8
:100AC000AE0FBF2FB11D5D968C91928D9F5F9F736E
:100AD000928F90E008958FEF9FEF0895FC01918D24
:100AE000828D981731F0828DE80FF11D858D90E091
:100AF00008958FEF9FEF0895FC01918D228D892F2E
:100B000090E0805C9F4F821B91098F739927089515
:100B100084E798E00E947C0521E0892B09F420E01D
:100B2000822F0895FC01A48DA80FB92FB11DA35ADF
:100B3000BF4F2C91848D90E001968F739927848FFD
:100B4000A689B7892C93A089B1898C918370806420
:100B50008C93938D848D981306C00288F389E02DC1
:100B600080818F7D80830895EF92FF920F931F9372
:100B7000CF93DF93EC0181E0888F9B8D8C8D981350
:100B80001AC0E889F989808185FF15C09FB7F8945C
:100B9000EE89FF896083E889F989808183708064A8
:100BA00080839FBF81E090E0DF91CF911F910F91F3
:100BB000FF90EF900895F62E0B8D10E00F5F1F4F02
:100BC0000F731127E02E8C8D8E110CC00FB607FC11
:100BD000FACFE889F989808185FFF5CFCE010E949F
:100BE0009205F1CFEB8DEC0FFD2FF11DE35AFF4F76
:100BF000F0829FB7F8940B8FEA89FB89808180622D
:100C0000CFCFCF93DF93EC01888D8823B9F0AA89E9
:100C1000BB89E889F9898C9185FD03C0808186FDB7
:100C20000DC00FB607FCF7CF8C9185FFF2CF808106
:100C300085FFEDCFCE010E949205E9CFDF91CF91E4
:100C4000089580E090E0892B29F00E9488058111A9
:100C50000E94000080E090E0892B49F080E090E065
:100C6000892B29F00E94000081110E94000080E081
:100C700090E0892B49F080E090E0892B29F00E94D8
:100C8000000081110E94000080E090E0892B49F073
:100C900080E090E0892B29F00E94000081110C94E3
:100CA000000008958FB7F8948091E1058FBF0895F3
:100CB00061E0FC0184810E944E038091E005811176
:100CC0001092E00508958EBD00000DB407FEFDCF23
:100CD0008EB508958FEF0C9463060F931F93CF93F7
:100CE000DF93EC010E9403058B010E946A068F3F8F
:100CF00069F00E940305601B710B6C177D07A8F358
:100D000080E0DF91CF911F910F91089581E0F9CF9D
:100D10008CBD9DBD0895CF93DF93EC018091E005DC
:100D2000811109C081E08093E005809111099091C3
:100D300012090E94880660E08C81DF91CF910C94AB
:100D40004E038F929F92AF92BF92FF920F931F9389
:100D5000CF93DF93EC01F62E49015A018E8188234F
:100D600089F08F8198859C012F5F3F4F38872F83B3
:100D70008230924018F40E946A06F3CFCE010E949E
:100D800058061E82CE010E948B068CE291E00E94E2
:100D90006D068F2D80640E94630608E110E0D50186
:100DA000C401002E04C0B695A795979587950A941F
:100DB000D2F70E94630608501109083F8FEF180709
:100DC00071F785E9FF2021F028E087E8F2128FEF24
:100DD0000E94630610E00E946A068A8787FF04C0AB
:100DE0001F3F11F01F5FF7CFDF91CF911F910F9140
:100DF000FF90BF90AF909F908F900895AF92BF9259
:100E0000CF92DF92EF92FF920F931F93CF93DF93D6
:100E1000EC016901C801820F931F8130924050F5A7
:100E20008E81882379F088819981AA81BB8184177A
:100E30009507A607B70731F48F819885C816D9069C
:100E400008F042C0488359836A837B838B85833053
:100E500039F089E0440F551F661F771F8A95D1F737
:100E60009A01AB0161E1CE010E94A106882389F0BD
:100E700083E08D83CE010E94580680E0DF91CF9100
:100E80001F910F91FF90EF90DF90CF90BF90AF90A8
:100E900008950E9403055B010E946A068A878F3FBE
:100EA00069F40E9403056A197B096D327140A0F351
:100EB0008FE08D83CE010E945806DCCF8E3F89F4EF
:100EC00018861F8281E08E838F8198858C159D0501
:100ED00050F40E946A068F819885019698878F83C7
:100EE000F3CF8DE0E6CF6701E00EF11E0E946A06A7
:100EF000F60181936F01EE15FF05C1F78F8198858B
:100F0000080F191F18870F838985882319F0011589
:100F10001240A0F08E81882389F08F8198859C01F2
:100F20002F5F3F4F38872F838230924018F40E9402
:100F30006A06F3CFCE010E9458061E8281E09ECF42
:100F4000CF92DF92EF92FF920F93CF93DF93EC015A
:100F5000690182E1411551056105710599F08B85A3
:100F6000833039F089E0440F551F661F771F8A953B
:100F7000D1F79A01AB0168E1CE010E94A106882356
:100F800019F084E08D832DC08EEF0E9463067601F8
:100F90008EEFD81AF70181917F010E946306EC144D
:100FA000FD04C1F78FEF0E9463068FEF0E94630676
:100FB0000E946A068A878F71853071F4011116C00C
:100FC000CE010E94580681E0DF91CF910F91FF90F2
:100FD000EF90DF90CF90089581E18D83CE010E9444
:100FE0005806CE010E94580680E0EECF88E592E0D8
:100FF0000E946D06811102C085E1C4CF20E030E07F
:10100000A9016DE0CE010E94A106882311F084E1C0
:10101000B9CF0E946A068111FACFD2CF0F934091C7
:10102000E3055091E4056091E5057091E6054115F1
:1010300051056105710599F0082F2CEF35E080917D
:10104000FC079091FD070E94A007882349F01092A9
:10105000E3051092E4051092E5051092E60581E0A3
:101060000F9108950F93CF93C82F8091E2058111BE
:1010700005C0C1E08C2FCF910F91089540910002DF
:101080005091010260910202709103020C2F2CEF2B
:1010900035E08091FC079091FD070E94A007811127
:1010A00002C0C0E0E7CFCC2321F381E00E940E080C
:1010B0008823B9F31092E205DDCF8F929F92AF9211
:1010C000BF92EF92FF920F931F93CF934B015C015E
:1010D000C42F8091000290910102A0910202B09170
:1010E000030288159905AA05BB0551F181E00E940C
:1010F000320881110BC080E0CF911F910F91FF90BA
:10110000EF90BF90AF909F908F9008958CEFE82E56
:1011100085E0F82E00E012E030E020E0B501A40107
:101120008091FC079091FD070E94FE06882319F329
:101130008092000290920102A0920202B0920302F9
:101140004091E2054C2B4093E20581E0D5CF8F9290
:101150009F92AF92BF92CF92DF92EF92FF92CF9386
:1011600023E139E03093FD072093FC07882309F43D
:101170006DC040E060E070E0CB010E945D0881112D
:101180000BC080E0CF91FF90EF90DF90CF90BF90A9
:10119000AF909F908F9008958091BA078F7789F7CD
:1011A0008091C6079091C707A091C807B091C90761
:1011B00084369105A105B10520F3C090C207D090F7
:1011C000C307E090C407F090C507C114D104E1043F
:1011D000F104B9F240E0C701B6010E945D0888231E
:1011E00081F280910706909108068115924049F698
:1011F000A0910C06AA2329F260910A0670910B06B1
:101200006115710509F4BDCF20910906222309F467
:10121000B8CFA09331092093230990E080E030E01B
:10122000E1E0F0E0C82FAF01082E02C0440F551FC7
:101230000A94E2F72417350769F041E0480F019658
:101240008930910579F740932C099BCFC12CD12C83
:101250007601C0CF80932C0920911206309113069D
:1012600050E040E02115310541F4209120063091F5
:1012700021064091220650912306209324093093A1
:101280002509409326095093270946015701860EE8
:10129000971EA11CB11C8092320990923309A09232
:1012A0003409B0923509E0910D06F0910E06F093E5
:1012B0003809E0933709B0E00E945D38DC01CB01CA
:1012C000880D991DAA1DBB1D8093390990933A0979
:1012D000A0933B09B0933C0925E0EE0FFF1F2A9530
:1012E000E1F7E150FE4FEF2FFF27E6958E0F9F1F8E
:1012F000A11DB11D80932D0990932E09A0932F0954
:10130000B093300980900F0690901006B12CA12C5C
:101310008114910441F480901C0690901D06A090C9
:101320001E06B0901F06C81AD90AEA0AFB0AC80CA2
:10133000D91CEA1CFB1C04C0F694E794D794C7940C
:10134000CA95D2F7C0922809D0922909E0922A09B9
:10135000F0922B0985EFC8168FE0D806E104F1045E
:1013600028F48CE08093360981E00CCF80E125EFF2
:10137000C2162FEFD206E104F104A0F380912806F3
:1013800090912906A0912A06B0912B0680933909E5
:1013900090933A09A0933B09B0933C0980E2E2CFD5
:1013A0004F925F926F927F928F929F92AF92BF9275
:1013B000CF92DF92EF92FF920F931F93CF93DF9321
:1013C000EC01423051056105710590F480E0DF9138
:1013D000CF911F910F91FF90EF90DF90CF90BF9032
:1013E000AF909F908F907F906F905F904F900895F7
:1013F00089859A85AB85BC850196A11DB11D841791
:101400009507A607B70710F3CB88DC88ED88FE8820
:101410008F89803109F042C0BB27A72F962F852FD7
:10142000480159012A013B01C80ED91EEA1EFB1EC4
:101430008091000290910102A0910202B0910302FA
:10144000C816D906EA06FB0699F58F898031C1F5E1
:10145000B301A201552766277727440F551F445033
:101460005A4FFA01918280828091E20581608093D7
:10147000E2058A89823080F08D819E81AF81B885B6
:101480008C0D9D1DAE1DBF1D8093E3059093E4055B
:10149000A093E505B093E60581E099CFDB01CA0191
:1014A000E7E0B695A79597958795EA95D1F7B8CFD8
:1014B00040E0C701B6010E945D088111C6CF86CF0A
:1014C000B301A2014F77552766277727440F551F91
:1014D000440F551F44505A4FFA0180829182A282D4
:1014E000B382C2CF8F929F92AF92BF92CF92DF9280
:1014F000EF92FF920F931F93CF93DF93FC018185AF
:101500009285A385B4850196A11DB11D8417950709
:10151000A607B70770F480E0DF91CF911F910F917C
:10152000FF90EF90DF90CF90BF90AF909F908F9003
:10153000089583889488A588B6888789803189F53D
:10154000BB27A72F962F852FE9016A017B018F0109
:10155000BC01CD01680D791D8A1D9B1D8090000284
:1015600090900102A0900202B090030286169706A6
:10157000A806B90601F5F8018789803111F5DD2447
:10158000EE24FF24F601EE0FFF1FE450FA4F808196
:101590009181B0E0A0E088839983AA83BB8381E036
:1015A000BBCFDB01CA01C7E0B695A7959795879594
:1015B000CA95D1F7C9CF40E00E945D088111DBCF09
:1015C000AACFE894C7F8DD24EE24FF24F601EE0F3D
:1015D000FF1FEE0FFF1FE450FA4F80819181A2811F
:1015E000B381BF70D8CF4F925F926F927F92AF92CC
:1015F000BF92CF92DF92EF92FF920F931F93CF9300
:10160000DF9300D01F92CDB7DEB78C0149835A8398
:101610006B837C835901C12CD12C7601412C82E053
:10162000582E612C712C49815A816B817C819E01DD
:101630002F5F3F4FC8010E94720A882339F1F801D9
:101640008585A301920104C0220F331F441F551F3B
:101650008A95D2F7DA01C901C80ED91EEA1EFB1E0F
:1016600049815A816B817C818789803111F188EFB2
:101670009FEFAFEFBFE0481759076A077B0798F263
:10168000F501C082D182E282F38281E00F900F9057
:101690000F900F90DF91CF911F910F91FF90EF90DE
:1016A000DF90CF90BF90AF907F906F905F904F9002
:1016B000089588EF9FEFA0E0B0E0DDCFCF93DF93F8
:1016C000FC012581222321F080E0DF91CF91089554
:1016D000EC0180913609803159F582E08583178AC3
:1016E000108E118E128E8091370990913809B0E0DA
:1016F000A0E025E0880F991FAA1FBB1F2A95D1F7EC
:10170000838B948BA58BB68B8FE199E09C8F8B8F0D
:1017100081E08C831E821F82188619861A861B869A
:101720001C861D861E861F86188A198A1A8ACDCFA6
:10173000803251F683E085834091390950913A090E
:1017400060913B0970913C09478B508F618F728F7C
:101750009F012D5E3F4F8FE199E00E94F30A8111B6
:10176000D3CFB2CF8F929F92AF92BF92CF92DF92A0
:10177000EF92FF920F931F93CF93DF93EC018D8134
:1017800081110EC080E0DF91CF911F910F91FF90EA
:10179000EF90DF90CF90BF90AF909F908F90089583
:1017A0000B891C892D893E890417150726073707E1
:1017B00048F34A015B01823031F48A869B86AC860D
:1017C000BD8681E0E0CF81149104A104B10449F405
:1017D0001E821F82188619861A861B861C861D8605
:1017E000F0CF0A851B852C853D85EB8DFC8D85858D
:1017F00090E00996B901A8014150510961097109A8
:10180000082E04C076956795579547950A94D2F7A8
:1018100075016401E1E0CE1AD108E108F10804C0C5
:10182000F694E794D794C7948A95D2F7C416D50650
:10183000E606F70620F0012B022B032B11F58F890A
:10184000988DA98DBA8D8E839F83A887B9878E01C5
:101850000A5F1F4FC114D104E104F10409F4ADCFB4
:101860004E815F816885798598018B8D9C8D0E9462
:10187000720A91E0C91AD108E108F1088111EACF92
:1018800081CFC41AD50AE60AF70AE1CF3F924F92F8
:101890005F926F927F928F929F92AF92BF92CF9200
:1018A000DF92EF92FF920F931F93CF93DF93CDB709
:1018B000DEB72C970FB6F894DEBF0FBECDBF5C012C
:1018C000DC015B968D909C905C9716964D905D9098
:1018D0006D907C901997411451046104710409F4CE
:1018E00068C0BFEF4B1A5B0A6B0A7B0A312CF4010C
:1018F00081859285A385B4859C01AD012F5F3F4F03
:101900004F4F5F4F29873A874B875C87730162018E
:101910001D821E821F821886F40181859285A3850F
:10192000B4852D813E814F815885281739074A0794
:101930005B0708F056C089859A85AB85BC858C15F8
:101940009D05AE05BF0550F482E0C82ED12CE12CD8
:10195000F12C92E0492E512C612C712C9E012F5FAD
:101960003F4FB701A601C4010E94720A8823C9F142
:1019700089819A81AB81BC81892B8A2B8B2B09F1C0
:10198000260137019FEF491A590A690A790A2D8100
:101990003E814F8158852F5F3F4F4F4F5F4F2D83C3
:1019A0003E834F8358873FEFC31AD30AE30AF30AF3
:1019B000B3CFF4014080518062807380332433942C
:1019C00096CFC414D504E604F70409F70FEF1FEF10
:1019D0002FEF3FE0B701A601C4010E94D009811199
:1019E00019C080E02C960FB6F894DEBF0FBECDBFB5
:1019F000DF91CF911F910F91FF90EF90DF90CF90EB
:101A0000BF90AF909F908F907F906F905F904F901E
:101A10003F900895D50116964D915D916D917C9101
:101A20001997411551056105710539F09701860136
:101A3000C4010E94D0098823A1F2D5011696CD9247
:101A4000DD92ED92FC921997332051F0D701C60137
:101A50000196A11DB11DF40180839183A283B383FC
:101A6000F5018789908DA18DB28D892B8A2B8B2BC7
:101A700039F48481C78AD08EE18EF28E80688483A7
:101A8000F50184818062848381E0ACCF1F93CF9382
:101A9000DF93FC0125812223D1F1162FEC018481F3
:101AA00087FF2AC0668577858089918941E00E94F9
:101AB0005D08882361F1EA8980E2E89FF001112442
:101AC000E450FA4F309719F18D81823040F48B89C0
:101AD0009C89AD89BE89848F958FA68FB78F8F899A
:101AE000988D938F828F8F89988DA98DBA8DB58BA4
:101AF000A48B8C818F778C83111103C08C818F7E96
:101B00008C83812FDF91CF911F910C94320880E05C
:101B1000DF91CF911F910895FF920F931F93CF9361
:101B2000DF93EC018D81813041F090E080E0DF9126
:101B3000CF911F910F91FF9008958C8181FFF5CF78
:101B400082FD1BC00091FC071091FD07C8010E9497
:101B50008B060E946A06F82EC8010E9458068FEF75
:101B6000F812E3CF8C8185FF1BC060E0CE010E949C
:101B7000460D8C818F7D8C83D8CF4B895C896D8994
:101B80007E898A859B85AC85BD8584179507A607C8
:101B9000B707C1F2CE010E94B20B8111D3CFC5CFDE
:101BA0004091E3055091E4056091E5057091E605EB
:101BB000452B462B472B21F080E00E940E08B5CF25
:101BC00080618C832A853B85317080E092E0821BA6
:101BD000930BADCFCF93DF93EC0161E00E94460DF4
:101BE000882311F01D8281E0DF91CF9108952F921B
:101BF0003F924F925F926F927F928F929F92AF929D
:101C0000BF92CF92DF92EF92FF920F931F93CF93E9
:101C1000DF9300D01F921F92CDB7DEB77C015B012E
:101C2000342E5D83DC0115968C911597813009F077
:101C3000CEC014962C9021FECAC022FCB4C0C32C86
:101C4000DD8022947FE027222094B22DB1702B2ECC
:101C5000D7011A964D915D916D917C911D97C1149C
:101C6000D10409F428C15B968D919C915C97FC018D
:101C700074807A948A019B0169E0369527951795BF
:101C800007956A95D1F770228A011170711020C0F2
:101C900001151105E9F416964D915D916D917C91B8
:101CA0001997411551056105710509F099C05796BD
:101CB0008D919D910D90BC91A02D0097A105B1052E
:101CC00009F0B0C0C7010E94460C882309F47FC008
:101CD00080E092E0801B910B46018C159D0508F475
:101CE0004C01D7015B964D915C915C9716968D9156
:101CF0009D910D90BC91A02D0297A109B109FA0107
:101D0000258504C0880F991FAA1FBB1F2A95D2F7EB
:101D10004685578560897189840F951FA61FB71F57
:101D20009C01AD01270D311D411D511D29013A01B5
:101D3000811432E0930609F07BC0809100029091FB
:101D40000102A0910202B091030284159505A60537
:101D5000B70559F48FEF9FEFDC0180930002909359
:101D60000102A0930202B0930302022D9501B30178
:101D7000A2018091FC079091FD070E94A007882393
:101D800031F19EEFB91AC818D908F70182859385F9
:101D9000A485B585880D991DA11DB11D82879387E6
:101DA000A487B58755CFF70143895489658976891A
:101DB00082859385A485B585481759076A077B07EF
:101DC00009F43DCFC7010E94B20B811138CF81E0E9
:101DD00090E0D70113969C938E93129780E007C0F2
:101DE0009E012F5F3F4F0E94720A811102C090E056
:101DF00079C089819A81AB81BC81F701238D348DB3
:101E0000F901278948EF5FEF60E070E0203121F0B1
:101E100048EF5FEF6FEF7FE084179507A607B707DE
:101E200008F050CFF70186839783A087B18750CF02
:101E30000115110599F5D7011A964D915D916D9196
:101E40007C911D9753968D919D910D90BC91A02DE5
:101E5000481759076A077B0708F181E00E9432089A
:101E6000882309F4B4CF409200025092010260929C
:101E70000202709203028091E20581608093E20584
:101E8000C80184509A4FD5019C01280D391DFC01D1
:101E90002E173F0759F04D914193FACF41E0C3010E
:101EA000B2010E945D088111EBCF91CF281B390B45
:101EB000A20EB31E68CFF70183899489A589B689DC
:101EC00084179507A607B70738F48481438B548B92
:101ED000658B768B80688483F701848183FD1AC0CB
:101EE000832D9D810F900F900F900F900F90DF9199
:101EF000CF911F910F91FF90EF90DF90CF90BF9007
:101F0000AF909F908F907F906F905F904F903F9099
:101F10002F90089561E0C7010E94460D882309F4BF
:101F200056CFDECFCF93DF931F92CDB7DEB7698355
:101F300041E050E0BE016F5F7F4F0E94F70D0F90B0
:101F4000DF91CF910895FC01DB0112968D919C9158
:101F500013979383828383E592E091838083149621
:101F60008C911497848315968C911597858316967A
:101F70004D915D916D917C91199746835783608750
:101F800071871A964D915D916D917C911D97428755
:101F90005387648775871E964D915D916D917C91F5
:101FA000519746875787608B718B52968C915297C9
:101FB000828B53964D915D916D917C915697438B99
:101FC000548B658B768B57964D915D916D917C917D
:101FD0005A97478B508F618F728F5B968D919C9132
:101FE000948F838F0895FC01818D928D009719F055
:101FF00061E00C94460D0895DC015996ED91FC9139
:102000003097B9F083899489A589B689428553852B
:1020100064857585841B950BA60BB70B811520E88D
:102020009207A105B10538F08FEF9FE7A0E0B0E07F
:10203000089590E080E00895DC0159968D919C917F
:10204000009739F0DC01ED91FC910480F581E02DE1
:10205000199490E080E00895CF93DF93EC01E98D2F
:10206000FA8D309749F481E090E09B838A8390E079
:1020700080E0DF91CF91089513821282898D9A8D2D
:102080000E94F70DE98DFA8D22813381232B59F7B8
:10209000F0CFCF93DF931F92CDB7DEB76983DC011A
:1020A000ED91FC910280F381E02D41E050E0BE0112
:1020B0006F5F7F4F19950F90DF91CF9108952F9209
:1020C0003F924F925F926F927F928F929F92AF92C8
:1020D000BF92CF92DF92EF92FF920F931F93CF9315
:1020E000DF9300D0CDB7DEB7FC018581811118C028
:1020F0008FEF9FEF0F900F900F90DF91CF911F9177
:102100000F91FF90EF90DF90CF90BF90AF909F9096
:102110008F907F906F905F904F903F902F90089599
:10212000848180FFE5CF43895489658976898285DA
:102130009385A485B585312C212C481759076A074A
:102140007B0719F022242394312C6F012101CE0149
:1021500001963C01DF011696BB83AA83411451040A
:1021600009F4C5C0F60142855385648575854A0129
:10217000F1E09F22D6015B968D919C915C978A013C
:102180009B01E9E03695279517950795EA95D1F7D4
:102190001596EC91E230E9F5FC01628D738D848D2A
:1021A000958D600F711F821F931FA12C22E0B22E0C
:1021B000A818B9084A145B0408F45201F6012481F6
:1021C00026FD04C0A114F2E0BF0671F400910002E4
:1021D00010910102209102023091030206171707A5
:1021E0002807390709F05EC040E00E945D08882397
:1021F00009F47ECFC40184509A4FD3019C012A0D6B
:102200003B1DFC012E173F0709F46CC041914D9313
:10221000F9CFDC011496BC90BA94B02281149104D9
:1022200079F4B1100DC0452B462B472B69F5F6010B
:102230008789908DA18DB28D86839783A087B18782
:10224000D6015B96ED91FC915C9716966D917D9110
:102250008D919C9119976250710981099109258589
:1022600004C0660F771F881F991F2A95D2F706852D
:10227000178520893189600F711F821F931F6B0D95
:10228000711D811D911D91CFD60116964D915D91C5
:102290006D917C9119972A813B810E94720A81116C
:1022A000CFCF26CF730185019401AB01BC01809192
:1022B000FC079091FD070E94FE06882309F418CFC1
:1022C0006A0C7B1CF60182859385A485B5858A0DF1
:1022D0009B1DA11DB11D82879387A487B5874A18CE
:1022E0005B083CCF281B390B620E731EEBCF2A9480
:1022F000232809F0FDCE898190E0FCCEFC01818D80
:10230000928D009711F00C945F108FEF9FEF08955E
:102310000F931F93CF93DF93EC01898D9A8D10E07B
:1023200000E0009799F00E945F108C010F3F1007AA
:1023300069F0898D9A8DFC01428553856485758588
:1023400041505109610971090E94B20BC801DF9126
:10235000CF911F910F910895CF93DF93DC0126E079
:10236000629FA00DB11D112490965C934E935F97D0
:1023700021E091962C939197FC01E359FF4F019036
:10238000F081E02DEC01C459DF4F2881222341F078
:10239000309719F0DC01662329F0DF91CF91089581
:1023A0003097D9F35C968C91DF91CF911994CF92AD
:1023B000DF92EF92FF920F931F93CF93DF93EC0185
:1023C000162F042FFC0186E0689FE00DF11D1124FB
:1023D00011A2878D90A18130910509F180F08230A2
:1023E000910509F443C0039709F445C0DF91CF91EB
:1023F0001F910F91FF90EF90DF90CF9008954423AD
:10240000A9F341E050E0CE010E94AC110E94030507
:10241000C85ADF4F688379838A839B83E7CF0E9402
:102420000305FE01E85AFF4FC080D180E280F380AF
:10243000AB01BC014C195D096E097F097296808160
:102440009181B0E0A0E084179507A607B70770F464
:1024500042E050E0612FCE01DF91CF911F910F91AB
:10246000FF90EF90DF90CF900C94AC1143E050E0E0
:102470000111BCCFEFCF50E040E0ECCF2F923F9264
:102480004F925F926F927F928F929F92AF92BF9284
:10249000CF92DF92EF92FF920F931F93CF93DF9330
:1024A000CDB7DEB72C970FB6F894DEBF0FBECDBF09
:1024B0009C878B8784599F4F9A83898381E0A98168
:1024C000BA818C930E940305EB85FC85E45AFF4F8B
:1024D000FC83EB830081118122813381AB01BC013C
:1024E000401B510B620B730BEB85FC85E859FF4FCA
:1024F00080819181B0E0A0E084179507A607B70717
:1025000008F081C110E0CB84DC84F6E6CF0ED11C4C
:10251000EB84FC8422E6E20EF11CD6018C911817A4
:10252000A0F4F701A081B181A10FB11DEB85FC855D
:1025300080819181FC012081318142E06C918B8509
:102540009C85F90119951F5FE8CF912C2B843C8461
:10255000F7E62F0E311CAB84BC8424E6A20EB11C1E
:10256000412C512C320143944B855C854E595F4F71
:102570005A874987D1018C91981608F08BC0E92CB5
:10258000F12CF501A081B181AE0DBF1DEB85FC855D
:1025900080819181FC012081318141E06C918B85AA
:1025A0009C85F9011995F501A081B181AE0DBF1D82
:1025B000EB85FC8580819181FC012281338140E0A3
:1025C0006C918B859C85F9011995D301C201092C69
:1025D00004C0880F991FAA1FBB1F0A94D2F79E83BD
:1025E0008D839C012095309538872F83812CAB8576
:1025F000BC85ED91FC91D6018C91881648F5082D8B
:1026000010E0A985BA858D919C91DC01A00FB11FC6
:102610000480F581E02D6C918B859C851995000FC8
:10262000111FEB85FC85E00FF11F892B51F480858C
:1026300091852D813E81822B932B91878087839476
:10264000D6CF808591854F81588584239523F5CFFA
:10265000D5018D919C91DC01AE0DBF1D0280F381EF
:10266000E02D41E06C918B859C851995F501808169
:102670009181E80EF91EAB85BC85ED91FC9101902E
:10268000F081E02D40E0D7016C918B859C851995F8
:10269000939470CFEB84FC84C701CC9647012FEF55
:1026A0003FEFF401478D50A1452B21F4148E368F56
:1026B000258F11A2F6E08F0E911C8816990689F7D6
:1026C000712CAB84BC8420E6A20EB11C96E0592E7E
:1026D000D6018C91781608F058C0612C072D10E0B7
:1026E0000C5F1F4F000F111FEB85FC850E0F1F1F86
:1026F000D1018C91681608F046C0F80140815181E3
:10270000062C02C0569547950A94E2F7789EC001C0
:102710001124860D911DEB85FC8560E0258D368D9D
:102720008217930709F474C06F5F36966A30B1F769
:1027300040FF27C0EB85FC8570E060E0248D21110F
:102740001AC0D501ED91FC91E80FF91F2081569E2A
:10275000F001579EF00D11244B855C85E40FF51FA9
:10276000248F968F858F10A2178E41E08B859C85D4
:102770000E94D71106C06F5F7F4F36966A30710591
:10278000E9F66394B5CF7394A3CF10E0D701919687
:102790008C918111182FB6E0EB0EF11C8E149F0462
:1027A000A9F70E940305EB81FC816083718382831A
:1027B0009383112341F1AB85BC8591968C919197C0
:1027C000882309F15F968D919C9190970197D9F498
:1027D0005C968C912C960FB6F894DEBF0FBECDBFE1
:1027E000DF91CF911F910F91FF90EF90DF90CF90ED
:1027F000BF90AF909F908F907F906F905F904F9021
:102800003F902F900895E981FA81108280E0E2CF15
:102810004170ACCFCF93DF9370E0FB01EA5CFB4FDC
:102820008491FB01E051FC4FD49166557C4FFB0134
:10283000C491CC23A1F081110E94E702EC2FF0E0BB
:10284000EE0FFF1FEB5EFC4FA591B491EC91ED23D1
:1028500081E090E009F480E0DF91CF91089580E07D
:1028600090E0FACF862F642F0C944E03862F642FAE
:102870000C947C038F929F92AF92BF92CF92DF9283
:10288000EF92FF92CF93DF93EC016A017B0180E826
:10289000C81A83E4D80A8DE6E80A88E3F80A8CE3CC
:1028A000882E912CA12CB12CC701B601A501940151
:1028B0000E9468386D83CA01B901A50194010E9484
:1028C00068386C83C701B60120E13EE040E050E08B
:1028D0000E946838CA01B90128E130E040E050E0C8
:1028E0000E9468386B83C701B60120E831E541E0FA
:1028F00050E00E946838188263E97EEF8881982F43
:10290000937041E050E011F050E040E0FA01E359EB
:10291000FE4F2E173F0740F0FB01E41BF50B2E0F77
:102920003F1F8F5F8883EACF81E0898389818C3064
:10293000A0F4482F4150550BFA01E65FFC4FE4919B
:10294000911103C0823009F4EF5FF0E02E173F07CA
:1029500020F02E1B3F0B8F5FE8CF2F5F2A83DF9184
:10296000CF91FF90EF90DF90CF90BF90AF909F906E
:102970008F900895DC0150E0EAE0F3E081E08617F3
:1029800030F49491490F511D8F5F3196F8CF633029
:1029900038F0CD0183709927892B11F44F5F5F4F79
:1029A0009D012D5F3F4F36952795369527956DE60E
:1029B00071E0A69FC001A79F900DB69F900D1124B6
:1029C0000197820F931F840F951F08959F92AF92D6
:1029D000BF92CF92DF92EF92FF920F931F93CF930C
:1029E000DF938C01CBE8D2E04AE0D42E57E0E52E0D
:1029F000F12C62E3C62E70E3B72EEDE6AE2EFDE4B9
:102A00009F2E8881883661F48981883649F4F801DF
:102A100083816D2D0E949938805D8883905D9983B4
:102A200088818D3661F489818D3649F4F80184817D
:102A30006D2D0E949938805D8883905D998388818F
:102A4000833761F48981833749F4F80185816D2DDD
:102A50000E949938805D8883905D99838881843451
:102A600019F58981843401F58A81F801843409F0EB
:102A700071C080814281618190E00E94BA14069603
:102A8000B7010E94A538FC01EE0FFF1F8E0F9F1F9C
:102A90008E549B4FFC01249128833196E491E98365
:102AA0000296FC0184918A8388818D34F1F48981B6
:102AB0008D34D9F49A81F80181819D3409F053C095
:102AC000282F2150330BF901C901880F991F8E0F50
:102AD0009F1F83579B4FFC01249128833196E491DB
:102AE000E983FC013296E491EA8388818935B9F45F
:102AF00089818935A1F49A81F80180819935D9F5C8
:102B00009B819935C1F5C882B9826D2D0E94993893
:102B1000292F0E949938905D9A83205D2B838881AC
:102B20008134A1F58981803509F499822196F2E0FA
:102B3000C239DF0709F065CF8BE892E0DF91CF91D2
:102B40001F910F91FF90EF90DF90CF90BF90AF90CB
:102B50009F90089582816D2D0E949938805D8883B1
:102B6000905D9983A1CF6D2D0E949938805D8883F7
:102B7000905D9983BACF6D2D0E949938292F0E94BC
:102B80009938905D9883205D2983C9CF813671F68D
:102B90008981803759F6A982C9CFEF92FF920F93AE
:102BA0001F93CF93DF93EC0188814A81698190E084
:102BB0000E94BA149C01A8E1B0E00E948A382B81DF
:102BC0007B018C01E20EF11C011D111DA801970172
:102BD000ACE3B0E00E945D382C817B018C01E20EF9
:102BE000F11C011D111DA80197010E945D38AB0168
:102BF000BC019D81892F90E0B0E0A0E080589C4B03
:102C0000A249B74C8A019B01080F191F2A1F3B1FBD
:102C1000C901B801DF91CF911F910F91FF90EF9003
:102C200008952091BD05260F3327331F213231052A
:102C3000ECF420914A08FC0190E080E0243069F037
:102C400082E00895A091BD052191AC0143565A4FF1
:102C5000A40FB52FB11D2C930196861798F3809180
:102C6000BD05680F6093BD0580E0089581E008957B
:102C700010924A0881E0809349081092240861E08C
:102C800084E10E944E0361E085E10E944E03E9EB7E
:102C9000F0E080818E7F808380818D7F808388E4D7
:102CA0008093B80085E48093BC00089510920308D7
:102CB0001092020810925108109273080E94381660
:102CC00089E992E090930108809300088AE992E0F4
:102CD0009093FF078093FE070895CF93DF9391E0D1
:102CE00090939C058823B9F0C091B800D091BA00A8
:102CF0008091BC008A7B8093BC0060E084E10E94EC
:102D00004E0360E085E10E944E030E943816D09386
:102D1000BA00C093B800DF91CF9108958F929F922F
:102D2000AF92BF92CF92DF92EF92FF920F931F93D9
:102D3000CF93DF93D0917308D13208F0D7C0182F0A
:102D4000C09172080E94AB046B017C0180914A081B
:102D500081116BC082E080934A08109349088FEF7D
:102D60008093480810924708D0934608A2E5B8E03F
:102D7000E6E2F8E080E0D81391C010922508809137
:102D80002508CC0FC82BC0932508809124088130DA
:102D900009F088C0109224080E94AB046B017C01EA
:102DA000809125088093BB0080914C0890914D083C
:102DB000A0914E08B0914F08892B8A2B8B2BA1F044
:102DC0000E94AB0400914C0810914D0820914E08D0
:102DD00030914F086C197D098E099F090617170756
:102DE0002807390708F442C08091BC0083FDD8CF82
:102DF00085EC8093BC000E94AB046B017C01809148
:102E00004A08823009F450C0809148088F3F09F485
:102E10006FC080914808803209F46CC080914808E6
:102E2000803309F469C084E026C080914C089091F9
:102E30004D08A0914E08B0914F08892B8A2B8B2BFF
:102E400009F484CF0E94AB0480904C0890904D0808
:102E5000A0904E08B0904F086C197D098E099F090B
:102E600086169706A806B90608F070CF80914B0821
:102E70000E946D1685E0109251081092730810920E
:102E80005008DF91CF911F910F91FF90EF90DF904D
:102E9000CF90BF90AF909F908F9008959D91919308
:102EA0008F5F69CF85EEA5CF80914C0890914D083A
:102EB000A0914E08B0914F08892B8A2B8B2B09F4D7
:102EC0009ECF0E94AB0400914C0810914D082091B8
:102ED0004E0830914F086C197D098E099F0906171D
:102EE00017072807390708F08ACFC0CF81E0C3CF82
:102EF00080E0C1CF82E0BFCF83E0BDCFCF93DF932F
:102F0000EC018B818823A1F0888191E09093500897
:102F100080937208109251081092730881E00E9409
:102F20008E1691E0811190E0892FDF91CF91089565
:102F30000E94561681E08B83CE010E947E17982F47
:102F40008111E2CFF1CF0895E0910308809102084A
:102F5000E81730F4F0E0EC5FF74F808190E00895DF
:102F60008FEF9FEF089590910308809102082FEF53
:102F70003FEF981748F4E92FF0E0EC5FF74F20811E
:102F800030E09F5F90930308C90108958091020883
:102F900090910308891B990B0895CF92DF92EF92CD
:102FA000FF920F931F93CF93DF937C01CB018A0194
:102FB00020915008222389F0EB016B01C40ED51E2D
:102FC000CC15DD0569F06991D701ED91FC91019077
:102FD000F081E02DC7011995F3CF642F0E941116DF
:102FE000C801DF91CF911F910F91FF90EF90DF907B
:102FF000CF900895CF93DF931F92CDB7DEB769834B
:10300000209150082223F9F020917308203258F0C3
:1030100021E030E0FC013383228390E080E00F90D8
:10302000DF91CF91089580915108E82FF0E0EE5A9A
:10303000F74F998190838F5F809351088093730835
:1030400081E090E0ECCF61E0CE0101960E94111684
:10305000F7CFFC01248131E03093500820937208AF
:1030600010925108109273088485682B8CE599E0C2
:103070000E94FA1781E00C948E1690E080E008958B
:103080001F93CF93DF93DC011496ED91FC91E4172D
:10309000F50710F490E01FC0122FEA01FC018181B6
:1030A0009281208131E03093500820937208109271
:1030B000510810927308DC01ED91FC910280F381BC
:1030C000E02D1995C817D90729F7812F0E948E1670
:1030D00091E08111DFCF892FDF91CF911F9108956A
:1030E0002F923F924F925F926F927F928F929F9218
:1030F000AF92BF92CF92DF92EF92FF920F931F9306
:10310000CF93DF935C011B016A01F12CE12CD50107
:1031100014968D919C9186010E191F0980179107B5
:1031200008F48C01F501D0810E94AB042B013C0115
:1031300080914A08811172C0C02F013208F0C0E2AC
:10314000F1E0F0934A0821E0C601801B910BE816DC
:10315000F90608F420E0209349088FEF809348088F
:10316000109247088C0F80934608A1E0A093250891
:1031700080912508DD0FD82BD09325088091240855
:10318000813009F090C0109224080E94AB042B01FA
:103190003C01809125088093BB0080914C08909160
:1031A0004D08A0914E08B0914F08892B8A2B8B2B8C
:1031B000A1F00E94AB0420914C0830914D08409141
:1031C0004E0850914F08641975098609970926170A
:1031D00037074807590708F442C08091BC0083FDB7
:1031E000D8CFB5ECB093BC000E94AB042B013C01DE
:1031F00080914A08813009F45AC0809147088C17A1
:1032000010F4C0914708A6E2B8E0E4E0F8E080E0FE
:103210008C1751F19D9191938F5FFACF80914C085B
:1032200090914D08A0914E08B0914F08892B8A2BA0
:103230008B2B09F47DCF0E94AB0420914C08309178
:103240004D0840914E0850914F0864197509860940
:103250009709261737074807590708F069CF809163
:103260004B080E946D16C0E010920308C09302083C
:10327000C017110609F057C041018E0C9F1CE401D4
:10328000CE01881999098017910798F5D5011196F3
:103290008D919C91DC01ED91FC910284F385E02DF0
:1032A00019958993EDCFE5EEE093BC009DCF809119
:1032B0004C0890914D08A0914E08B0914F08892B71
:1032C0008A2B8B2B09F494CF0E94AB0420914C08DD
:1032D00030914D0840914E0850914F08641975097E
:1032E00086099709261737074807590708F080CF3E
:1032F000B6CFE00EF11EEC14FD0408F408CF81E017
:10330000DF91CF911F910F91FF90EF90DF90CF90C1
:10331000BF90AF909F908F907F906F905F904F90F5
:103320003F902F90089580E0EBCF0F931F93CF93A2
:10333000DF931F921F92CDB7DEB78FE08A830DE136
:103340001CE021E041E050E0BE016E5F7F4FF801DC
:10335000808191810E94401841E050E0BE016F5F82
:103360007F4FF801808191810E94701889810F90B0
:103370000F90DF91CF911F910F910895EF92FF92DF
:103380000F931F93CF93DF9300D000D01F92CDB740
:10339000DEB78C011982DB01ED90FC9020E041E06A
:1033A00050E0BE016F5F7F4FC7010E944018882325
:1033B00041F047E050E0BE016F5F7F4FC7010E94C0
:1033C0007018E981EF77FA81FB805D814E814F773C
:1033D0008F81282F30E094E0359527959A95E1F775
:1033E000922F990F990F291B220F280FD8012C9388
:1033F000842F90E024E0959587952A95E1F7982F02
:10340000990F990F891B880F840F11968C93119730
:10341000652F70E034E0759567953A95E1F7862F52
:10342000880F880F681B660F650F12966C931297B2
:103430004F2D50E064E0559547956A95E1F7842F4C
:10344000880F880F481B440F4F0D13964C9313970A
:103450002F2F30E074E0359527957A95E1F7822F8C
:10346000880F880F281B220F2F0F14962C93149768
:103470008E2F90E0F4E095958795FA95E1F7982FD7
:10348000990F990F891B880F8E0F15968C93C80181
:1034900027960FB6F894DEBF0FBECDBFDF91CF9158
:1034A0001F910F91FF90EF900895CF92DF92EF92CE
:1034B000FF921F93CF93DF93EC0180E2689FF001AE
:1034C0001124E450FA4F9385917161F0842F827436
:1034D00049F080E0DF91CF911F91FF90EF90DF9056
:1034E000CF900895142F6A8B809100029091010271
:1034F000A0910202B09103028E879F87A88BB98B9F
:10350000C488D588F12CE12C7601DD24CC24CF8A27
:10351000D88EE98EFA8E828D938DB0E0A0E0AC015A
:10352000BD014C295D296E297F294F8B588F698FEA
:103530007A8F83858871B1F4848D958DA68DB78D32
:103540008B8B9C8BAD8BBE8B81E08D831F701C831E
:103550001E821F82188619861A861B861C861D8667
:1035600081E0B8CF803109F0B4CF9E012D5E3F4F8E
:103570008B8D9C8D0E94F30A882309F4AACF84E0E6
:10358000E4CF0F931F93CF938C01C62F0E9429186D
:103590006C2F6460C8010E9429186C2F6B7FC801D2
:1035A0000E94291883EC90E00197F1F7CF911F91C9
:1035B0000F9108950F931F93CF93DF938C01D62F14
:1035C000C42F607F642B0E94C11A80E1D89FB00194
:1035D00011246C2BC801DF91CF911F910F910C9496
:1035E000C11ACF93DF9300D000D01F921F92CDB7A6
:1035F000DEB728E0E2E2F2E0DE01119601900D92E2
:103600002A95E1F7FC012085241708F44FEF50E0DC
:10361000440F551F21E030E02C0F3D1F420F531F78
:10362000FA012081620F606840E028960FB6F89496
:10363000DEBF0FBECDBFDF91CF910C94DA1A0F938E
:103640001F93CF93DF93EC018B01642F422F8C816A
:103650009D810E94F11AB8018C819D81DF91CF91EB
:103660001F910F910C941005CF93DF93EC0140E074
:1036700061E00E94DA1A8BE39FE10197F1F78985F7
:10368000882339F040E060E0CE01DF91CF910C94C7
:10369000F11ADF91CF910895FC01848195810C94FA
:1036A000341B41E00E94DA1A81E090E008950F9304
:1036B0001F93CF93DF938C01FC0180819181009750
:1036C00011F00E94CF3986E090E00E943339EC017E
:1036D00088E688838CE599E09A8389831B8280E25F
:1036E00090E09D838C83F801D183C0830E9456169D
:1036F00081E08B83CE01DF91CF911F910F910C94CC
:103700007E17CF93DF93EC0188819981009711F0A8
:103710000E94CF39198218821D821C821B821A8254
:10372000DF91CF910895FC0180819181009711F084
:103730000C94CF390895FB0101900020E9F73197EF
:10374000AF01461B570BDC01ED91FC910280F38128
:10375000E02D19940F931F93CF93DF93EC010E94F8
:103760009B1B8C0164E972E0CE010E949B1B800FC1
:10377000911FDF91CF911F910F9108950F931F9388
:10378000CF93DF93EC010E9410058C0164E972E095
:10379000CE010E949B1B800F911FDF91CF911F9143
:1037A0000F9108950F931F93CF93DF93EC018881BE
:1037B0009981009759F02A813B812617370730F00D
:1037C00081E0DF91CF911F910F9108958B016F5F81
:1037D0007F4F0E94583A009759F0998388831B8342
:1037E0000A832C813D81232B59F7FC011082E8CFFD
:1037F00080E0E7CFEF92FF920F931F93CF93DF9379
:103800006115710541F480E0DF91CF911F910F9117
:10381000FF90EF90089541155105B1F07B01EC0147
:103820000C811D81040F151FB8010E94D21B882333
:1038300051F3288139818C819D81B701820F931FBB
:103840000E945A3B1D830C8381E0DECFCF93DF9330
:10385000EC016115710539F4CE010E94811BCE0186
:10386000DF91CF910895FB0101900020E9F7319796
:10387000AF01461B570B0E94FA1B882369F3EFCF59
:10388000CF93DF93EC01FB0144815581608171810D
:103890000E94FA1B811103C0CE010E94811BCE0140
:1038A000DF91CF910895EF92FF920F931F93CF93E3
:1038B000DF93EC017B018A01BA010E94D21B8111C6
:1038C0000BC0CE010E94811BCE01DF91CF911F91D1
:1038D0000F91FF90EF9008951D830C83B7018881AD
:1038E00099810E945A3BF0CFFB0101900020E9F73B
:1038F0003197AF01461B570B0C94531C0F931F932A
:10390000CF93DF9300D000D000D0CDB7DEB78C01CD
:10391000862FF8011182108213821282158214827E
:103920004AE0BE016F5F7F4F90E00E94B234BE015B
:103930006F5F7F4FC8010E94741C29960FB6F894E0
:10394000DEBF0FBECDBFDF91CF911F910F910895C4
:103950000F931F93CF93DF93CDB7DEB762970FB668
:10396000F894DEBF0FBECDBF8C01CB01F8011182F0
:10397000108213821282158214824AE0BE016F5FA8
:103980007F4F0E949234BE016F5F7F4FC8010E943B
:10399000741C62960FB6F894DEBF0FBECDBFDF91E8
:1039A000CF911F910F910895CF93DF93EC01611593
:1039B000710531F00E94741CCE01DF91CF91089502
:1039C0000E94811BF9CFCF93DF93EC01FB01861797
:1039D000970749F0608171816115710541F044815B
:1039E00055810E94531CCE01DF91CF9108950E9412
:1039F000811BF9CFFC011182108213821282158281
:103A000014820C94E31CEF92FF920F931F93CF93B9
:103A1000DF93CDB7DEB7A3970FB6F894DEBF0FBE26
:103A2000CDBF7C016DE17CE0CE0101960E94BE1904
:103A300086E0FE013196AFE1BCE001900D928A95DF
:103A4000E1F70DE11CE0F801828190E01B8A1A8AFF
:103A50001D8A1C8A1F8A1E8A4AE0BE016F5F7F4F43
:103A60008053984F0E94B234BE016F5F7F4FCE01EA
:103A700042960E94741CF8016381CE0101960E9457
:103A80007E1CF8016481CE014E960E947E1CBE0110
:103A9000625E7F4FCE0148960E94FA1C67E972E091
:103AA000CE0148960E94261CBE016F5F7F4F0E9488
:103AB000401C67E972E00E94261CBE016E5E7F4FCB
:103AC0000E94401CBC01C7010E94FA1CCE0148960E
:103AD0000E94931BCE014E960E94931BCE0101962D
:103AE0000E94931BCE0142960E94931BC701A3968E
:103AF0000FB6F894DEBF0FBECDBFDF91CF911F91FF
:103B00000F91FF90EF900895EF92FF920F931F9304
:103B1000CF93DF93CDB7DEB768970FB6F894DEBFCB
:103B20000FBECDBF7C016DE17CE0CE0101960E940D
:103B3000BE1986E0FE013196AFE1BCE001900D9226
:103B40008A95E1F70DE11CE0F8016781CE0101964D
:103B50000E947E1CF8016681CE0107960E947E1CA1
:103B6000F8016581CE0143960E947E1CBE016D5E08
:103B70007F4FCE010D960E94FA1C6BE875E0CE01D6
:103B80000D960E94261CBE01695F7F4F0E94401C5B
:103B90006BE875E00E94261CBE016F5F7F4F0E949C
:103BA000401CBC01C7010E94FA1CCE010D960E9468
:103BB000931BCE0143960E94931BCE0107960E9451
:103BC000931BCE0101960E94931BC70168960FB606
:103BD000F894DEBF0FBECDBFDF91CF911F910F9143
:103BE000FF90EF900895FC011182108213821282DF
:103BF000158214826115710551F0FB0101900020BE
:103C0000E9F73197AF01461B570B0C94531C0895ED
:103C1000CF92DF92EF92FF920F931F93CF93DF9398
:103C2000CDB7DEB72F970FB6F894DEBF0FBECDBF6E
:103C30000091250C1091260CC8010E944C1B10927B
:103C4000FB0583E08093FB0980912A0290912B026F
:103C5000A0912C028D879E87AF8789E992E09A8395
:103C6000898388EA92E09C838B8386EB92E09E8333
:103C70008D8318861F821A8619861C861B8660E132
:103C800070E0CE0107960E94D21B811163C0CE0165
:103C900007960E94811B20E040E0BE01695F7F4FD4
:103CA000C8010E941F1BCE0107960E94931B009122
:103CB000250C1091260C69E972E0CE0107960E944E
:103CC000F31D21E040E0BE01695F7F4FC8010E9403
:103CD0001F1BCE0107960E94931BEE24E394F12C48
:103CE0008CEF99E00E943E12082F882309F48FC0C0
:103CF000C090250CD090260CC6010E944C1B66EC8F
:103D000072E0CE0107960E94F31D20E040E0BE0164
:103D1000695F7F4FC6010E941F1BCE0107960E945C
:103D2000931B013411F58091250C9091260C0E9473
:103D30004C1BE092FB052F960FB6F894DEBF0FBE2A
:103D4000CDBFDF91CF911F910F91FF90EF90DF904A
:103D5000CF90089580E190E09C878B876CE774E0BA
:103D60008F8198850E948B3496CF10E080E09091EF
:103D7000FB09191788F5C12ED12CEDE0F0E0EC0F0E
:103D8000FD1FEC0DFD1D9081091324C0E090250C52
:103D9000F090260CF601EE0FFF1F81E090E08C0FF3
:103DA0009D1FE80FF91F60817181CE0107960E9467
:103DB000F31D21E040E0BE01695F7F4FC7010E9413
:103DC0001F1BCE0107960E94931B76019FEFE91AF5
:103DD000F90A81E01F5FCBCF811119C00091250C3A
:103DE0001091260C69E972E0CE0107960E94F31D3E
:103DF00021E040E0BE01695F7F4FC8010E941F1BA8
:103E0000CE0107960E94931BEE24E394F12C62E30B
:103E100070E080E090E00E94D00462CF6F927F92C9
:103E20008F929F92AF92BF92CF92DF92EF92FF92CA
:103E30000F931F93CF93DF93CDB7DEB72C970FB6B9
:103E4000F894DEBF0FBECDBF8C017B016A0166E92D
:103E500072E00E94F31D67ED72E0CE0101960E94B0
:103E6000F31DB601CE0101960E94401C67ED72E081
:103E70000E94261CBC01CE0107960E94FA1CCE01AE
:103E800001960E94931B6B847C84F701828093804F
:103E9000A080B1808A149B0428F0982D892D4501BB
:103EA000A92EB82E66E972E0CE0101960E94F31D9C
:103EB000CB84DC848C149D04C0F4AC14BD0408F4E1
:103EC0006501EF81F885EC0DFD1DB08010826F81DA
:103ED0007885680D791DCE0101960E94D41C8F81D2
:103EE0009885C80ED91EF601B082F80180819181B3
:103EF000009709F44BC069817A816115710509F455
:103F000043C0428153812D813E8142175307E0F126
:103F10000E945A3B8D819E81F801958384831E8285
:103F20001D82CE0101960E94931BF7018081918131
:103F3000019691838083228133812F5F3F4F3383AA
:103F400022836816790634F480E190E091838083BF
:103F500013821282CE0107960E94931BC8012C96F1
:103F60000FB6F894DEBF0FBECDBFDF91CF911F918A
:103F70000F91FF90EF90DF90CF90BF90AF909F9008
:103F80008F907F906F9008950E94CF3989819A8198
:103F9000F801918380838B819C81938382838D81BF
:103FA0009E81958384831A8219821C821B82B7CFDB
:103FB0003F924F925F926F927F928F929F92AF92B9
:103FC000BF92CF92DF92EF92FF920F931F93CF9306
:103FD000DF9300D000D000D01F921F92CDB7DEB784
:103FE0007C01FE013196CE010C966F0130E23193D7
:103FF000E817F907E1F7DA0130E087E09D91B92E83
:10400000992309F43CC09E32F1F48A30C9F480E06F
:104010002B960FB6F894DEBF0FBECDBFDF91CF91C8
:104020001F910F91FF90EF90DF90CF90BF90AF90D6
:104030009F908F907F906F905F904F903F900895EA
:1040400038E08AE0DBCFEFE2F3E04491442321F053
:1040500031969413FACFDBCF8317C8F24FED490F97
:104060004E35A8F64FE9490F4A3118F440EEB42E08
:10407000B90EF601E30FF11DB0823F5FBFCF89811A
:10408000803229F2322E8B01DB015B968D919C915F
:104090005C97F701948F838F16961D921D921D9247
:1040A0001C921997FB011286138614861586F80157
:1040B00082859385A485B5854389548965897689E8
:1040C00084179507A607B70708F04DC025E0B695F9
:1040D000A795979587952A95D1F7F82FFF70AF2E62
:1040E000D80115968C91823008F491CFC8010E94B6
:1040F0005F1097FD8CCFF80182859385A485B585E7
:104100004F96A11DB11D82879387A487B587F0E2E2
:10411000AF9EB001112464507A4F6115710509F406
:1041200076CFDB018C91882341F0853E09F062C097
:10413000BB2029F0BB24B394BACFB1100EC0F70155
:10414000A28A8091000290910102A0910202B09196
:10415000030286879787A08BB18BDB018C9181113D
:10416000E9CFBB24B394832D8271823109F04FCF04
:10417000BB2009F44DC0F701668577858089918958
:1041800041E00E945D08882309F441CFD70152968F
:104190008C91B0E28B9FC001112484509A4F0097FC
:1041A00009F435CFFC013A9626E1DF011D922A95EC
:1041B000E9F72BE0F601DC0101900D922A95E1F779
:1041C00021E238E2FC01318B208B40E058E0578738
:1041D0004687338B228B318F208F578B468B81E024
:1041E0000E943208882309F412CF432DD70152963A
:1041F0006C910AC04BE050E0C6010E94393B892B0C
:1042000009F055CF432D6A2DC7010E94551A00CFE2
:10421000F8018581823009F4FACEC8010E94460C6B
:10422000882309F4F4CED8015B96ED91FC915C975C
:1042300016968D909D90AD90BC901997B2E08B1A18
:104240009108A108B108858504C0880C991CAA1C96
:10425000BB1C8A95D2F786859785A089B189880E7F
:10426000991EAA1EBB1E848124013501480E511CD3
:10427000611C711C84149504A604B70409F1E1E0E3
:104280004E1A51086108710881E00E9432088823A3
:1042900009F4BDCEECEFF5E011928CEF97E08E17AC
:1042A0009F07D1F7409200025092010260920202F1
:1042B000709203028091E20581608093E205DACF7B
:1042C000D8015B96ED91FC91258580E092E0A0E01D
:1042D000B0E004C0880F991FAA1FBB1F2A95D2F710
:1042E000F8014389548965897689840F951FA61F33
:1042F000B71F838B948BA58BB68BD70152961C92DC
:104300008CEF95E04FCFEF92FF920F931F93CF93D7
:10431000DF93EC017B018A011B821A8288EE93E015
:10432000A0E0B0E08C839D83AE83BF8381E792E001
:10433000998388838DE190E00E9433399A8F898F29
:10434000009779F02DE1F701DC0101900D922A959B
:10435000E1F74CE050E0B801CE010C960E94613BC1
:10436000188EDF91CF911F910F91FF90EF900895DC
:104370002F923F924F925F926F927F928F929F9275
:10438000AF92BF92CF92DF92EF92FF920F931F9363
:10439000CF93DF93CDB7DEB7C458D1090FB6F894E9
:1043A000DEBF0FBECDBFEF969FAF8EAFEF973B0145
:1043B000C158DF4F59834883CF57D040CF57DF4F85
:1043C00039832883C158D040CD57DF4F19830883E4
:1043D000C358D04081E190E0E5969FAF8EAFE5975E
:1043E00081E090E0E7969FAF8EAFE7978FEF9FEF6A
:1043F000E9969FAF8EAFE997EB969FAF8EAFEB97A5
:104400008090170C9090180C19A218A283E592E0E6
:104410009F8F8E8F1BA21C821B829A8389831E8290
:104420006E018EE1C80ED11CC6010E945E0B5401C4
:104430008E010F5F1F4F160128016FE270E0C5016A
:104440000E944F3B009709F462C0F50120812F3292
:1044500071F4FFEFAF1ABF0A902F812F8101292E2F
:10446000382E922D832D1801092F182FE6CF8A1987
:104470008D3008F08CE0E82EF12CA701B501CE01BB
:10448000885A9F4F0E94613BE8E5F0E0EC0FFD1F6A
:10449000EE0DFF1D1082C8010E94EA0DF801858112
:1044A000882329F11EAE1DAE83E592E09CAF8BAF51
:1044B00021961FAE2197ED96EEADFFADED978E0ED6
:1044C0009F1EF401808181112FC0BE01655C7F4F6A
:1044D000CE0101960E94A30F47E952E0BE016F5F33
:1044E0007F4FCE01885A9F4F0E94832144C021E014
:1044F000AE01485A5F4FB101C8010E94D81F8823FE
:1045000089F2AE0CBF1CC1010E94EA0DAACFC50101
:1045100088199909ED969FAF8EAFED97B101CE0145
:10452000CB960E94A30FC7CF19A218A283E592E0F1
:104530009F8F8E8F1BA221968FAD2197811107C16E
:104540006C961FAE1EAE6C9788EE93E0A0E0B0E0D4
:10455000A0968CAF9DAFAEAFBFAFA09781E792E0C2
:104560006A969FAF8EAF6A97E3961FAE1EAEE39733
:10457000A5961FAEA5976C968EAD9FAD6C97909348
:104580008A0B8093890BA0968CAD9DADAEADBFAD6F
:10459000A09780938B0B90938C0BA0938D0BB09373
:1045A0008E0BA4968CAD9DADAEADBFADA4978093A0
:1045B0008F0B9093900BA093910BB093920BA8E567
:1045C000B0E0AC0FBD1F1C96E3E9FBE08D91819339
:1045D0008BE0E03AF807D1F7E396EEADFFADE39755
:1045E000F093A10BE093A00B309709F4D1C0858123
:1045F000882309F4CDC068EE72E087E89BE00E9452
:10460000AA1B64E073E087E89BE00E94AA1B64E1B8
:1046100073E0C2010E94F31DEF966EAD7FADEF9780
:10462000C2010E94401CBC0187E89BE00E94BE1BA7
:10463000C2010E94931B6CE173E0C2010E94F31D52
:10464000B301C2010E94401CBC0187E89BE00E94AC
:10465000BE1BC2010E94931B64E273E0C2010E9470
:10466000F31DC158DF4F68817981CF57D040C20117
:104670000E94401CBC0187E89BE00E94BE1BC20157
:104680000E94931BCD57DF4F68817981C358D0407A
:10469000C2010E94FA1C6EE273E0C6010E94F31D83
:1046A000CF57DF4F68817981C158D040C6010E9441
:1046B000401C67E373E00E94261CB2010E94401C6C
:1046C00066E174E00E94261CBC0187E89BE00E9422
:1046D000BE1BC6010E94931BC2010E94931B68EE81
:1046E00072E087E89BE00E94AA1B64E972E087E819
:1046F0009BE00E949B1B8091A00B9091A10B0097C7
:1047000061F00E94EA0D8091A00B9091A10B0E9494
:10471000CF391092A10B1092A00BCC57DF4F0FB6E0
:10472000F894DEBF0FBECDBFDF91CF911F910F91E7
:10473000FF90EF90DF90CF90BF90AF909F908F90C1
:104740007F906F905F904F903F902F90089527E15A
:10475000A401BE01655C7F4FCE014E960E94D81F1A
:10476000882309F4EDCECE01CB960E94EA0D49A92B
:104770005AA96BA97CA9CE014E960E94B20BBE012C
:10478000625E7F4FCE0101960E94A30FA401A6CEC8
:104790006EE373E084E798E00E949B1B67E17CE096
:1047A00084E798E00E94100563E573E084E798E0F1
:1047B0000E94AA1B0091250C1091260CC8010E9492
:1047C0004C1B60E673E0C2010E94F31D20E040E054
:1047D000B201C8010E941F1BC2010E94931B6EE61A
:1047E00073E0C2010E94F31D67E17CE0C2010E94F8
:1047F000401CBC01CE01CB960E94FA1CC2010E9453
:10480000931B10E000E021968EAD9FAD21970F968F
:104810008017910754F1E090250CF090260CBE0112
:10482000655C7F4FC6010E94FA1CA601BE016D584F
:104830007F4FCE0101960E940E1F21E040E0BE0195
:104840006F5F7F4FC7010E941F1BCE0101960E9420
:10485000931BC6010E94931B68EC70E080E090E01F
:104860000E94D0040F5F1F4FCECFCE01CB960E9487
:10487000931B53CF2F923F924F925F926F927F92F2
:104880008F929F92AF92BF92CF92DF92EF92FF9260
:104890000F931F93CF93DF93CDB7DEB7C956D109DE
:1048A0000FB6F894DEBF0FBECDBF6EE07BE0CE0149
:1048B000825A9F4F0E94BE19C090080BD090090BDE
:1048C000E0900A0BF0900B0BCE01825A9F4F0E9492
:1048D000CD15AB01BC014C0D5D1D6E1D7F1DCE01C4
:1048E000885A9F4F0E943A14CE01885A9F4F0E94C7
:1048F000E614BC01CE018E5A9F4F0E94F31D66E95B
:1049000072E0CE01845B9F4F0E94F31D66E972E066
:10491000CE018A5B9F4F0E94F31DE091E20AF09165
:10492000E30A8091040B9091050B8F3F910519F0DC
:1049300014F08FEF90E097FF02C090E080E0918349
:1049400080836091040B7091050B072E000C880B7F
:10495000990B0E942F3720E030E04FE753E40E948C
:10496000C13820E030E048EC52E40E946A376B0125
:104970007C0181E080930D0B312C212C0091E20A07
:104980001091E30AF8016081718182810E94B8036D
:1049900070E060E0F80183810E94B803F801608153
:1049A000718184810E94B80370E060E0F801858124
:1049B0000E94B8030E9403052B013C016EE07BE0DE
:1049C000CE01C4960E94BE19CE01885A9F4F0E9404
:1049D000CD154B015C01CE01C4960E94CD15861AFF
:1049E000970AA80AB90A8092080B9092090BA09224
:1049F0000A0BB0920B0B80916B0A90916C0AA091FC
:104A00006D0AB0916E0AA3019201281B390B4A0B63
:104A10005B0BDA01C901883E9340A105B10508F49A
:104A200039C140926B0A50926C0A60926D0A709282
:104A30006E0A0091250C1091260CC8010E944C1B97
:104A400046E0241631040CF0B0C08091080B909120
:104A5000090BA0910A0BB0910B0B892B8A2B8B2B86
:104A600009F4A3C06EE773E0CE0101960E94F31D26
:104A700020E040E0BE016F5F7F4FC8010E941F1B16
:104A8000CE0101960E94931B4090080B5090090B99
:104A900060900A0B70900B0BC301B20120E13EE065
:104AA00040E050E00E946838AA962CAF3DAF4EAF70
:104AB0005FAFAA972CE330E040E050E00E946838F6
:104AC0004901A6963FAF2EAFA697C301B2012CE3D2
:104AD00030E040E050E00E9468388B01CE018E96B5
:104AE0000E94A81C0A3011050CF406C206E912E067
:104AF000B401CE0188960E94A81CA6968EAD9FADEB
:104B0000A69746E9A42E42E0B42E0A9724F438E58D
:104B1000A32E34E0B32EA8966EAD7FADA897CE013C
:104B200001960E94A81CBE016F5F7F4FCE01829646
:104B30000E94FA1C6BE875E0CE0182960E94261C4A
:104B4000B5010E94261CBE01685D7F4F0E94401C7B
:104B50006BE875E00E94261CB8010E94261CBE016D
:104B6000625D7F4F0E94401CBC01CE018A5B9F4F5B
:104B70000E94E31CCE0182960E94931BCE010196F7
:104B80000E94931BCE0188960E94931BCE018E96A5
:104B90000E94931B21E040E0BE016A5B7F4F809141
:104BA000250C9091260C0E941F1BC10105970697AA
:104BB00008F067C01BA21AA21DA21CA21FA21EA25F
:104BC0008E010F5F1F4F22E044E0C701B6010E9433
:104BD0003D34BC01CE0182960E94D41C8091000B12
:104BE0009091010BE6E0E89FB001E99F700D112460
:104BF0006551754FC8010E94FA1C6FE873E0C80147
:104C00000E94261CBE016E5D7F4F0E94401C62E91F
:104C100073E00E94261CBC01CE0188960E94FA1CFB
:104C2000C8010E94931BCE0182960E94931B20E034
:104C300040E0BE01685D7F4F8091250C9091260C6D
:104C40000E941F1B0091250C1091260C68E973E04F
:104C5000CE0101960E94F31DBE016E5A7F4FCE0118
:104C600001960E94401C21E040E0BC01C8010E9466
:104C70001F1BCE0101960E94931BCE0188960E94B5
:104C8000931BFFEF2F1A3F0A2BE02216310414F07A
:104C9000312C212C8091080B9091090BA0910A0BCB
:104CA000B0910B0B892B8A2B8B2B09F028C10E940A
:104CB0008F0410920D0B0E948F040091250C10910F
:104CC000260CC8010E944C1B6AE074E0CE010196DC
:104CD0000E94F31D20E040E0BE016F5F7F4FC801DE
:104CE0000E941F1BCE0101960E94931B60ED77E08E
:104CF00080E090E00E94D0040091250C1091260CD9
:104D00006091060B7091070BCE0182960E94A81C41
:104D1000BE016E5A7F4FCE0101960E94FA1C60E9D7
:104D200073E0CE0101960E94261CBE016E5D7F4F8E
:104D30000E94401C65E174E00E94261C20E040E0D7
:104D4000BC01C8010E941F1BCE0101960E94931B4B
:104D5000CE0182960E94931BA090250CB090260C49
:104D60008091000B9091010B26E0922E989E80017D
:104D7000999E100D11240551154F68E174E0CE0184
:104D800001960E94F31DB801CE0101960E94401CBD
:104D900021E040E0BC01C5010E941F1BCE0101962D
:104DA0000E94931B68EB7BE080E090E00E94D004BF
:104DB0001DAA1CAA1FAA1EAA19AE18AE8E010F5F4B
:104DC0001F4F22E044E0C701B6010E943D34BC0100
:104DD000CE01C4960E94D41CBE016C5C7F4FCE01F4
:104DE000CA960E94FA1C60E274E0CE01CA960E9444
:104DF000261CBC01CE01805C9F4F0E94FA1C809152
:104E0000000B9091010B989EB001999E700D11249A
:104E10006551754FCE018E960E94FA1CBE01645BEF
:104E20007F4FCE0188960E94FA1CCE0182960E9486
:104E3000841DC8010E94031D015C1F4F9E01225D5D
:104E40003F4FAE01485D5F4FBE016E5D7F4FCE01AB
:104E500001960E94B821CE0101960E94931BCE01BB
:104E600082960E94931BCE0188960E94931BCE01CE
:104E70008E960E94931BC8010E94931BCE01CA9676
:104E80000E94931BCE01C4960E94931BBE01645BDB
:104E90007F4F84E798E00E94BE1B68EE73E080E0DD
:104EA00090E00E94D004CE018A5B9F4F0E94931B2A
:104EB000CE01845B9F4F0E94931BCE018E5A9F4F61
:104EC0000E94931BC759DF4F0FB6F894DEBF0FBE89
:104ED000CDBFDF91CF911F910F91FF90EF90DF90A9
:104EE000CF90BF90AF909F908F907F906F905F908A
:104EF0004F903F902F90089508E514E0F9CD83E797
:104F00009AE00E943E12823409F004C10E948F048C
:104F10000091250C1091260CC8010E944C1B64EADC
:104F200073E0CE0101960E94F31D20E040E0BE0137
:104F30006F5F7F4FC8010E941F1BCE0101960E9428
:104F4000931B0091250C1091260C65EB73E0CE01AC
:104F500001960E94F31D21E040E0BE016F5F7F4F8C
:104F6000C8010E941F1BCE0101960E94931B0E9444
:104F7000030583E79AE00E943E12813409F074C071
:104F80000091250C1091260CC8010E944C1B65EF66
:104F900073E0CE0101960E94F31D20E040E0BE01C7
:104FA0006F5F7F4FC8010E941F1BCE0101960E94B8
:104FB000931B60ED77E080E090E00E94D004609168
:104FC000060B7091070BCE0182960E94A81CBE01B1
:104FD0006E5A7F4FCE0101960E94FA1C6FE873E073
:104FE000CE0101960E94261CBE016E5D7F4F0E947D
:104FF000401C65EC73E00E94261CBC01CE01845B62
:105000009F4F0E94E31CCE0101960E94931BCE018C
:1050100082960E94931B60ED73E0CE0101960E9480
:10502000F31DBE016A5B7F4FCE0101960E94401CBA
:1050300062EE73E00E94261CFC0144815581608170
:105040007181CE01845B9F4F0E94FA1BCE010196B5
:105050000E94931B41E150E06CEE73E0CE01845B53
:105060009F4F0E94FA1B25CE833409F082CF009116
:10507000250C1091260CC8010E944C1B6EEF73E0AA
:10508000CE0101960E94F31D20E040E0BE016F5F5B
:105090007F4FC8010E941F1BCE0101960E94931BE7
:1050A00060ED77E080E090E00E94D0048090080BF3
:1050B0009090090BA0900A0BB0900B0B6EE07BE078
:1050C000CE0101960E94BE19CE0101960E94CD1517
:1050D000AB01BC01480D591D6A1D7B1DCE01829696
:1050E0000E943A1486E0FE01B296DE01A85ABF4F34
:1050F00001900D928A95E1F7CE01885A9F4F0E9448
:10510000E614BC01CE018E5A9F4F0E94D41C81E050
:1051100080930D0B64E670E080E090E00E94D00484
:105120002DCC85ED8093BC0080914C0890914D086A
:10513000A0914E08B0914F080796A11DB11D23E024
:10514000B695A795979587952A95D1F72091BC009C
:1051500024FD03C010924A08089540914C085091D4
:105160004D0860914E0870914F08452B462B472BF8
:1051700069F30097A105B10541F02AE22A95F1F7FC
:1051800000C00197A109B109E1CF80914B080C94AF
:105190006D161F920F920FB60F9211242F933F930B
:1051A0008F939F93AF93BF938091F3059091F405F4
:1051B000A091F505B091F6053091F20523E0230F9B
:1051C0002D3758F50196A11DB11D2093F20580934E
:1051D000F3059093F405A093F505B093F60580913F
:1051E000F7059091F805A091F905B091FA0501969F
:1051F000A11DB11D8093F7059093F805A093F905C3
:10520000B093FA05BF91AF919F918F913F912F91EC
:105210000F900FBE0F901F90189526E8230F02964F
:10522000A11DB11DD2CF1F920F920FB60F92112464
:105230000BB60F922F933F934F935F936F937F9390
:105240008F939F93AF93BF93EF93FF9384E798E07F
:105250000E949205FF91EF91BF91AF919F918F9125
:105260007F916F915F914F913F912F910F900BBE66
:105270000F900FBE0F901F9018951F920F920FB6B0
:105280000F9211240BB60F922F938F939F93EF934E
:10529000FF93E0918408F09185088081E0918A086D
:1052A000F0918B0882FD1DC0908180918D088F5FE9
:1052B0008F7320918E08821741F0E0918D08F0E005
:1052C000EC58F74F958F80938D08FF91EF919F9148
:1052D0008F912F910F900BBE0F900FBE0F901F90CC
:1052E00018958081F2CF1F920F920FB60F92112462
:1052F0000BB60F922F933F934F935F936F937F93D0
:105300008F939F93AF93BF93EF93FF938091B900D7
:10531000887F803609F44DC008F040C0883209F417
:10532000A9C028F5803109F49DC0C8F4882309F488
:10533000FBC0883009F496C0FF91EF91BF91AF9107
:105340009F918F917F916F915F914F913F912F919D
:105350000F900BBE0F900FBE0F901F9018958831C5
:1053600009F488C0803241F78093480814C0803423
:1053700009F49DC040F48033B9F38833E9F6809393
:10538000480885ECB0C0803509F485C0883509F43B
:1053900096C0883489F60E949128CECF883909F4C6
:1053A0008CC038F5883729F050F4883611F08037F2
:1053B00019F683E080934A081092DF0557C08838B9
:1053C00009F47BC0803919F0803809F0B5CF80919D
:1053D000DF05803208F071C0E091DF0581E08E0FBB
:1053E0008093DF058091BB00F0E0E154FA4F8083A9
:1053F0003DC0803B39F0E0F4803A09F479C0883A46
:1054000009F09ACF84E080934A081092BE0510926A
:10541000BD05E0910008F091010819958091BD0546
:1054200081110FC081E08093BD0510929D0509C0D8
:10543000803C09F4A6CF883C09F4A3CF883B09F04F
:105440007BCFE091BE0581E08E0F8093BE05F0E03A
:10545000E356FA4F80818093BB009091BE05809106
:10546000BD0529C0809125088093BB0085EC809301
:10547000BC0062CF9091470880914608981758F574
:10548000E091470881E08E0F80934708F0E0EA5DE5
:10549000F74F8081E9CFE091470881E08E0F80933C
:1054A00047088091BB00F0E0EA5DF74F8083909160
:1054B0004708809146089817C8F285E8D8CFE09150
:1054C000470881E08E0F809347088091BB00F0E091
:1054D000EA5DF74F80838091490881115CCF81E0BC
:1054E0008093240884EA8093BC0010924A0824CF59
:1054F00085EC8093BC0010924A088091DF058032D1
:1055000030F4E091DF05F0E0E154FA4F1082609151
:10551000DF0570E0E091FE07F091FF078FEB95E06B
:1055200019951092DF0508CF1092480834CFFC017E
:10553000908190539A3008F090E0818180532AE066
:10554000929F800D11240895CF92DF92EF92FF92E7
:10555000CF93DF93E4E7F8E01382128288EEC82E3F
:1055600083E0D82EE12CF12CC482D582E682F7822A
:1055700081E492E09183808385EC90E09587848735
:1055800084EC90E09787868780EC90E0918B808B0D
:1055900081EC90E0938B828B82EC90E0958B848BF6
:1055A00086EC90E0978B868B118E128E138E148E64
:1055B000E1E1F9E080E580831182E3E1F9E0158221
:1055C00016821186138682E090E0A0E0B0E0848726
:1055D0009587A687B78713A215A614A683E592E040
:1055E00093A782A717A6ECE5F9E013821282C48282
:1055F000D582E682F7828FE592E09183808386E010
:1056000090E00E943339EC0180E190E09983888337
:1056100082E090E09B838A838DE090E00E943339A2
:10562000FC011382128283E892E0918380831186C9
:1056300087E2848380E1828782E083871486FD830A
:10564000EC83D093260CC093250C10921E0C109264
:105650001D0C40E853E46DE678E38FE19CE00E9486
:105660003A14E7E8FBE013821282C482D582E68214
:10567000F78281E792E091838083128E118E1486E7
:1056800082EA9BE00E949B0262E274E081E19CE07E
:105690000E94F31D6CE274E087E19CE00E94F31D20
:1056A00088E19BE00E949B0283E79AE00E949B02B4
:1056B00083E08093E40A86E0EDE2F2E0A5EEBAE052
:1056C00001900D928A95E1F767E374E08BEE9AE022
:1056D0000E94F31D6CE374E081EF9AE00E94F31DD9
:1056E00063E474E087EF9AE00E94F31D80912A0240
:1056F00090912B02A0912C028093FD0A9093FE0AB8
:10570000A093FF0A1092010B1092000B1092030B52
:105710001092020B1092050B1092040B1092070BC3
:105720001092060B1092080B1092090B10920A0BA4
:1057300010920B0B10920C0B10920D0B10920F0B82
:1057400010920E0B8CEF99E00E949B0268E474E0CB
:1057500080E799E00E94F31D63E574E086E799E035
:105760000E94F31D6AE574E08CE799E00E94F31D46
:105770001092820983E899E0DF91CF91FF90EF903A
:10578000DF90CF900C949B02CF93DF93CDB7DEB721
:105790006E970FB6F894DEBF0FBECDBF789484B578
:1057A000826084BD84B5816084BD85B5826085BD1D
:1057B00085B5816085BD80916E00816080936E00AB
:1057C000109281008091810082608093810080919D
:1057D000810081608093810080918000816080934E
:1057E00080008091B10084608093B1008091B0000E
:1057F00081608093B00080919100826080939100DD
:1058000080919100816080939100809190008160EF
:10581000809390008091A10082608093A10080918C
:10582000A10081608093A1008091A000816080939D
:10583000A00080912101826080932101809121014B
:1058400081608093210180912001816080932001FB
:1058500080917A00846080937A0080917A008260DF
:1058600080937A0080917A00816080937A008091A1
:105870007A00806880937A001092C100E0918408D9
:10588000F091850882E08083E0918008F0918108A2
:105890001082E0918208F091830880E18083109269
:1058A0008C08E0918808F091890886E08083E09177
:1058B0008608F0918708808180618083E091860866
:1058C000F0918708808188608083E0918608F0915C
:1058D0008708808180688083E0918608F09187083E
:1058E00080818F7D80838DE19CE00E94571B8E8F8D
:1058F000811107C063E674E084E798E00E94AA1B68
:10590000FFCF0E94951990E0880F892F881F990B6F
:10591000892B09F4D2C0E4E5EE2EE3E0FE2EF70178
:105920006491662349F084E798E00E94B405FFEF94
:10593000EF1AFF0A892B99F764E972E084E798E08F
:105940000E949B1B4BE050E068E473E0CE0101969F
:105950007C010E948234CE010A960E94972AD82E9A
:10596000E981E154E33128F50E2E000CFF0B882766
:10597000E354F34D8F4F0C94B938BD2ED92CD92C4C
:10598000D12ED92CD32ED92CD92CD92CD02CD92C02
:10599000D92CC42ECF2ECD2ED92CD92CD92CCB2E10
:1059A0008A8101E0813629F08B8106E08E3609F08C
:1059B00007E0CE0105960E94972AC82E48E050E0E5
:1059C0006FE373E0C7010E948234C7010E94972AE7
:1059D000B82ECE0104960E94972AA82ECE010796D3
:1059E0000E94972A382F88E0F70111928A95E9F7EB
:1059F0002AE0832F622F0E949938982F880F890FF1
:105A0000880F830F8A838A2D0E949938982F880FD8
:105A1000890F880F8A0D8B838B2D0E949938982FC0
:105A2000880F890F880F8B0D8C834C2D602F8D2D47
:105A300090E00E94BA14069667E070E00E94A538D4
:105A4000811101C087E08D832AE08C2D622F0E9496
:105A50009938982F880F890F880F8C0D8E83802F8F
:105A60000E949938982F990F890F880F080F0F837C
:105A70008D2D0E949938982F880F890F880F8D0DD2
:105A8000888721E048E050E0B70180911D0C90919B
:105A90001E0C0E9440180E9495199FE09C878F77EA
:105AA0008D8721E042E050E0BE01645F7F4F80912E
:105AB0001D0C90911E0C0E944018A090250CB090D7
:105AC000260CF501E480F5800E945616F701158238
:105AD0008385823010F098E09583F701808762E338
